:020000040000FA
:0600000002011D021D6A51
:03002B000221B5FA
:0300330002219710
:03005300021DE0AB
:03006B0002216E01
:10008300021C5BE5C754F84401F5C779012200005F
:100093000080FB120086B90003020107E47921788E
:1000A30008B800028004F709D8FCE479297802B87B
:1000B30000028004F709D8FCE490028178C879072C
:1000C3008002F0A3D8FCD9FA781A90014D7A01BACC
:1000D30000028007E493A3F608DAF9900948AA829C
:1000E300AB8390014E780379048015E493A3AC822B
:1000F300AD838A828B83F0A3AA82AB838C828D83A8
:10010300D8E9D9E77582FE758399740312012F75B7
:100113008291758300740012012F75D00075813FA1
:10012300751881751902759F00020096C09FF59F8F
:10013300E473D09F22D083D082C09FE493C0E07445
:100143000193C0E0740293F59F2201FF0000B40005
:100153000028002800283075A000A000A000A000FF
:1001630000080008E001F00010001000100010006B
:100173001000100050005000500010001000D00775
:100183000000000000000F000100050030750700AB
:100193001000010081FF0000FF4E066C065406FFAD
:1001A30002020208025000A0000000E803029C9231
:1001B3000100007E9202BE920100009D090294920A
:1001C300010000B20202BE920100009E0902929257
:1001D300010000C80202BE920100009F0902909232
:1001E300010000CA0202BE92010000A009028E9221
:1001F300080000CB0202BE92010000A109028A920C
:10020300010000A209FF0100FF20029C92010000EF
:100213007B9202BE92010000060A028C920000004B
:10022300000002969203000018037E0C7E0C7E0CE5
:100233007E0C7E0C7E0C7E0C7E0C7E0C7E0C7E0C6B
:100243007E0C7E0C4E0F660F480FFFFF0202020268
:100253000202020202010D0000001001029C920141
:100263000000879202BE92010000490A02B4920183
:100273000000780702BE920100004A0A02B292010E
:1002830000005C9102BE920100004B0A02B0920191
:100293000000419102BE920100004C0A02AE92019D
:1002A30000007E9002BE920100004D0A02AC920152
:1002B3000000909002BE920100004E0A02A8920133
:1002C30000006C9002BE920100004F0A02A6920148
:1002D30000005A9002BE92010000500A02A492014B
:1002E3000000339102BE92010000510A02A2920162
:1002F3000000520A01E803053F10FF0001307503B7
:1003030002010600000000000000000000000000E1
:10031300000000000000000000000000000000FFDB
:10032300FF0600800CE803140953696D706C654285
:100333004C455065726970686572616C05125000B6
:100343002003020A000201060302F0FF53696D70E5
:100353006C6520424C452050657269706865726116
:100363006C8C1300009E13A41392130A43686172EA
:100373006163746572697374696320310002436851
:100383006172616374657269737469632032000812
:10039300436861726163746572697374696320335E
:1003A3000010436861726163746572697374696391
:1003B3002034000243686172616374657269737407
:1003C3006963203500029C92010000819202BE9273
:1003D300010000680B02C2920300003909029892DF
:1003E300010000690B02BE920100007A0B02C49265
:1003F3000100003A090298920100007B0B02BE92B1
:100403000100008C0B02AA920200003B09029892A1
:100413000100008D0B02BE920100009E0B02B892F8
:100423000000003C090296920300003D09029892E5
:100433000100009F0B02BE92010000B00B02BC92B0
:100443000400004309029892010000B10B12013825
:100453001D8E03120138348E03120138638E03128A
:1004630001389C8E03120138C48E03120138F28EB8
:1004730003120138098F03120138208F0312013848
:10048300368F031201385D8F03120138708F031208
:100493000138868F03120138998F03120138BE8FFA
:1004A30003120138A097021201389F9802120138F3
:1004B300D49802120138F5980212013805990212F4
:1004C3000138269902120138329A02120138FF9A32
:1004D30002120138729B02120138F89B0212013892
:1004E3003B9C02120138729C02120138F89C0212E2
:1004F3000138CA9D02120138289E02120138409E1B
:1005030002120138BA9E02120138BD9E021201384E
:10051300C09E02120138679F021201387F9F0212A8
:100523000138AF9F02120138CF9F02120138BDA0DC
:100533000212013873A10212013834DE02120138AB
:100543005CDE021201388ADE02120138C1DE0212B9
:10055300013829DF0212013872DF02120138BDDFD0
:1005630002120138FBDF0212013838E002120138AF
:1005730066E0021201380DE10212013817E102129E
:10058300013824E10212013857E10212013819E25D
:100593000212013825E2021201383DE2021201384B
:1005A30047E2021201382D97031201383B970312D9
:1005B30001385397031201386B970312013850B176
:1005C30001120138EEB10112013866B2011201388D
:1005D3007BB301120138B5B3011201385EB40112C5
:1005E300013833B50112013897B601120138EEB65E
:1005F3000112013875B7011201385CB801120138D4
:10060300A9B80112013837B9011201385BB90112D7
:10061300013830BB0112013871BB0112013893BBA1
:100623000112013814BC01120138FEBC0112013859
:10063300C4BD0112013809C202120138DBC2021221
:10064300013884C302120138C7C30212013854C4EB
:1006530002120138E0C402120138C1C50212013886
:10066300F0C502120138ECC60212013834C7021277
:10067300013836C8021201387AC802120138A0C8FC
:1006830002120138999803120138F8F30212013863
:100693000EF40212013834F4021201385CF502122E
:1006A300013866F502120138BFF602120138BFF7AE
:1006B30002120138A2CF02120138D7D00212013838
:1006C3000AD10212013854D10212013812D3021294
:1006D3000138CB92011201382E9301120138739421
:1006E30001120138839401120138A69401120138D2
:1006F300F194011201389695011201388C9601127A
:100703000138569701120138CE9801120138109919
:1007130001120138AE9901120138FB990112013817
:10072300219A011201380F9C01120138149C011205
:100733000138F59D01120138499E01120138AB9E23
:1007430001120138D39E01120138779F011201383B
:1007530039A0011201386AA0011201386DA00112FB
:100763000138B5A001120138F7A0011201385EA1CA
:1007730001120138D88503120138EB8503120138C1
:100783000486031201384F86031201382A870312A5
:100793000138B98703120138048803120138E421B0
:1007A30000120138F0210012013829220012013809
:1007B3006E2200120138252300120138AB230012E8
:1007C30001381024001201383C240012013875242A
:1007D30000120138892600120138652800120138F9
:1007E300502A00120138872B00120138E72D00121E
:1007F3000138D32E00120138193000120138263186
:10080300001201384331001201387B3100120138E4
:10081300953100120138FD3100120138973600126C
:100823000138383700120138893700120138B037E0
:1008330000120138FE37001201381C38001201384B
:10084300703800120138493900120138D03A0012C9
:100853000138583B001201388AD90212013894D961
:10086300021201385FDA021201387ADA0212013811
:10087300A0DA02120138E4DA021201381CDB021298
:10088300013845DB02120138BEDB02120138D3DB2B
:1008930002120138E8DB021201381FDC02120138B0
:1008A30033DC0212013864DC021201389EDC0212CE
:1008B3000138CADC0212013820DD0212013874DD6E
:1008C30002120138BDDD02120138E7DD02120138E0
:1008D3000CDE021201380CF002120138D6F00212BB
:1008E3000138B9F1021201382FF20212013871F204
:1008F300021201389EF302120138008002120138FD
:1009030029800212013842800212013887810212C3
:100913000138658202120138848202120138118380
:1009230002120138548302120138A18402120138E1
:10093300408502120138BF8702120138568802121D
:1009430001382A89021201380C8A02120138788B85
:10095300021201380B8C02120138ABFE021201386D
:1009630014FF0212013868FF021201388FFF0212CE
:10097300013869E702120138D6E70212013821E88B
:100983000212013816E90212013812EA0212013882
:10099300FCEA02120138DEA10212013820A202127F
:1009A3000138FAA202120138D3A302120138CEA4ED
:1009B30002120138ADA50212013819A6021201383C
:1009C300E0A6021201384BA702120138B2A70212A5
:1009D3000138DDA7021201384EA802120138E1A83E
:1009E300021201384AA9021201385FA90212013822
:1009F300A7A902120138C0A90212013825AA0212BE
:100A0300013828AA02120138008003120138288015
:100A1300031201386680031201382481031201385E
:100A23008F8103120138AB8103120138D381031282
:100A330001380382031201381282031201388C82B7
:100A430003120138B2820312013828A201120138BD
:100A5300C5A301120138ABA50112013875A6011215
:100A63000138BCA60112013803A70112013815A7EA
:100A73000112013855A70112013884A70112013868
:100A8300D0A70112013808A80112013836A80112B3
:100A9300013887A80112013816A90112013804ACE4
:100AA30001120138DEAD011201381AAE011201380C
:100AB30074AF01120138BBAF0112013830B001121B
:100AC30001387EB001120138B5B00112013841F688
:100AD300011201385EF601120138F8FB01120138E8
:100AE300FAFC0112013874FE0112013822FF0112CF
:100AF30001382550001201386E50001201389B5006
:100B030000120138CE5000120138DB5000120138B8
:100B1300E75000120138F95000120138CE5100128B
:100B230001382C5200120138615200120138FD5372
:100B3300001201384A54001201386E540012013871
:100B4300DB54001201388055001201383C56001264
:100B53000138BB56001201387F57001201388E57F7
:100B6300001201380F5800120138AE580012013834
:100B7300E058001201387B5900120138D95900128C
:100B83000138135A00120138945A001201385D5B80
:100B930000120138065C001201388D5C0012013826
:100BA300E55C00120138465D001201386F5D0012EA
:100BB3000138255E001201386F5F00120138B25F01
:100BC30000120138CF5F00120138EE5F00120138C6
:100BD3003960001201385E6000120138876000122C
:100BE3000138F660001201383861001201383C62A6
:100BF30000120138D66200120138A26300120138D4
:100C0300BB63001201383D76001201389076001262
:100C130001389C76001201387177001201389877F9
:100C230000120138D377001201383F7800120138DF
:100C3300737800120138AC7800120138C4780012BE
:100C430001381D79001201383679001201387F7995
:100C530000120138927900120138AC790012013880
:100C6300C27900120138DE7A00120138EF7B0012DC
:100C730001383C7D00120138217E00120138FC7FCF
:100C8300001201385BE9011201388FE901120138C2
:100C9300FAEC0112013844EE011201380EEF011291
:100CA300013898F00112013873F101120138ADF1E6
:100CB30001120138D0F10112013812F20112013888
:100CC3001BF20112013865F2011201386FF20112B1
:100CD30001381BF301120138EFF30112013843F419
:100CE30001120138A5F401120138F8F40112013898
:100CF30027F50112013866F501120138ED63001280
:100D03000138476C001201384D6C0012013808722B
:100D130000120138EE75001201385DFB0212013832
:100D2300D3FB02120138E9FB0212013826FC02123E
:100D330001385EFC02120138DBFC0212013816FD99
:100D43000212013891FD02120138CDFD0212013861
:100D5300D6FD02120138E2FD02120138FCFD021237
:100D6300013821FE0212013837FE021201387BFEE0
:100D730002120138C8D402120138DBD4021201383E
:100D8300F5D4021201381ED50212013861D50212C0
:100D93000138A0D502120138DED50212013843D63C
:100DA3000212013858D60212013863D602120138F2
:100DB30070D60212013887D60212013895D6021274
:100DC3000138A0D602120138ACD602120138BFD6C0
:100DD30002120138CAD602120138EDD602120138C6
:100DE30096D702120138A6D702120138C0D70212D1
:100DF3000138DDD702120138F9D7021201381ED8A3
:100E03000212013828D8021201383CD802120138E4
:100E13005BD802120138BCD802120138C2D80212C0
:100E23000138C8D802120138CED802120138DAD8F4
:100E3300021201380DD9021201387CCE0112013899
:100E4300FECE01120138A7CF01120138EFD00112F3
:100E53000138FDD201120138E3D30112013818D44D
:100E6300011201383AD401120138E3D401120138D6
:100E7300B3D601120138DCD60112013854D701125E
:100E8300013886D70112013893D701120138DED712
:100E93000112013802D80112013853DA0112013864
:100EA3005DDB01120138B9DB01120138F9BF011210
:100EB30001380AC101120138EEC101120138F8C12B
:100EC300011201381AC20112013826C20112013877
:100ED300CAC301120138F7C3011201380DC501124B
:100EE300013862C501120138B1C60112013886C743
:100EF30001120138E2C7011201384DC8011201384D
:100F030082C801120138C5C8011201388FCB011202
:100F13000138A7CB0112013838CC0112013846CC75
:100F23000112013893CC01120138A1CC011201380E
:100F33000DCD0112013888CD01120138DFCD011228
:100F43000138828C02120138A48C02120138B58E4A
:100F5300021201387491021201389E920212013872
:100F63005C9302120138489402120138648C031214
:100F73000138898C03120138FF8C03120138ECBA53
:100F830002120138F5BA02120138FEBA0212013810
:100F9300D6BB0212013887BD02120138B7BD021257
:100FA3000138E2BD0212013812BE021201383DBE01
:100FB3000212013871BE021201389DBE02120138BD
:100FC300E0BE021201380BBF0212013852BF0212F7
:100FD3000138A7BF02120138E9BF0212013843C02A
:100FE300021201386EC002120138BDC0021201386C
:100FF300EDC00212013818C10212013846C10212B3
:10100300013869C1021201382299031201384E993D
:10101300031201387B9903120138859903120138B1
:101023009599031201384CAA0212013856AA0212EA
:10103300013894AA02120138DDAA0212013817AB53
:101043000212013871AB0212013892AB021201385D
:101053006AAE0212013873AE02120138C0AE021238
:101063000138E9AE02120138F3AE021201385FAF64
:1010730002120138F1AF021201383BB002120138FB
:1010830071B002120138FDB0021201383EB10212F2
:10109300013875B10212013887B102120138A6B1C5
:1010A30002120138AFB1021201387CB202120138C8
:1010B300599503120138738A03120138A98A03125E
:1010C3000138DF8A031201382A8C0312013804988D
:1010D300031201381A9803120138249803120138B5
:1010E3006E98031201389F9903120138DCE2021251
:1010F3000138F1E202120138A1E302120138E1E3FF
:1011030002120138FAE30212013835E402120138FF
:1011130082E402120138B4E402120138F6E4021246
:101123000138F7E602120138DE9203120138079301
:1011330003120138369303120138CE930312013898
:10114300109403120138FA82031201381F83031229
:101153000138498303120138569A03120138BF3B01
:10116300001201389C3D00120138423F0012013841
:10117300F63F00120138804000120138014100128D
:1011830001382A41001201387C41001201383A45E6
:1011930000120138C04500120138E7460012013839
:1011A300214700120138624700120138AA48001291
:1011B3000138074900120138504900120138BB4970
:1011C300001201382C4A001201385E4A001201381D
:1011D300764A00120138A24B00120138B24B0012BA
:1011E30001385C4D00120138734D00120138A54DD2
:1011F30000120138594F00120138E64F001201382E
:1012030044FF0112013855FF01120138AC9A031251
:101213000138EB9A03120138499B031201385096A7
:1012230003120138609603120138759603120138D0
:10123300279703120138559403120138DA940312E5
:1012430001384095031201386491031201388D91DE
:1012530003120138F891031201384992031201383D
:10126300A49203120138BEEB02120138F7EB02120B
:10127300013869EC021201387EEC02120138A9ED43
:101283000212013825EE02120138EBEE0212013888
:101293000AEF0212013831EF021201386EEF021227
:1012A300013886EF02120138D7EF021201385A9B38
:1012B30003120138D92100120138D08F03120138EB
:1012C300229003120138959003120138FE90031205
:1012D30001382E88031201385888031201382689F1
:1012E30003120138018A03120138AAB2021201382B
:1012F30071B302120138A8B302120138D2B3021239
:10130300013832B40212013888B402120138EDB444
:101313000212013885B50212013894B6021201385F
:101323002BB802120138B8B8021201381FB90212E1
:10133300013836B90212013850BA021201388EBA96
:101343000212013806DC0112013853DF01120138A1
:10135300CFE00112013826E10112013843E1011205
:101363000138C5E10112013848E3011201382DE4C7
:1013730001120138E2E701120138B8E8011201381D
:1013830015C90212013890CB0212013872CC021235
:10139300013897CD021201380ACE021201388BCEE2
:1013A3000212013829CF02120138C9F7021201389B
:1013B3000EF8021201382BF802120138E1F802127A
:1013C300013834F9021201380AFA0212013824FBF7
:1013D30002120138F59A03120138C0FF02120138D4
:1013E300219B03120138DE7F00E066701008A3E042
:1013F30066700A08A3E066700408A3E06622C3E7E8
:10140300960809E7960809E7960809E79622C3E0D4
:101413009608A3E09608A3E09608A3E09622C008E6
:10142300C3E096F50808A3E096420808A3E09642B5
:101433000808A3E09645087001D3D00822080808DD
:10144300EAC0E0EBC0E086F0E7A4FA180986F0E70B
:10145300A42AFA180986F0E7A42AFA180986F0E7FD
:10146300A42AFA1986F0E7A4FBE5F02AFA190886FC
:10147300F0E7A42BFBE5F03AFA190886F0E7A42B72
:10148300FBE5F03AFA18180986F0E7A4C5F02BFB40
:10149300E43AFA1908E7C5F0C6A426F6E5F03BFBE3
:1014A300E43AFA1886F0E7A4F6E5F00826F6E43BFA
:1014B30008F6E43A08F6D0E0FBD0E0FA22E4CFC025
:1014C300E0E4CEC0E0E4CDC0E0E4CCC0E075F020C1
:1014D300C3E633F608E633F608E633F608E633F6F2
:1014E300181818EC33FCED33FDEE33FEEF33FFC376
:1014F300EC9709ED9709EE9709EF97191919400F22
:10150300FFEC97FC09ED97FD09EE97FE191906D537
:10151300F0BEECF709EDF709EEF709EFF719191922
:10152300D0E0FCD0E0FDD0E0FED0E0FF2260160862
:101533000808C6C313C618C613C618C613C618C6EA
:1015430013C6D5E0EA2270090808082260161818A5
:1015530018C6C333C608C633C608C633C608C6335F
:10156300C6D5E0EA22E627F60809E637F60809E6D3
:1015730037F60809E637F622E026F608A3E036F642
:1015830008A3E036F608A3E036F622E026F008A327
:10159300E036F008A3E036F008A3E036F022C3E615
:1015A30097F60809E697F60809E697F60809E69715
:1015B300F622C3E096F008A3E096F008A3E096F0C5
:1015C30008A3E096F022E056F608A3E056F608A337
:1015D300E056F608A3E056F622E056F008A3E056DC
:1015E300F008A3E056F008A3E056F022E0F608A3C3
:1015F300E0F608A3E0F608A3E0F622E6F008A3E687
:10160300F008A3E6F008A3E6F022E0FAA3E0FBA3C8
:10161300E0FCA3E0FD22EAF0A3EBF0A3ECF0A3EDE2
:10162300F022CAC0E0E6F0A308DAFAD0E0FA22CA50
:10163300C0E0E0A3C582CCC582C583CDC583F0A33A
:10164300C582CCC582C583CDC583DAE6D0E0CA2284
:10165300C3E498F8E499F91216948026C3E49AFA3D
:10166300E49BFBE920E7E9121694E498F8E499F97E
:1016730022C3E498F8E499F9121694E498F8E499EB
:10168300F9C3E49AFAE49BFB22EB20E7CFE920E7D6
:10169300E0B90010BB0008E88AF084F8AAF022E45D
:1016A300FBC8FA22EB70227B10C833C8C933C93395
:1016B3005007C39AC3DBF280069A50012ADBEAC8BB
:1016C30033F4C8C933F4C9FA2275F008E4C833C83F
:1016D300C933C933C99AC99B5004C92AC93BD5F038
:1016E300ECFBC833F4C8E4C9FA22600D08C6A2E7CC
:1016F30013C618C613C6D5E0F322600C08C6C3137D
:10170300C618C613C6D5E0F422700422600D18C6AD
:10171300C333C608C633C6D5E0F41822251810AF64
:1017230008F518400215198008F51840021519D25A
:10173300AF22C0D0251810AF08F518500205198044
:1017430008F51850020519D2AFD0D0222518F5821A
:1017530010AF08F518400215198008F51840021556
:1017630019D2AF851983222518F582E43519F5833B
:1017730022E4732518C582C0E0E51934FFC583C090
:10178300E0E518C3958224F810AF08858319858294
:10179300188008858319858218D2AFCEF0A3E5207F
:1017A300F0A37808E608F0A3DEFAEFF0A3E58124BE
:1017B300FAF8E608F0A3E608F0A3E608F0A30808A1
:1017C300E608F0A3E608F0A315811581D0E0FED06A
:1017D300E0F8158115811581E8C0E0EEC0E022250F
:1017E30018C582C0E0E51934FFC583C0E0E518C31E
:1017F300958224F910AF088583198582188008859E
:101803008319858218D2AFCEF0A3E520F0A3780820
:10181300E608F0A3DEFAEFF0A3E58124FBF8E6087F
:10182300F0A3E608F0A30808E608F0A3E608F0A38F
:1018330015811581D0E0FED0E0F815811581E8C04F
:10184300E0EEC0E022851983851882E0A3FEE0A3C1
:10185300F5207808E0A3F608DFFAE0A3FFE0A3C0D1
:10186300E0E0A3C0E0E0A3C0E0E0A3C0E0E0A3C0E9
:10187300E010AF0885821885831980088582188552
:101883008319D2AFD083D08202013585198385189D
:1018930082E0A3FEE0A3F5207808E0A3F608DFFAD0
:1018A300E0A3FFE0A3C0E0E0A3C0E0E0A3C0E0E06A
:1018B300A3C0E010AF08858218858319800885824C
:1018C30018858319D2AFD083D08222C0D02518C502
:1018D30082C0E0E51934FFC583C0E0E518C39582F3
:1018E30024F310AF0885831985821880088583192E
:1018F300858218D2AFC8F0A3E9F0A3EAF0A3EBF016
:10190300A37908E709F0A3D8FAECF0A3EDF0A3EE6E
:10191300F0A3EFF0A3D0E0F0A3D0E0F0A3D0E0F089
:10192300A3E520F0A3E5F0F0A322851983851882AF
:10193300E0C0E0A3E0F9A3E0FAA3E0FBA37808E0AA
:10194300F608A3DFFAE0FCA3E0FDA3E0FEA3E0FFBB
:10195300A3E0C0E0A3E0C0E0A3E0F5D0A3E0F5205E
:10196300A3E0A3F5F010AF088583198582188008DA
:10197300858319858218D2AFD082D083D0E0F8D086
:10198300E03274048006740280027401C0E0F4043F
:1019930012174FD0E01216252274048004740280BB
:1019A30000CCC0E0EDC0E0E518C39CCCAD195001FC
:1019B3001D10AF068C188D1980068C188D19D2AFA7
:1019C300121632D0E0FDD0E0FC22D083D082E9C0F1
:1019D300E0E493A3C386F0C5F095F0F908E493A37C
:1019E30086F0C5F095F0700BE493A3C3994005E925
:1019F300048002A3E475F002A42582F582E5F035A4
:101A030083F583D0E0F9E493A3C0E0E493C0E0223C
:101A1300D083D082ECC0E0EDC0E0E493A3FCE49378
:101A2300A3FDED4C600D121A5FEC24FFFCED34FFB7
:101A3300FD80EFE493A3FCE493A3FDED4C600D1252
:101A43001A9EEC24FFFCED34FFFD80EFD0E0FDD0C7
:101A5300E0FCE493A3C0E0E493C0E022C0E0C3E46D
:101A63009396087401939618400FE49366700808E0
:101A7300740193661870007019A3A3C3E4939608C6
:101A83007401939618A3A3400DD0E0D0E0D0E002F8
:101A93001A4FA3A3A3A3A3A3D0E022C0E0C0F0885E
:101AA300F0E4936670080874019366187000A8F058
:101AB300A3A3700BD0F0D0E0D0E0D0E0021A4FA384
:061AC300A3D0F0D0E022E8
:101ACC0074F51217E2EAFEEBFFEE2434F8EF340063
:101ADC00F988088909EE2435121C04F8EE24371213
:101AEC001C04F50AEC850AF0A4FCAAF0850AF0EDBA
:101AFC00A42AFDE82CF8E43DF97A257B0012169413
:101B0C00EA850882850983F05407F87401B800024D
:101B1C008004C333D8FCC0E0E0131313541FF8EE59
:101B2C0028F8EF3400F9E8245DF582E93400F583F8
:101B3C00D0E0F8E0586008850882850983801DEEA6
:101B4C002436121C04F5F0EA84A8F0EE28F8EF34E1
:101B5C0000F9E82438F582E93400F583E0F97F04D4
:101B6C0002188E74F51217E2EAFEEBFFEE24341223
:101B7C001C04C0E0EE2435F582EF3400F583D0E090
:101B8C00F08E828F83A3A3A3A3A3E0FAA3E0FB8E22
:101B9C00828F83A3A3A3A3A3A3A3E0FCA3E0FDECE8
:101BAC00C39AF50AED9BF50BEE2480F508EF340093
:101BBC00F509850882F583E06401702BEE2481F52C
:101BCC0082EF3400F5831219A0121C0D7402121747
:101BDC0035E960137CFD7D04EEFAEFFB120BAC854E
:101BEC000882850983E4F0AC0AAD0BEEFAEFFB1228
:101BFC001ACC122160021B6AF582EF3400F583E0E7
:101C0C0022C082C083851882851983E0F8A3E0F98D
:101C1C00C3EA9CEB9D5012C3EC98ED994019C3EAB2
:101C2C0098EB99501279018010C3EA98EB9940F522
:101C3C00C3EC98ED9950EE7900D083D08222EAC3A0
:101C4C009CFAEB9DFB2200008521878522C622C0D1
:101C5C00E074EF1218CE759B00906182E0A2E64012
:101C6C0003021D1CE591A2E64003021D1C7591BFE9
:101C7C009003C2E064057008120D4A120D568003E1
:101C8C00120D50752100120DBCE99003C3F07900C0
:101C9C00120DB0120B167A017B009003C1E0F91201
:101CAC001086907803E064426003021D6590055F26
:101CBC00E014F06003021D65C2AF121CC900782A43
:101CCC00D0E0F618D0E0F6E59F5407F97005909235
:101CDC0017800390925B78081215EFE9C4C0E07886
:101CEC0029E65508F50808E65509F509740B780836
:101CFC001216FDD0E02508F8906270E0A2E740F8DB
:101D0C00E8C333906272F0906270E0D2E0F08049E8
:101D1C00E0A2E55024E591A2E5501E7591DF9003F9
:101D2C00C2E0640D70139003E4E004F064287002C8
:101D3C00E4F07A00E0F9120E2E906181E0A2E350FB
:101D4C0009E5E9A2E3500375E9F7A3E0A2E750091E
:101D5C00E591A2E7500375917F7F0402192DC0E035
:101D6C00C0D0C082C083906183E0A2E05009E5BF7F
:101D7C00A2E0500375BFFEE0A2E15009E5BFA2E16D
:101D8C00500375BFFDE0A2E25009E5BFA2E250038B
:101D9C0075BFFBE0A2E35009E5BFA2E3500375BF9A
:101DAC00F7E0A2E45009E5BFA2E4500375BFEFE0F1
:101DBC00A2E55009E5BFA2E5500375BFDFE0A2E63E
:101DCC005009E5BFA2E6500375BFBFD083D082D0C7
:101DDC00D0D0E032C0E074F21218CEE5A7A2E450E5
:101DEC000FE5A1A2E4500953A7EF75A1EF121E3421
:101DFC00E5A7A2E5500CE5A1A2E5500653A7DF75B7
:101E0C00A1DFE5A7A2E15009E5A1A2E1500375A16C
:101E1C00FDE5A7A2E2500CE5A1A2E2500653A7FBF8
:101E2C0075A1FB7F0102192D74F81217E2752101BF
:101E3C009003C2E0640670077A007B00120D32A298
:101E4C00AFE433FED2AF9003C8E0640170187A207F
:101E5C007B009003C1E0F91211107A207B009003F3
:101E6C00C1E0F912108C906182E0D2E6F090055E30
:101E7C00E0602185C62280169003C7E064017008DB
:101E8C00E5C654F84405F5C653BEFC121C54740147
:101E9C00652160E4EEA2E092AF7F0102188E000093
:101EAC008E238F2485822885832785188285198324
:101EBC00E0CEA3E0CF852882852783EBC9EAC8ED65
:101ECC00CBECCA75F010C3E833C8E933C9EA33CA9E
:101EDC00EB33CBC3EA9EF526EB9FF525B35004AB51
:101EEC0025AA26EC33CCED33CDD5F0DAAE23AF24D6
:101EFC002274F11217E28A088B098C0A8D0B740F6D
:101F0C0012176A780C1215EF90922F78081215C9D7
:101F1C0090922F780C1215C97808790C1214015074
:101F2C00157808790C1215A190923B78081214219F
:101F3C00401579018013780C79081215A190923B09
:101F4C00780C12142140EB79007F0802188E74ED86
:101F5C001217E28A088B098C0A8D0B741312176AFC
:101F6C00780C1215EF90922F78081215C990922FB9
:101F7C00780C1215C9780C790812140140117808E4
:101F8C00790C1215A1AA08AB09AC0AAD0B8022750D
:101F9C0010007511007512007513017810790C1270
:101FAC0015A178107908121568AA10AB11AC12ADF6
:101FBC00137F0C02188E90922F78081215EF8A82DC
:101FCC008B8378081215DC7F0402188E74F51217B7
:101FDC00E28C828D8378081215EF8A828B837808C5
:101FEC001215B512202CC3E098F0A3E09912201E14
:101FFC00401E90927378081215EF8A828B837808B2
:10200C0012158E8E828F83E02420F0A3E0344EF0E4
:10201C0080A4F08E828F83C3E09420A3E0944E22A0
:10202C00EA2404F8EB3400F9E8FEE9FF8C828D8396
:10203C00A3A3A3A3E0F8A3E0F98E828F832274F507
:10204C001217E2E9FE900514E0FAA3E0FBEEC333AD
:10205C00F8E433F9740428F582749139F583E02A95
:10206C00F508A3E03BF509780812198990925F12E4
:10207C00160D121EAC74021217358A088B098C0AC5
:10208C008D0B74107808121530AA08AB097F040266
:10209C00188E74F11217E28A0C8B0D8C0E8D0F7446
:1020AC000F12176AE0FAA3E0FB741112176AE0F53D
:1020BC0008A3E0F509741312176AE0FEA3E0FF7899
:1020CC0008121989EA2401F508EB3400F509E4F546
:1020DC000AF50B780C790812144090923778081294
:1020EC0015EF780C7908121440AA0CAB0DAC0EADA0
:1020FC000F121EAC74021217358B09EA45096004E5
:10210C007A0180027A00EC2AFCED3400FDECF8ED4B
:10211C00F97A717B0212169488088909E4F50AF59C
:10212C000B8E828F8378081215FEECF8EDF97A711C
:10213C007B021216948A088B097405780812170C06
:10214C008E828F83A3A3A3A3E508F0A3E509F07FF8
:10215C000802188EC082C083E9906000F0D083D052
:10216C008222C0E074F21218CEA2AFE433FED2AFDA
:10217C00E589A2E15003121260758900C2C5751A77
:10218C0000EEA2E092AF7F0102192DC0E074F212B2
:10219C0018CEA2AFE433FED2AFE58BA2E05003120F
:1021AC001260758B00C2E880D5C0E0C0D0E8C0E0FA
:1021BC00E9C0E0E5A8D2AFC2C7751A00A2E7A2E752
:1021CC0092AFD0E0F9D0E0F8D0D0D0E032020135B7
:1021DC00FFFFFFFFFFFFFFFFC082C083E9900A05EE
:1021EC00F002246874F7121776E99002E0F07C187C
:1021FC007D037AFF7BFF12082E9002E174FFF0A39F
:10220C00F0A3E4F0A3F079051207B69002E0E0F930
:10221C001206DE7A4C7B08120A0E02317674F41226
:10222C0017768A088B09EB548060309002E0E0F955
:10223C0012106E8A0A8B0BAE0AAF0BEE4F60138E28
:10224C00828F83E064B070031207CEEEFAEFFB12BC
:10225C00105CAA08E5096480FB80047A007B00020C
:10226C00243774F212177674FC12171FEAFEEBFF78
:10227C00741212176A12365DEE4F7003022311743A
:10228C000212176AEEF0A3EF122672ECF0A3ED1215
:10229C002672AA82AB831206D8E9F50A706AE508A1
:1022AC00450960648E828F83123643EE4F60567AF6
:1022BC00067B001210C28A0C8B0DA80CA90DE849E4
:1022CC007005750A13804188828983E412231EEEFF
:1022DC00F0A3EF12366EE508F0A3E509F09002E6E4
:1022EC001223A59002E67005123120801B12310ECC
:1022FC008003EAFCEBFD8C828D831223A570F38C9A
:10230C00828D8380E3750A02A90A740412173502C0
:10231C00385DF0A3123614A32274F2121776890AD0
:10232C00E975F017A4FEAFF09002E5E4F09002E33B
:10233C001223A5600A1210C89002E3E4F0A3F0EE99
:10234C00FAEFFB1210C28A088B09EA4509602FEEDE
:10235C00FCEFFD79001210449002E3E508F0A3E5D0
:10236C0009F07B00800812238FE4F0A3F00BEBC381
:10237C00950A40F2E50A9002E5F0790080027913A3
:10238C0002385DEB75F017A4F8A9F09002E3E02891
:10239C00FAA3E0398A82F58322122DB2EA4B227419
:1023AC00F4121776740C12176A123638FEE9FF75A0
:1023BC000800750900800CE5082401F508E50934CE
:1023CC0000F509C3E5089CE5099D503285080A858E
:1023DC00090B7403780A12170CEA250AF8EB350B73
:1023EC00F988828983A3A3A3A3A3A31231F5EE6575
:1023FC000A7003EF650B70BFE8FAE9FB80047A0002
:10240C007B00802774F41217767900EAA2E0501B47
:10241C007508E275099178081219897C047D007A97
:10242C00077B0A1207B074021217357F0402184892
:10243C00C082C0839002E612246F601C888289835C
:10244C00A3A3E06A7003A3E06B8882898370E8A37E
:10245C00A3A3A3122DAE80047A007B00D083D0827C
:10246C00020135123943E8492274EE12177674FCD6
:10247C0012171FEAFEEBFF851882851983E4F0A37F
:10248C00F0EE2402123100EE240512361BEE240469
:10249C00F50EEF122A27E024FE603924FC60462456
:1024AC00FE605224FE605E24FE700302258824FE2A
:1024BC0070030225EC24FE70030225FB24FE70033E
:1024CC0002260A24FC700302261924FE700302263D
:1024DC00280226659002FF7417F0A3E412267A12E4
:1024EC000456022665851882851983AC82AD831249
:1024FC0007D4022635851882851983AC82AD8312E8
:10250C0007DA022635850C08850D09740212176A44
:10251C00AC82AD83850882850983122DAE1206FC30
:10252C008A0C8B0DAC0CAD0DEC4D603BE4F50CF551
:10253C000D780C121989750CFF750D02780C121997
:10254C0089750C00750D03780C1219897408121713
:10255C006A1219A0123ABF121735E9F50C700B125A
:10256C002DA412046E800F750C01850882850983D9
:10257C00122668123120850C0802263874021217B4
:10258C006AAC82AD83850C82850D83122B79603CFD
:10259C00850C82850D83A3A31219A07510FF7511EC
:1025AC000278101219897510007511037810121920
:1025BC0089740812176A1219A0123ABF121735E95A
:1025CC00F509700B122DA4120474800F7509018586
:1025DC000C82850D83122668123120850908804CE7
:1025EC00851882851983AC82AD831207E0803A8509
:1025FC001882851983AC82AD831207E6802B85186F
:10260C0082851983AC82AD831207EC801C851882FD
:10261C00851983AC82AD831207F2800D85188285F3
:10262C001983AC82AD831207F8E9F508E508602937
:10263C008E828F83A3E06414601F850E82850F83C6
:10264C00E09002FF12267212393F900300123120E3
:10265C00E508A312267A12045002300F1239438572
:10266C00188285198322F085188285198322F07CC3
:10267C00FF7D02850A82850B83122DB22274EE1225
:10268C00177674FC12171F8A0A8B0B8C0E8D0FEAAF
:10269C002405F508EB3400F5097C157D0079007AEA
:1026AC00FF7B02121044E5082402F50CE5091236F2
:1026BC001E851882851983858210858311781012E6
:1026CC001989850882850983A3A3A3A3122B7012F1
:1026DC001989E5082405F510E5093400F511781081
:1026EC00121989850C82850D83122EC51206F6747B
:1026FC00061217358A108B11AE10AF11E50A2402A1
:10270C00F50AE50B123103EE4F70030228478017D0
:10271C00740212176A122DAE88828983EAF0A3EB39
:10272C00F09002FFE004F09002FFE0C39405400338
:10273C00022847E4F510F51178101219897510E884
:10274C0075110278101219897510E975110278103B
:10275C00121989740612176A1219A07910EEFCEF7F
:10276C00FD123AC1121735E9705E8508828509831E
:10277C00A3A3A3A3A3A3A3E0F89002E8E068704886
:10278C00122B701219897CE97D02E5082408FAE500
:10279C00093400FB12103E7402121735E960298EC1
:1027AC00828F83A3A3A3A3122DAE9002FFE0F5109A
:1027BC007402781012170C74002510F5827403350E
:1027CC0011F583EAF0A3EBF0740212176A858210FC
:1027DC008583117810121989740212176A1219A0C4
:1027EC00850C82850D83122DD41217358A108B110E
:1027FC00AE10AF119002FFE0F51075110074027865
:10280C001012170C74FF2510F874023511F9888218
:10281C008983A31223A57003022713E82403080855
:10282C0008E93400F9EE4F600302271C8882898383
:10283C0074FFF0A3F09002FFE004F09002FFE06060
:10284C000A122DA41204627900800B850882850976
:10285C0083123117790A02300F74EA12177674FE5C
:10286C0012171F8C128D13EA2405F50CEB123AA9E2
:10287C00123647750800750900EA2402F510EB348E
:10288C0000F51185188285198385820A85830B785A
:10289C000A121989850C82850D83A3A3A3A3122A7E
:1028AC003D121989E50C2405F50AE50D1231037862
:1028BC000A121989850C82850D83122A411206F69B
:1028CC0074061217358A0A8B0BEA450B7003022922
:1028DC00E2EA2404F50EEB122A271236478A828B81
:1028EC0083A3A3A3E0F9851082851183122DB86010
:1028FC00030229E2E4F514F51578141219897514FC
:10290C00E875150278141219897514E97515027891
:10291C0014121989740612176A1219A07913AC0AC9
:10292C00AD0B851082851183123AC7121735E9F564
:10293C000960030229E29002E8E0F8E5087009E07A
:10294C002402900300F08014900300E0FCE82402C1
:10295C00FAE43400FBEA6C7001EB707E850882AA05
:10296C0082122B679414122B5F506B850E82850F8D
:10297C0083E0C0E074012A122A1ED0E0F00508851D
:10298C000E82850F83A3E0C0E085080A7401250A36
:10299C00122A1ED0E0F005089002E8122A3D121906
:1029AC00897CE97D0285080A7401250A122A3112F4
:1029BC0017359002E8E02508F50874FF6E70037473
:1029CC00FF6F6012EE24010EEF3400FFE508C39494
:1029DC0014500302288FE5086013122DC285108253
:1029EC00851183122DAE12046879008014E50970EC
:1029FC000375090A851282851383EEF0A3EFF0A903
:102A0C000974021217357F0E02184885080C7401E0
:102A1C00250CF58274033400F583223400F50F8500
:102A2C000E82F58322FA74033400FB12102C74020C
:102A3C002212367D22A3A3122A472212310EFDEE5A
:102A4C00FAEFFB2274EE12177674FE12171F8C0E1F
:102A5C008D0FEA2405F50CEB12361E750B00900257
:102A6C00FFE4F0F50AEA2402F508EB3400F50980DE
:102A7C00449002FFE0FA9002E8E0F8122B679417FA
:102A8C00122B5F400D9002FFE0F87416C398900271
:102A9C00E8F0122B701219897CE97D0274002AFA75
:102AAC007403122A341217359002E8E0F89002FFF2
:102ABC00E028F0050AE50C2416F582E50D122A2211
:102ACC00E0F8E50AC39850749002FFE0C3941650E6
:102ADC006BE50AC333F8E433F9E50C28FEE50D3950
:102AEC00FF851882851983AC82AD838E828F831209
:102AFC002B797008750B011231138050E4F510F529
:102B0C001178101219897510E875110278101219C4
:102B1C00897510E97511027810121989740612174B
:102B2C006A1219A07916850882850983123AC71290
:102B3C001735E9F50B7003022A7D80BB7CFF7D0203
:102B4C00850882850983122DAE12047AA90B7402B2
:102B5C00023011E99400C365D03322EA28F8E4343A
:102B6C0000F9E822E0F510751100781022123006F9
:102B7C008A108B11AC10AD11EC4D2274EA12177641
:102B8C0074FC12171F8A0C8B0D8C128D13EA240502
:102B9C00F50AEB123103750800750900E50A2402E9
:102BAC00F510E50B3400F511740212176A85820ECC
:102BBC0085830F780E121989850A82850B83A3A34E
:102BCC00A3A3123623121989E50A2405F50EE50B89
:102BDC003400F50F780E1219898510828511831235
:102BEC003109122DA81206F674061217358A0E8BAF
:102BFC000FAE0EAF0FE50C2402F50EE50D3400F50B
:102C0C000F80388882898374FFF00508122A1774A4
:102C1C00FFF005089002E8E0F50C750D00780C1239
:102C2C0019897CE97D0285080C7401250C122A3166
:102C3C001217359002E8E02508F508EE4F60278E54
:102C4C00828F83A3A3A3E0F9850E82850F83122DB7
:102C5C00B8EE240412361BE96027850C82850D839F
:102C6C00122D9A123120E5087003022D80122DC20C
:102C7C00850E82850F83122DAE1204807900022DF1
:102C8C0095E4F514F51578141219897514E8751571
:102C9C000278141219897514E97515027814121931
:102CAC0089740812176A1219A07911EEFCEFFD85D0
:102CBC000E82850F83123AC7121735E9F509709AFF
:102CCC00850882AA82EA9002E87009E02404900345
:102CDC0000F08025E0F8900300E0F514E82404FCF3
:102CEC00E43400FDEC65147001ED7081122B6794D7
:102CFC0012122B5F4003022C79850C82850D83E028
:102D0C00C0E074012A122A1ED0E0F00508850C825E
:102D1C00850D83A3E0C0E0122A17D0E0122DDD85CB
:102D2C00820C85830D780C121989740412176A129F
:102D3C0019A0851082851183122DD41217358A0C97
:102D4C008B0DAE0CAF0D85080C7401250CF87403BB
:102D5C003400F9EE4F7003022C0F8518828519830D
:102D6C00E088828983122DDDA3E0C0E0122A17D0FF
:102D7C00E0022C1DE509700375090A850A82850B92
:102D8C0083122D9A123120A9097404022A0F1239C8
:102D9C0043851282851383227CFF7D02850A8285FE
:102DAC000B83122DB222E0FAA3E0FB22122DB212F9
:102DBC0006E4E9F50922900300E0F5F0E5088490BB
:102DCC0002FFF07CFF7D0222122A471207027404D4
:102DDC0022F005088518828519832274EC12177667
:102DEC0074FE12171F8A088B098C0E8D0FEA2405AE
:102DFC00FEEB3400FF122FF0EE241812361BEA45BE
:102E0C000B7003022E93122FD95029122EB88A1050
:102E1C008B11EA4511606B7912AC0AAD0B850882F7
:102E2C00850983122DAE851082851183121774E9E2
:102E3C00F50A7058E4F50AF50B780A1219898E8296
:102E4C008F83A3A3E0F50A780A121989EE240312E2
:102E5C003100780A1219898E828F83122EC51208BE
:102E6C001C7406121735E9F50A7021850C82850D44
:102E7C0083E0701F850882850983122DAE120486AB
:102E8C008011750A0E8009750A018004E50A600339
:102E9C00123113850C82850D83E060047900800269
:102EAC00A90A74021217357F0C02184885188285FE
:102EBC001983122DB212080A2212310EFD850882D6
:102ECC00850983122DB22274EE12177674FE121736
:102EDC001F8A088B098C0C8D0DEA2405FEEB34003F
:102EEC00FF750E00122FF0EA450B7003022FB7127C
:102EFC002FD9502C122EB88A0E8B0FEA450F604A30
:102F0C007912AC0AAD0B850882850983122DAE852A
:102F1C000E82850F83121774E9F50E6003022FBA27
:102F2C008508828509831231F5AA0AFB122FCB7012
:102F3C00147AFF7BFF122FCB606C88828983E50AA1
:102F4C00F0A3E50BF0750A008007750E0E805F0587
:102F5C000A9002E5E0FAE50AC39A504AE50A75F0D0
:102F6C0017A4FAABF088828983A3A3E02AFAA3E022
:102F7C003BFB8A828B83123109EC4D70D2750A1798
:102F8C00750B00780A121989EEFCEFFD12102C74E7
:102F9C0002121735EEFCEFFD850882850983122D90
:102FAC00AE12048C8014750E098003750E01123953
:102FBC003B850C82850D83123120A90E022B5A12EF
:102FCC0007FE8A108B11A810A911E84922E50824E4
:102FDC0002F508E5093400F5098A828B83A3A3A3C3
:102FEC00E0A2E522851882851983AC82AD838E829E
:102FFC008F831230068A0A8B0B22E0FAA3E0FB12B5
:10300C0006FC2274041217357F0A02184874EC125D
:10301C0017768C108D11EA2405F50CEB12361E7503
:10302C000F00EA2402F50AEB123103850A82F583BC
:10303C00122DAE123B4D70030230F5750E008071EF
:10304C00850C82850D83E06401704F8E828F83A383
:10305C00A31219A08E828F83A3A3A3A3E0F51275EC
:10306C0013007812121989EE2405F512EF3400F5CD
:10307C00137812121989122DA812081C7406121733
:10308C0035E9F50F6014850C82850D83E4F0123957
:10309C003B8510828511831231207C177D007900CD
:1030AC00EEFAEFFB1210448E828F83E4F0A3F0054E
:1030BC000E9002E5E0F8E50EC398501EE50E75F093
:1030CC0017A4F8A9F0850882850983A3A3123AB343
:1030DC00123109EC4D600302304C8508828509835E
:1030EC0074FFF0A3F0E50F7006122DA8120492A93C
:1030FC000F022EB3F50AEF3400F50B22A312310E9A
:10310C00FD22E0FCA3E0228E828F83123943850ED0
:10311C0082850F83E8F0A3E9F022C082C08390027D
:10312C00E1E06A7003A3E06B70067AE17B02800435
:10313C007A007B0002246874F71217767F00EF7513
:10314C00F003A4F8A9F0EC28F8ED39F9888289830A
:10315C00E06A7003A3E06B7006E8FAE9FB800B0FE2
:10316C00EFC3940240D87A007B007F0102184874A8
:10317C00F612177612372C70067A007B008007A3A4
:10318C00A3A3A3122DAE0237ED74F2121776E9FE4B
:10319C00740E12176A1231F5741012176A12365D1A
:1031AC008C828D83E06402703BA312393F88828944
:1031BC0083E0F50CA3E0F9A80C7402687003742981
:1031CC00697021750C02750D00780C12198978083C
:1031DC00121989780A121989EEF91208407406122C
:1031EC0017358002790102385DE0F50AA3E0F50B92
:1031FC002274E812177674FB12171FE98518828562
:10320C001983F08A168B178C0E8D0F741F12176A88
:10321C0012365D742112176A1231F5742312176A73
:10322C001236477510008C828D83A3A3A3E0A2E411
:10323C00502A741D12176A122EBE8A828B83E58265
:10324C0045837003023309790AAC0EAD0FAA16AB95
:10325C0017121774E9F510600302330C850E828582
:10326C000F83E0640260030235C2A312393F850864
:10327C0082850983A3858212858313E50E2406F5C6
:10328C000CE50F12361E88828983E0FAA3E0F9EA76
:10329C002400F514E439F5157814121A1301000002
:1032AC00280128D13207000228A83303281833003C
:1032BC0029D2340129FA340229A1340329D2340445
:1032CC00296335C235EE4F703E850C82850D831215
:1032DC003638FAE9FB8A828B83E0850A82850B8378
:1032EC001236741219898A828B83A312310EFDAAAD
:1032FC0008AB0912102C7402121735800375100ECE
:10330C00A9107405023AA175100B80F4EE4F70F7FA
:10331C00850A82850B837401F012364D85088285EF
:10332C000983F07C007D00850E82850F83A3A3A307
:10333C00A3E02401FAA3E03400FB1206FCEA4B6084
:10334C00418A828B83E02402F8850A82850B83E014
:10335C0028F0EA2404F8EB3400F988828983E085AC
:10336C0012828513831236861236741219898A8258
:10337C008B83123108E5082403FAE5093400FB02BB
:10338C0032FF850A82850B83E02404F07C047D00E7
:10339C007900AA12AB1312104402330CEE4F6003E7
:1033AC0002331312364DFEA3E0FF850A82850B8390
:1033BC007404F0EE850882850983F0EF851282850E
:1033CC001383F0740312176AAC82AD83EEFAEFFB31
:1033DC0012371A700302347E8A828B83A3A31236AF
:1033EC0043740112176A85820E85830F780E1219A9
:1033FC0089740512176A1219A07CFF7DFF1207024F
:10340C0074041217358B0FEA450F7033850C8285C7
:10341C000D83123623121989850C82850D83A31214
:10342C0019A07C027D007A9A7B9212052E740412EC
:10343C001735E9700A740112176A74FFF0A3F08E45
:10344C00828F83E064027034750C02750D00780C69
:10345C001219898E828F83123108E5082404FAE54B
:10346C0009122A34121735850A82850B83E024024F
:10347C008009740112176AEEF0A3EFF074011217B1
:10348C006A123634F0740112176AA312362CA3A3F5
:10349C00A3F002330CEE4F6003023313850C8285CC
:1034AC000D83123109AA16AB17120834850A8285CE
:1034BC000B837402F0EA850882850983F0851282F9
:1034CC00851383EB80CBEE4F600302331312364D22
:1034DC00F8A3E0F9850A82850B837402F0E885086D
:1034EC0082850983F0E985128285138380A3850C7C
:1034FC0082850D83122DAE121026EAFC8C82A882D6
:10350C00C39EE49F404BE86E7001EF70047C00801A
:10351C001F851882851983E0FAEE2AFAEF3400FB36
:10352C00C3EA98EB94005003E08004EECCC39CFCFF
:10353C00EC850A82850B83F08C0A750B00780A12D5
:10354C001989850C82850D83E02EFCA3E03F0232A5
:10355C00FA75100702330CEE4F6003023313850C1F
:10356C0082850D8312393F850A82850B837407F09F
:10357C008882898312362C123614E08512828513C8
:10358C0083F0E82402FAE93400FB8A828B8312363A
:10359C002C123665123634A312366E12363DF0E814
:1035AC002405F8E93400F98882898312363DA31288
:1035BC003686A302349A741D12176A1237257003CB
:1035CC0002330912393F880C890DE8450D7003024E
:1035DC0033098E108F117810121989780A121989F3
:1035EC007808121989740612176AE0F9AC0EAD0F3F
:1035FC00AA16AB17850C82850D83121774740612EC
:10360C001735E9F51002330CF088828983A322F573
:10361C000CEF3400F50D22E0F50E750F00780E223C
:10362C00E08508828509832212368D22123943E8FF
:10363C002212368DA3A322A3A3A3A3E0FEA3E0FF33
:10364C0022850C82850D83E0F8A3E0F5838882E067
:10365C0022E0F508A3E0F50922A3A3F08A828B836C
:10366C00A322122320A3A322F08A828B8312367DFD
:10367C0022E0F50A750B00780A2212361412368DE8
:10368C0022E0850882850983A3A32274EE121776A3
:10369C0074FE12171F8A0A8B0BECFAEDFB741412D2
:1036AC00176AE0F510A3E0F511741612176AE0FE24
:1036BC00741812176AE0F50EA3E0F50F85188285D1
:1036CC001983AC82AD8312371A603E851882851936
:1036DC0083123725602FA3A312365DE508450960D8
:1036EC0024780E1219897810121989EEF9AC0CADE8
:1036FC000DAA0AAB0B850882850983121774740412
:10370C001217358006790E80027901022B5A1206A7
:10371C00FC8A0C8B0DEA450D22122DB212372C228D
:10372C001207C88A828B83E58245832274F61217AE
:10373C007674FE12171F740C12176A12363885181D
:10374C0082851983F0740112176AE9F0E4F508F523
:10375C0009780812198975080278081219897404F5
:10376C0012176A858208858309780812198912084C
:10377C001C74061217357402121735806474F71214
:10378C001776EAFEEBFF89087C187D03120834EAF1
:10379C005402600BA908EEFAEFFB1206F0800279D6
:1037AC000102317674F612177674FF6A700374FF97
:1037BC006B701C7B00EB75F003A4F8A9F0EC28F8F7
:1037CC00ED39F91237F20BEBC39402501480E61268
:1037DC0008048A088B09A808A909E849600312376C
:1037EC00F27F020218488882898374FF12231EE438
:1037FC00F02274F61217761208048A828B83E58203
:10380C0045836006A3A3E0FA80027A007B0080D196
:10381C0074F21217768A088B09ECFEEDFF740E1207
:10382C00176AE0F50A123862701CEEFCEFFD7AFFA5
:10383C007BFF12386270047911801688828983E5C7
:10384C0008F0A3E509F088828983A3A3E50AF0793F
:10385C00007F060218481208048A0C8B0DA80CA9CC
:10386C000DE8492274EE121776EAFEEBFF8C088DF8
:10387C0009890C741212176A12393F741412176AE0
:10388C00123109741612176A122DAE750D00EC4D1B
:10389C0060030239337402650C600302392E88828E
:1038AC00898312310EF9EC2400F50EE439F50FEA98
:1038BC00F4F8EBF4F9EC58F8E50F59F9E849705DB8
:1038CC00E5082406F8E5093400F9880A890B888292
:1038DC00F583122A431208348A108B11E50E6510F9
:1038EC007004E50F65116042780E121989850A8201
:1038FC00850B83122A4312083A7402121735E9F524
:10390C000D7027780E121989850882850983A3A367
:10391C00122A411208527402121735800D750D804F
:10392C008008750D0D8003750D0BA90D0230148EDA
:10393C00828F8312394322E0F8A3E0F92274E81253
:10394C00177674E712171F851882851983EAF0A37E
:10395C00EBF08C168D17890E743112176AE0F51284
:10396C00A3E0F513743312176AE0F514A3E0F51510
:10397C00743512176AE0F50F750800750900E50932
:10398C0075F003A4F8A9F0851882851983123AB34F
:10399C00E0F47003A3E0F47003023A91EE2402F514
:1039AC000CEF123AA9E07003023A9185160A8517BA
:1039BC000B780A121989AC14AD15AA12AB131207A5
:1039CC00BC74021217358A0A8B0BEA450B70030282
:1039DC003A91E4F510F51178101219897406121742
:1039EC006A8582108583117810121989740912174F
:1039FC006A85821085831178101219898512828547
:103A0C001383A3A3A3A31219A07914AC0AAD0B8E34
:103A1C00828F83123AC7121735E97069850A82853D
:103A2C000B83A3A3A3A312393F740212176A12319A
:103A3C0020850C82850D83E0A2E05018A90E74023B
:103A4C0012176AAC82AD838E828F83122DAE120751
:103A5C0014E94208850C82850D83E0A2E15026E52D
:103A6C000FF50A780A12198DA90E740312176AAC95
:103A7C0082AD838E828F83122DAE12070E740112CB
:103A8C001735E942080509E509C3940250030239C8
:103A9C008AA90874191217357F100218483400F5DA
:103AAC000D850C82F58322E028FEA3E039FF8E827F
:103ABC008F83227916850A82850B83122DB2120808
:103ACC001674082274F2121776EAFEEBFF890B7457
:103ADC0001650B600E7402650B70637901120A2C80
:103AEC00E9705BEEFAEFFB123B4D6047750A008004
:103AFC000B7C177D007900121044050A9002E5E05A
:103B0C00F8E50AC3985021E50A75F017A4F8A9F056
:103B1C00850882850983A3A3E028FAA3E039FB8AF0
:103B2C00828B8312246F70C985088285098374FF88
:103B3C00F0A3F07C187D03EEFAEFFB12082E02388E
:103B4C005D1207FE8A088B09EA45092274F21217E6
:103B5C00768A088B09ECFEEDFF740E12176A12318F
:103B6C00F5900A05E0F4603D7A097B00121056EAE4
:103B7C004B60328A828B8374B1F0A3E4123667A354
:103B8C00123665A3E508F0A3E509123BB4EEF0A3E9
:103B9C00EF123BB4A3A3E50AF0A3E50BF0900A05E2
:103BAC00E0F912106202385DF08A828B83A3A3A322
:103BBC00A3A32274F4121776E9FF7E008A088B09FE
:103BCC0078081219CD00040D653DF23B0F3C283CE2
:103BDC003F3C5C3C733C943CAB3CBE3CE73C013D05
:103BEC00113D273D413D74016F6003023D618C82A4
:103BFC008D83E0F8C394034003023D61E8900AF121
:103C0C00023D3E74026F6003023D618C828D831213
:103C1C004516900AF2E8F0A3E9023D3E74016F608C
:103C2C0003023D61123D884003023D61E89007812B
:103C3C00023D3E74016F6003023D618C828D83E016
:103C4C00F8C394054003023D61E8900782023D3EB3
:103C5C0074016F6003023D61123D884003023D61B7
:103C6C00E8900783023D3E74106F6003023D61755E
:103C7C0008108E0978081219897A847B0712102C87
:103C8C007402121735023D8374016F6003023D61AB
:103C9C00123D884003023D61E8900794023D3E745A
:103CAC00016F6003023D618C828D83E0900AF50206
:103CBC003D3E74046F6003023D618C828D837808F5
:103CCC001215EF90925F78081214215003023D6197
:103CDC0090079678081215FE023D83EF7077120656
:103CEC009CE9700A1211CA795012133E8062900836
:103CFC00297401803D74016F705B123D885056E849
:103D0C00900795802D74016F704B8C828D83E0F839
:103D1C00C3940A5040E8900AF4801774016F703510
:103D2C008C828D83E0F874F928C3940A5027E890AC
:103D3C000AF6F0804274016F701B900828E0F88C32
:103D4C00828D83E0900828F0E8702CE064017027E5
:103D5C001211BE80227E18801EC3EA9426EB9400BA
:103D6C00501374026F700E8C828D831245101205E5
:103D7C003AE9FE80020E0EEEF9023D978C828D839D
:103D8C00E0F8C3940222740E1217357F040218480F
:103D9C0074F012177674CC12171F8C0A8D0B7420CA
:103DAC0012176AAC82AD837583917582E874061222
:103DBC001632742012176AAC82AD8312116AE9F5BF
:103DCC0008744412176AE0FEE9C3940A4003023FE8
:103DDC000A75F006E9A4F509742612176AAC82ADCF
:103DEC00837A0E74202509F9121338E9700974329C
:103DFC0012176AE0FF80027F00900AF1E064027003
:103E0C000474018001E4F50D780D12198DEEFDEFAF
:103E1C00FCA908AA0AAB0B1211F474011217357C19
:103E2C00147D007900740C12176AAA82AB831210ED
:103E3C0044740C12176AAC82AD837A107424250971
:103E4C00F9121338E9703C7C1079FF740C12176A64
:103E5C00AA82AB831210AAE97029741C12176AACDF
:103E6C0082AD837A0474252509F9121338740C1267
:103E7C00176AAC82AD83EFA2E0E433F9AA0AAB0B6C
:103E8C001205C4851882851983AC82AD837A0C74B3
:103E9C00702508F9121338E9705385188285198337
:103EAC00AA82AB831211A0750800E50875F003A473
:103EBC00F8A9F0851882851983E58228F8E5831224
:103ECC00471A1248A2601D88828983A3A3E0F50ECD
:103EDC00750F00780E121989AA0AAB0B12082274FE
:103EEC00021217350508E508C3940440BDEFA2E1A2
:103EFC00500C900780E0F9AA0AAB0B120828740446
:103F0C006E7027900AF1E06402701F7A009007949B
:103F1C00E060010A900781E0600478048002780078
:103F2C00E84AF9AA0AAB0B1206847900743412170A
:103F3C00357F0802184874F0121776EAFEEBFF8CF6
:103F4C00088D09750A0AE9600C14600914603714AD
:103F5C006079023FF11211B2E9F50AC3940A4003E9
:103F6C00023FF1E5084509607C750E06750F007877
:103F7C000E121989EEFCEFFDAA08AB0912102C7475
:103F8C0002121735805F750B00750E06750F0078E1
:103F9C000E121989EEFCEFFDE50B75F00EA4F8A9D5
:103FAC00F074A228FA740739FB12103E740212172F
:103FBC0035E9600C850B0AE50AC3940A5027801674
:103FCC00050BE50BC3940A501C80BE1211B8E9F521
:103FDC000AC3940A500FE50845096009AA08AB0901
:103FEC00A90A1211ACA90A023F3D74F41217768982
:103FFC000875091574FF6A700374FF6B70277E00D7
:10400C00AC087A027B00EEF912118EE96003750997
:10401C00000EEEC3940A40E8E50860537AE27B1187
:10402C00120A3E804A120A208A0A8B0BAE0AAF0B88
:10403C00EE4F60387C007D00EE2405FAEF3400FB77
:10404C008E828F83A3A3A3A3E0F912116AE9C39410
:10405C000A500CAC087A027B0012118E750900E52F
:10406C0008600CEEFAEFFB1211E28003750914A93B
:10407C0009023D9774F2121776ECFEEDFF750815E8
:10408C00740E12176A12450374FF6A700374FF6B87
:10409C007021750900AC0AAD0BEEFAEFFBA9091201
:1040AC001194E960037508000509E509C3940A50E9
:1040BC003F80E2120A208A828B83E5824583602D41
:1040CC007C007D00E5822405FAE5833400FBA3A384
:1040DC00A3A3E0F912116AE9C3940A5013AC0AAD18
:1040EC000BEEFAEFFB12119475080080037508149F
:1040FC00A908024F43C082C08390079AEAF0A3EB51
:10410C00F0900780E0FC7D007A257B0012053A9048
:10411C000780E0F912079ED083D08202013574EC3F
:10412C001217768A088B09E9FE741412176A780C38
:10413C001215EF7F00EE702E780812198990925F9D
:10414C0078101215EF780C79101214C0AA10AB115C
:10415C00AC12AD131205D67402121735E9FF6009C3
:10416C007901AA08AB091205D0EFF97F0C021848A7
:10417C0074EA12177674EC12171FEAFEEBFFEE24AA
:10418C000CF514EF3400F515EE240AF50CEF3400A1
:10419C00F50DEE2405F50EEF3400F50FEE2409F5C0
:1041AC000AEF3400F50BEE2403F508EF3400F509A3
:1041BC008E828F83A3A3E024FA70030244DB24FDD8
:1041CC0070030243F614700302426114601024FD64
:1041DC0070030243C614700302442B0244F91245C7
:1041EC001C604AE0F5838882124516880C890DE81C
:1041FC00450D6039851482851583E0F50E780E1215
:10420C00198DEE240BF582EF3400F583E0F9850A65
:10421C0082850B831245100A0A0AAB09850C82852C
:10422C000D8312177474011217350244F9850A8232
:10423C00850B831219A090079612160D1205D674D1
:10424C0002121735E970030244F97901850A828557
:10425C000B830244A78E828F83A3858212858313DE
:10426C00E060030243A9850E82850F83E0A2E04043
:10427C00030243A97C0E7D00790085188285198381
:10428C00AA82AB83121044EE2408F510EF3400F52B
:10429C0011851082F583124D56EA4B6010750A0693
:1042AC00750B00780A121989EA2410801B124D50E4
:1042BC00120A20EA4B70030244F9750A06750B00CA
:1042CC00780A121989EA2405FCEB3400FD740212F9
:1042DC00176AAA82AB8312102C7402121735850E42
:1042EC0082850F83E0A2E25004D2F08002C2F0A2D9
:1042FC00F0E433F8740C12176AE048F0850C8285F0
:10430C000D83124503E50A450B6013E50A2410F5ED
:10431C0082E50B3400F583780C1215EF800C750CCC
:10432C00FF750DFF750EFF750FFFE50A450B700647
:10433C00750A00750B00851082851183E0F510A3BA
:10434C00E0F511E510451170067510007511007837
:10435C000C121985780A121989781012198985148A
:10436C00828515831219A08E828F83A312450B743C
:10437C000A12176AAA82AB831211A6740A12173595
:10438C0085088285098312451690082AE8F0A3E96E
:10439C00F07A017B00900780E0F912108612451C20
:1043AC0070030244F912452770030244F985128206
:1043BC00851383E0FC79010244CF12451C70030283
:1043CC0044F9E0F5838882A3A3124516890BE845CE
:1043DC000B70030244F98E828F83A3E0FC790212E6
:1043EC004D508882850B830244D67C007D00EE24E0
:1043FC0004FAEF3400FB850882850983E0F9121179
:10440C006AE9F8C3940A40030244F9AC0CAD0D7A86
:10441C000475F006E8A42425F91213320244F912AB
:10442C004D50900795E06007900AF4E0F9806F908A
:10443C000AF1E0700479058065120A208A0C8B0D54
:10444C00A80CA90DE82404F50CE93400F50D8E82B6
:10445C008F83A3A3A3A3A3A3A3E0A2E05045E849A1
:10446C0070030244F9850C82850D83E0FE6034856F
:10447C000A82850B83E054107029740E12176AACF3
:10448C0082AD83E82405FAE93400FBEEF912116AD7
:10449C00E970107903850882850983124D5612053F
:1044AC00D0804AAC0EAD0F850C82850D83E0F912DD
:1044BC004D501211EE12451C6033124527602E7CB4
:1044CC00007900124D508E828F83121774801E1249
:1044DC00069CE97018900829E0640170081211CA52
:1044EC00900829E4F0795012133E1211BE74141284
:1044FC0017357F0E021848E0F50AA3E0F50B22A34E
:10450C00A3A3A3A3E0FCA3E0FD22E0F8A3E0F9221F
:10451C0090079AE0F8A3E0F9E84922E0F583888255
:10452C00A3A3E0F8A3E0F9E8FEE9FFEE4F2274F450
:10453C0012177674F212171FEAFE8C0B75F006E94F
:10454C00A42420F508851882851983AC82AD837A62
:10455C000EF9121338E970577C0679FF851882859D
:10456C001983AA82AB831210AAE97043740C121738
:10457C006A124516E8F509E50B6005EE4209800460
:10458C00EEF45209850982AA82E86A7001E9601B7F
:10459C00740C12176AEAF0A3E4F08518828519836B
:1045AC00AC82AD837A0EA90812133279018002799C
:1045BC0000023D9274F212177674E612171F890AE4
:1045CC008A088B09ECFEEDFF740C12176AAC82ADF5
:1045DC00837A0E75F006E9A42420F9121338E960E9
:1045EC00030246E07C0679FF740C12176AAA82ABB0
:1045FC00831210AAE960030246E07470250AF50BD9
:10460C00851882851983AC82AD837A0CF912133824
:10461C00E960030246DC851882851983AA82AB8384
:10462C001211A0E5084509702C7C0C7900851882C4
:10463C00851983AA82AB831210AAE960030246DCB7
:10464C007C0C7D007900851882851983AA82AB8346
:10465C00121044805D851882851983AC82AD83AAC3
:10466C0008AB0912119A8A0C8B0DA80CA90DE849FC
:10467C007028EE4F605E851882851983AC82AD83FD
:10468C007A007B0012119AEAF8EBF9EA4B60458844
:10469C00828983E508F0A3E509F0124756FAEE6A21
:1046AC007001EF602BEEF04F700888828983E4F084
:1046BC00A3F0851882851983AA82AB831211A08579
:1046CC001882851983AC82AD837A0CA90B12133234
:1046DC00790180027900741A024F4074F712177630
:1046EC007F00EF75F003A4F8A9F0EC28F8ED124761
:1046FC001AE06A7003A3E06B7006E8FAE9FB800B22
:10470C000FEFC3940440DB7A007B00024A5939F95D
:10471C00888289832274F71217767E00EE75F00377
:10472C00A4F8A9F0EA28F8EB12471AE0F4FCA3E08D
:10473C00F4FD88828983ECF0A3EDF0124756F4F077
:10474C000EEEC3940440D5024A59E82402F582E9DE
:10475C003400F583E02274F412177674F412171FE8
:10476C00EAFEEBFF8C088D09EE4F7005790A0248C2
:10477C008C1211B2E9F50AC3940A4024750B007C23
:10478C000679FFE50B75F00EA4FAABF0749C2AFACF
:10479C0074073BFB1210AAE97003024891850B0ABF
:1047AC00E50AC3940A400302488A75F006E50AA498
:1047BC00F50BEEFCEFFD7A0E7420250BF91213327B
:1047CC00E5084509600EAC08AD097A1B7421250B70
:1047DC00F9121332741812176A1248A2600A7A1B63
:1047EC007422250BF9121332741A12176A1248A28A
:1047FC00600A7A107423250BF9121332741C1217E9
:10480C006A1248A2601D7A107424250BF912133217
:10481C00741E12176AAC82AD837A047425250BF9C9
:10482C001213327C0C7D0079FF851882851983AABE
:10483C0082AB83121044851882851983AC82AD83B8
:10484C007A0C7470250AF912133275080E7509006A
:10485C007808121989EEFCEFFDE50A75F00EA4F844
:10486C00A9F0749C28FA740739FB12102C740212EC
:10487C001735900828E060031211FA1211E8A90A02
:10488C00740C023D94050BE50BC3940A50030247CC
:10489C008B750A0A80E8E0FCA3E0FDEC4D2274F471
:1048AC0012177674F212171FEAFEEBFFE9C3940A93
:1048BC005004EE4F70047902803E8518828519836E
:1048CC00AC82AD837A0E75F006E9A42420F912139C
:1048DC0038E9F5087020750A06750B00780A12196C
:1048EC0089740212176AAC82AD83EEFAEFFB1210D8
:1048FC002C7402121735A908023D9274F412177623
:10490C00EAFEEBFF750800750A06750B00780A12B3
:10491C001989EEFCEFFDE50875F00EA4F8A9F0740A
:10492C009C28FA740739FB12103E7402121735E9F1
:10493C006004A908800B0508E508C3940A40C879EF
:10494C000A023D9774F712177674F012171FEAFEDD
:10495C00EBFF750800851882851983AC82AD837ACC
:10496C001075F006E508A42423F9121338E9702C0D
:10497C007C1079FF851882851983AA82AB8312106B
:10498C00AAE97018EEFCEFFD851882851983AA82BE
:10499C00AB831205A6E97004A908800B0508E5088D
:1049AC00C3940A40B0790A7410121735024A59742C
:1049BC00F7121776750800E50875F00EA4F8A9F043
:1049CC00749C28FE740739FFEEFCEFFD7A0E75F02F
:1049DC0006E508A42420F9121338E9602C7C067D26
:1049EC000079FFEEFAEFFB1210447C067D0079FF94
:1049FC00EE2406FAEF3400FB121044EE240CF58280
:104A0C00EF3400F583E4F0A3F00508E508C3940A3D
:104A1C0040A5900828E060031211FA1211E8802DCD
:104A2C0074F71217767E007F007C0679FFEF75F025
:104A3C000EA4FAABF0749C2AFA74073BFB1210AA72
:104A4C00E970010E0FEFC3940A40DEEEF97F01020C
:104A5C00184874F71217767E00EEF91211D00EEE8C
:104A6C00C3940A5003E960F180E374F3121776746F
:104A7C00CB12171FE9FF75F006A4F5087420250862
:104A8C00FE742712176AAC82AD837A0EEEF91213FC
:104A9C0038E96003024B937C0679FF742712176A7E
:104AAC00AA82AB831210AAE96003024B937C0E7DA1
:104ABC000079FF742712176AAA82AB831210447C08
:104ACC001B7D0079FF740C12176AAA82AB8312103B
:104ADC00447C0C7D0079FF851882851983AA82ABF2
:104AEC0083121044742712176AAC82AD837A0EEECF
:104AFC00F9121332E9F509740C12176AAC82AD8302
:104B0C007A1B74212508F9121332E9FE740C121762
:104B1C006AAC82AD837A1B74222508F9121332E930
:104B2C00F50A740C12176AAC82AD837A10742325C3
:104B3C0008F9121332E9F50B740C12176AAC82AD3A
:104B4C00837A1074242508F9121332E9F50C740CCD
:104B5C0012176AAC82AD837A0474252508F91213F6
:104B6C0032E9F508851882851983AC82AD837A0CFD
:104B7C0074702FF9121332E9F8EE450A450B450C07
:104B8C0045084842098003750900A90974351217B4
:104B9C00357F0502184874F7121776E9900780F0F4
:104BAC001211BE024A5974F212177674FB12171FB7
:104BBC008A088B09EB54807003024C4A900780E002
:104BCC00F912106E8A0A8B0BAE0AAF0BEE4F6064B3
:104BDC008E828F83E02450603814600624E1604A92
:104BEC00804BA3A3A3A3E070448E828F83A3A3A3C3
:104BFC00A3A3A3A31219A08E828F8312450B8E82BE
:104C0C008F83A3A3124D561211767402121735809E
:104C1C001CA3A3A3A3E0641E701379008E828F8360
:104C2C00A3A3124D561211708003121188EEFAEFE5
:104C3C00FB12105CAA08E5096480FB024D4BEAA24A
:104C4C00E04003024D4790082A12450374031217E3
:104C5C006A85820C85830D780C121989750C027586
:104C6C000D00780C121989750C96750D92780C1232
:104C7C0019897CFF7DFF7A017B001206F6740612FF
:104C8C001735024D2FE4F50CF50D780C12198974BB
:104C9C000412176A85820C85830D780C121989749D
:104CAC000412176A85820C85830D780C121989748D
:104CBC000912176A1219A07902EEFCEFFDAA0AABD1
:104CCC000B1208167408121735E970358518828591
:104CDC001983E0FA740112176AE0F9EA2400F50C62
:104CEC00E439F50DEA450D6018780C1219898E829D
:104CFC008F8312450CAA0AAB0B1211767402121791
:104D0C0035E4F50CF50D780C121989740512176A37
:104D1C001219A07CFF7DFFEEFAEFFB120702740460
:104D2C001217358A0C8B0DAE0CAF0DEE4F600302D3
:104D3C004C91E5086401FAAB0980047A007B00749D
:104D4C0005024F40850882850983E0FAA3E0FB2227
:104D5C00C082C083900780E0F98A828B83A3124DB6
:104D6C0056120828024123C082C08374FF12171FF9
:104D7C001211C4E9C3940285188285198340047406
:104D8C00028002740AF0AC82AD837A0179051206B6
:104D9C00B4740112173502412374F212177674E8B9
:104DAC0012171FEAFEEBFF890A8C088D097C187D0F
:104DBC00007900851882851983AA82AB831210446E
:104DCC00851882851983EEF0A3EFF0900782E0C07E
:104DDC00E0740212176AD0E0F0900783E0C0E07430
:104DEC000312176AD0E0F0900AF6E0C0E0741712D4
:104DFC00176AD0E0F0741512176AE054FEF8A3E0BD
:104E0C00F9900AF5E0A2E0E433FAE84AF8741512D6
:104E1C00176A124F4FA2E15004D2F08002C2F0E8A0
:104E2C0054FDFAA2F0E43333F8EA48F8741512177B
:104E3C006A124F4FA2E35004D2F08002C2F0E85441
:104E4C00F7FAA2F0E433F50C750D007403780C122C
:104E5C00170C124F4812176A124F4FA2E45004D28B
:104E6C00F08002C2F0E854EFFAA2F0E433F50C74CF
:104E7C0004780C12170C124F4812176A124F4FA2DB
:104E8C00E55004D2F08002C2F0E854DFFAA2F0E45C
:104E9C0033F50C7405780C12170C124F4812176A64
:104EAC00124F4FA2E25004D2F08002C2F0E854FB41
:104EBC00FAA2F0E433F50C7402780C12170C124FB2
:104ECC004812176AE8F0A3E9F0900783E0601D75BB
:104EDC000C10780C1219897C847D07740612176AE1
:104EEC00AA82AB8312102C7402121735900794E02F
:104EFC006011E50A6009741512176AE04402F07833
:104F0C000180027800741412176AE048F09007814F
:104F1C00E06004780480027800741412176AE04888
:104F2C00F0AC08AD09851882851983AA82AB83126F
:104F3C0005CA74181217357F06021848EA450CF892
:104F4C00741522E8F0A3E9F0900AF5E02274F3124C
:104F5C00177674E512171FEAFEEBFF8C098D0A74A5
:104F6C002812176AE0F50C75F006E9A4F8740865C8
:104F7C000A700474228002742128F50B7C1B7D00BE
:104F8C007900851882851983AA82AB831210448517
:104F9C001882851983AC82AD837A1BA90B12133846
:104FAC00E97032741A12176AE024F9C3940A502576
:104FBC00E50CF50B780B12198D740112176AAC8283
:104FCC00AD83E509A2E0E433F9EEFAEFFB1205DC60
:104FDC007401121735741B024B9A74F71217761260
:104FEC00089A750800E50875F00EA4F8A9F0749CF1
:104FFC0028FE740739FF7C0679FFEEFAEFFB1210DE
:10500C00AAE97009EEFAEFFB79001208A00508E591
:10501C0008C3940A40CF024A59C082C08390619061
:10502C007404F0A37448F0A3E4F09061807440F031
:10503C009061BC7407F09061877469F09061B674EC
:10504C0016F07900120B1C7902120B229021DCE471
:10505C0093F46006E493F9120AF87905120E100223
:10506C005467C082C083E9540FF9906185E0696090
:10507C0012E5C654804449F5C6E59E547F644970D8
:10508C00F8E9F053C680E59E547F70FA02546774B9
:10509C00F7121776E5A8FE53A87E120B04C2BA537A
:1050AC009AFEC289759B00C2C2120B0A75A91175B2
:1050BC00B905120B10D2BA439A0174805E42A80251
:1050CC0059F4C082C083906181E4F0A302546475EA
:1050DC00E90075910075BF00020135C082C0839054
:1050EC006181E4F0A374C0F0A3E4025466C082C0F2
:1050FC008374F812171F9003C41258D6E849700332
:10510C000251B09003C4E0544060237908851882A2
:10511C00851983AA82AB83120C1285188285198398
:10512C00AA82AB831208BE9003C4E054BFF0E054D3
:10513C00806010790C7A807B05120C129003C4E00D
:10514C00547FF0E0A2E0500879001251B854FEF000
:10515C00E05402600879011251B854FDF0E0540497
:10516C00600879001251C354FBF0E05408600879D0
:10517C00011251C354F7F0E0541060087902125137
:10518C00C354EFF0E05420600879031251C354DF8C
:10519C00F0A3E05401600D120B2E1208D09003C541
:1051AC00E054FEF07408121735025467120B1C12EF
:1051BC0008C49003C4E022120B221208CA9003C444
:1051CC00E022C082C083E9600514602A804F9061A0
:1051DC009A7433F0A37455F09061A0743AF0900572
:1051EC005CE064017009C2919003C67467802D90D5
:1051FC0003C67461802690619A743FF0A3745AF0D0
:10520C009061A0747FF090055CE064017009D2910C
:10521C009003C6747180059003C6746AF0025467DB
:10522C00C082C083E9600B14600D14600F14601110
:10523C0080209021E080159021E180109021E28067
:10524C000B90055CE0640160F39021E3E4939061C2
:10525C0086F002546774EE12177674F412171F85D9
:10526C001882851983AC82AD8375839275826374C1
:10527C00041216329021E093F460030253F39078F9
:10528C0008E0C3940250030253D3740412176AAC9F
:10529C0082AD837583917582BA7408121632F97ACD
:1052AC00FF7BFF7FFF7E0089828582108018740847
:1052BC006E700302538874096E7003025388740A6B
:1052CC006E7003025388E510C333FCE433FD7404A1
:1052DC0012176AE5822CF582E5833DF583E0F50E25
:1052EC00A3E0F50F8E087509007402780812170CEC
:1052FC0074482508FC74783509FD8C828D837808F8
:10530C001215EF7408780812153085080C85090DF4
:10531C008C828D8378081215EF741878081215306A
:10532C00E50C4508F508E50DF509C3E50E9508E50E
:10533C000F95098C828D8378081215EF8C828D83E2
:10534C0078081215EF741878084014121530E50C13
:10535C004508FCAD0DE50EC39CFCE50F9D800F12BE
:10536C001530E50C4508C3950EFCE50D950FFDC3F6
:10537C00EC9AED9B5006ECFAEDFBEEFF0EEEC394AF
:10538C001350030252BA74FF6A700374FF6B602DE2
:10539C008F087402780812170C74481260827478A3
:1053AC003509F58378081215EF851882851983E580
:1053BC00822510F582E583125E0FE508F009E9C33A
:1053CC00940450030252AB75080175090078081259
:1053DC001989740212176AAC82AD837A787B081231
:1053EC00123C7402121735740C1217357F0A02180E
:1053FC0048C082C083906186E0F89021E3E4936812
:10540C0070099021E2E493906186F09061AE74682B
:10541C00F0A3746AF090624574FBF0A304F053F4AB
:10542C00FD43FE0290055C7401F09061A0E0643ACB
:10543C007004790080027901120B1C025467C0823F
:10544C00C08390050EE06401700A900513E06004BF
:10545C00790C800279008003F0A3F0D083D0820213
:10546C000135C082C08375E1F1900511E0604D14E7
:10547C0060081460511460498051120B409005076C
:10548C00E0F97A087B05120D9290926712160D12B4
:10549C000DC890922712160D120D9E900512E0F970
:1054AC00120DAA7901120E04900505E0241612556E
:1054BC00FC7458F0A3740BF07900809F120B46809B
:1054CC00BC120B4C80B7120B5280B2791280EB7469
:1054DC00F412177675D90D9004F6E0A2E0E43313BC
:1054EC0013F8125568484401F5D978001255E64076
:1054FC00FB7800880874F712608274041255F0402F
:10550C00F275E1959004F6E0F97AF77B04120D98A8
:10551C00900A2774CEF0A3740A12560B12562B1253
:10552C00562212576312557278081215EF90926B2F
:10553C00780812157B90922F78081215C91255F61F
:10554C0078081215FE900505E024141255FC74130E
:10555C00F09003C27402F07F04021848900507E033
:10556C00C4333354C022900505E0F8A3E0F58388DA
:10557C0082A3A32274F61217761257348AD97800B4
:10558C001255E640FB7800800612569A1257E6E850
:10559C00C39940F51257261255E640FB7800800857
:1055AC0012607E74051257E6E8C39940F375E195D5
:1055BC00900A2774DAF0A3740A12560B12561512BD
:1055CC00160D1255F6121619900505E024141255F5
:1055DC00FC7412F09003C20259D188087408250893
:1055EC00F5827405125942940622900505E0240EAA
:1055FC00F8A3E0125603223400F988828983221220
:10560C00574C74D4F0A3740A2212562B1256221241
:10561C00576790927322F0A374ECF0A3740A2212D1
:10562C00562F2212563322F0A3747EF0A3740C2250
:10563C0074F612177612568F1255684402F5D97803
:10564C00001255E640FB7800800612569A1257E677
:10565C00E8C39940F575E195900A271256A5F0A379
:10566C001256A512561812160D1255F6121619903E
:10567C000505E024141255FC7414F09003C2740454
:10568C000259D3900517E0F9740729F5D922880837
:10569C0074182508F58274052274E61256B2125657
:1056AC00B2F0A3740A22F0A3740AF0A374E6227475
:1056BC00F612177612573474064AF5D9780012553B
:1056CC00E640FB7800800612569A1257E6E8C3991A
:1056DC0040F51257261255E640FB78008008126000
:1056EC007E74051257E6E8C39940F375E195900A6C
:1056FC002774E0F0A3740A12574212561512160DB5
:10570C001255F6121619900505E024141255FC7466
:10571C0015F09003C274030259D3900537125692B8
:10572C0074044AF5D978002212568F900507E0C40C
:10573C00333354C0FA2212574C747EF0A3740C22EB
:10574C001257502212575D747EF0A3740C12575DE1
:10575C0022125633F0A32212576722F0900A3574A6
:10576C007EF0A3740C125750747EF0A3740C125676
:10577C002FF022C082C083125572A3A3A3A3E4020C
:10578C00546474F71217761262C4F8740339F9E88A
:10579C002405FAE93400FB8A828B831260338882F9
:1057AC008983A3A3A3A3A3A3A3A3A3ECF0A3EDF0CA
:1057BC0088828983A3A3A3A3A3A3A3E024FFF8A3B4
:1057CC00E034FFF98A828B83E8F0A3E9F00259F404
:1057DC00880874602508F5827405125F5AF5D9089B
:1057EC0022EAFEEBFF9061D0E0F87480C398FAEEE9
:1057FC00248322125805940422125E1DE0F5D90A66
:10580C00EAC32274F6121776EAFEEBFF9061D0E041
:10581C00707575D90E75D90375D9047A008A08EE9E
:10582C002508126392248C1258A840F17A008A0839
:10583C00EE250812639224841257FF40F175E1950E
:10584C007908EE248C1258A124841258987C008C70
:10585C0082AA82C3E49AF895E0F9EE28F8EF39F9B8
:10586C00E8248BF582E9125F56C0E0EE2A126392AF
:10587C0024ABF582E9125E0FD0E0F00CECC3940877
:10588C0040CD12595E800279000259D4FAEF3400EF
:10589C00FB120C06221258987904EE221258059429
:1058AC000822C082C08375D90275D90375D90575D4
:1058BC00E195EA2470F582EB1258D3EA2472F58252
:1058CC00EB125970025467125E201258DA22E0F87B
:1058DC00A3E0F92274F6121776EAFEEBFF9005604E
:1058EC00740612594C1219897C017903125C7812D6
:1058FC00173575D90675D903780012593240FB75E6
:10590C00E1959003C2E064087017EE2470F582EF05
:10591C001258D3EE2472F582EF125E0FE8F0A3E971
:10592C00F079010259D4880874602508F582740551
:10593C00125942940522125E20E0F5D908E8C322E0
:10594C00F075086075090578082275E195790412DF
:10595C000DCEEE2470F582EF125E201258DAEE2492
:10596C0072F582EF125E20E8F0A3E9F0790122745F
:10597C00F6121776EAFEEBFF9061D0E070437901E6
:10598C00900560740BF09003C2E064077017750803
:10599C006075090578081219897C010909125C786F
:1059AC001217357905740129F5D975D9037800805A
:1059BC00031257DCE8C39940F875E19512595E80E3
:1059CC0002790080037401F07F0202184874F71208
:1059DC001776EAFEEBFF75D90375D90375D90DEE71
:1059EC0024DE1259F91259567F01021848F582EF3C
:1059FC00125F5AF5D9227F030218487401250AF563
:105A0C00D975D90378002274F5121776125A88606A
:105A1C0004780480027800E8240BF8EAC39840412B
:105A2C00750A099005607409F07908125A716014AE
:105A3C007508607509057808121989125C701217BF
:105A4C0035750A0D125A0780031257DCE8C3950A04
:105A5C0040F775E1957904120DCE125BED7901805A
:105A6C000279008091EE24E3FCEF3400FD7A617B37
:105A7C0005120C00850882850983E0221257EDF887
:105A8C00EF126027F583E02274F31217768A088BE5
:105A9C0009125C83FAE5082483F50AEB125B526069
:105AAC0004780480027800E82408F8EAC3985003CC
:105ABC00025B4B750C06900560740CF09003DFE0F4
:105ACC00900561F07402C0E0F97CE07D037A627BA2
:105ADC0005120C00D0E0F97CE27D03120C00850A63
:105AEC0082850B83E0601C750A60750B05780A12C1
:105AFC0019897C067903AA08AB09125C7812173550
:105B0C00750C0A7401250CF5D975D9037800800938
:105B1C00880A7460250A1257E2E8C3950C40F175A7
:105B2C00E1957904120DCEE5082470F582E5091291
