:020000040000FA
:10080000DC07DC070000007C41414141FFFFFFFFA6
:10081000FFFFFFFFFFFFFFFFFFFFFFFFFFFFFFFFE8
:10082000000102030405060708090A0BFFFFFFFF8A
:10083000020C87021C67FFFFFFFFFFFFFFFFFFFFA8
:10084000FFFFFF02231CFFFFFFFFFFFFFFFFFFFF74
:10085000FFFFFFFFFFFFFFFFFFFFFF022296FFFFEB
:10086000FFFFFF022278FFFFFFFFFF022379FFFF58
:10087000FFFFFF02222CFFFFFFFFFF02207EFFFF92
:10088000FFFFFF021CDAFFFFFFFFFFFFFFFFFFFF7D
:10089000FFFFFFFFFFFFFFFFFFFFFF022252FFFFEF
:1008A000FFFFFF0222B7FFFFFFFFFFFFFFFFFFFF7A
:1008B000FFFFFF021B1BFF0000B400002800280000
:1008C000283075A000A000A000A00000080008E0EB
:1008D00001F0001000100010001000100010005077
:1008E000005000500010001000D007000000000071
:1008F000000F0001000500307507001000010081A5
:10090000FF0000FFD025EE25D625FF0202020802D7
:100910005000A0000000E80302D482010000D5814D
:1009200002D0820100008F0C02BA82010000B102E5
:1009300002D082010000900C02AE82010000C702CA
:1009400002D082010000910C02B082010000C902B5
:1009500002D082010000920C02B282080000CA029A
:1009600002D082010000930C02B482010000940CBA
:10097000FF0100FF2002D4820100009F8202D0828A
:10098000010000F80C02B682000000000002C082E4
:1009900003000017039A2B9A2B9A2B9A2B9A2B9AC7
:1009A0002B9A2B9A2B9A2B9A2B9A2B9A2B9A2B16A3
:1009B0002E2E2E102EFFFF0202020202020202025F
:1009C000010D000000100102D482010000AB820280
:1009D000D0820100003B0D02CC82010000A407027E
:1009E000D0820100003C0D02CA8201000089810210
:1009F000D0820100003D0D02C8820100007B81020F
:100A0000D0820100003E0D02C682010000EB800290
:100A1000D0820100003F0D02C482010000B58002B7
:100A2000D082010000400D02DE82010000C780027A
:100A3000D082010000410D02E882010000D980024D
:100A4000D082010000420D02BE820100006D8102D1
:100A5000D082010000430D02BC82010000440D0160
:100A6000E803053F101C02D482010000A58202D0D9
:100A700082010000E90D105080020000190B02C035
:100A8000820300001B0B02C282010000968102D08B
:100A900082010000E90D1060800200001A0B02C004
:100AA00082030000210B02C282010000BA81FFFF15
:100AB000FF00013075030201060000000000000085
:100AC0000000000000000000000000000000000026
:100AD0000000000000FFFF0600800CE8031409532B
:100AE000696D706C65424C455065726970686572DD
:100AF000616C051250002003020A00020106030285
:100B0000F0FF4169722D4169720000000000000091
:100B100000000000000000023300001A33203314EC
:100B2000330A4368617261637465726973746963DF
:100B30002031000243686172616374657269737485
:100B40006963203200084368617261637465726989
:100B50007374696320330010436861726163746564
:100B6000726973746963203400024368617261635F
:100B7000746572697374696320350002D482010060
:100B800000A88202D082010000A50E02E4820300C8
:100B9000000C0C02C282010000A60E02D0820100ED
:100BA00000B70E02E682010000200C02C2820100A2
:100BB00000B80E02D082010000C90E02D6820200E7
:100BC00000210C02C282010000CA0E02D082010084
:100BD00000DB0E02DA82000000220C02C082030059
:100BE000002F0C02C282010000DC0E02D082010044
:100BF00000ED0E02DC82040000350C02C28201000E
:100C000000EE0EE5C754F84405F5C779012200004F
:100C10000080FB120C03B90003020C71E479217807
:100C200008B800028004F709D8FCE479297802B8F2
:100C300000028004F709D8FCE490028078BB790AAE
:100C40008002F0A3D8FCD9FA900C3AAA82AB839028
:100C500008B6784E79048015E493A3AC82AD838AFC
:100C6000828B83F0A3AA82AB838C828D83D8E9D94F
:100C7000E775827C7583AD7407120C9975820E75C9
:100C8000830C7400120C9975D00075813F751A8021
:100C9000751B02759F00020C13C09FF59FE473D073
:100CA0009F22D083D082C09FE493C0E0740193C0A0
:100CB000E0740293F59F22E066701008A3E066706E
:100CC0000A08A3E066700408A3E06622C3E796085A
:100CD00009E7960809E7960809E79622C3E096080F
:100CE000A3E09608A3E09608A3E09622C00AC3E01A
:100CF00096F50A08A3E096420A08A3E096420A087D
:100D0000A3E096450A7001D3D00A22080808E6300D
:100D1000E7111212F8120D23080808C64480C618FD
:100D2000181822181818E9799EC608CAC608CBC632
:100D300008CCC6C370207996CACBCC7019798ECBFB
:100D4000CC70137986CC700EF9802ACA33CACB33A3
:100D5000CBCC33CC331930E7F2CCCBCA3350147040
:100D600004EA30E00DE4CA3ACACB3BCBCC3CCC50D1
:100D70000209C3E913C6CC182313C6CB18C6CA1878
:100D8000C6F922120DC320F01430E72B74FFFCFBD0
:100D9000FA747F8022E4FCFBFA7480801AB4800825
:100DA000BC00F2BB00EF800F50EBF9E4C39AFAE409
:100DB0009BFBE49CFCE499C6CC18C6CB18C6CA18A9
:100DC000C6F922E4C9C608CAC608CBC6D33303088D
:100DD000CCC63392F0C3947F402E94184019C9B901
:100DE0000704CACBCC225025C309CA33CACB33CBA4
:100DF000CC33CC33D9F422F4600DC9CCC313CB135C
:100E0000CBCA13CAD9F6CC22E4FCFBFA2214FCFBB1
:100E1000FA22E6C33318461846184622E7C33319A8
:100E2000471947194722181818E6084608700AE6B5
:100E300008C3337005E633F4220822191919E709AB
:100E40004709700AE709C3337005E733F422092222
:100E5000E6084608C3134608336002E633F422E787
:100E6000094709C3134709336002E733F42200122C
:100E70000E50604F120E5F6012E7548066F6120E3D
:100E8000267011120E1C703B090909F4F618F618A9
:100E9000F618F622120E3B7015120E1208080860A2
:100EA000EAE6447FF618768018E4F618F622120E69
:100EB000126016120E1C7012E4F608F608F608E628
:100EC0005480F609090918181822EAC0E0EBC0E0BE
:100ED000ECC0E0EDC0E0E687F0A4FBACF008E687EC
:100EE000F0A42CFCE435F0FA1809E687F0A42C4BAA
:100EF00060027401CA35F0FCE433FB09E687F0D2E6
:100F0000F7A42CCB35F0FC1908E687F0A42BCC35E0
:100F1000F0FBE433FD0819E687F0D2E7A42C4ACBB6
:100F200035F0CD3400FC09E687F0D2E7A42DCC35AE
:100F3000F0FDE433FA0918E687F0D2F7A42CCD359A
:100F4000F0CA3400FC08E687F0D2E7D2F7A42ACC36
:100F500035F07A7E20E70B0ACB33CBCD33CDCC33C3
:100F6000CC33CB3350147004ED30E00ED2F1E4CD2D
:100F70003DCDCC3CCC3B5005DA05C2F1EB547FC6ED
:100F80003308E63392F0FBE73309E733C39A502D79
:100F90002B70190C0D4C4D70151806E608C33370F4
:100FA0000D20F10AA2F013F6E418800B4024E4F6B9
:100FB00030F002768018F618F618F68024D33B1429
:100FC000501074FFA2F013F6187680E418F618F6A5
:100FD000800FA2F013F618E63303F618ECF618EDBE
:100FE000F6D0E0FDD0E0FCD0E0FBD0E0FA22120E1B
:100FF00050601D120E5F7005191919801A120E2605
:10100000701F120E3BC37003E667331919194007AE
:101010001818182208080874FFF618F618F618F6BB
:1010200022120E3B6017120E1C702192F0120E124B
:101030007019501720F014080808090909E7F61874
:1010400019E7F61819E7F61819E7F622120E1260DA
:10105000E6E869701F0808E62480F608E436F6180A
:10106000547FB47F0CE654806007F6E418F618F657
:1010700022181822E9C6CC08C6CD08C6CE08C6CFAD
:10108000C0E0E8C0E0EAC0E0EBC0E009E9F809E749
:10109000FA09E7FBE6F918E6F8C3EC98ED99EE9A41
:1010A000EBC2E7F5F0EFC2E795F0500E600CEBCF26
:1010B000FBEACEFAE9CDF9E8CCF8EAA2E7D2E7FA02
:1010C000EB33FB13F5F0EEA2E7D2E7FEEF33FFC5FB
:1010D000F013A2E730E601B313C5F0C3C0E0C0F0DF
:1010E0007F00C39BFB605E9418600F401D14601A64
:1010F000D0E023F9D0E0F80211CF8AF0E94860038C
:10110000D2F0E4AFF0FAF9F8803BEB30E40D89F06F
:10111000EA6003D2F0E4AFF0F9CAF8EB30E30D88EF
:10112000F0EF6002D2F0AFF0E4CAC9F8EB54076008
:1011300014FBC3EA13FAE913F9E813F8EF135002AA
:10114000D2E0FFDBEDD0E0C0E030E739C3E49FFF41
:10115000F5F0EC98FC42F0ED99FD42F0EE9AFE427B
:10116000F0D0E0F9D0E0F8E5F0607AE923F9EE207C
:10117000E742D8028067C3EF33FFEC33FCED33FD69
:10118000EE33FE80EAEC28FCED39FDEE3AFED0E0CD
:1011900023F9D0E0F84002801BC3EE13FEED13FDEF
:1011A000EC13FCEF135002D2E0FF08B800067F7F7B
:1011B00074FF802EEF3350178CF020F00260100C7B
:1011C000BC000C0DBD00080EBE000408E860DFE99D
:1011D00033E813FFEE2313FE4F4D4C8008E9548093
:1011E000FFE4FEFDFCEE33EF33F47004FCFD7E8083
:1011F000D0E0FBD0E0FAD0E0F8D0E0CFC618CEC601
:1012000018CDC618CCC6F922080808EAC0E0EBC021
:10121000E086F0E7A4FA180986F0E7A42AFA18098C
:1012200086F0E7A42AFA180986F0E7A42AFA1986B4
:10123000F0E7A4FBE5F02AFA190886F0E7A42BFBF7
:10124000E5F03AFA190886F0E7A42BFBE5F03AFA44
:1012500018180986F0E7A4C5F02BFBE43AFA190840
:10126000E7C5F0C6A426F6E5F03BFBE43AFA18869B
:10127000F0E7A4F6E5F00826F6E43B08F6E43A08C1
:10128000F6D0E0FBD0E0FA22E4CFC0E0E4CEC0E04C
:10129000E4CDC0E0E4CCC0E075F020C3E633F6084E
:1012A000E633F608E633F608E633F6181818EC339A
:1012B000FCED33FDEE33FEEF33FFC3EC9709ED9702
:1012C00009EE9709EF97191919400FFFEC97FC09E0
:1012D000ED97FD09EE97FE191906D5F0BEECF7095A
:1012E000EDF709EEF709EFF7191919D0E0FCD0E096
:1012F000FDD0E0FED0E0FF22181818E4C396F608EF
:10130000E496F608E496F608E496F62260160808D5
:1013100008C6C313C618C613C618C613C618C61304
:10132000C6D5E0EA227009080808226016181818C5
:10133000C6C333C608C633C608C633C608C633C6D6
:10134000D5E0EA22E627F60809E637F60809E63787
:10135000F60809E637F622E026F608A3E036F60896
:10136000A3E036F608A3E036F622E026F008A3E074
:1013700036F008A3E036F008A3E036F022C3E69783
:10138000F60809E697F60809E697F60809E697F6DB
:1013900022C3E096F008A3E096F008A3E096F008D8
:1013A000A3E096F022E056F608A3E056F608A3E084
:1013B00056F608A3E056F622E056F008A3E056F0F1
:1013C00008A3E056F008A3E056F022E0F608A3E0F8
:1013D000F608A3E0F608A3E0F622E6F008A3E6F09C
:1013E00008A3E6F008A3E6F022E0FAA3E0FBA3E0FE
:1013F000FCA3E0FD22EAF0A3EBF0A3ECF0A3EDF0F8
:1014000022CAC0E0E6F0A308DAFAD0E0FA22CAC0A5
:10141000E0E0A3C582CCC582C583CDC583F0A3C55A
:1014200082CCC582C583CDC583DAE6D0E0CA22C3AB
:10143000E498F8E499F91214708026C3E49AFAE467
:101440009BFBE920E7E9121470E498F8E499F9228B
:10145000C3E498F8E499F9121470E498F8E499F95F
:10146000C3E49AFAE49BFB22EB20E7CFE920E7E014
:10147000B90010BB0008E88AF084F8AAF022E4FB67
:10148000C8FA22EB70227B10C833C8C933C9335065
:1014900007C39AC3DBF280069A50012ADBEAC833FD
:1014A000F4C8C933F4C9FA2275F008E4C833C8C9CE
:1014B00033C933C99AC99B5004C92AC93BD5F0EC3A
:1014C000FBC833F4C8E4C9FA22600D08C6A2E713CA
:1014D000C618C613C6D5E0F322600C08C6C313C6EF
:1014E00018C613C6D5E0F422700422600D18C6C3D6
:1014F00033C608C633C6D5E0F41822251A10AF0843
:10150000F51A4002151B8008F51A4002151BD2AFD0
:1015100022C0D0251A10AF08F51A5002051B80080A
:10152000F51A5002051BD2AFD0D022251AF5821031
:10153000AF08F51A4002151B8008F51A4002151B6A
:10154000D2AF851B8322251AF582E4351BF5832251
:10155000E473251AC582C0E0E51B34FFC583C0E0F3
:10156000E51AC3958224F810AF0885831B85821A7B
:10157000800885831B85821AD2AFCEF0A3E520F0C8
:10158000A3780AE608F0A3DEFAEFF0A3E58124FAD7
:10159000F8E608F0A3E608F0A3E608F0A30808E6DA
:1015A00008F0A3E608F0A315811581D0E0FED0E095
:1015B000F8158115811581E8C0E0EEC0E022251AFA
:1015C000C582C0E0E51B34FFC583C0E0E51AC395C2
:1015D0008224F910AF0885831B85821A80088583D1
:1015E0001B85821AD2AFCEF0A3E520F0A3780AE6DD
:1015F00008F0A3DEFAEFF0A3E58124FBF8E608F09B
:10160000A3E608F0A30808E608F0A3E608F0A3158F
:10161000811581D0E0FED0E0F815811581E8C0E0A9
:10162000EEC0E022851B83851A82E0A3FEE0A3F5CD
:1016300020780AE0A3F608DFFAE0A3FFE0A3C0E009
:10164000E0A3C0E0E0A3C0E0E0A3C0E0E0A3C0E00E
:1016500010AF0885821A85831B800885821A8583CE
:101660001BD2AFD083D082020C9F851B83851A8248
:10167000E0A3FEE0A3F520780AE0A3F608DFFAE095
:10168000A3FFE0A3C0E0E0A3C0E0E0A3C0E0E0A3CC
:10169000C0E010AF0885821A85831B800885821AF6
:1016A00085831BD2AFD083D08222C0D0251AC582B9
:1016B000C0E0E51B34FFC583C0E0E51AC395822472
:1016C000F310AF0885831B85821A800885831B85EC
:1016D000821AD2AFC8F0A3E9F0A3EAF0A3EBF0A31B
:1016E000790AE709F0A3D8FAECF0A3EDF0A3EEF045
:1016F000A3EFF0A3D0E0F0A3D0E0F0A3D0E0F0A3FC
:10170000E520F0A3E5F0F0A322851B83851A82E093
:10171000C0E0A3E0F9A3E0FAA3E0FBA3780AE0F6B7
:1017200008A3DFFAE0FCA3E0FDA3E0FEA3E0FFA333
:10173000E0C0E0A3E0C0E0A3E0F5D0A3E0F520A383
:10174000E0A3F5F010AF0885831B85821A80088519
:10175000831B85821AD2AFD082D083D0E0F8D0E04C
:101760003274048006740280027401C0E0F4041232
:10177000152BD0E01214012274048004740280003E
:10178000CCC0E0EDC0E0E51AC39CCCAD1B50011D00
:1017900010AF068C1A8D1B80068C1A8D1BD2AF12CF
:1017A000140ED0E0FDD0E0FC22D083D082E9C0E06E
:1017B000E493A3C386F0C5F095F0F908E493A386FB
:1017C000F0C5F095F0700BE493A3C3994005E904CC
:1017D0008002A3E475F002A42582F582E5F035834A
:1017E000F583D0E0F9E493A3C0E0E493C0E022D015
:1017F00083D082ECC0E0EDC0E0E493A3FCE493A3CB
:10180000FDED4C600D12183BEC24FFFCED34FFFDA8
:1018100080EFE493A3FCE493A3FDED4C600D12185C
:101820007AEC24FFFCED34FFFD80EFD0E0FDD0E04A
:10183000FCE493A3C0E0E493C0E022C0E0C3E493DF
:1018400096087401939618400FE493667008087424
:101850000193661870007019A3A3C3E493960874EB
:1018600001939618A3A3400DD0E0D0E0D0E0021879
:101870002BA3A3A3A3A3A3D0E022C0E0C0F088F0D1
:10188000E4936670080874019366187000A8F0A3CA
:10189000A3700BD0F0D0E0D0E0D0E002182BA3A3CF
:1018A000D0F0D0E022FFFFFF74F51215BEEAFEEB88
:1018B000FFEE2434F8EF3400F9880A890BEE243562
:1018C000F582EF3400F583E0F8EE2437F582EF344B
:1018D00000F583E0F50CEC850CF0A4FCAAF0850C77
:1018E000F0EDA42AFDE82CF8E43DF97A257B0012FE
:1018F0001470EA850A82850B83F05407F87401B8E6
:1019000000028004C333D8FCC0E0E0131313541F5B
:10191000F8EE28F8EF3400F9E8245DF582E93400A8
:10192000F583D0E0F8E0586008EE2434F582EF80CB
:101930001EEE2436F582EF3400F583E0F5F0EA84FC
:10194000A8F0EE28F8EF3400F9E82438F582E934FD
:1019500000F583E0F97F0402166A74F51215BEEAF9
:10196000FEEBFFEE2434F582EF3400F583E0C0E0B7
:10197000EE2435F582EF3400F583D0E0F08E828FCF
:1019800083A3A3A3A3A3A3A3C082C0838E828F83B8
:10199000A3A3A3A3A3E0F8A3E0F9D083D082E0C37C
:1019A00098F50AA3E099F50BEE2480F582EF340058
:1019B000F583E064017069EE2481F582EF3400F56F
:1019C00083E0F8A3E0F98E828F83A3A3A3A3A3A34C
:1019D000A3E0FCA3E0FD8E828F83A3A3A3A3A3E0D7
:1019E000FAA3E0FBC3EA9CEB9D5027C3EC98ED996A
:1019F000402EC3EA98EB9950277CFC7D04EEFAEF69
:101A0000FB122AF8EE2480F582EF3400F583E4F02F
:101A1000800EC3EA98EB9940E0C3EC98ED9950D959
:101A2000EE2434F8EF3400F9E8FCE9FDEE2435F556
:101A300082EF3400F583E0F8EE2437F582EF3400CE
:101A4000F583E0F50CE50A850CF0A4F50AAAF0850B
:101A50000CF0E50BA42AF50BE8250AF8E4350BF9A0
:101A60007A257B00121470EA8C828D83F05407F87B
:101A70007401B800028004C333D8FCC0E0E0131343
:101A800013541FF8EE28F8EF3400F9E8245DF582CE
:101A9000E93400F583D0E0F8E0586008EE2434F52E
:101AA00082EF801EEE2436F582EF3400F583E0F5F8
:101AB000F0EA84A8F0EE28F8EF3400F9E82438F5CD
:101AC00082E93400F583E0F9122070021955C082D2
:101AD000C083851A82851B83E0F8A3E0F9C3EA9CE2
:101AE000EB9D5012C3EC98ED994019C3EA98EB991D
:101AF000501279018010C3EA98EB9940F5C3EC9835
:101B0000ED9950EE7900D083D08222EAC39CFAEBA3
:101B10009DFB22FF8521878522C622C0E0C0D0E838
:101B2000C0E0E9C0E0EAC0E0EBC0E0ECC0E0EDC03E
:101B3000E0C00AC00BC00CC00DC082C083C0F075ED
:101B40009B00906182E0A2E64003021BF9E591A2AE
:101B5000E64003021BF97591BF9003C1E064057074
:101B600008122C24122C308003122C2A752100120A
:101B70002C84E99003C2F07900122C78122A6E7A34
:101B8000017B009003C0E0F9122F90907803E0648D
:101B9000426003021C4290055EE014F06003021CE8
:101BA00042C2AF121BA600782AD0E0F618D0E0F6A9
:101BB000E59F5407F9700590827F800390827B78BF
:101BC0000A1213CBE9C4C0E07829E6550AF50A08E1
:101BD000E6550BF50B740B780A1214D9D0E0250AE0
:101BE000F8906270E0A2E740F8E8C333906272F0C8
:101BF000906270E0D2E0F08049E0A2E55024E591E7
:101C0000A2E5501E7591DF9003C1E0640D70139042
:101C100003E3E004F064287002E4F07A00E0F912D3
:101C20002CF6906181E0A2E35009E5E9A2E35003BC
:101C300075E9F7A3E0A2E75009E591A2E750037523
:101C4000917FD0F0D083D082D00DD00CD00BD00AB1
:101C5000D0E0FDD0E0FCD0E0FBD0E0FAD0E0F9D05D
:101C6000E0F8D0D0D0E032C0E0C0D0C082C08390D5
:101C70006183E0A2E05009E5BFA2E0500375BFFE1A
:101C8000E0A2E15009E5BFA2E1500375BFFDE0A26B
:101C9000E25009E5BFA2E2500375BFFBE0A2E350AA
:101CA00009E5BFA2E3500375BFF7E0A2E45009E5E0
:101CB000BFA2E4500375BFEFE0A2E55009E5BFA263
:101CC000E5500375BFDFE0A2E65009E5BFA2E6508C
:101CD0000375BFBFD083D0828088C0E0C0D0E8C089
:101CE000E0E9C0E0EAC0E0EBC0E0ECC0E0EDC0E05D
:101CF000C0F0E5A7A2E6500FE5A1A2E6500953A760
:101D0000BF75A1BF121D3FE5A7A2E5500CE5A1A23A
:101D1000E5500653A7DF75A1DFE5A7A2E15009E56D
:101D2000A1A2E1500375A1FDE5A7A2E2500CE5A137
:101D3000A2E2500653A7FB75A1FBD0F0021C507421
:101D4000F81215BE7521019003C1E06406701512EA
:101D50002BC48A828B83A3A3A3A3A3A3E0FAA3E04B
:101D6000FB122C12A2AFE433FED2AF9003C7E064A3
:101D70000170187A207B009003C0E0F91230147AC9
:101D8000207B009003C0E0F9122F96906182E0D290
:101D9000E6F090055DE0602185C62280169003C6BE
:101DA000E064017008E5C654F84405F5C653BEFC6E
:101DB000121B147401652160E4EEA2E092AF7F0172
:101DC00002166AFF8E238F24858228858327851A31
:101DD00082851B83E0CEA3E0CF852882852783EB15
:101DE000C9EAC8EDCBECCA75F010C3E833C8E933D3
:101DF000C9EA33CAEB33CBC3EA9EF526EB9FF52540
:101E0000B35004AB25AA26EC33CCED33CDD5F0DAB4
:101E1000AE23AF242274F11215BE8A0A8B0B8C0CF0
:101E20008D0D740F121546780E1213CB90825B78CD
:101E30000A1213A590825B780E1213A5780A790E08
:101E4000120CCC5015780A790E12137D9082077807
:101E50000A120CEC401579018013780E790A1213DE
:101E60007D908207780E120CEC40EB79007F08021F
:101E7000166A74ED1215BE8A0A8B0B8C0C8D0D74CC
:101E800013121546780E1213CB90825B780A121348
:101E9000A590825B780E1213A5780E790A120CCCED
:101EA0004011780A790E12137DAA0AAB0BAC0CAD67
:101EB0000D802275120075130075140075150178D8
:101EC00012790E12137D7812790A121344AA12ABFA
:101ED00013AC14AD157F0C02166A90825B780A125F
:101EE00013CB8A828B83780A1213B87F0402166A96
:101EF00074F51215BE8C828D83780A1213CB8A82F8
:101F00008B83780A121391EA2404F8EB3400F98CDD
:101F1000828D83A3A3A3A3E0FCA3E0FD8882898331
:101F2000C3E09CF0A3E09DF088828983C3E0942005
:101F3000A3E0944E4022908247780A1213CB8A8203
:101F40008B83780A12136A8A828B83A3A3A3A3E0EC
:101F50002420F0A3E0344EF0808074F51215BEE921
:101F6000FE900513E0FAA3E0FBEEC333F8E433F987
:101F7000740D28F582748139F583E02AF50AA3E00F
:101F80003BF50B780A1217659082931213E9121D24
:101F9000C474021215118A0A8B0B8C0C8D0D7410EF
:101FA000780A12130CAA0AAB0B7F0402166A74F1AA
:101FB0001215BE8A0E8B0F8C108D11740F121546E0
:101FC000E0FAA3E0FB7411121546E0F50AA3E0F570
:101FD0000B7413121546E0FEA3E0FF780A12176592
:101FE000EA2401F50AEB3400F50BE4F50CF50D7865
:101FF0000E790A121208908243780A1213CB780ED7
:10200000790A121208AA0EAB0FAC10AD11121DC442
:1020100074021215118B0BEA450B60047A018002E1
:102020007A00EC2AFCED3400FDECF8EDF97A717BD6
:1020300002121470880A890BE4F50CF50D8E828F5C
:1020400083780A1213DAECF8EDF97A717B02121434
:10205000708A0A8B0B7405780A1214E88E828F83BB
:10206000A3A3A3A3E50AF0A3E50BF07F0802166A79
:10207000C082C083E9906000F0D083D08222C0E0AB
:1020800074EB1216AAE5AFFED2879007A3E004F026
:10209000EEA2E24003022206E5E7A2E640030222A6
:1020A00006E0C39403500302220643B440D287E5FE
:1020B000B4A2E750FAC287E5BAF50AE5BBF50B749E
:1020C00005780A1214C9AA0AAB0B9007A0E0C33323
:1020D000F8E433F9748C28F582740739F583C3EA80
:1020E00094B4EB9400A2D265D033500774B4F0A33B
:1020F000E4801AC3EA946CEB9404A2D265D0334016
:1021000008746CF0A374048004EAF0A3EBF0900769
:10211000A0E004F0C3940A5003022218E4F0FF7414
:10212000012FF50CEFF83395E0F9E8C333F8E93304
:10213000F9748C28F8740739F988828983E0FCA344
:10214000E0FDE50CFA3395E0FBEAC333FAEB33FB31
:10215000748C2AFA74073BFB8A828B83E0F50AA30E
:10216000E0F50BC3E50A9CE50B9D5014888289833A
:10217000E50AF0A3E50BF08A828B83ECF0A3EDF087
:10218000050CE50CC3940AA2D265D03340AB0FEF27
:10219000C39409A2D265D0334085900798E0F8A394
:1021A000E0F9A3122223122223E028F50AA3E03942
:1021B000F50B7402780A1214C9E50B3395E0F50C9F
:1021C000F50D780A120D0B908233780E1213CB782E
:1021D0000A790E120E6E908237780E1213CB780A9F
:1021E000790E120FEE780A120D839007A1E50AF01E
:1021F000A3E50BF075E400C2B975E60075E7009041
:1022000007A3E4F08012EEA2E3500D9062A3E0A2D7
:10221000E65005D287122F2AEEF4F5AFC2877F0869
:10222000021709E028F8A3E039F9A322C0E074F20C
:102230001216AAA2AFE433FED2AFC2C0E5D1A2E427
:10224000500653D1EF1231FAEEA2E092AF7F0102B5
:102250001709C0E074F21216AAA2AFE433FED2AF9F
:10226000E589A2E15003123188758900C2C5EEA24A
:10227000E092AF7F01021709C0E074F21216AAA221
:10228000AFE433FED2AFE58BA2E050031231887584
:102290008B00C2E880D8C0E0C0D0E8C0E0E9C0E070
:1022A000E5A8D2AFC2C7A2E7A2E792AFD0E0F9D0CB
:1022B000E0F8D0D0D0E032C0E0C0D0E8C0E0E9C063
:1022C000E0C00AC00BC082C083A2AFE433F9D2AF32
:1022D000900A0AE0F8A3E0687008539AF7A3740123
:1022E0008021C2EA900A0A1223C9748A250AF5825B
:1022F00074093400F583E0F5F9900A0AE0C394808C
:102300004002E4F0E9A2E092AFD083D082D00BD0BB
:102310000AD0E0F9D0E0F8D0D0D0E032C0E0C0D0B0
:10232000E8C0E0E9C0E0EAC0E0C082C083A2AFE458
:1023300033FAD2AFE5C1C0E0900A91E0F8741028FA
:10234000F582740A3400F583D0E0F0900A90E0F84A
:10235000A3E0687006E595900A93F0900A91E00476
:10236000F0C394804002E4F0A3E4F0EAA2E092AF6C
:10237000D083D082D0E0FA8098C0E0C0D0E8C0E03E
:10238000E9C0E0C00AC00BC082C083A2AFE433F949
:10239000D2AF900B14E0F8A3E0687008539AFBA347
:1023A00074018021C2E9900B141223C97494250A88
:1023B000F582740A3400F583E0F5C1900B14E0C394
:1023C00094804002E4F0022304E0F50A7401250A37
:1023D000F022120CA2689D07120CA27F9D07120C1E
:1023E000A2AE9D07120CA2E79D07120CA20F9E073A
:1023F000120CA23D9E07120CA2549E07120CA26B57
:102400009E07120CA2819E07120CA2A89E07120C16
:10241000A2BB9E07120CA2D19E07120CA2E49E073B
:10242000120CA2099F07120CA202A606120CA2010E
:10243000A706120CA236A706120CA257A706120C6A
:10244000A267A706120CA288A706120CA294A806DF
:10245000120CA261A906120CA2D4A906120CA25A4F
:10246000AA06120CA29DAA06120CA2D4AA06120C4D
:10247000A25AAB06120CA22CAC06120CA28AAC0615
:10248000120CA2A2AC06120CA21CAD06120CA21FCA
:10249000AD06120CA222AD06120CA2C9AD06120C9A
:1024A000A2E1AD06120CA211AE06120CA231AE06CC
:1024B000120CA21FAF06120CA2D5AF06120CA2EE90
:1024C000E706120CA216E806120CA244E806120C4B
:1024D000A27BE806120CA2E3E806120CA22CE90685
:1024E000120CA277E906120CA2B5E906120CA2F2B0
:1024F000E906120CA220EA06120CA2C7EA06120C88
:10250000A2D1EA06120CA2DEEA06120CA211EB0618
:10251000120CA2D3EB06120CA2DFEB06120CA2F7F0
:10252000EB06120CA201EC06120CA28EA907120CEB
:10253000A29CA907120CA2B4A907120CA2CCA9074D
:10254000120CA262BA05120CA200BB05120CA278F2
:10255000BB05120CA28DBC05120CA2C7BC05120C47
:10256000A270BD05120CA245BE05120CA2A9BF05A2
:10257000120CA200C005120CA287C005120CA26E9C
:10258000C105120CA2BBC105120CA249C205120C56
:10259000A26DC205120CA242C405120CA283C4058E
:1025A000120CA2A5C405120CA226C505120CA2107D
:1025B000C605120CA2D6C605120CA266D006120CD5
:1025C000A238D106120CA2E1D106120CA224D20626
:1025D000120CA2B1D206120CA23DD306120CA21EFE
:1025E000D406120CA24DD406120CA249D506120C28
:1025F000A291D506120CA293D606120CA2D7D6062B
:10260000120CA2FDD606120CA2B6AB07120CA21435
:102610008807120CA22A8807120CA2508807120CF5
:10262000A2788907120CA2828907120CA2DB8A0702
:10263000120CA2DB8B07120CA2C8E206120CA2FD40
:10264000E306120CA230E406120CA27AE406120C85
:10265000A238E606120CA205AB05120CA268AB0567
:10266000120CA2ADAC05120CA2BDAC05120CA2E07E
:10267000AC05120CA22BAD05120CA2D0AD05120CAC
:10268000A2C6AE05120CA290AF05120CA208B105AD
:10269000120CA24AB105120CA2E8B105120CA23527
:1026A000B205120CA25BB205120CA249B405120CC1
:1026B000A24EB405120CA22FB605120CA283B605C9
:1026C000120CA2E5B605120CA20DB705120CA2B1B0
:1026D000B705120CA273B805120CA2A4B805120C0F
:1026E000A2A7B805120CA2EFB805120CA231B905C9
:1026F000120CA298B905120CA2D39407120CA2E6F0
:102700009407120CA2FF9407120CA24A9507120C10
:10271000A2259607120CA2B49607120CA2FF9607E8
:10272000120CA200B004120CA20CB004120CA245B0
:10273000B004120CA28AB004120CA241B104120C13
:10274000A2C7B104120CA22CB204120CA258B204FB
:10275000120CA291B204120CA2A5B404120CA28114
:10276000B604120CA26CB804120CA2A3B904120C89
:10277000A203BC04120CA2EFBC04120CA235BE04CE
:10278000120CA242BF04120CA25FBF04120CA2974B
:10279000BF04120CA2B1BF04120CA219C004120C87
:1027A000A2B3C404120CA254C504120CA2A5C50401
:1027B000120CA2CCC504120CA21AC604120CA23828
:1027C000C604120CA28CC604120CA294C704120CEC
:1027D000A21CC804120CA296EC06120CA2A0EC06D5
:1027E000120CA26BED06120CA286ED06120CA2AC26
:1027F000ED06120CA2F0ED06120CA228EE06120C49
:10280000A251EE06120CA2CAEE06120CA2DFEE06D0
:10281000120CA2F4EE06120CA22BEF06120CA23F31
:10282000EF06120CA270EF06120CA2AAEF06120C11
:10283000A2D6EF06120CA24DF006120CA296F006DC
:10284000120CA2C0F006120CA2E5F006120CA2288F
:102850008407120CA2F28407120CA2D58507120C71
:10286000A24B8607120CA28D8607120CA2BA87070C
:10287000120CA2783300120CA2A13300120CA2BADF
:102880003300120CA2FF3400120CA2DD3500120C32
:10289000A2FC3500120CA2893600120CA2CC360024
:1028A000120CA2193800120CA2B83800120CA23770
:1028B0003B00120CA2CE3B00120CA2A23C00120C58
:1028C000A2843D00120CA2F03E00120CA2833F0035
:1028D000120CA27EA607120CA2E7A607120CA23BBE
:1028E000A707120CA262A707120CA20DF106120C88
:1028F000A27AF106120CA2C5F106120CA2BAF206D7
:10290000120CA2B6F306120CA2A0F406120CA240FE
:10291000B006120CA282B006120CA25CB106120C18
:10292000A235B206120CA230B306120CA20FB406E6
:10293000120CA27BB406120CA242B506120CA2AD78
:10294000B506120CA214B606120CA23FB606120C63
:10295000A2B0B606120CA243B706120CA2ACB70680
:10296000120CA2C1B706120CA209B806120CA222C0
:10297000B806120CA287B806120CA28AB806120C6E
:10298000A2FB8E07120CA2238F07120CA2618F07E5
:10299000120CA21F9007120CA28A9007120CA2A67A
:1029A0009007120CA2CE9007120CA2FE9007120CF8
:1029B000A20D9107120CA2879107120CA2AD9107EC
:1029C000120CA289D705120CA266D905120CA261BD
:1029D000DB05120CA234DC05120CA27FDC05120C04
:1029E000A2CADC05120CA2DCDC05120CA21CDD055F
:1029F000120CA251DD05120CA29DDD05120CA2CC19
:102A0000DD05120CA2EFDD05120CA23CDE05120C56
:102A1000A2C5DE05120CA2D2E005120CA2BDE20591
:102A2000120CA200E305120CA265E405120CA2A68A
:102A3000E405120CA219E505120CA265E505120CBD
:102A4000A25FF305120CA28AF305120CA271FA051B
:102A5000120CA295FC05120CA250FE05120CA2ADA0
:102A6000FF05120CA283C804120CA21AC904120C8E
:102A7000A260C904120CA29FCA04120CA236CC0494
:102A8000120CA2B0CC04120CA2CBCC04120CA240AB
:102A9000CD04120CA26FCE04120CA2CACF04120CE9
:102AA000A2CCD004120CA229D204120CA242D2044D
:102AB000120CA29FD204120CA281D304120CA2B455
:102AC000D304120CA224D404120CA29ED404120C1F
:102AD000A2EDD404120CA2B9D504120CA2BED604E5
:102AE000120CA29DD704120CA228D804120CA29694
:102AF000D804120CA20AD904120CA233D904120C65
:102B0000A2F2D904120CA26CDB04120CA289DB0421
:102B1000120CA2A8DB04120CA239DC04120CA25E77
:102B2000DC04120CA286DC04120CA201DD04120CDF
:102B3000A25BDD04120CA2AFDE04120CA26CDF0457
:102B4000120CA23FE004120CA290E505120CA2E0C8
:102B5000E505120CA2ECE505120CA2C9E605120C63
:102B6000A2F9E605120CA231E705120CA2B0E705A6
:102B7000120CA2E8E705120CA23AE805120CA277A3
:102B8000E805120CA29CEA05120CA2C8EC05120C76
:102B9000A2C3EE05120CA29EF005120CA2FDFF04CA
:102BA000120CA2549705120CA29E9705120CA27D3E
:102BB0009D05120CA2FE9E05120CA25DA505120C2D
:102BC000A258A605120CA295A605120CA2B8A6053D
:102BD000120CA2FAA605120CA203A705120CA20D54
:102BE000A705120CA2F9A705120CA2EDA805120C5C
:102BF000A26DE004120CA2E5EA04120CA2EBEA04B6
:102C0000120CA2F7F104120CA2E58B07120CA2E33E
:102C10008C07120CA2398D07120CA2778D07120CAB
:102C2000A2D48D07120CA2518E07120CA25A8E0745
:102C3000120CA2668E07120CA2798E07120CA2B596
:102C40008E07120CA2CB8E07120CA2B3F906120C3F
:102C5000A2C0F906120CA2DAF906120CA219FA06A1
:102C6000120CA257FA06120CA2BCFA06120CA2D140
:102C7000FA06120CA2DCFA06120CA2E9FA06120CF1
:102C8000A200FB06120CA20EFB06120CA219FB06F8
:102C9000120CA225FB06120CA234FB06120CA23F5A
:102CA000FB06120CA262FB06120CA20BFC06120C15
:102CB000A21BFC06120CA235FC06120CA252FC064A
:102CC000120CA26EFC06120CA293FC06120CA29D22
:102CD000FC06120CA2B1FC06120CA2D0FC06120CCF
:102CE000A231FD06120CA237FD06120CA23DFD0614
:102CF000120CA243FD06120CA24FFD06120CA2827A
:102D0000FD06120CA2058006120CA2878006120C8A
:102D1000A2308106120CA2788206120CA2868406CA
:102D2000120CA26C8506120CA2A18506120CA2C37D
:102D30008506120CA26C8606120CA23C8806120CA8
:102D4000A2658806120CA2DD8806120CA20F890665
:102D5000120CA21C8906120CA2678906120CA28B07
:102D60008906120CA2DC8B06120CA2E68C06120C51
:102D7000A2428D06120CA20BC905120CA21CCA0598
:102D8000120CA200CB05120CA20ACB05120CA22C2D
:102D9000CB05120CA238CB05120CA2DCCC05120C10
:102DA000A209CD05120CA21FCE05120CA274CE05ED
:102DB000120CA2C3CF05120CA298D005120CA2F4DB
:102DC000D005120CA25FD105120CA294D105120CF1
:102DD000A2D7D105120CA2A1D405120CA2B9D40518
:102DE000120CA24AD505120CA258D505120CA2A5A8
:102DF000D505120CA2B3D505120CA21FD605120CD4
:102E0000A29AD605120CA2F1D605120CA2E49A06DB
:102E1000120CA2069B06120CA2179D06120CA2D63B
:102E20009F06120CA200A106120CA2BEA106120C53
:102E3000A2AAA206120CA2AF9B07120CA2D49B0757
:102E4000120CA24A9C07120CA249C906120CA252EB
:102E5000C906120CA25BC906120CA233CA06120CD8
:102E6000A2E4CB06120CA214CC06120CA23FCC0694
:102E7000120CA26FCC06120CA29ACC06120CA2CE97
:102E8000CC06120CA2FACC06120CA23DCD06120CF6
:102E9000A268CD06120CA2AFCD06120CA204CE067B
:102EA000120CA246CE06120CA2A0CE06120CA2CB89
:102EB000CE06120CA21ACF06120CA24ACF06120C92
:102EC000A275CF06120CA2A3CF06120CA2C6CF0683
:102ED000120CA23FAC07120CA26BAC07120CA2980A
:102EE000AC07120CA2A2AC07120CA2B2AC07120CD7
:102EF000A2AFA007120CA2BDA007120CA22EA10720
:102F0000120CA281A107120CA2D1A107120CA22FB0
:102F1000A207120CA22FA507120CA262A507120C81
:102F2000A282A507120CA29AA507120CA2A3A507BC
:102F3000120CA2AEB806120CA2B8B806120CA2F679
:102F4000B806120CA23FB906120CA279B906120CEF
:102F5000A2D3B906120CA2F4B906120CA2CCBC067C
:102F6000120CA2D5BC06120CA222BD06120CA24B5A
:102F7000BD06120CA255BD06120CA2C1BD06120C54
:102F8000A253BE06120CA29DBE06120CA2D3BE0610
:102F9000120CA25FBF06120CA2A0BF06120CA2D791
:102FA000BF06120CA2E9BF06120CA208C006120C42
:102FB000A211C006120CA2D9C006120CA297A80733
:102FC000120CA2FFFD06120CA235FE06120CA26B1B
:102FD000FE06120CA2B6FF06120CA2BCAC07120C25
:102FE000A2D2AC07120CA2DCAC07120CA29EFF040A
:102FF000120CA2008007120CA2158007120CA2C8A6
:103000008007120CA2088107120CA2218107120C62
:10301000A25C8107120CA2A98107120CA2DB810716
:10302000120CA21D8207120CA2B8A307120CA2E177
:10303000A307120CA210A407120CA2A8A407120C3A
:10304000A2EAA407120CA26E9907120CA284990797
:10305000120CA2929907120CA2A09907120CA212AC
:103060009A07120CA26C9A07120CA2F59107120C87
:10307000A21A9207120CA2449207120CA226AD07C4
:10308000120CA2EE8205120CA2CB8405120CA271C6
:103090008605120CA2258705120CA2AF8705120C1B
:1030A000A2308805120CA2598805120CA2AB880523
:1030B000120CA2698C05120CA2EF8C05120CA21640
:1030C0008E05120CA2508E05120CA2918E05120CC8
:1030D000A2D98F05120CA2369005120CA27F900582
:1030E000120CA2EA9005120CA25B9105120CA28DA3
:1030F0009105120CA2A59105120CA2D19205120CF9
:10310000A2E19205120CA28B9405120CA2A29405C6
:10311000120CA2D49405120CA2889605120CA215CA
:103120009705120CA265AA07120CA276AA07120C28
:10313000A216AB07120CA2CFAD07120CA20EAE075F
:10314000120CA2DAAE07120CA221AB07120CA231AC
:10315000AB07120CA246AB07120CA2ACAB07120CC9
:10316000A293A707120CA218A807120CA27EA80708
:10317000120CA23EA207120CA267A207120CA2D246
:10318000A207120CA223A307120CA27EA307120C03
:10319000A2FA3F00120CA2FD3F00120CA2F0FF06A3
:1031A000120CA272D706120CA200D806120CA2743E
:1031B000D806120CA2FED806120CA271D906120C67
:1031C000A2F9D906120CA2A7DA06120CA237DB0666
:1031D000120CA2E3DB06120CA26EDC06120CA28C0F
:1031E000DC06120CA2AADC06120CA20BDD06120CE5
:1031F000A22BDD06120CA238DD06120CA287DD061A
:10320000120CA28ADD06120CA2CCDD06120CA2E77B
:10321000DD06120CA2B8DE06120CA2A9DF06120C03
:10322000A228E106120CA29AE106120CA284E20680
:10323000120CA21B9F07120CA26D9F07120CA2E09A
:103240009F07120CA249A007120CA2299707120C83
:10325000A2539707120CA2219807120CA2FC980700
:10326000120CA207C106120CA2CEC106120CA205B6
:10327000C206120CA22FC206120CA28FC206120C9A
:10328000A2E5C206120CA24AC306120CA2E2C306B1
:10329000120CA2F1C406120CA288C606120CA215CA
:1032A000C706120CA27CC706120CA293C706120C0A
:1032B000A2ADC806120CA2EBC806120CA28F8D0696
:1032C000120CA2DC9006120CA2589206120CA2AFAD
:1032D0009206120CA2CC9206120CA24E9306120C6D
:1032E000A2D19406120CA2B69506120CA26B9906F6
:1032F000120CA2419A06120CA2B2F604120CA252AF
:10330000F904120CA2F7F904120CA2BAFA04120C76
:10331000A234FC04120CA27CFE04120CA2C6FE0411
:10332000120CA225FF04120CA262F506120CA2A731
:10333000F506120CA2C4F506120CA2F8F606120C41
:10334000A261F706120CA248F806120CA27AF9063E
:10335000120CA218AE07120CA2D0FF05120CA25E2E
:10336000AE07120CA294AE07120CA2BCAE07FFFF70
:10337000FFFFFFFFFFFFFFFFC082C0839003457484
:10338000FFF0A3F0A3F0A3F0A3F0A3749FF0A3E4D5
:10339000F0A37420F090034414F0D083D082020C88
:1033A0009F74F6121552E9FE123F46600812366D00
:1033B000741A1236577F0202162474EE12155289BF
:1033C0000CEAFEEBFF8C0A8D0B900757E0600302BE
:1033D00034CDE9333354FC04F50D7407250DFA7B25
:1033E00000122F608A0E8B0FAC0EAD0FEC4D7003E8
:1033F0000234CD8C828D837401F0A374FFF0EC2431
:1034000002F8ED3400F9880E890FEC24040808ED69
:103410003400F9850E82850F83E8F0A3E91234EEBB
:1034200074041234EEA374131234F9E50D1234F956
:10343000A3E50CF0750D000234BD850D8285821068
:10344000751100E510C333FAE433FBEE2AF8EF3BC5
:10345000F988128913740278101214E8A810A911BF
:10346000851282851383E0F510C0101234D7D0E0A6
:10347000F0851282851383A3E0F510C0101234D2B8
:10348000D0E0F0E50A2AFAE50B3BFB8A828B83E069
:10349000F510C0101234D2A3D0E0123876A3E0C0E9
:1034A000E0850E82850F83E028FAA3E0398A82F551
:1034B00083A3A3A3A3A3A3A3D0E0F0050DE50DC3AD
:1034C000950C500302343AECFAED123F3C7F0A02AD
:1034D00016241234D7A322850E82850F83E028F5A7
:1034E00010A3E039851082F583A3A3A3A32212348D
:1034F000F2221237D3123D40221234F2A3A32274D7
:10350000EE1215528A0A8B0B890D8C108D119007C3
:1035100056E07009900758E070030235C990031D0A
:10352000E060030235C9898285820E750F00E924A7
:1035300007FAE43400FB122F608A128B13AE12AF2D
:1035400013EE4F70030235DA7418650A70047420A4
:10355000650B600C7417650A70047420650B70109D
:10356000900758E0600AF50C8E828F837492800C6D
:10357000900756E0F50C8E828F837491F0A3740E41
:103580001236C68E828F83A3A3F08E828F83123C65
:1035900097EE2405F8EF3400F9E8FAE9FBEE24078A
:1035A0000808EF12388DF0780E121765AC10AD11C7
:1035B0008A828B83E0FAA3E01237F7121511EEFA34
:1035C000EFFBA90C122F6C80117810121765AC0D4F
:1035D000790E12289A74021215110234CD74F61263
:1035E0001552E9FE8C0A8D0B780A121765EEFC79EC
:1035F000FF12289A74021215110233B574F51215D0
:1036000052890CEAFEEBFF900756E0603690031DEE
:10361000E070307A06123F4860388A828B8374915A
:10362000F0A3740F123BB3E50C1236C68A828B836B
:10363000A3A3A3123C78EEF0A3EFF0900756123F3D
:1036400040800FEEFCEFFD890AAA0A7B00790F1279
:1036500028947F03021624123BBB74011236851294
:1036600037E5EEF0900754E0F9122F6C22123F601C
:10367000FCA3E0F5838C827404123685FCA3E0F58C
:10368000838C82A322123F7C2274F712155274FCA1
:103690001214FBEA851A82851B831236C6C0E074B9
:1036A00001121546D0E0F07402121546ECF07403D6
:1036B000121546ED123FEE7A041228A0740412157A
:1036C000117F01021624F0900321E02274F01215FC
:1036D00052890B8A0C8B0D8C0A7410121546E0F57A
:1036E0000EA3E0F50F7407250AFA74FF650B60045A
:1036F000780380027802E82AFA7B00122F608A1091
:103700008B11AE10AF11EE4F70030237CE8E828F49
:10371000837401F0A374FFF0EE24020A0AEF340070
:10372000FBEE2404F8EF123880E50B123876E02423
:1037300002123AA0A90D74FF650B60317403250ACB
:103740001236C6C0E01237DCD0E0123807E50C12A2
:103750003807A3E9F0850A0C750D00780C1217657F
:10376000AC0EAD0F8A828B83E0240680557402254F
:103770000A1237D3C0E01237DCD0E01237FEE0C0C7
:10378000E01237E9D0E01237FEA3E0C0E01237E9DB
:10379000A3D0E0123813E50C123813A3E9F0850A20
:1037A0000CE50C24FDF50CE434FFF50D780C121734
:1037B00065E50E2403FCE50F3400FD8A828B83E06F
:1037C00024081237EE121511EEFAEF123F3C7F0873
:1037D000021624F0850E82850F83E0221237E02244
:1037E0008A828B83E01238B1221237E0A322FAA337
:1037F000E034001237F722FB122F36740222F085D4
:103800000E82850F83A32212380B2212389DA3A3A8
:10381000A3A32212380BA3A32274F2121552890C0F
:103820008A0DECFEEDFF7407250DFA123ED06041C3
:10383000123EE80A0AFBE50A24040808E50B1238E0
:1038400080E50C1238761238ABA3E50DF0601BF55D
:103850000E750F00780E121765EEFCEFFD8A828B55
:1038600083E024031237EE121511AA0AAB0B123FA4
:103870003D7F0602162412387A22F08A828B832238
:1038800012388D1238997404123899A3223400F931
:103890008A828B83E8F0A3E92212389D22F08A8283
:1038A0008B83123D3F227F10021624123D3BA32240
:1038B000E0123D40A3A3A32274E812155289178A8F
:1038C0000E8B0F8C168D157418121546E0F518A383
:1038D000E0F519741A121546E0FEA3E0FF741C12FD
:1038E0001546E0F50AA3E0F50B741E121546123DCD
:1038F000487420121546E0F514900756E070030254
:1039000039A67A157B00122F608A108B11EA4511B7
:103910007003023A9D123B1C7401F0EA2408FAEB92
:103920003400FBE5102403123EC7E5177018E4F0DD
:10393000751206F5137812121765AC18AD19123707
:10394000F8121511800C7431F07C067D007900129C
:103950002F4E851082851183A3A3A3A3E50EF0A3A8
:10396000E50F123AE0E516123AE0A3E515F0E5108E
:10397000240E123EC7EEF0A3EFF0E5102410123E25
:10398000C7123C9AE5102412123EC7E50CF0A3E5DD
:103990000DF0E5102414123EC7E514F0AA10AB1187
:1039A000900756023A9A90034CE0A2E54003023A8F
:1039B0009D900344E0A2E04003023A9D7A1A7B0006
:1039C000122F608A128B13EA45137003023A9D127C
:1039D0003AC9F510EB3400F511123AC08510828512
:1039E0001183E8F0A3E9123AFB7404123AFBA374C2
:1039F0003E123B0A7413123B0AA37401123B10E5FA
:103A000017123B10A3E50EF0E50FF50E8510828529
:103A10001183123BA8E50E123B30E516123B30A392
:103A2000E515F0750E06750F00780E121765AC18C7
:103A3000AD19851082851183E024091237EE121525
:103A400011851082851183E0240F123AAF123AEEED
:103A50002410123AA0EF123AEE2411123ABAF0E50D
:103A60000BF50A851082851183E02412123ABA12EE
:103A70003AEE2413123AB4F0E50DF50C8510828568
:103A80001183E02414123AB4123AEE2415123AA02B
:103A9000E514F0AA12AB13900754123F400238A667
:103AA000123AA422F8A3E03400F988828983221212
:103AB0003AA4EE22123AA4E50C22123AA4E50A2214
:103AC000EA2404F8EB3400F922123ACD22123AD15A
:103AD000228A828B837401F0A374FFF0EA2402220D
:103AE000F0851082851183A3A3A3A3A3A322123A76
:103AF000F222F0851082851183E022123AFF221211
:103B00003B0322123AF2123D4022123AFFA3A322B3
:103B1000123B1422123B03A3A3A3A3228A828B830A
:103B20007491123B2622F0A3743E12387AA3A3228A
:103B3000123B14A3A3A32274F4121552EAFEEBFF66
:103B4000890A900756E060237A06123F4860548A3B
:103B5000828B837491F0A37405123BB3E412387620
:103B6000123C7EE50AF09007568035900345E0A2AE
:103B7000E450307A0B123F48602912366D740512FA
:103B80003BB77404123BB7A3E4123BC8EE123BC828
:103B9000A3EFF088828983123BA8E50AF0900754CE
:103BA000123F407F04021624123BAC221238B0A30D
:103BB000A3A322123B2A22123BBB22123F7CFCA36E
:103BC000E0F5838C82A3A322123BBBA3A32274F053
:103BD0001215528A0A8B0BECFEEDFF74101215467B
:103BE000123D487412121546E0F50EA3E0F50F9051
:103BF0000756E0603E900344E0A2E250787A0C124F
:103C00003F486071123B1C7403123BB3A3E4F012F3
:103C10003C928A828B83A3A3A3123C7EA3A3A3E539
:103C20000CF0A3E50D123C78A3A3A3123EDD900790
:103C300056803F90034CE0A2E5503A900344E0A246
:103C4000E250327A11123F48602B123F50743EF01E
:103C5000A3740AF0A37403F0A3E4F0123C99A3EE5A
:103C6000F0A3EFF0A3E50CF0A3E50DF0123EDF901A
:103C70000754123F400237CE123B2AA3A322123C24
:103C80008222A3A3A3EEF0A3EF12387AA3A3A3A3E7
:103C9000A3228A828B83A3A3A3A3E50AF0A3E50B47
:103CA000F02274F0121552890FEAFEEBFF8C0E74AD
:103CB00010121546E0F50AA3E0F50B741212154632
:103CC000123D48900346E0A2E350677A0F123F4846
:103CD0006060123AC9FCEB3400FD123AC08C828D50
:103CE00083E8F0A3E9F08C828D83123D35123D5AB2
:103CF000740C123D5AA37408123D6CE50F123D6C12
:103D0000A3EE123D72EF123D72A3E50E123D7EE569
:103D10000AF0E50BF50A123D50E50A123D7EA3A319
:103D2000E50CF0E50DF50C123D50A3A3E50CF012E7
:103D30003F3D0237CE123D3B740422123D3F22E04C
:103D4000F8A3E0F583888222E0F50CA3E0F50D22CC
:103D50008C828D83123BACA3A322123D5E22123DC6
:103D60006222F08C828D83123D3FA322123D5EA31E
:103D7000A322123D7622123D62A3A3A3A322123DE9
:103D800076A3A32274EC1215528A0E8B0F8C108D21
:103D9000117414121546123D48850C82F583A385D3
:103DA0008212858313900758E060757A0F7B0012AA
:103DB0002F608A0A8B0BAE0AAF0BEE4F7003023EE8
:103DC000C28E828F837492F0A3743EF08E828F83B2
:103DD000A3A37405F08E828F83123EDD750A0875E9
:103DE0000B00780A121765AC10AD11EE2405FAEF3E
:103DF0001237F1121511850C82850D83E0FA8512B8
:103E000082851383E0F9EAF8EE240DF582EF123E85
:103E1000CBE8F0A3E9F0EEFAEFFB900758023EBFC3
:103E200090034CE0A2E55008900344E0A2E4400671
:103E3000122A32023EC27A14123ED07003023EC2EF
:103E4000123EE8F9EA2404FAEB3400FB8882898305
:103E5000EAF0A3EB123685FEA3E0FF8E828F837417
:103E600004F0A3743EF0A3740DF0A37405F0123EA9
:103E7000DFA3AE82AF83750E08750F00780E1217A0
:103E800065AC10AD11EEFAEF1237F7121511EE24F2
:103E900008FEEF3400FF850C82850D83E08E828F53
:103EA00083F085120C85130DA30EAF83850C8285DC
:103EB0000D83E08E828F83F0AA0AAB0B9007541219
:103EC0003F407F0C021624F582E5113400F5832271
:103ED0007B00122F608A0A8B0BEA450B22A3A3A357
:103EE000E50EF0A3E50FF022123ACDF8EB340022F4
:103EF00074F4121552EAFEEBFF890A8C0B900758F6
:103F0000E060127A07123F48602F123FD6E50BF0AF
:103F10009007588021900345E0A2E7501C7A0B12CD
:103F20003F486015123F507408F0A37404123FCB51
:103F3000123C9C900754123F40023BA3FB90075455
:103F4000E0F9122F6C227A087B00122F60EA4B22D4
:103F5000123F60F8A3E0F9888289837404F0A322F9
:103F6000123AD1F8EB3400F9EA2404FCEB3400FDFA
:103F700088828983ECF0A3ED123F7C22F08882894D
:103F800083E02274F4121552EAFEEBFF890A9007CF
:103F900058E060127A07123F48602D123FD6740134
:103FA000F0900758801F90034AE0A2E7501A7A0A5F
:103FB000123F486013123F507430F0A37403123F55
:103FC000CBF0900754123F40023BA3F0A3E50AF068
:103FD000A3EEF0A3EF228A828B837492123B2674A5
:103FE0000812387A123C82E50A123C89A322F08535
:103FF0001A82851B83AC82AD8322020C9F020C9F28
:020000040002F8
:10300000C082C083E9900CF7F002B28474F7121505
:1030100052E99002DFF07C177D037AFF7BFF1227D5
:10302000B09002E074FFF0A3F0A3E4F0A3F0790500
:103030001227389002DFE0F91226607AC87B271247
:10304000298402BF9274F41215528A0A8B0BEB5436
:103050008060309002DFE0F9122F788A0C8B0DAE81
:103060000CAF0DEE4F60138E828F83E064B070035F
:10307000122750EEFAEFFB122F66AA0AE50B6480C6
:10308000FB80047A007B0002B25374F21215527472
:10309000FC1214FBEAFEEBFF741212154612C479FF
:1030A000EE4F700302B12D7402121546EEF0A3EF3D
:1030B00012B48EECF0A3ED12B48EAA82AB8312266A
:1030C0005AE9F50C706AE50A450B60648E828F83BD
:1030D00012C45FEE4F60567A067B00122FCC8A0E28
:1030E0008B0FA80EA90FE8497005750C1380418855
:1030F000828983E412B13AEEF0A3EF12C48AE50AA2
:10310000F0A3E50BF09002E512B1C19002E5700565
:1031100012BF3C801B12BF2A8003EAFCEBFD8C82AD
:103120008D8312B1C170F38C828D8380E3750C02A4
:10313000A90C740412151102C679F0A312C430A3AD
:103140002274F2121552890CE975F017A4FEAFF043
:103150009002E4E4F09002E212B1C1600A122FD2B0
:103160009002E2E4F0A3F0EEFAEFFB122FCC8A0A11
:103170008B0BEA450B602FEEFCEFFD7900122F4E12
:103180009002E2E50AF0A3E50BF07B00800812B1A3
:10319000ABE4F0A3F00BEBC3950C40F2E50C90020E
:1031A000E4F079008002791302C679EB75F017A478
:1031B000F8A9F09002E2E028FAA3E0398A82F583C8
:1031C0002212BBCEEA4B2274F4121552740C121563
:1031D0004612C454FEE9FF750A00750B00800CE529
:1031E0000A2401F50AE50B3400F50BC3E50A9CE55A
:1031F0000B9D5032850A0C850B0D7403780C12144C
:10320000E8EA250CF8EB350DF988828983A3A3A39E
:10321000A3A3A312C011EE650C7003EF650D70BF80
:10322000E8FAE9FB80047A007B00802774F4121529
:10323000527900EAA2E0501B750AE4750B81780A06
:103240001217657C047D007AF97B0C122732740218
:103250001215117F04021624C082C0839002E51269
:10326000B28B601C88828983A3A3E06A7003A3E009
:103270006B8882898370E8A3A3A3A312BBCA8004CE
:103280007A007B00D083D082020C9F12C75FE8498E
:103290002274EE12155274FC1214FBEAFEEBFF8549
:1032A0001A82851B83E4F0A3F0EE240212BF1CEE09
:1032B000240512C437EE2404F510EF12B843E024BD
:1032C000FE603924FC604624FE605224FE605E24C9
:1032D000FE700302B3A424FE700302B40824FE703F
:1032E0000302B41724FE700302B42624FC70030208
:1032F000B43524FE700302B44402B4819002FE741B
:1033000017F0A3E412B4961223D802B481851A826E
:10331000851B83AC82AD8312275602B451851A8275
:10332000851B83AC82AD8312275C02B451850E0AE3
:10333000850F0B7402121546AC82AD83850A828517
:103340000B8312BBCA12267E8A0E8B0FAC0EAD0FFA
:10335000EC4D603BE4F50EF50F780E121765750E17
:10336000FE750F02780E121765750EFF750F027845
:103370000E121765740812154612177C12C78312B5
:103380001511E9F50E700B12BBC01223F0800F75FA
:103390000E01850A82850B8312B48412BF3C850E10
:1033A0000A02B4547402121546AC82AD83850E82B3
:1033B000850F8312B995603C850E82850F83A3A388
:1033C00012177C7512FE75130278121217657512AA
:1033D000FF7513027812121765740812154612173A
:1033E0007C12C783121511E9F50B700B12BBC012CA
:1033F00023F6800F750B01850E82850F8312B4842E
:1034000012BF3C850B0A804C851A82851B83AC82D7
:10341000AD83122762803A851A82851B83AC82AD08
:1034200083122768802B851A82851B83AC82AD832B
:1034300012276E801C851A82851B83AC82AD831295
:103440002774800D851A82851B83AC82AD83122779
:103450007AE9F50AE50A60298E828F83A3E0641475
:10346000601F851082851183E09002FE12B48E12D7
:10347000C75B9002FF12BF3CE50AA312B496122369
:10348000D202BE2B12C75F851A82851B8322F0856C
:103490001A82851B8322F07CFE7D02850C82850DBD
:1034A0008312BBCE2274EE12155274FC1214FB8AE6
:1034B0000C8B0D8C108D11EA2405F50AEB3400F508
:1034C0000B7C157D0079007AFE7B02122F4EE50AF7
:1034D0002402F50EE50B12C43A851A82851B8385FA
:1034E00082128583137812121765850A82850B83F1
:1034F000A3A3A3A312B98C121765E50A2405F5123C
:10350000E50B3400F5137812121765850E82850FCE
:103510008312BCE112267874061215118A128B13DD
:10352000AE12AF13E50C2402F50CE50D12BF1FEE31
:103530004F700302B6638017740212154612BBCA9D
:1035400088828983EAF0A3EBF09002FEE004F09019
:1035500002FEE0C39405400302B663E4F512F513DE
:1035600078121217657512E7751302781212176533
:103570007512E87513027812121765740612154653
:1035800012177C7910EEFCEFFD12C785121511E9B8
:10359000705E850A82850B83A3A3A3A3A3A3A3E0E4
:1035A000F89002E7E068704812B98C1217657CE861
:1035B0007D02E50A2408FAE50B3400FB122F48745B
:1035C00002121511E960298E828F83A3A3A3A3128F
:1035D000BBCA9002FEE0F512740278121214E8746D
:1035E000FF2512F58274023513F583EAF0A3EBF0A0
:1035F000740212154685821285831378121217659C
:10360000740212154612177C850E82850F8312BB39
:10361000F01215118A128B13AE12AF139002FEE056
:10362000F512751300740278121214E874FE251254
:10363000F874023513F988828983A312B1C170032B
:1036400002B52FE82403080808E93400F9EE4F60BA
:103650000302B5388882898374FFF0A3F09002FEDC
:10366000E004F09002FEE0600A12BBC01223E4798D
:1036700000800B850A82850B8312BF33790A02BE54
:103680002B74EA12155274FE1214FB8C148D15EA79
:103690002405F50EEB12C76D12C463750A00750B95
:1036A00000EA2402F512EB3400F513851A82851B1B
:1036B0008385820C85830D780C121765850E8285B3
:1036C0000F83A3A3A3A312B859121765E50E24050F
:1036D000F50CE50F12BF1F780C121765850E828559
:1036E0000F8312B85D12267874061215118A0C8B9E
:1036F0000DEA450D700302B7FEEA2404F510EB1243
:10370000B84312C4638A828B83A3A3A3E0F9851212
:103710008285138312BBD4600302B7FEE4F516F56D
:103720001778161217657516E775170278161217AF
:10373000657516E875170278161217657406121566
:103740004612177C7913AC0CAD0D8512828513835C
:1037500012C78B121511E9F50B600302B7FE900238
:10376000E7E0F8E50A7009E024029002FFF0801417
:103770009002FFE0FCE82402FAE43400FBEA6C70FB
:1037800001EB707E850A82AA8212B983941412B961
:103790007B506B851082851183E0C0E074002A1293
:1037A000B83AD0E0F0050A851082851183A3E0C005
:1037B000E0850A0C7400250C12B83AD0E0F0050A36
:1037C0009002E712B8591217657CE87D02850A0C51
:1037D0007400250C12B84D1215119002E7E0250A6D
:1037E000F50A74FF6E700374FF6F6012EE24010E11
:1037F000EF3400FFE50AC39414500302B6ABE50AA8
:10380000601312BBDE85128285138312BBCA12239A
:10381000EA79008014E50B7003750B0A8514828524
:103820001583EEF0A3EFF0A90B74021215117F0EB1
:10383000021624850A0E7400250EF58274033400E6
:10384000F583223400F511851082F58322FA740382
:103850003400FB122F3674022212C49922A3A31241
:10386000B8632212BF2AFDEEFAEFFB2274EE1215A6
:103870005274FE1214FB8C108D11EA2405F50EEB28
:1038800012C43A750D009002FEE4F0F50CEA240231
:10389000F50AEB3400F50B80449002FEE0FA90024A
:1038A000E7E0F812B983941712B97B400D9002FE3D
:1038B000E0F87416C3989002E7F012B98C121765FD
:1038C0007CE87D0274FF2AFA740212B850121511B6
:1038D0009002E7E0F89002FEE028F0050CE50E24E7
:1038E00016F582E50F12B83EE0F8E50CC398507467
:1038F0009002FEE0C39416506BE50CC333F8E4333A
:10390000F9E50E28FEE50F39FF851A82851B83AC89
:1039100082AD838E828F8312B9957008750D011266
:10392000BF2F8050E4F512F5137812121765751247
:10393000E775130278121217657512E8751302788D
:1039400012121765740612154612177C7916850A2D
:1039500082850B8312C78B121511E9F50D700302D6
:10396000B89980BB7CFE7D02850A82850B8312BBE1
:10397000CA1223FCA90D740202BE2DE99400C3658E
:10398000D03322EA28F8E43400F9E822E0F5127591
:10399000130078122212BE228A128B13AC12AD13BE
:1039A000EC4D2274EA12155274FC1214FB8A0E8B31
:1039B0000F8C148D15EA2405F50CEB12BF1F750A48
:1039C00000750B00E50C2402F512E50D3400F5132B
:1039D00074021215468582108583117810121765BE
:1039E000850C82850D83A3A3A3A312C43F12176580
:1039F000E50C2405F510E50D3400F51178101217CB
:103A00006585128285138312BF2512BBC4122678E6
:103A100074061215118A108B11AE10AF11E50E2429
:103A200002F510E50F3400F511803888828983741F
:103A3000FFF0050A12B83374FFF0050A9002E7E0C0
:103A4000F50E750F00780E1217657CE87D02850A69
:103A50000E7400250E12B84D1215119002E7E025E4
:103A60000AF50AEE4F60278E828F83A3A3A3E0F9A5
:103A700085108285118312BBD4EE240412C437E969
:103A80006027850E82850F8312BBB612BF3CE50A04
:103A9000700302BB9C12BBDE85108285118312BBB2
:103AA000CA122402790002BBB1E4F516F5177816A4
:103AB0001217657516E775170278161217657516D1
:103AC000E875170278161217657408121546121752
:103AD0007C7911EEFCEFFD85108285118312C78B76
:103AE000121511E9F50B709A850A82AA82EA9002F2
:103AF000E77009E024049002FFF08025E0F89002CE
:103B0000FFE0F516E82404FCE43400FDEC651670D3
:103B100001ED708112B983941212B97B400302BA8D
:103B200095850E82850F83E0C0E074002A12B83AB2
:103B3000D0E0F0050A850E82850F83A3E0C0E01275
:103B4000B833D0E012BBF985820E85830F780E1250
:103B50001765740412154612177C8512828513832B
:103B600012BBF01215118A0E8B0FAE0EAF0F850A25
:103B70000E7400250EF874033400F9EE4F70030242
:103B8000BA2B851A82851B83E08882898312BBF950
:103B9000A3E0C0E012B833D0E002BA39E50B7003FD
:103BA000750B0A850C82850D8312BBB612BF3CA92A
:103BB0000B740402B82B12C75F851482851583220B
:103BC0007CFE7D02850C82850D8312BBCE22E0FA3D
:103BD000A3E0FB2212BBCE122666E9F50B2290026F
:103BE000FFE0F5F0E50A849002FEF07CFE7D022203
:103BF00012B863122684740422F0050A851A82859D
:103C00001B832274EC12155274FE1214FB8A0A8B69
:103C10000B8C108D11EA2405FEEB3400FF12BE0C54
:103C2000EE241812C437EA450D700302BCAF12BD72
:103C3000F5502912BCD48A128B13EA4513606B79B4
:103C400012AC0CAD0D850A82850B8312BBCA85129E
:103C500082851383121550E9F50C7058E4F50CF5C4
:103C60000D780C1217658E828F83A3A3E0F50C7874
:103C70000C121765EE240312BF1C780C1217658E08
:103C8000828F8312BCE112279E7406121511E9F58A
:103C90000C7021850E82850F83E0701F850A828556
:103CA0000B8312BBCA1224088011750C0E80097593
:103CB0000C018004E50C600312BF2F850E82850F76
:103CC00083E0600479008002A90C74021215117F50
:103CD0000C021624851A82851B8312BBCE12278CF8
:103CE0002212BF2AFD850A82850B8312BBCE227465
:103CF000EE12155274FE1214FB8A0A8B0B8C0E8D79
:103D00000FEA2405FEEB3400FF75100012BE0CEA2A
:103D1000450D700302BDD312BDF5502C12BCD48AE0
:103D2000108B11EA4511604A7912AC0CAD0D850A71
:103D300082850B8312BBCA851082851183121550B0
:103D4000E9F510600302BDD6850A82850B8312C097
:103D500011AA0CFB12BDE770147AFF7BFF12BDE7BE
:103D6000606C88828983E50CF0A3E50DF0750C008A
:103D7000800775100E805F050C9002E4E0FAE50CF8
:103D8000C39A504AE50C75F017A4FAABF088828903
:103D900083A3A3E02AFAA3E03BFB8A828B8312BFB2
:103DA00025EC4D70D2750C17750D00780C12176547
:103DB000EEFCEFFD122F367402121511EEFCEFFD32
:103DC000850A82850B8312BBCA12240E80147510DB
:103DD00009800375100112C757850E82850F831263
:103DE000BF3CA91002B9761227808A128B13A81241
:103DF000A913E84922E50A2402F50AE50B3400F587
:103E00000B8A828B83A3A3A3E0A2E522851A828575
:103E10001B83AC82AD838E828F8312BE228A0C8B71
:103E20000D22E0FAA3E0FB12267E22740412151183
:103E30007F0A02162474EC1215528C128D13EA2498
:103E400005F50EEB12C43A751100EA2402F50CEBED
:103E500012BF1F850C82F58312BBCA12C8117003F2
:103E600002BF117510008071850E82850F83E0649A
:103E700001704F8E828F83A3A312177C8E828F8353
:103E8000A3A3A3A3E0F5147515007814121765EE2B
:103E90002405F514EF3400F515781412176512BBDC
:103EA000C412279E7406121511E9F5116014850ECF
:103EB00082850F83E4F012C757851282851383121F
:103EC000BF3C7C177D007900EEFAEFFB122F4E8E7F
:103ED000828F83E4F0A3F005109002E4E0F8E5108F
:103EE000C398501EE51075F017A4F8A9F0850A8252
:103EF000850B83A3A312C77712BF25EC4D60030285
:103F0000BE68850A82850B8374FFF0A3F0E511700B
:103F10000612BBC4122414A91102BCCFF50CEF3455
:103F200000F50D22A312BF2AFD22E0FCA3E0228EA1
:103F3000828F8312C75F851082851183E8F0A3E921
:103F4000F022C082C0839002E0E06A7003A3E06BBD
:103F500070067AE07B0280047A007B0002B28474EF
:103F6000F71215527F00EF75F003A4F8A9F0EC28C2
:103F7000F8ED39F988828983E06A7003A3E06B70F9
:103F800006E8FAE9FB800B0FEFC3940240D87A00F1
:103F90007B007F0102162474F612155212C5487078
:103FA000067A007B008007A3A3A3A312BBCA02C6A4
:103FB0000974F2121552E9FE740E12154612C01160
:103FC000741012154612C4798C828D83E0640270DD
:103FD0003BA312C75B88828983E0F50EA3E0F9A8B2
:103FE0000E74026870037429697021750E02750FD2
:103FF00000780E121765780A121765780C1217658B
:10400000EEF91227C274061215118002790102C658
:1040100079E0F50CA3E0F50D2274E812155274FB5B
:104020001214FBE9851A82851B83F08A188B198C80
:10403000108D11741F12154612C479742112154681
:1040400012C011742312154612C4637512008C82BB
:104050008D83A3A3A3E0A2E4502A741D1215461277
:10406000BCDA8A828B83E5824583700302C125799D
:104070000AAC10AD11AA18AB19121550E9F512606F
:104080000302C128851082851183E0640260030267
:10409000C3DEA312C75B850A82850B83A3858214C6
:1040A000858315E5102406F50EE51112C43A8882C1
:1040B0008983E0FAA3E0F9EA2400F516E439F5175C
:1040C00078161217EF010000280128EDC007000242
:1040D00028C4C1032834C10029EEC2012916C30235
:1040E00029BDC20329EEC204297FC3DEC3EE4F708F
:1040F0003E850E82850F8312C454FAE9FB8A828BB7
:1041000083E0850C82850D8312C4901217658A8224
:104110008B83A312BF2AFDAA0AAB0B122F3674029F
:10412000121511800375120EA912740502C7657568
:10413000120B80F4EE4F70F7850C82850D837401AD
:10414000F012C469850A82850B83F07C007D0085AE
:104150001082851183A3A3A3A3E02401FAA3E03472
:1041600000FB12267EEA4B60418A828B83E02402A8
:10417000F8850C82850D83E028F0EA2404F8EB34FE
:1041800000F988828983E085148285158312C4A290
:1041900012C4901217658A828B8312BF24E50A2409
:1041A00003FAE50B3400FB02C11B850C82850D83ED
:1041B000E02404F07C047D007900AA14AB15122FD2
:1041C0004E02C128EE4F600302C12F12C469FEA344
:1041D000E0FF850C82850D837404F0EE850A8285EC
:1041E0000B83F0EF851482851583F0740312154656
:1041F000AC82AD83EEFAEFFB12C536700302C29AB1
:104200008A828B83A3A312C45F7401121546858230
:104210001085831178101217657405121546121750
:104220007C7CFF7DFF12268474041215118B11EA29
:1042300045117033850E82850F8312C43F121765B6
:10424000850E82850F83A312177C7C027D007AD2B3
:104250007B821224B07404121511E9700A740112E1
:10426000154674FFF0A3F08E828F83E064027034F1
:10427000750E02750F00780E1217658E828F8312ED
:10428000BF24E50A2404FAE50B12B8501215118573
:104290000C82850D83E0240280097401121546EE1C
:1042A000F0A3EFF0740112154612C450F07401121D
:1042B0001546A312C448A3A3A3F002C128EE4F6081
:1042C0000302C12F850E82850F8312BF25AA18AB6A
:1042D000191227B6850C82850D837402F0EA850ACF
:1042E00082850B83F0851482851583EB80CBEE4F9E
:1042F000600302C12F12C469F8A3E0F9850C82851E
:104300000D837402F0E8850A82850B83F0E9851439
:104310008285158380A3850E82850F8312BBCA1206
:104320002F30EAFC8C82A882C39EE49F404BE86E4B
:104330007001EF70047C00801F851A82851B83E06A
:10434000FAEE2AFAEF3400FBC3EA98EB940050032C
:10435000E08004EECCC39CFCEC850C82850D83F0E0
:104360008C0C750D00780C121765850E82850F83F5
:10437000E02EFCA3E03F02C11675120702C128EE31
:104380004F600302C12F850E82850F8312C75B85A4
:104390000C82850D837407F08882898312C44812C9
:1043A000C430E0851482851583F0E82402FAE934EC
:1043B00000FB8A828B8312C44812C48112C450A3AA
:1043C00012C48A12C459F0E82405F8E93400F988C7
:1043D00082898312C459A312C4A2A302C2B6741D57
:1043E00012154612C541700302C12512C75B880E23
:1043F000890FE8450F700302C1258E128F137812C2
:10440000121765780C121765780A12176574061270
:104410001546E0F9AC10AD11AA18AB19850E8285CE
:104420000F831215507406121511E9F51202C128F6
:10443000F088828983A322F50EEF3400F50F22E085
:10444000F510751100781022E0850A82850B832211
:1044500012C4A92212C75FE82212C4A9A3A322A3EF
:10446000A3A3A3E0FEA3E0FF22850E82850F83E0D5
:10447000F8A3E0F5838882E022E0F50AA3E0F50BDB
:1044800022A3A3F08A828B83A32212B13CA3A3228E
:10449000F08A828B8312C49922E0F50C750D0078A6
:1044A0000C2212C43012C4A922E0850A82850B8333
:1044B000A3A32274EE12155274FE1214FB8A0C8B05
:1044C0000DECFAEDFB7414121546E0F512A3E0F5BD
:1044D000137416121546E0FE7418121546E0F51016
:1044E000A3E0F511851A82851B83AC82AD8312C5CA
:1044F00036603E851A82851B8312C541602FA3A3B7
:1045000012C479E50A450B602478101217657812F9
:10451000121765EEF9AC0EAD0FAA0CAB0D850A8231
:10452000850B8312155074041215118006790E80C4
:1045300002790102B97612267E8A0E8B0FEA450FA8
:104540002212BBCE12C5482212274A8A828B83E5EB
:104550008245832274F612155274FE1214FB740CF9
:1045600012154612C454851A82851B83F0740112F9
:104570001546E9F0E4F50AF50B780A121765750A95
:1045800002780A121765740412154685820A85831B
:104590000B780A12176512279E7406121511740201
:1045A000121511806474F7121552EAFEEBFF890AA6
:1045B0007C177D031227B6EA5402600BA90AEEFAB3
:1045C000EFFB1226728002790102BF9274F6121577
:1045D0005274FF6A700374FF6B701C7B00EB75F004
:1045E00003A4F8A9F0EC28F8ED39F912C60E0BEB8C
:1045F000C39402501480E61227868A0A8B0BA80AFD
:10460000A90BE849600312C60E7F020216248882B5
:10461000898374FF12B13AE4F02274F61215521233
:1046200027868A828B83E58245836006A3A3E0FA0E
:1046300080027A007B0080D174F21215528A0A8BB4
:104640000BECFEEDFF740E121546E0F50C12C67E63
:10465000701CEEFCEFFD7AFF7BFF12C67E700479C2
:1046600011801688828983E50AF0A3E50BF0888221
:104670008983A3A3E50CF079007F06021624122794
:10468000868A0E8B0FA80EA90FE8492274EE121528
:1046900052EAFEEBFF8C0A8D0B890E74121215463E
:1046A00012C75B741412154612BF257416121546F4
:1046B00012BBCA750F00EC4D600302C74F74026550
:1046C0000E600302C74A8882898312BF2AF9EC244C
:1046D00000F510E439F511EAF4F8EBF4F9EC58F8C8
:1046E000E51159F9E849705DE50A2406F8E50B344F
:1046F00000F9880C890D8882F58312B85F1227B6FD
:104700008A128B13E51065127004E511651360427F
:104710007810121765850C82850D8312B85F1227F9
:10472000BC7402121511E9F50F7027781012176585
:10473000850A82850B83A3A312B85D1227CE74026B
:10474000121511800D750F808008750F0D8003758F
:104750000F0BA90F02BE308E828F8312C75F22E03B
:10476000F8A3E0F9221215117F100216243400F587
:104770000F850E82F58322E028FEA3E039FF8E82AA
:104780008F83227916850C82850D8312BBCE12276A
:104790009874082274F2121552EAFEEBFF890D7428
:1047A00001650D600E7402650D706379011229A216
:1047B000E9705BEEFAEFFB12C8116047750C0080E0
:1047C0000B7C177D007900122F4E050C9002E4E05F
:1047D000F8E50CC3985021E50C75F017A4F8A9F082
:1047E000850A82850B83A3A3E028FAA3E039FB8A1C
:1047F000828B8312B28B70C9850A82850B8374FF0A
:10480000F0A3F07C177D03EEFAEFFB1227B002C68F
:10481000791227808A0A8B0BEA450B2274F2121553
:10482000528A0A8B0BECFEEDFF740E12154612C075
:1048300011900CF7E0F4603D7A097B00122F60EADA
:104840004B60328A828B8374B1F0A3E412C483A3D9
:1048500012C481A3E50AF0A3E50B12C878EEF0A319
:10486000EF12C878A3A3E50CF0A3E50DF0900CF7C8
:10487000E0F9122F6C02C679F08A828B83A3A3A37E
:10488000A3A322C082C0839061907404F0A37448F3
:10489000F0A37402F09061807440F09061BC7403E6
:1048A000F09061877419F0906265741BF090619CC0
:1048B000740DF090619A7433F0A37455F09061A078
:1048C000743AF090055BE064017009C2919003C5F1
:1048D000746780059003C57461F0903372E493901F
:1048E0006186F0903374E493F46027E493540FF8F6
:1048F000906185E0686012E5C654804449F5C6E5DC
:104900009E547F644970F8E8F053C680E59E547F5A
:1049100070FA7905122CD802CA98C082C083E5A823
:10492000F853A87E906181E4F0A3F0A3F0C2BA53DB
:104930009AFEC289759B00C2C275E9007591007527
:10494000BF0075A91175B905906181F0A374C0F01D
:10495000A3E4F0D2BA439A0174805842A802CA98DC
:10496000C082C08374F81214FB9003C3E0F8A3E084
:10497000F9E849700302CA8E9003C3E054406023F3
:104980007908851A82851B83AA82AB83122B5285F4
:104990001A82851B83AA82AB831228349003C3E05A
:1049A00054BFF0E054806010790C7A7F7B05122BA5
:1049B000529003C3E0547FF0E0A2E0503190619A3E
:1049C0007433F0A37455F09061A0743AF090055BD5
:1049D000E064017009C2919003C57467800590037B
:1049E000C57461F012283A9003C3E054FEF0E0541D
:1049F00002603190619A743FF0A3745AF09061A004
:104A0000747FF090055BE064017009D2919003C55A
:104A1000747180059003C5746AF012283A9003C33C
:104A2000E054FDF0E054046013903370E49390611F
:104A300086F01228409003C3E054FBF0E054086075
:104A400013903371E493906186F01228409003C371
:104A5000E054F7F0E054106013903372E4939061E7
:104A600086F01228409003C3E054EFF0E054206039
:104A70000A1228409003C3E054DFF0A3E054016021
:104A80000D122A7A1228469003C4E054FEF07408EE
:104A90001215118003F0A3F0D083D082020C9F7412
:104AA000EC12155274F41214FB851A82851B83AC28
:104AB00082AD8375838275828F740412140E9033D5
:104AC0007093F4600302CC2C907808E0C3940250F9
:104AD0000302CC0C7404121546AC82AD837583813D
:104AE0007582CD740812140E851A82851B83858207
:104AF000148583157404121546AC82AD837510FFBE
:104B00007511FF7FFF7E00750E48750F7880157454
:104B1000086E700302CB9F74096E700302CB9F7402
:104B20000A6E607B850E82850F83780A1213CB8C08
:104B3000828D83A90BE50CC9F888127418780A12C3
:104B4000130CE512450AF8C3E098A3E099850E829C
:104B5000850F83780A1213CB40188C828D837418CA
:104B6000780A12130CE512450AF8E0C398F8A3E09E
:104B7000801C7418780A12130CE512450AFAE9FB36
:104B80008C828D83E0F8A3E0F9EAC398F8EB99F9F9
:104B9000C3E89510E99511500688108911EEFF0EB3
:104BA000E50E2404F50EE50F3400F50FEEC3941363
:104BB000500302CB0F74FF6510700474FF65116021
:104BC000238F0A7402780A1214E87448250AF582C1
:104BD0007478350BF583780A1213CB85148285150A
:104BE00083E50AF0EC24020C0CED3400FD85148200
:104BF000851583A3858214858315740C121546E5EB
:104C0000826C7003E5836D600302CAFD750A01754D
:104C10000B00780A1217657402121546AC82AD8338
:104C20007ADC7B0C1231647402121511740C1215AB
:104C3000117F0C021624C082C0839061AE7468F0AC
:104C4000A3746AF090624574FBF0A304F053F4FD82
:104C500043FE0290055B7401F09061A0E0643A901D
:104C6000619A70237433F0A37455F09061A0743A84
:104C7000F0740164017009C2919003C574678028C3
:104C80009003C574618021743FF0A3745AF0906161
:104C9000A0747FF0740164017009D2919003C5740F
:104CA0007180059003C5746A02CA977F04021624B6
:104CB000C082C08390050DE06401700A900512E087
:104CC0006004790C8002790002CA98C082C08375A2
:104CD000E1F1900510E0605514600814605914600B
:104CE000518059122A8C900506E0F97A077B05124B
:104CF0002C5A90828B1213E9122C9090825312132B
:104D0000E9122C66900511E0F9122C727901122C2F
:104D1000CC900504E02416F8A3E03400F9888289D9
:104D20008374A4F0A3742AF0790002CA98122A921C
:104D300080B4122A9880AF122A9E80AA791280EA43
:104D400074F412155275D90D9004F5E0A2E0E43325
:104D50001313F8900506E0C4333354C0484401F5FA
:104D6000D97804790588828983A3A3A3E0F5D9883B
:104D7000828983A3A882A983E8640A7003E9640591
:104D800070E378F5790488828983A3E0F5D9888275
:104D90008983A3A882A983E864FB7003E964047093
:104DA000E575E1959004F5E0F97AF67B04122C6044
:104DB000900D19743EF0A3742AF0A3749AF0A374B2
:104DC0002BF0A3749AF0A3742BF0A3749AF0A3743D
:104DD0002BF0A37444F0A3742AF0A3749AF0A37484
:104DE0002BF0A3745CF0A3742AF0900D27749AF052
:104DF000A3742BF0A3749AF0A3742BF0A3749AF00D
:104E0000A3742BF0A3749AF0A3742BF0A3749AF0FC
:104E1000A3742BF0A3749AF0A3742BF0900504E014
:104E2000F8A3E0F5838882A3A3780A1213CB9082BB
:104E300087780A12135790825B780A1213A590059F
:104E400004E0240EF8A3E03400F988828983780A0C
:104E50001213DA900504E02414F8A3E03400F98872
:104E60008289837413F09003C17402F002CCABC04A
:104E700082C083900516E02407F5D9900506E0C4AA
:104E8000333354C0F5D97804790588828983A3A384
:104E9000A3E0F5D988828983A3A882A983E8640A5C
:104EA0007003E9640570E3900516E0601F780479EB
:104EB00005FAE82413F582E93400F583E0F5D98892
:104EC000828983A3A882A9831AEA70E6900536E056
:104ED0002407F5D9900506E0C4333354C04404F5E3
:104EE000D97804790588828983A3A3A3E0F5D988BA
:104EF000828983A3A882A983E8640A7003E9640510
:104F000070E3900536E0601F78047905FAE82433F1
:104F1000F582E93400F583E0F5D988828983A3A876
:104F200082A9831AEA70E675E195900D19744AF02A
:104F3000A3742AF0A3749AF0A3742BF0A3749AF0CC
:104F4000A3742BF0A3749AF0A3742BF0A37444F011
:104F5000A3742AF0A3749AF0A3742BF0A3745CF0EA
:104F6000A3742AF0900D27749AF0A3742BF0A37405
:104F70009AF0A3742BF0A3749AF0A3742BF0A3748B
:104F80009AF0A3742BF0A3749AF0A3742BF0A3747B
:104F90009AF0A3742BF09082471213E9900504E075
:104FA000240EF8A3E03400F9888289831213F59067
:104FB0000504E02414F8A3E03400F988828983749E
:104FC00012F09003C1740102CA97C082C083900599
:104FD00016E02407F5D9900506E0C4333354C044E5
:104FE00002F5D97804790588828983A3A3A3E0F523
:104FF000D988828983A3A882A983E8640A7003E917
:10500000640570E3900516E0601F78047905FAE8FE
:105010002413F582E93400F583E0F5D98882898389
:10502000A3A882A9831AEA70E675E195900D197418
:1050300056F0A3742AF0A37456F0A3742AF0A37454
:1050400056F0A3742AF0A37456F0A3742AF0A37444
:1050500056F0A3742AF0A37456F0A3742AF0A37434
:105060005CF0A3742AF0900D27749AF0A3742BF0CF
:10507000A3749AF0A3742BF0A3749AF0A3742BF08A
:10508000A3749AF0A3742BF0A3749AF0A3742BF07A
:10509000A3749AF0A3742BF09082471213E9900541
:1050A00004E0240EF8A3E03400F988828983121307
:1050B000F5900504E02414F8A3E03400F98882890F
:1050C000837414F09003C1740402CA97C082C08331
:1050D000900516E02407F5D9900506E0C433335453
:1050E000C04406F5D97804790588828983A3A3A3EF
:1050F000E0F5D988828983A3A882A983E8640A702D
:1051000003E9640570E3900516E0601F78047905F3
:10511000FAE82413F582E93400F583E0F5D98882B2
:105120008983A3A882A9831AEA70E6900536E02451
:1051300007F5D9900506E0C4333354C04404F5D9CB
:105140007804790588828983A3A3A3E0F5D98882AE
:105150008983A3A882A983E8640A7003E9640570BF
:10516000E3900536E0601F78047905FAE82433F50A
:1051700082E93400F583E0F5D988828983A3A88287
:10518000A9831AEA70E675E195900D197450F0A3A1
:10519000742AF0A3749AF0A3742BF0A3749AF0A36A
:1051A000742BF0A3749AF0A3742BF0A3749AF0A359
:1051B000742BF0A3749AF0A3742BF0A3745CF0A387
:1051C000742AF0900D27749AF0A3742BF0A3749AAC
:1051D000F0A3742BF0A3749AF0A3742BF0A3749A29
:1051E000F0A3742BF0A3749AF0A3742BF0A3749A19
:1051F000F0A3742BF09082471213E9900504E02489
:105200000EF8A3E03400F9888289831213F5900523
:1052100004E02414F8A3E03400F98882898374152B
:10522000F09003C1740302CA97C082C08390050442
:10523000E0F8A3E0F5838882A3A3A3A3A3A3E402D9
:10524000CA9574F71215529003EFE0F875F004A4B4
:10525000C8AAF02AF974F128F8740339F9E824058A
:10526000FAE93400FB8A828B83E0FCA3E0FD8882AC
:105270008983A3A3A3A3A3A3A3A3A3ECF0A3EDF00B
:1052800088828983A3A3A3A3A3A3A3E024FFF8A3F5
:10529000E034FFF98A828B83E8F0A3E902D4E77453
:1052A000F7121552EAFEEBFF9061D0E0600302D3E3
:1052B0007C75D90E75D90375D904EE248CF582EF6F
:1052C0003400F583E5822408F8E5833400F9E0F53D
