:020000040000FA
:100000000203BCC2AFF50801ABFFFFC2AFF50801A8
:10001000BDFFFFC2AFF50801CFFFFFC2AFF508017A
:10002000E1FFFFC2AFF50801F3FFFFC2AFF5082102
:1000300005FFFFC2AFF5082117FFFFC2AFF508218A
:1000400029FFFFC2AFF508213BFFFFC2AFF5082132
:100050004DFFFFC2AFF508215FFFFFC2AFF50821DA
:1000600071FFFFC2AFF5082183FFFFC2AFF5082182
:1000700095FFFFC2AFF50821A7FFFFC2AFF508212A
:10008000B9FFFFC2AFF50821CBFFFFC2AFF50821D2
:10009000DD0102030000000000000000000000007D
:1000A00001FFFFFF75870100020333E5096007E5E3
:1000B00008D2AF024033E508D2AF020833E5096049
:1000C00007E508D2AF02403BE508D2AF02083BE5A6
:1000D000096007E508D2AF024043E508D2AF020845
:1000E00043E5096007E508D2AF02404BE508D2AF0F
:1000F00002084BE5096007E508D2AF024053E50866
:10010000D2AF020853E5096007E508D2AF02405BB1
:10011000E508D2AF02085BE5096007E508D2AF0247
:100120004063E508D2AF020863E5096007E508D23D
:10013000AF02406BE508D2AF02086BE5096007E546
:1001400008D2AF024073E508D2AF020873E5096038
:1001500007E508D2AF02407BE508D2AF02087BE595
:10016000096007E508D2AF024083E508D2AF020874
:1001700083E5096007E508D2AF02408BE508D2AFFE
:1001800002088BE5096007E508D2AF024093E50855
:10019000D2AF020893E5096007E508D2AF02409BA1
:1001A000E508D2AF02089BE5096007E508D2AF0277
:1001B00040A3E508D2AF0208A3E5096007E508D22D
:1001C000AF0240ABE508D2AF0208ABE5096007E536
:1001D00008D2AF0240B3E508D2AF0208B3E5096028
:1001E00007E508D2AF0240BBE508D2AF0208BB006A
:1001F0000201EF251AC582C0E0E51B34FFC583C0AC
:10020000E0E51AC3958224F810AF0885831B858228
:100210001A800885831B85821AD2AFCEF0A3E52011
:10022000F0A3780AE608F0A3DEFAEFF0A3E5812454
:10023000FAF8E608F0A3E608F0A3E608F0A3080839
:10024000E608F0A3E608F0A315811581D0E0FED002
:10025000E0F8158115811581E8C0E0EEC0E02212BA
:100260000419B90003020291900180AA82AB839025
:100270000091781179018015E493A3AC82AD838A53
:10028000828B83F0A3AA82AB838C828D83D8E9D939
:10029000E77582737583FF740712032D75821475D9
:1002A0008304740012032D851B83851A82E0A3FE4C
:1002B000E0A3F520780AE0A3F608DFFAE0A3FFE068
:1002C000A3C0E0E0A3C0E0E0A3C0E0E0A3C0E0E0A2
:1002D000A3C0E010AF0885821A85831B8008858241
:1002E0001A85831BD2AFD083D082020333CAC0E009
:1002F000E0A3C582CCC582C583CDC583F0A3C582EA
:10030000CCC582C583CDC583DAE6D0E0CA227009A8
:10031000080808226016181818C6C333C608C63362
:10032000C608C633C608C633C6D5E0EA22C09FF564
:100330009FE473D09F22D083D082C09FE493C0E01B
:10034000740193C0E0740293F59F22251AF5821080
:10035000AF08F51A4002151B8008F51A4002151B5C
:10036000D2AF851B8322C0D0251A10AF08F51A50D2
:1003700002051B8008F51A5002051BD2AFD0D0220F
:10038000251A10AF08F51A4002151B8008F51A400F
:1003900002151BD2AF22700422600D18C6C333C6EB
:1003A00008C633C6D5E0F41822E026F608A3E036E6
:1003B000F608A3E036F608A3E036F62275D00075FD
:1003C000813F751A80751B01759F0002025F7402E0
:1003D0008000C0E0F40412034BD0E01203FD22E6DB
:1003E000F008A3E6F008A3E6F008A3E6F022600C0C
:1003F00008C6C313C618C613C6D5E0F422CAC0E0A7
:10040000E6F0A308DAFAD0E0FA22251AF582E435FC
:100410001BF5832200000080FB790122120336A421
:10042000000012033628F8071203364EF8071203AD
:1004300036B8F80712033665F907120336A6FA072D
:1004400012033640FC0712033613FD071203362C45
:10045000FD071203366A0400120336EF040012038C
:10046000365505001203366E050074F41201F38947
:100470000A740F550AF50C750D00740B780C1203F5
:1004800096EA2400F8EB3480F9E82400E9350DF908
:10049000E5C7F50BA2AFE433F50CC2AFE50AC454CF
:1004A0000FFAE5C754F84AF5C7740C12040AE0FACB
:1004B000A3E0FB801C88828983E08C828D83F08896
:1004C000828983A3A882A9838C828D83A3AC82AD09
:1004D00083EAFEEBFFEE24FF1AEF34FFFBEE4F70D2
:1004E000D4850BC7E50CA2E092AF7F040202A7748B
:1004F000F61201F3ED900990F0ECA3F0A37462F012
:10050000A37473F0A3E0541FF0740A12040AE0F518
:100510000AA3E0F50BE50A333354FC900995F07417
:1005200006780A1203EEE50A900994F09009967491
:1005300012F0A37442F053D1FE75D601EA906271B5
:10054000F0EBA3F0906270E0D2E1F0E0A2E740FBB4
:100550007F020202A7C082C083E9C333906272F0B7
:10056000906270E0D2E0F0D083D08202033374F462
:100570001201F3740C12040AE0F8A3E08015A3AA98
:1005800082AB838C828D83A3AC82AD83E824FF1879
:10059000E934FFF9E849601F8C828D83E0F50A8A0F
:1005A000828B83E0F50CE50A650C60D2E50CC395FF
:1005B0000AFA95E0FB80047A007B007F040202A720
:1005C000FFFFFFFFFFFFFFFFFFFFFFFFFFFFFFFF3B
:1005D000FFFFFFFFFFFFFFFFFFFFFFFFFFFFFFFF2B
:1005E000FFFFFFFFFFFFFFFFFFFFFFFFFFFFFFFF1B
:1005F000FFFFFFFFFFFFFFFFFFFFFFFFFFFFFFFF0B
:020000040003F7
:10F80000010203030405060708090A0B0C0D0E0F7D
:10F810000000FFFFFFFF00000000FFFF0000FFFFF0
:10F82000F0FFFFFF3E3E0108C082C0837582007575
:10F8300083F875B34500000000000000007810E078
:10F84000F5B1A318E870F8D083D08202033374F6C0
:10F850001201F375B357000000000000000074109F
:10F8600075B1001470FA75B351000000000000007B
:10F870000075B13A7C008C0AEA250AF8EB3400F9ED
:10F88000E82410F582E912F9520CECC3940C40E61E
:10F89000EA241E12F8AE241D12F8AE241CF582EBE9
:10F8A00012F952E5B3A2E350FA7F020202A7F582F1
:10F8B000EB12FF65F5B1EA2274F61201F374FF1240
:10F8C000038075B337000000000000000078008856
:10F8D0000A7480250AF582740112F95208E8C3946B
:10F8E0001040ECE5B3A2E350FA7C04E9704F75B325
:10F8F00031000000000000000078047D0012F9587B
:10F90000E0F5B10DEDC3940440F3851A82851B83A5
:10F91000740FF0E0FD74FF2DF00470F77D00E5B288
:10F92000C0E012F958D0E0F00DEDC3940440EFEAC6
:10F930002404FAEB3400FB18E8600B80BE19EA24BB
:10F9400010FAEB3400FB1CEC70A174011203660288
:10F95000F8A912FF65F5B1228D0AEA250AF582EBB6
:10F960003400F5832274F21201F374EF12038089DC
:10F970000AEAFEEBFF12042812FD08F50DEE241F23
:10F98000F582EF12FF65250D14F50CE50A7006747B
:10F990003E250CF50C850D0B800F050BE50A700953
:10F9A0007408650B7003750B46E50CC3950B405D41
:10F9B000750E00750F08780E1203CE7C907D017ACB
:10F9C000007B00A90B1204527402120366780079BE
:10F9D000008010E50C650B700A74F0687003740702
:10F9E0006960B743B3017A1012FA901AEA70F9E528
:10F9F000B3A2E350FAC3E99408509FE50D650B707C
:10FA0000D27410687001E970CA782080C275B301A1
:10FA1000000000000000000078F0790712FA90C39F
:10FA2000940840F8851A82851B83740FF0E0F874FF
:10FA3000FF28F00470F77800E5B2C0E0880C74018C
:10FA400012040AE582250CF582E5833400F583D0A3
:10FA5000E0F008E8C3941040DF750C10750D0078D5
:10FA60000C1203CEEEFCEFFD740312040AAA82AB63
:10FA70008312046474021203668B0DEA450D700450
:10FA800079018002790074111203667F060202A7D1
:10FA9000749028F582740139F583E0F5B1E824010A
:10FAA00008E93400F92274F41201F374DA120380C5
:10FAB000851A82851B83EAF0A3EBF0E9FE12FC2C89
:10FAC000E849600A74FF68700374FF69700302FC00
:10FAD0000D12FC197003A3E069700302FBFC120411
:10FAE000228E0A12FF59FF750A20750B00780A1240
:10FAF00003CE740812040AAC82AD837A107B00EF47
:10FB0000F91204527402120366851A82851B83E07F
:10FB1000240CF8A3E03400F9E8FAE9FB8A828B832D
:10FB2000E0F50AE4F50CF50D740B780A12030E905B
:10FB3000F820780A1203A9740212040A780A120340
:10FB4000DF740212040AE0C0E0742212040AD0E05A
:10FB5000F0740312040AE0C0E0742312040AD0E037
:10FB6000F0740412040AE0C0E0742412040AD0E025
:10FB7000F08A828B83E0C0E0742512040AD0E0F0A2
:10FB8000740612040AAA82AB83EEF9120434E96007
:10FB90006B740212040AAC82AD837583F87582140B
:10FBA00074041202ED12FC2C740412040AE8F0A38F
:10FBB000E9F0750A01750B00780A1203CE7404127D
:10FBC000040AAC82AD838F0A7409780A120396FA8C
:10FBD000AB0B1204587402120366750A04750B000D
:10FBE000780A1203CE740212040AAC82AD837A0042
:10FBF0007B00EFF9120452740212036612FC2C12FD
:10FC0000FC197003A3E06970047901800279007423
:10FC1000261203667F040202A7851A82851B83E0F1
:10FC2000FAA3E0F5838A82A3A3E06822851A82857D
:10FC30001B83E0F8A3E0F5838882E0F8A3E0F922D3
:10FC400074F31201F3890AEAFEEBFF12042212FD9B
:10FC500008F50BEE240CF582EF12FF65250BFEE58F
:10FC60000A7004743E2EFEAF0B805C850E0C750D81
:10FC7000007406780C1203967490250CFA74013502
:10FC80000DFB790012042E050EE50EC39420405C96
:10FC9000EFF912045E750C00750D02780C1203CE9C
:10FCA0007C907D018F0C750D007409780C12039601
:10FCB000FAAB0D12045874021203660FE50A7007BE
:10FCC00074086F70027F46EFC39E5037750C007545
:10FCD0000D08780C1203CE7C907D017A007B00EF3A
:10FCE000F91204527402120366750E00E50B6F6080
:10FCF0000302FC6BE50E600302FC6B7A907B0179DA
:10FD00000180817F050202A7850A0C7426250C124A
:10FD1000FF6122E9F88809E87005020830800302D3
:10FD20004030C2AF75C9AB75C95B80FE74F2120179
:10FD3000F374DC120380750C00850C8285820A85C1
:10FD40000A0E750F007404780E12039674041204E0
:10FD50000AE582250EFEE583350FFF750E10750F3F
:10FD600000780E1203CEEEFCEFFD7A007B0012FF4E
:10FD700059F91204527402120366EE240CF8EF349F
:10FD800000F9E8FAE9FB8E828F83A3A3A3A3A3A3C0
:10FD9000E0F50EA3E0F50F7409780E1203EE8A82E7
:10FDA0008B83E50EF0F87424250AF58274F812FFAF
:10FDB00065C39850088E828F83E4F0A3F0050CE5AC
:10FDC0000CC39402500302FD39740412040AE0F4D7
:10FDD0007003A3E0F4700302FE7C740412040A12A0
:10FDE000FF6B700302FE7C740612040AE0F47003D9
:10FDF000A3E0F4600302FE7C740412040AAA82AB3E
:10FE0000837900120440740412040AAA82AB837935
:10FE10000012043AE9851A82851B83AC82AD8360A7
:10FE2000317583F875821874041202ED750A01F5B4
:10FE30000B780A1203CE740212040AAC82AD837AE4
:10FE4000007B1012045874021203667900120446F3
:10FE5000802A7583F875821C74041202ED750A01FC
:10FE6000F50B780A1203CE740212040AAC82AD8339
:10FE70007A007B021204587402120366741412048E
:10FE80000A12FF6B700302FF2974FF68700374FF8E
:10FE900069700302FF29741612040AE0687003A354
:10FEA000E06970057901120446741412040AE0F83E
:10FEB000A3E0F974FF68700374FF69606CE849603F
:10FEC00068741612040AE0F47003A3E0F4705A7424
:10FED0001412040AAA82AB8379011204407414122A
:10FEE000040AAA82AB83790112043AE96007790116
:10FEF0001204468034851A82851B83AC82AD8375DB
:10FF000083F875821074041202ED750A01F50B78FE
:10FF10000A1203CE740212040AAC82AD837A007B0B
:10FF2000101204587402120366740412040A12FFB9
:10FF30006B6021740412040AE0F47003A3E0F4601F
:10FF400013740612040AE0687003A3E0697005796F
:10FF500000120446742402FA887426250A12FF61EE
:10FF600022F58274F83400F583E022E0F8A3E0F98A
:10FF7000E84922781075B60FE5B4A2E750FAE5BB60
:10FF8000C3944A40F018E870EC53BEFBE59DA2E62E
:10FF900050FAE5C654804449F5C6E59E547F64494D
:10FFA00070F853C67FE59EA2E740FA53C680E59EEF
:10FFB000547F70FA43BE049062707408F07409F5BF
:10FFC000D575D49043C70712044C43BE0312041CDA
:10FFD000C2AF75C9AB75C95B80FEFFFFFFFFFFFFB6
:08FFE000FFFFFFFFFFFFFFFF21
:04000005000003BC38
:00000001FF
