:020000040000FA
:10400000389CFFFF0100007C42424242FFFFFFFF5D
:10401000FFFFFFFFFFFFFFFFFFFFFFFFFFFFFFFFB0
:10402000000102030405060708090A0BFFFFFFFF52
:10403000024487025467FFFFFFFFFFFFFFFFFFFF00
:10404000FFFFFF025B1CFFFFFFFFFFFFFFFFFFFF04
:10405000FFFFFFFFFFFFFFFFFFFFFF025A96FFFF7B
:10406000FFFFFF025A78FFFFFFFFFF025B79FFFFB0
:10407000FFFFFF025A2CFFFFFFFFFF02587EFFFFEA
:10408000FFFFFF0254DAFFFFFFFFFFFFFFFFFFFF0D
:10409000FFFFFFFFFFFFFFFFFFFFFF025A52FFFF7F
:1040A000FFFFFF025AB7FFFFFFFFFFFFFFFFFFFF0A
:1040B000FFFFFF02531BFF0000B400002800280090
:1040C000283075A000A000A000A00000080008E0B3
:1040D00001F000100010001000100010001000503F
:1040E000005000500010001000D007000000000039
:1040F000000F00010005003075070010000100816D
:10410000FF0000FFD05DEE5DD65DFF0202020802F7
:104110005000A0000000E80302E482010000A38236
:1041200002D8820100008F0C02C482010000B1029B
:1041300002D882010000900C02BE82010000C7027A
:1041400002D882010000910C02B282010000C90273
:1041500002D882010000920C02B482080000CA0258
:1041600002D882010000930C02B682010000940C78
:10417000FF0100FF2002E482010000A68202D88233
:10418000010000F80C02B882000000000002D48296
:1041900003000017039A639A639A639A639A639A77
:1041A000639A639A639A639A639A639A639A6316AB
:1041B000662E661066FFFF0202020202020202027F
:1041C000010D000000100102E482010000AF820234
:1041D000D8820100003B0D02D082010000A407023A
:1041E000D8820100003C0D02CE82010000898102CC
:1041F000D8820100003D0D02CC820100007B8102CB
:10420000D8820100003E0D02CA82010000EB80024C
:10421000D8820100003F0D02C882010000B5800273
:10422000D882010000400D02C682010000C7800252
:10423000D882010000410D02EC82010000D9800209
:10424000D882010000420D02C2820100006D81028D
:10425000D882010000430D02C082010000440D011C
:10426000E803053F101C02E482010000AC8202D882
:1042700082010000E90D105080020000190B02D4E9
:10428000820300001B0B02D682010000968102D837
:1042900082010000E90D1060800200001A0B02D4B8
:1042A00082030000210B02D682010000BA81FFFFC9
:1042B000FF0001307503020106000000000000004D
:1042C00000000000000000000000000000000000EE
:1042D0000000000000FFFF0600800CE803140953F3
:1042E000696D706C65424C455065726970686572A5
:1042F000616C051250002003020A0002010603024D
:10430000F0FF4169722D4169720000000000000059
:10431000000000000000001A6B0000326B386B2CAC
:104320006B0A43686172616374657269737469636F
:10433000203100024368617261637465726973744D
:104340006963203200084368617261637465726951
:10435000737469632033001043686172616374652C
:104360007269737469632034000243686172616327
:10437000746572697374696320350002E482010018
:1043800000D58102D882010000A50E02E882030058
:10439000000C0C02D682010000A60E02D882010099
:1043A00000B70E02EA82010000200C02D682010052
:1043B00000B80E02D882010000C90E02DA820200A3
:1043C00000210C02D682010000CA0E02D882010030
:1043D00000DB0E02DE82000000220C02D482030009
:1043E000002F0C02D682010000DC0E02D8820100F0
:1043F00000ED0E02E082040000350C02D6820100BE
:1044000000EE0EE5C754F84404F5C7790122000018
:104410000080FB124403B90003024471E47921785F
:1044200008B800028004F709D8FCE479297802B8BA
:1044300000028004F709D8FCE490028078BB790A76
:104440008002F0A3D8FCD9FA900C3AAA82AB8390F0
:1044500040B6784E79048015E493A3AC82AD838A8C
:10446000828B83F0A3AA82AB838C828D83D8E9D917
:10447000E77582507583F4740312449975820E7542
:104480008344740012449975D00075813F751A8079
:10449000751B02759F00024413C09FF59FE473D003
:1044A0009F22D083D082C09FE493C0E0740193C068
:1044B000E0740293F59F22E066701008A3E0667036
:1044C0000A08A3E066700408A3E06622C3E7960822
:1044D00009E7960809E7960809E79622C3E09608D7
:1044E000A3E09608A3E09608A3E09622C00AC3E0E2
:1044F00096F50A08A3E096420A08A3E096420A0845
:10450000A3E096450A7001D3D00A22080808E630D5
:10451000E711124AF8124523080808C64480C61855
:10452000181822181818E9799EC608CAC608CBC6FA
:1045300008CCC6C370207996CACBCC7019798ECBC3
:10454000CC70137986CC700EF9802ACA33CACB336B
:10455000CBCC33CC331930E7F2CCCBCA3350147008
:1045600004EA30E00DE4CA3ACACB3BCBCC3CCC5099
:104570000209C3E913C6CC182313C6CB18C6CA1840
:10458000C6F9221245C320F01430E72B74FFFCFB60
:10459000FA747F8022E4FCFBFA7480801AB48008ED
:1045A000BC00F2BB00EF800F50EBF9E4C39AFAE4D1
:1045B0009BFBE49CFCE499C6CC18C6CB18C6CA1871
:1045C000C6F922E4C9C608CAC608CBC6D333030855
:1045D000CCC63392F0C3947F402E94184019C9B9C9
:1045E0000704CACBCC225025C309CA33CACB33CB6C
:1045F000CC33CC33D9F422F4600DC9CCC313CB1324
:10460000CBCA13CAD9F6CC22E4FCFBFA2214FCFB79
:10461000FA22E6C33318461846184622E7C3331970
:10462000471947194722181818E6084608700AE67D
:1046300008C3337005E633F4220822191919E70973
:104640004709700AE709C3337005E733F4220922EA
:10465000E6084608C3134608336002E633F422E74F
:10466000094709C3134709336002E733F4220012F4
:104670004650604F12465F6012E7548066F612465D
:1046800026701112461C703B090909F4F618F61839
:10469000F618F62212463B701512461208080860FA
:1046A000EAE6447FF618768018E4F618F6221246F9
:1046B00012601612461C7012E4F608F608F608E6B8
:1046C0005480F609090918181822EAC0E0EBC0E086
:1046D000ECC0E0EDC0E0E687F0A4FBACF008E687B4
:1046E000F0A42CFCE435F0FA1809E687F0A42C4B72
:1046F00060027401CA35F0FCE433FB09E687F0D2AE
:10470000F7A42CCB35F0FC1908E687F0A42BCC35A8
:10471000F0FBE433FD0819E687F0D2E7A42C4ACB7E
:1047200035F0CD3400FC09E687F0D2E7A42DCC3576
:10473000F0FDE433FA0918E687F0D2F7A42CCD3562
:10474000F0CA3400FC08E687F0D2E7D2F7A42ACCFE
:1047500035F07A7E20E70B0ACB33CBCD33CDCC338B
:10476000CC33CB3350147004ED30E00ED2F1E4CDF5
:104770003DCDCC3CCC3B5005DA05C2F1EB547FC6B5
:104780003308E63392F0FBE73309E733C39A502D41
:104790002B70190C0D4C4D70151806E608C33370BC
:1047A0000D20F10AA2F013F6E418800B4024E4F681
:1047B00030F002768018F618F618F68024D33B14F1
:1047C000501074FFA2F013F6187680E418F618F66D
:1047D000800FA2F013F618E63303F618ECF618ED86
:1047E000F6D0E0FDD0E0FCD0E0FBD0E0FA221246AB
:1047F00050601D12465F7005191919801A1246265D
:10480000701F12463BC37003E6673319191940073E
:104810001818182208080874FFF618F618F618F683
:104820002212463B601712461C702192F01246126B
:104830007019501720F014080808090909E7F6183C
:1048400019E7F61819E7F61819E7F622124612606A
:10485000E6E869701F0808E62480F608E436F618D2
:10486000547FB47F0CE654806007F6E418F618F61F
:1048700022181822E9C6CC08C6CD08C6CE08C6CF75
:10488000C0E0E8C0E0EAC0E0EBC0E009E9F809E711
:10489000FA09E7FBE6F918E6F8C3EC98ED99EE9A09
:1048A000EBC2E7F5F0EFC2E795F0500E600CEBCFEE
:1048B000FBEACEFAE9CDF9E8CCF8EAA2E7D2E7FACA
:1048C000EB33FB13F5F0EEA2E7D2E7FEEF33FFC5C3
:1048D000F013A2E730E601B313C5F0C3C0E0C0F0A7
:1048E0007F00C39BFB605E9418600F401D14601A2C
:1048F000D0E023F9D0E0F80249CF8AF0E94860031C
:10490000D2F0E4AFF0FAF9F8803BEB30E40D89F037
:10491000EA6003D2F0E4AFF0F9CAF8EB30E30D88B7
:10492000F0EF6002D2F0AFF0E4CAC9F8EB540760D0
:1049300014FBC3EA13FAE913F9E813F8EF13500272
:10494000D2E0FFDBEDD0E0C0E030E739C3E49FFF09
:10495000F5F0EC98FC42F0ED99FD42F0EE9AFE4243
:10496000F0D0E0F9D0E0F8E5F0607AE923F9EE2044
:10497000E742D8028067C3EF33FFEC33FCED33FD31
:10498000EE33FE80EAEC28FCED39FDEE3AFED0E095
:1049900023F9D0E0F84002801BC3EE13FEED13FDB7
:1049A000EC13FCEF135002D2E0FF08B800067F7F43
:1049B00074FF802EEF3350178CF020F00260100C43
:1049C000BC000C0DBD00080EBE000408E860DFE965
:1049D00033E813FFEE2313FE4F4D4C8008E954805B
:1049E000FFE4FEFDFCEE33EF33F47004FCFD7E804B
:1049F000D0E0FBD0E0FAD0E0F8D0E0CFC618CEC6C9
:104A000018CDC618CCC6F922080808EAC0E0EBC0E9
:104A1000E086F0E7A4FA180986F0E7A42AFA180954
:104A200086F0E7A42AFA180986F0E7A42AFA19867C
:104A3000F0E7A4FBE5F02AFA190886F0E7A42BFBBF
:104A4000E5F03AFA190886F0E7A42BFBE5F03AFA0C
:104A500018180986F0E7A4C5F02BFBE43AFA190808
:104A6000E7C5F0C6A426F6E5F03BFBE43AFA188663
:104A7000F0E7A4F6E5F00826F6E43B08F6E43A0889
:104A8000F6D0E0FBD0E0FA22E4CFC0E0E4CEC0E014
:104A9000E4CDC0E0E4CCC0E075F020C3E633F60816
:104AA000E633F608E633F608E633F6181818EC3362
:104AB000FCED33FDEE33FEEF33FFC3EC9709ED97CA
:104AC00009EE9709EF97191919400FFFEC97FC09A8
:104AD000ED97FD09EE97FE191906D5F0BEECF70922
:104AE000EDF709EEF709EFF7191919D0E0FCD0E05E
:104AF000FDD0E0FED0E0FF22181818E4C396F608B7
:104B0000E496F608E496F608E496F622601608089D
:104B100008C6C313C618C613C618C613C618C613CC
:104B2000C6D5E0EA2270090808082260161818188D
:104B3000C6C333C608C633C608C633C608C633C69E
:104B4000D5E0EA22E627F60809E637F60809E6374F
:104B5000F60809E637F622E026F608A3E036F6085E
:104B6000A3E036F608A3E036F622E026F008A3E03C
:104B700036F008A3E036F008A3E036F022C3E6974B
:104B8000F60809E697F60809E697F60809E697F6A3
:104B900022C3E096F008A3E096F008A3E096F008A0
:104BA000A3E096F022E056F608A3E056F608A3E04C
:104BB00056F608A3E056F622E056F008A3E056F0B9
:104BC00008A3E056F008A3E056F022E0F608A3E0C0
:104BD000F608A3E0F608A3E0F622E6F008A3E6F064
:104BE00008A3E6F008A3E6F022E0FAA3E0FBA3E0C6
:104BF000FCA3E0FD22EAF0A3EBF0A3ECF0A3EDF0C0
:104C000022CAC0E0E6F0A308DAFAD0E0FA22CAC06D
:104C1000E0E0A3C582CCC582C583CDC583F0A3C522
:104C200082CCC582C583CDC583DAE6D0E0CA22C373
:104C3000E498F8E499F9124C708026C3E49AFAE4F7
:104C40009BFBE920E7E9124C70E498F8E499F9221B
:104C5000C3E498F8E499F9124C70E498F8E499F9EF
:104C6000C3E49AFAE49BFB22EB20E7CFE920E7E0DC
:104C7000B90010BB0008E88AF084F8AAF022E4FB2F
:104C8000C8FA22EB70227B10C833C8C933C933502D
:104C900007C39AC3DBF280069A50012ADBEAC833C5
:104CA000F4C8C933F4C9FA2275F008E4C833C8C996
:104CB00033C933C99AC99B5004C92AC93BD5F0EC02
:104CC000FBC833F4C8E4C9FA22600D08C6A2E71392
:104CD000C618C613C6D5E0F322600C08C6C313C6B7
:104CE00018C613C6D5E0F422700422600D18C6C39E
:104CF00033C608C633C6D5E0F41822251A10AF080B
:104D0000F51A4002151B8008F51A4002151BD2AF98
:104D100022C0D0251A10AF08F51A5002051B8008D2
:104D2000F51A5002051BD2AFD0D022251AF58210F9
:104D3000AF08F51A4002151B8008F51A4002151B32
:104D4000D2AF851B8322251AF582E4351BF5832219
:104D5000E473251AC582C0E0E51B34FFC583C0E0BB
:104D6000E51AC3958224F810AF0885831B85821A43
:104D7000800885831B85821AD2AFCEF0A3E520F090
:104D8000A3780AE608F0A3DEFAEFF0A3E58124FA9F
:104D9000F8E608F0A3E608F0A3E608F0A30808E6A2
:104DA00008F0A3E608F0A315811581D0E0FED0E05D
:104DB000F8158115811581E8C0E0EEC0E022251AC2
:104DC000C582C0E0E51B34FFC583C0E0E51AC3958A
:104DD0008224F910AF0885831B85821A8008858399
:104DE0001B85821AD2AFCEF0A3E520F0A3780AE6A5
:104DF00008F0A3DEFAEFF0A3E58124FBF8E608F063
:104E0000A3E608F0A30808E608F0A3E608F0A31557
:104E1000811581D0E0FED0E0F815811581E8C0E071
:104E2000EEC0E022851B83851A82E0A3FEE0A3F595
:104E300020780AE0A3F608DFFAE0A3FFE0A3C0E0D1
:104E4000E0A3C0E0E0A3C0E0E0A3C0E0E0A3C0E0D6
:104E500010AF0885821A85831B800885821A858396
:104E60001BD2AFD083D08202449F851B83851A82D8
:104E7000E0A3FEE0A3F520780AE0A3F608DFFAE05D
:104E8000A3FFE0A3C0E0E0A3C0E0E0A3C0E0E0A394
:104E9000C0E010AF0885821A85831B800885821ABE
:104EA00085831BD2AFD083D08222C0D0251AC58281
:104EB000C0E0E51B34FFC583C0E0E51AC39582243A
:104EC000F310AF0885831B85821A800885831B85B4
:104ED000821AD2AFC8F0A3E9F0A3EAF0A3EBF0A3E3
:104EE000790AE709F0A3D8FAECF0A3EDF0A3EEF00D
:104EF000A3EFF0A3D0E0F0A3D0E0F0A3D0E0F0A3C4
:104F0000E520F0A3E5F0F0A322851B83851A82E05B
:104F1000C0E0A3E0F9A3E0FAA3E0FBA3780AE0F67F
:104F200008A3DFFAE0FCA3E0FDA3E0FEA3E0FFA3FB
:104F3000E0C0E0A3E0C0E0A3E0F5D0A3E0F520A34B
:104F4000E0A3F5F010AF0885831B85821A800885E1
:104F5000831B85821AD2AFD082D083D0E0F8D0E014
:104F60003274048006740280027401C0E0F40412FA
:104F70004D2BD0E0124C0122740480047402800096
:104F8000CCC0E0EDC0E0E51AC39CCCAD1B50011DC8
:104F900010AF068C1A8D1B80068C1A8D1BD2AF1297
:104FA0004C0ED0E0FDD0E0FC22D083D082E9C0E0FE
:104FB000E493A3C386F0C5F095F0F908E493A386C3
:104FC000F0C5F095F0700BE493A3C3994005E90494
:104FD0008002A3E475F002A42582F582E5F0358312
:104FE000F583D0E0F9E493A3C0E0E493C0E022D0DD
:104FF00083D082ECC0E0EDC0E0E493A3FCE493A393
:10500000FDED4C600D12503BEC24FFFCED34FFFD38
:1050100080EFE493A3FCE493A3FDED4C600D1250EC
:105020007AEC24FFFCED34FFFD80EFD0E0FDD0E012
:10503000FCE493A3C0E0E493C0E022C0E0C3E493A7
:1050400096087401939618400FE4936670080874EC
:105050000193661870007019A3A3C3E493960874B3
:1050600001939618A3A3400DD0E0D0E0D0E0025009
:105070002BA3A3A3A3A3A3D0E022C0E0C0F088F099
:10508000E4936670080874019366187000A8F0A392
:10509000A3700BD0F0D0E0D0E0D0E002502BA3A35F
:1050A000D0F0D0E022FFFFFF74F5124DBEEAFEEB18
:1050B000FFEE2434F8EF3400F9880A890BEE24352A
:1050C000F582EF3400F583E0F8EE2437F582EF3413
:1050D00000F583E0F50CEC850CF0A4FCAAF0850C3F
:1050E000F0EDA42AFDE82CF8E43DF97A257B0012C6
:1050F0004C70EA850A82850B83F05407F87401B876
:1051000000028004C333D8FCC0E0E0131313541F23
:10511000F8EE28F8EF3400F9E8245DF582E9340070
:10512000F583D0E0F8E0586008EE2434F582EF8093
:105130001EEE2436F582EF3400F583E0F5F0EA84C4
:10514000A8F0EE28F8EF3400F9E82438F582E934C5
:1051500000F583E0F97F04024E6A74F5124DBEEA51
:10516000FEEBFFEE2434F582EF3400F583E0C0E07F
:10517000EE2435F582EF3400F583D0E0F08E828F97
:1051800083A3A3A3A3A3A3A3C082C0838E828F8380
:10519000A3A3A3A3A3E0F8A3E0F9D083D082E0C344
:1051A00098F50AA3E099F50BEE2480F582EF340020
:1051B000F583E064017069EE2481F582EF3400F537
:1051C00083E0F8A3E0F98E828F83A3A3A3A3A3A314
:1051D000A3E0FCA3E0FD8E828F83A3A3A3A3A3E09F
:1051E000FAA3E0FBC3EA9CEB9D5027C3EC98ED9932
:1051F000402EC3EA98EB9950277CFC7D04EEFAEF31
:10520000FB1262F8EE2480F582EF3400F583E4F0BF
:10521000800EC3EA98EB9940E0C3EC98ED9950D921
:10522000EE2434F8EF3400F9E8FCE9FDEE2435F51E
:1052300082EF3400F583E0F8EE2437F582EF340096
:10524000F583E0F50CE50A850CF0A4F50AAAF085D3
:105250000CF0E50BA42AF50BE8250AF8E4350BF968
:105260007A257B00124C70EA8C828D83F05407F80B
:105270007401B800028004C333D8FCC0E0E013130B
:1052800013541FF8EE28F8EF3400F9E8245DF58296
:10529000E93400F583D0E0F8E0586008EE2434F5F6
:1052A00082EF801EEE2436F582EF3400F583E0F5C0
:1052B000F0EA84A8F0EE28F8EF3400F9E82438F595
:1052C00082E93400F583E0F9125870025155C0822A
:1052D000C083851A82851B83E0F8A3E0F9C3EA9CAA
:1052E000EB9D5012C3EC98ED994019C3EA98EB99E5
:1052F000501279018010C3EA98EB9940F5C3EC98FD
:10530000ED9950EE7900D083D08222EAC39CFAEB6B
:105310009DFB22FF8521878522C622C0E0C0D0E800
:10532000C0E0E9C0E0EAC0E0EBC0E0ECC0E0EDC006
:10533000E0C00AC00BC00CC00DC082C083C0F075B5
:105340009B00906182E0A2E640030253F9E591A23E
:10535000E640030253F97591BF9003C1E064057004
:1053600008126424126430800312642A752100122A
:105370006484E99003C2F0790012647812626E7A54
:10538000017B009003C0E0F9126790907803E0641D
:1053900042600302544290055EE014F06003025440
:1053A00042C2AF1253A600782AD0E0F618D0E0F639
:1053B000E59F5407F9700590827F800390827B7887
:1053C0000A124BCBE9C4C0E07829E6550AF50A0871
:1053D000E6550BF50B740B780A124CD9D0E0250A70
:1053E000F8906270E0A2E740F8E8C333906272F090
:1053F000906270E0D2E0F08049E0A2E55024E591AF
:10540000A2E5501E7591DF9003C1E0640D7013900A
:1054100003E3E004F064287002E4F07A00E0F9129B
:1054200064F6906181E0A2E35009E5E9A2E350034C
:1054300075E9F7A3E0A2E75009E591A2E7500375EB
:10544000917FD0F0D083D082D00DD00CD00BD00A79
:10545000D0E0FDD0E0FCD0E0FBD0E0FAD0E0F9D025
:10546000E0F8D0D0D0E032C0E0C0D0C082C083909D
:105470006183E0A2E05009E5BFA2E0500375BFFEE2
:10548000E0A2E15009E5BFA2E1500375BFFDE0A233
:10549000E25009E5BFA2E2500375BFFBE0A2E35072
:1054A00009E5BFA2E3500375BFF7E0A2E45009E5A8
:1054B000BFA2E4500375BFEFE0A2E55009E5BFA22B
:1054C000E5500375BFDFE0A2E65009E5BFA2E65054
:1054D0000375BFBFD083D0828088C0E0C0D0E8C051
:1054E000E0E9C0E0EAC0E0EBC0E0ECC0E0EDC0E025
:1054F000C0F0E5A7A2E6500FE5A1A2E6500953A728
:10550000BF75A1BF12553FE5A7A2E5500CE5A1A2CA
:10551000E5500653A7DF75A1DFE5A7A2E15009E535
:10552000A1A2E1500375A1FDE5A7A2E2500CE5A1FF
:10553000A2E2500653A7FB75A1FBD0F002545074B1
:10554000F8124DBE7521019003C1E064067015127A
:1055500063C48A828B83A3A3A3A3A3A3E0FAA3E0DB
:10556000FB126412A2AFE433FED2AF9003C7E06433
:105570000170187A207B009003C0E0F91268147A59
:10558000207B009003C0E0F9126796906182E0D220
:10559000E6F090055DE0602185C62280169003C686
:1055A000E064017008E5C654F84405F5C653BEFC36
:1055B0001253147401652160E4EEA2E092AF7F0102
:1055C000024E6AFF8E238F24858228858327851AC1
:1055D00082851B83E0CEA3E0CF852882852783EBDD
:1055E000C9EAC8EDCBECCA75F010C3E833C8E9339B
:1055F000C9EA33CAEB33CBC3EA9EF526EB9FF52508
:10560000B35004AB25AA26EC33CCED33CDD5F0DA7C
:10561000AE23AF242274F1124DBE8A0A8B0B8C0C80
:105620008D0D740F124D46780E124BCB908263781D
:105630000A124BA5908263780E124BA5780A790E58
:105640001244CC5015780A790E124B7D908207785F
:105650000A1244EC401579018013780E790A124B36
:105660007D908207780E1244EC40EB79007F0802AF
:105670004E6A74ED124DBE8A0A8B0B8C0C8D0D7424
:1056800013124D46780E124BCB908263780A124B60
:10569000A5908263780E124BA5780E790A1244CC3D
:1056A0004011780A790E124B7DAA0AAB0BAC0CADF7
:1056B0000D802275120075130075140075150178A0
:1056C00012790E124B7D7812790A124B44AA12AB52
:1056D00013AC14AD157F0C024E6A908263780A12E7
:1056E0004BCB8A828B83780A124BB87F04024E6AB6
:1056F00074F5124DBE8C828D83780A124BCB8A8250
:105700008B83780A124B91EA2404F8EB3400F98C6D
:10571000828D83A3A3A3A3E0FCA3E0FD88828983F9
:10572000C3E09CF0A3E09DF088828983C3E09420CD
:10573000A3E0944E4022908247780A124BCB8A8293
:105740008B83780A124B6A8A828B83A3A3A3A3E07C
:105750002420F0A3E0344EF0808074F5124DBEE9B1
:10576000FE900513E0FAA3E0FBEEC333F8E433F94F
:10577000740D28F582748139F583E02AF50AA3E0D7
:105780003BF50B780A124F65908293124BE9125544
:10579000C47402124D118A0A8B0B8C0C8D0D74107F
:1057A000780A124B0CAA0AAB0B7F04024E6A74F102
:1057B000124DBE8A0E8B0F8C108D11740F124D4638
:1057C000E0FAA3E0FB7411124D46E0F50AA3E0F500
:1057D0000B7413124D46E0FEA3E0FF780A124F65EA
:1057E000EA2401F50AEB3400F50BE4F50CF50D782D
:1057F0000E790A124A08908243780A124BCB780E2F
:10580000790A124A08AA0EAB0FAC10AD111255C49A
:105810007402124D118B0BEA450B60047A01800271
:105820007A00EC2AFCED3400FDECF8EDF97A717B9E
:1058300002124C70880A890BE4F50CF50D8E828FEC
:1058400083780A124BDAECF8EDF97A717B02124C8C
:10585000708A0A8B0B7405780A124CE88E828F834B
:10586000A3A3A3A3E50AF0A3E50BF07F08024E6A09
:10587000C082C083E9906000F0D083D08222C0E073
:1058800074EB124EAAE5AFFED2879007A3E004F0B6
:10589000EEA2E24003025A06E5E7A2E64003025AFE
:1058A00006E0C394035003025A0643B440D287E58E
:1058B000B4A2E750FAC287E5BAF50AE5BBF50B7466
:1058C00005780A124CC9AA0AAB0B9007A0E0C333B3
:1058D000F8E433F9748C28F582740739F583C3EA48
:1058E00094B4EB9400A2D265D033500774B4F0A303
:1058F000E4801AC3EA946CEB9404A2D265D03340DE
:1059000008746CF0A374048004EAF0A3EBF0900731
:10591000A0E004F0C3940A5003025A18E4F0FF74A4
:10592000012FF50CEFF83395E0F9E8C333F8E933CC
:10593000F9748C28F8740739F988828983E0FCA30C
:10594000E0FDE50CFA3395E0FBEAC333FAEB33FBF9
:10595000748C2AFA74073BFB8A828B83E0F50AA3D6
:10596000E0F50BC3E50A9CE50B9D50148882898302
:10597000E50AF0A3E50BF08A828B83ECF0A3EDF04F
:10598000050CE50CC3940AA2D265D03340AB0FEFEF
:10599000C39409A2D265D0334085900798E0F8A35C
:1059A000E0F9A3125A23125A23E028F50AA3E0399A
:1059B000F50B7402780A124CC9E50B3395E0F50C2F
:1059C000F50D780A12450B908233780E124BCB7886
:1059D0000A790E12466E908237780E124BCB780AF7
:1059E000790E1247EE780A1245839007A1E50AF076
:1059F000A3E50BF075E400C2B975E60075E7009009
:105A000007A3E4F08012EEA2E3500D9062A3E0A29F
:105A1000E65005D28712672AEEF4F5AFC2877F08F9
:105A2000024F09E028F8A3E039F9A322C0E074F29C
:105A3000124EAAA2AFE433FED2AFC2C0E5D1A2E4B7
:105A4000500653D1EF126A0CEEA2E092AF7F010232
:105A50004F09C0E074F2124EAAA2AFE433FED2AFF7
:105A6000E589A2E1500312699A758900C2C5EEA2C8
:105A7000E092AF7F01024F09C0E074F2124EAAA279
:105A8000AFE433FED2AFE58BA2E0500312699A7502
:105A90008B00C2E880D8C0E0C0D0E8C0E0E9C0E038
:105AA000E5A8D2AFC2C7A2E7A2E792AFD0E0F9D093
:105AB000E0F8D0D0D0E032C0E0C0D0E8C0E0E9C02B
:105AC000E0C00AC00BC082C083A2AFE433F9D2AFFA
:105AD000900A0AE0F8A3E0687008539AF7A37401EB
:105AE0008021C2EA900A0A125BC9748A250AF582EB
:105AF00074093400F583E0F5F9900A0AE0C3948054
:105B00004002E4F0E9A2E092AFD083D082D00BD083
:105B10000AD0E0F9D0E0F8D0D0D0E032C0E0C0D078
:105B2000E8C0E0E9C0E0EAC0E0C082C083A2AFE420
:105B300033FAD2AFE5C1C0E0900A91E0F8741028C2
:105B4000F582740A3400F583D0E0F0900A90E0F812
:105B5000A3E0687006E595900A93F0900A91E0043E
:105B6000F0C394804002E4F0A3E4F0EAA2E092AF34
:105B7000D083D082D0E0FA8098C0E0C0D0E8C0E006
:105B8000E9C0E0C00AC00BC082C083A2AFE433F911
:105B9000D2AF900B14E0F8A3E0687008539AFBA30F
:105BA00074018021C2E9900B14125BC97494250A18
:105BB000F582740A3400F583E0F5C1900B14E0C35C
:105BC00094804002E4F0025B04E0F50A7401250AC7
:105BD000F0221244A2A6E4031244A2BDE40312443C
:105BE000A2ECE4031244A225E5031244A24DE5030E
:105BF0001244A27BE5031244A292E5031244A2A937
:105C0000E5031244A2BFE5031244A2E6E5031244F1
:105C1000A2F9E5031244A20FE6031244A222E6030E
:105C20001244A247E6031244A249E9021244A248E0
:105C3000EA021244A27DEA021244A29EEA0212443F
:105C4000A2AEEA021244A2CFEA021244A2DBEB02A5
:105C50001244A2A8EC021244A21BED021244A2A11B
:105C6000ED021244A2E4ED021244A21BEE02124421
:105C7000A2A1EE021244A273EF021244A2D1EF02DB
:105C80001244A2E9EF021244A263F0021244A26697
:105C9000F0021244A269F0021244A210F10212446E
:105CA000A228F1021244A258F1021244A278F10291
:105CB0001244A266F2021244A21CF3021244A2523F
:105CC000B2031244A27AB2031244A2A8B20312444D
:105CD000A2DFB2031244A247B3031244A290B3035B
:105CE0001244A2DBB3031244A219B4031244A25615
:105CF000B4031244A284B4031244A22BB503124489
:105D0000A235B5031244A242B5031244A275B503ED
:105D10001244A237B6031244A243B6031244A25B54
:105D2000B6031244A265B6031244A2CCF003124497
:105D3000A2DAF0031244A2F2F0031244A20AF10321
:105D40001244A2C0E9011244A25EEA011244A2D6A2
:105D5000EA011244A2EBEB011244A225EC01124429
:105D6000A2CEEC011244A2A3ED011244A207EF015E
:105D70001244A25EEF011244A2E5EF011244A2CC4C
:105D8000F0011244A219F1011244A2A7F101124438
:105D9000A2CBF1011244A2A0F3011244A2E1F3014B
:105DA0001244A203F4011244A284F4011244A26E2C
:105DB000F5011244A234F6011244A20999031244D7
:105DC000A2DB99031244A2849A031244A2C79A0345
:105DD0001244A2549B031244A2E09B031244A2C1AA
:105DE0009C031244A2F09C031244A2EC9D031244B3
:105DF000A2349E031244A2369F031244A27A9F0348
:105E00001244A2A09F031244A2F4F2031244A27708
:105E1000D0031244A28DD0031244A2B3D003124483
:105E2000A2DBD1031244A2E5D1031244A23ED30364
:105E30001244A23ED4031244A22CAD031244A26128
:105E4000AE031244A294AE031244A2DEAE03124487
:105E5000A29CB0031244A263DA011244A2C6DA0182
:105E60001244A20BDC011244A21BDC011244A23E2C
:105E7000DC011244A289DC011244A22EDD0112448D
:105E8000A224DE011244A2EEDE011244A266E00169
:105E90001244A2A8E0011244A246E1011244A293D6
:105EA000E1011244A2B9E1011244A2A7E3011244A4
:105EB000A2ACE3011244A28DE5011244A2E1E50186
:105EC0001244A243E6011244A26BE6011244A20F5F
:105ED000E7011244A2D1E7011244A202E8011244F0
:105EE000A205E8011244A24DE8011244A28FE80184
:105EF0001244A2F6E8011244A220DA031244A233AB
:105F0000DA031244A24CDA031244A297DA031244D1
:105F1000A272DB031244A201DC031244A24CDC0394
:105F20001244A20080011244A20C80011244A24536
:105F300080011244A28A80011244A24181011244CC
:105F4000A2C781011244A22C82011244A2588201EC
:105F50001244A29182011244A2A584011244A2819A
:105F600086011244A26C88011244A2A38901124442
:105F7000A2038C011244A2EF8C011244A2358E01BF
:105F80001244A2428F011244A25F8F011244A297D1
:105F90008F011244A2B18F011244A2199001124440
:105FA000A2B394011244A25495011244A2A59501F2
:105FB0001244A2CC95011244A21A96011244A238AE
:105FC00096011244A28C96011244A29497011244A5
:105FD000A21C98011244A2FAB6031244A204B70309
:105FE0001244A2CFB7031244A2EAB7031244A2108C
:105FF000B8031244A254B8031244A28CB80312444A
:10600000A2B5B8031244A22EB9031244A243B903A5
:106010001244A258B9031244A28FB9031244A2A396
:10602000B9031244A2D4B9031244A20EBA03124413
:10603000A23ABA031244A2B1BA031244A2FABA03B2
:106040001244A224BB031244A249BB031244A28BF4
:10605000CC031244A255CD031244A238CE031244FD
:10606000A2AECE031244A2F0CE031244A21DD0036E
:106070001244A238C5021244A261C5021244A27A97
:10608000C5021244A2BFC6021244A29DC702124416
:10609000A2BCC7021244A249C8021244A28CC80280
:1060A0001244A2D9C9021244A278CA021244A2F729
:1060B000CC021244A28ECD021244A262CE0212443D
:1060C000A244CF021244A2B0D0021244A243D10291
:1060D0001244A2BCED031244A225EE031244A2799D
:1060E000EE031244A2A0EE031244A271BB031244B9
:1060F000A2DEBB031244A229BC031244A21EBD03AC
:106100001244A21ABE031244A204BF031244A20006
:1061100080031244A24280031244A21C8103124451
:10612000A2F581031244A2F082031244A2CF83039A
:106130001244A23B84031244A20285031244A26DBE
:1061400085031244A2D485031244A2FF850312449E
:10615000A27086031244A20387031244A26C870331
:106160001244A28187031244A2C987031244A2E207
:1061700087031244A24788031244A24A88031244A8
:10618000A248D4031244A270D4031244A2AED40392
:106190001244A26CD5031244A2D7D5031244A2F331
:1061A000D5031244A21BD6031244A24BD6031244B9
:1061B000A25AD6031244A2D4D6031244A2FAD6039A
:1061C0001244A27E8E021244A25B90021244A25696
:1061D00092021244A22993021244A274930212441E
:1061E000A2BF93021244A2D193021244A2119402BC
:1061F0001244A24694021244A29294021244A2C1F2
:1062000094021244A2E494021244A2319502124470
:10621000A2BA95021244A2C797021244A2B29902EE
:106220001244A2F599021244A25A9B021244A29B64
:106230009B021244A20E9C021244A25A9C021244D7
:10624000A2BAD1021244A2E5D1021244A2CCD802D1
:106250001244A2F0DA021244A2ABDC021244A208F9
:10626000DE021244A28398011244A21A9901124438
:10627000A26099011244A29F9A011244A2369C0185
:106280001244A2B09C011244A2CB9C011244A24031
:106290009D011244A26F9E011244A2CA9F011244A2
:1062A000A2CCA0011244A229A2011244A242A2013E
:1062B0001244A29FA2011244A281A3011244A2B4DB
:1062C000A3011244A224A4011244A29EA4011244D8
:1062D000A2EDA4011244A2B9A5011244A2BEA601D6
:1062E0001244A29DA7011244A228A8011244A2961A
:1062F000A8011244A20AA9011244A233A90112441E
:10630000A2F2A9011244A26CAB011244A289AB0112
:106310001244A2A8AB011244A239AC011244A25EFD
:10632000AC011244A286AC011244A201AD01124498
:10633000A25BAD011244A2AFAE011244A26CAF0148
:106340001244A23FB0011244A2859C021244A2D57D
:106350009C021244A2E19C021244A2BE9D0212447D
:10636000A2EE9D021244A2269E021244A2A59E0203
:106370001244A2DD9E021244A22F9F021244A26C7C
:106380009F021244A291A1021244A2BDA302124490
:10639000A2B8A5021244A293A7021244A2FC7F0055
:1063A0001244A2B2C6011244A2FCC6011244A2DBEE
:1063B000CC011244A25CCE011244A2BBD40112440F
:1063C000A2B6D5011244A2F3D5011244A216D601F9
:1063D0001244A258D6011244A261D6011244A26B03
:1063E000D6011244A257D7011244A24BD80112443D
:1063F000A26DB0011244A2E5BA011244A2EBBA01A7
:106400001244A2F7C1011244A275FC021244A27305
:10641000FD021244A2C9FD021244A207FE02124468
:10642000A264FE021244A2E1FE021244A2EAFE02AB
:106430001244A2F6FE021244A209FF021244A2452F
:10644000FF021244A25BFF021244A217C4031244CB
:10645000A224C4031244A23EC4031244A27DC40376
:106460001244A2BBC4031244A220C5031244A235A5
:10647000C5031244A240C5031244A24DC5031244F1
:10648000A264C5031244A272C5031244A27DC503CF
:106490001244A289C5031244A298C5031244A2A3C0
:1064A000C5031244A2C6C5031244A26FC603124418
:1064B000A27FC6031244A299C6031244A2B6C60321
:1064C0001244A2D2C6031244A2F7C6031244A20188
:1064D000C7031244A215C7031244A234C7031244CF
:1064E000A295C7031244A29BC7031244A2A1C703EB
:1064F0001244A2A7C7031244A2B3C7031244A2E6E0
:10650000C7031244A259AA021244A2DBAA021244EF
:10651000A284AB021244A2CCAC021244A2DAAE02B4
:106520001244A2C0AF021244A2F5AF021244A21755
:10653000B0021244A2C0B0021244A290B2021244AD
:10654000A2B9B2021244A231B3021244A263B3024E
:106550001244A270B3021244A2BBB3021244A2DFDF
:10656000B3021244A230B6021244A23AB702124455
:10657000A296B7021244A20080021244A211810224
:106580001244A2F581021244A2FF81021244A22108
:1065900082021244A22D82021244A2D1830212442A
:1065A000A2FE83021244A21485021244A26985024B
:1065B0001244A2B886021244A28D87021244A2E9B4
:1065C00087021244A25488021244A289880212440B
:1065D000A2CC88021244A2968B021244A2AE8B0275
:1065E0001244A23F8C021244A24D8C021244A29A81
:1065F0008C021244A2A88C021244A2148D021244EE
:10660000A28F8D021244A2E68D021244A22BDE025A
:106610001244A24DDE021244A25EE0021244A21D08
:10662000E3021244A247E4021244A205E502124426
:10663000A2F1E5021244A2EDE2031244A212E30326
:106640001244A288E3031244A269F8011244A27220
:10665000F8011244A27BF8011244A253F90112443A
:10666000A204FB011244A234FB011244A25FFB010D
:106670001244A28FFB011244A2BAFB011244A2EE03
:10668000FB011244A21AFC011244A25DFC01124457
:10669000A288FC011244A2CFFC011244A224FD01F5
:1066A0001244A266FD011244A2C0FD011244A2EBF5
:1066B000FD011244A23AFE011244A26AFE011244F4
:1066C000A295FE011244A2C3FE011244A2E6FE01FD
:1066D0001244A27DF3031244A2A9F3031244A2D6EA
:1066E000F3031244A2E0F3031244A2F0F3031244B2
:1066F000A2EDE7031244A2FBE7031244A26CE803F5
:106700001244A2BFE8031244A20FE9031244A26D8F
:10671000E9031244A26DEC031244A2A0EC0312445C
:10672000A2C0EC031244A2D8EC031244A2E1EC0391
:106730001244A26E88031244A27888031244A2B6BF
:1067400088031244A2FF88031244A2398903124429
:10675000A29389031244A2B489031244A28C8C032D
:106760001244A2958C031244A2E28C031244A20BA1
:106770008D031244A2158D031244A2818D0312448D
:10678000A2138E031244A25D8E031244A2938E03C1
:106790001244A21F8F031244A2608F031244A297D7
:1067A0008F031244A2A98F031244A2C88F0312447C
:1067B000A2D18F031244A29990031244A2D5EF03F1
:1067C0001244A2FCE0031244A232E1031244A26884
:1067D000E1031244A2B3E2031244A286FF01124471
:1067E000A29CFF011244A2A6FF011244A28BFF0249
:1067F0001244A263C8031244A278C8031244A22B15
:10680000C9031244A26BC9031244A284C9031244EF
:10681000A2BFC9031244A20CCA031244A23ECA0377
:106820001244A280CA031244A2F6EA031244A21F31
:10683000EB031244A24EEB031244A2E6EB03124414
:10684000A228EC031244A2BBDE031244A2D1DE0351
:106850001244A2DFDE031244A2EDDE031244A25F63
:10686000DF031244A2B9DF031244A242D703124449
:10687000A267D7031244A291D7031244A2FAF303EA
:106880001244A2906B001244A26D6D001244A21338
:106890006F001244A2C76F001244A251700012444C
:1068A000A2D270001244A2FB70001244A24D7100EB
:1068B0001244A20B75001244A29175001244A2B8B2
:1068C00076001244A2F276001244A23377001244FA
:1068D000A27B78001244A2D878001244A221790049
:1068E0001244A28C79001244A2FD79001244A22F16
:1068F0007A001244A2477A001244A2737B00124429
:10690000A2837B001244A22D7D001244A2447D008C
:106910001244A2767D001244A22A7F001244A2B73C
:106920007F001244A2A3F1031244A2B4F103124463
:10693000A254F2031244A2A3F4031244A2E2F40309
:106940001244A2DAF5031244A2E5F5031244A2EAC6
:10695000F5031244A2EAFF021244A25FF2031244BA
:10696000A26FF2031244A284F2031244A2EAF203D9
:106970001244A2D1EE031244A256EF031244A2BC69
:10698000EF031244A27CE9031244A2A5E9031244D6
:10699000A210EA031244A261EA031244A2BCEA0371
:1069A0001244A2F67F001244A2F97F001244A2F022
:1069B000FF011244A214A7031244A2A2A703124487
:1069C000A216A8031244A2A0A8031244A213A9036A
:1069D0001244A29BA9031244A249AA031244A2D9B9
:1069E000AA031244A285AB031244A210AC031244C2
:1069F000A22EAC031244A24CAC031244A2ADAC03D1
:106A00001244A2CDAC031244A2DAAC031244A22970
:106A1000AD031244A215A0031244A257A0031244CE
:106A2000A272A0031244A243A1031244A231A20302
:106A30001244A294A4031244A206A5031244A2EE97
:106A4000A5031244A2D0A6031244A259E60312449D
:106A5000A2ABE6031244A21EE7031244A287E70397
:106A60001244A276DC031244A2A0DC031244A26EFC
:106A7000DD031244A249DE031244A2C7900312446C
:106A8000A28E91031244A2C591031244A2EF910376
:106A90001244A24F92031244A2A592031244A20AE6
:106AA00093031244A2A293031244A2B1940312448A
:106AB000A24896031244A2D596031244A23C97031F
:106AC0001244A25397031244A26D98031244A2AB3E
:106AD00098031244A2E3B7021244A230BB0212444C
:106AE000A2ACBC021244A203BD021244A220BD0209
:106AF0001244A2A2BD021244A225BF021244A20A5D
:106B0000C0021244A2BFC3021244A295C40212449E
:106B1000A287F3021244A229F6021244A2CEF60280
:106B20001244A291F7021244A20BF9021244A2539A
:106B3000FB021244A29DFB021244A2FCFB0212447F
:106B4000A2C6BF031244A20BC0031244A228C00372
:106B50001244A25CC1031244A2C5C1031244A2ACF8
:106B6000C2031244A2DEC3031244A2ECF403124493
:106B7000A268F5031244A232F5031244A294F5036D
:106B80001244A2BCF503FFFFFFFFFFFFFFFFFFFF63
:106B900074F4124D52E9FF7E008A0A8B0B780A12B8
:106BA0004FA900040D366DC36BE06BF96B106C2DB3
:106BB0006C446C656C7C6C8F6CB86CD26CE26CF85D
:106BC0006C126D74016F6003026D328C828D83E0F4
:106BD000F8C394034003026D32E8900DE3026D0F99
:106BE00074026F6003026D328C828D831274E790A1
:106BF0000DE4E8F0A3E9026D0F74016F6003026D0C
:106C000032126D594003026D32E89007AD026D0FEC
:106C100074016F6003026D328C828D83E0F8C3943F
:106C2000054003026D32E89007AE026D0F74016FEC
:106C30006003026D32126D594003026D32E8900715
:106C4000AF026D0F74106F6003026D32750A108E03
:106C50000B780A124F657AB07B07126736740212FE
:106C60004D11026D5474016F6003026D32126D5943
:106C70004003026D32E89007C0026D0F74016F602F
:106C800003026D328C828D83E0900DE7026D0F74EC
:106C9000046F6003026D328C828D83780A124BCBB5
:106CA000908293780A1244EC5003026D329007C22E
:106CB000780A124BDA026D54EF7077125E1EE9709B
:106CC0000A1268EC7950126ACC80629008557401FF
:106CD000803D74016F705B126D595056E89007C18A
:106CE000802D74016F704B8C828D83E0F8C3940A01
:106CF0005040E8900DE6801774016F70358C828DDE
:106D000083E0F874F928C3940A5027E8900DE8F05E
:106D1000804274016F701B900854E0F88C828D8360
:106D2000E0900854F0E8702CE0640170271268E0ED
:106D300080227E18801EC3EA9426EB9400501374C0
:106D4000026F700E8C828D831274E1125CBCE9FEBE
:106D500080020E0EEEF9026D688C828D83E0F8C31E
:106D6000940222740E124D117F04024E2474F0120C
:106D70004D5274CC124CFB8C0C8D0D7420124D4670
:106D8000AC82AD837583817582F07406124C0E74EB
:106D900020124D46AC82AD8312688CE9F50A74442A
:106DA000124D46E0FEE9C3940A4003026EDB75F023
:106DB00006E9A4F50B7426124D46AC82AD837A0E1B
:106DC0007420250BF9126AC6E970097432124D4617
:106DD000E0FF80027F00900DE3E064027004740124
:106DE0008001E4F50F780F124F69EEFDEFFCA90A60
:106DF000AA0CAB0D1269167401124D117C147D00A2
:106E00007900740C124D46AA82AB8312674E740C43
:106E1000124D46AC82AD837A107424250BF9126AA8
:106E2000C6E9703C7C1079FF740C124D46AA82AB07
:106E3000831267B4E97029741C124D46AC82AD838D
:106E40007A047425250BF9126AC6740C124D46ACEF
:106E500082AD83EFA2E0E433F9AA0CAB0D125D46DC
:106E6000851A82851B83AC82AD837A0C7470250AE7
:106E7000F9126AC6E97053851A82851B83AA82AB10
:106E8000831268C2750A00E50A75F003A4F8A9F038
:106E9000851A82851B83E58228F8E5831276EB123A
:106EA0007873601D88828983A3A3E0F510751100B3
:106EB0007810124F65AA0CAB0D125FA47402124D2C
:106EC00011050AE50AC3940440BDEFA2E1500C90FD
:106ED00007ACE0F9AA0CAB0D125FAA74046E702720
:106EE000900DE3E06402701F7A009007C0E060013B
:106EF0000A9007ADE06004780480027800E84AF95F
:106F0000AA0CAB0D125E0679007434124D117F0885
:106F1000024E2474F0124D52EAFEEBFF8C0A8D0BE8
:106F2000750C0AE9600C146009146037146079026A
:106F30006FC21268D4E9F50CC3940A4003026FC211
:106F4000E50A450B607C7510067511007810124F2C
:106F500065EEFCEFFDAA0AAB0B1267367402124D08
:106F600011805F750D007510067511007810124FB5
:106F700065EEFCEFFDE50D75F00EA4F8A9F074CEFA
:106F800028FA740739FB1267487402124D11E96040
:106F90000C850D0CE50CC3940A50278016050DE5F1
:106FA0000DC3940A501C80BE1268DAE9F50CC39434
:106FB0000A500FE50A450B6009AA0AAB0BA90C128F
:106FC00068CEA90C026F0E74F4124D52890A750B2B
:106FD0001574FF6A700374FF6B70277E00AC0A7A29
:106FE000027B00EEF91268B0E96003750B000EEE4B
:106FF000C3940A40E8E50A60537A047B691261B4DD
:10700000804A1261968A0C8B0DAE0CAF0DEE4F606C
:10701000387C007D00EE2405FAEF3400FB8E828F71
:1070200083A3A3A3A3E0F912688CE9C3940A500CCC
:10703000AC0A7A027B001268B0750B00E50A600C9E
:10704000EEFAEFFB1269048003750B14A90B026DB5
:107050006874F2124D52ECFEEDFF750A15740E12B3
:107060004D461274D474FF6A700374FF6B702175FF
:107070000B00AC0CAD0DEEFAEFFBA90B1268B6E9F4
:107080006003750A00050BE50BC3940A503F80E2CC
:107090001261968A828B83E5824583602D7C007D18
:1070A00000E5822405FAE5833400FBA3A3A3A3E053
:1070B000F912688CE9C3940A5013AC0CAD0DEEFACA
:1070C000EFFB1268B6750A008003750A14A90A025C
:1070D0007F14C082C0839007C6EAF0A3EBF090074C
:1070E000ACE0FC7D007A257B00125CBC9007ACE034
:1070F000F9125F20D083D08202449F74EC124D526B
:107100008A0A8B0BE9FE7414124D46780E124BCB93
:107110007F00EE702E780A124F65908293781212DB
:107120004BCB780E7912124A88AA12AB13AC14AD6D
:1071300015125D587402124D11E9FF60097901AA18
:107140000AAB0B125D52EFF97F0C024E2474EA1267
:107150004D5274EC124CFBEAFEEBFFEE240CF516DC
:10716000EF3400F517EE240AF50EEF3400F50FEEBC
:107170002405F510EF3400F511EE2409F50CEF3479
:1071800000F50DEE2403F50AEF3400F50B8E828F27
:1071900083A3A3E024FA70030274AC24FD700302FD
:1071A00073C714700302723214601024FD7003025E
:1071B00073971470030273FC0274CA1274ED604A70
:1071C000E0F58388821274E7880E890FE8450F6026
:1071D00039851682851783E0F5107810124F69EE15
:1071E000240BF582EF3400F583E0F9850C82850DE0
:1071F000831274E10A0A0AAB0B850E82850F831293
:107200004D507401124D110274CA850C82850D8394
:10721000124F7C9007C2124BE9125D587402124D56
:1072200011E970030274CA7901850C82850D83020D
:1072300074788E828F83A3858214858315E0600322
:1072400002737A851082851183E0A2E04003027305
:107250007A7C0E7D007900851A82851B83AA82AB19
:107260008312674EEE2408F512EF3400F5138512F1
:1072700082F583127D27EA4B6010750C06750D00B0
:10728000780C124F65EA2410801B127D2112619642
:10729000EA4B70030274CA750C06750D00780C1267
:1072A0004F65EA2405FCEB3400FD7402124D46AA3A
:1072B00082AB831267367402124D118510828511DC
:1072C00083E0A2E25004D2F08002C2F0A2F0E433E4
:1072D000F8740C124D46E048F0850E82850F83123B
:1072E00074D4E50C450D6013E50C2410F582E50D12
:1072F0003400F583780E124BCB800C750EFF750FA2
:10730000FF7510FF7511FFE50C450D7006750C003B
:10731000750D00851282851383E0F512A3E0F51345
:10732000E51245137006751200751300780E124FA2
:1073300061780C124F657812124F65851682851799
:1073400083124F7C8E828F83A31274DC740A124DD9
:1073500046AA82AB831268C8740A124D11850A824C
:10736000850B831274E7900856E8F0A3E9F07A01E0
:107370007B009007ACE0F91267901274ED70030285
:1073800074CA1274F870030274CA85148285158356
:10739000E0FC79010274A01274ED70030274CAE07B
:1073A000F5838882A3A31274E7890DE8450D700365
:1073B0000274CA8E828F83A3E0FC7902127D218839
:1073C00082850D830274A77C007D00EE2404FAEF11
:1073D0003400FB850A82850B83E0F912688CE9F89A
:1073E000C3940A40030274CAAC0EAD0F7A0475F060
:1073F00006E8A42425F9126AC00274CA127D2190FD
:1074000007C1E06007900DE6E0F9806F900DE3E0C2
:107410007004790580651261968A0E8B0FA80EA9FB
:107420000FE82404F50EE93400F50F8E828F83A354
:10743000A3A3A3A3A3A3E0A2E05045E849700302DD
:1074400074CA850E82850F83E0FE6034850C8285C8
:107450000D83E054107029740E124D46AC82AD833A
:10746000E82405FAE93400FBEEF912688CE97010A3
:107470007903850A82850B83127D27125D52804A2B
:10748000AC10AD11850E82850F83E0F9127D2112BB
:1074900069101274ED60331274F8602E7C0079006C
:1074A000127D218E828F83124D50801E125E1EE946
:1074B0007018900855E0640170081268EC90085547
:1074C000E4F07950126ACC1268E07414124D117F06
:1074D0000E024E24E0F50CA3E0F50D22A3A3A3A316
:1074E000A3E0FCA3E0FD22E0F8A3E0F9229007C6A8
:1074F000E0F8A3E0F9E84922E0F5838882A3A3E05D
:10750000F8A3E0F9E8FEE9FFEE4F2274F4124D52C1
:1075100074F2124CFBEAFE8C0D75F006E9A42420EF
:10752000F50A851A82851B83AC82AD837A0EF91227
:107530006AC6E970577C0679FF851A82851B83AA83
:1075400082AB831267B4E97043740C124D46127417
:10755000E7E8F50BE50D6005EE420B8004EEF45212
:107560000B850B82AA82E86A7001E9601B740C1219
:107570004D46EAF0A3E4F0851A82851B83AC82AD08
:10758000837A0EA90A126AC0790180027900026D1D
:107590006374F2124D5274E6124CFB890C8A0A8B0A
:1075A0000BECFEEDFF740C124D46AC82AD837A0EEF
:1075B00075F006E9A42420F9126AC6E96003027690
:1075C000B17C0679FF740C124D46AA82AB83126718
:1075D000B4E960030276B17470250CF50D851A824A
:1075E000851B83AC82AD837A0CF9126AC6E960030D
:1075F0000276AD851A82851B83AA82AB831268C28C
:10760000E50A450B702C7C0C7900851A82851B835A
:10761000AA82AB831267B4E960030276AD7C0C7D6D
:10762000007900851A82851B83AA82AB8312674E7C
:10763000805D851A82851B83AC82AD83AA0AAB0B61
:107640001268BC8A0E8B0FA80EA90FE8497028EEAD
:107650004F605E851A82851B83AC82AD837A007B86
:10766000001268BCEAF8EBF9EA4B6045888289832E
:10767000E50AF0A3E50BF0127727FAEE6A7001EF46
:10768000602BEEF04F700888828983E4F0A3F085C8
:107690001A82851B83AA82AB831268C2851A8285EF
:1076A0001B83AC82AD837A0CA90D126AC07901806C
:1076B000027900741A027F1174F7124D527F00EFA5
:1076C00075F003A4F8A9F0EC28F8ED1276EBE06A67
:1076D0007003A3E06B7006E8FAE9FB800B0FEFC3C1
:1076E000940440DB7A007B00027A2A39F988828987
:1076F000832274F7124D527E00EE75F003A4F8A9B0
:10770000F0EA28F8EB1276EBE0F4FCA3E0F4FD8855
:10771000828983ECF0A3EDF0127727F4F00EEEC32C
:10772000940440D5027A2AE82402F582E93400F56F
:1077300083E02274F4124D5274F4124CFBEAFEEB17
:10774000FF8C0A8D0BEE4F7005790A02785D126886
:10775000D4E9F50CC3940A4024750D007C0679FF2A
:10776000E50D75F00EA4FAABF074C82AFA74073B65
:10777000FB1267B4E97003027862850D0CE50CC357
:10778000940A400302785B75F006E50CA4F50DEE53
:10779000FCEFFD7A0E7420250DF9126AC0E50A454A
:1077A0000B600EAC0AAD0B7A1B7421250DF9126A21
:1077B000C07418124D46127873600A7A1B74222521
:1077C0000DF9126AC0741A124D46127873600A7A63
:1077D000107423250DF9126AC0741C124D461278DC
:1077E00073601D7A107424250DF9126AC0741E127C
:1077F0004D46AC82AD837A047425250DF9126AC01A
:107800007C0C7D0079FF851A82851B83AA82AB835D
:1078100012674E851A82851B83AC82AD837A0C7405
:1078200070250CF9126AC0750A0E750B00780A12E1
:107830004F65EEFCEFFDE50C75F00EA4F8A9F074B1
:10784000C828FA740739FB1267367402124D11907A
:107850000854E0600312691C12690AA90C740C0236
:107860006D65050DE50DC3940A500302775C750C38
:107870000A80E8E0FCA3E0FDEC4D2274F4124D52C6
:1078800074F2124CFBEAFEEBFFE9C3940A5004EEDB
:107890004F70047902803E851A82851B83AC82ADCD
:1078A000837A0E75F006E9A42420F9126AC6E9F578
:1078B0000A7020750C06750D00780C124F65740265
:1078C000124D46AC82AD83EEFAEFFB1267367402BE
:1078D000124D11A90A026D6374F4124D52EAFEEBC7
:1078E000FF750A00750C06750D00780C124F65EED9
:1078F000FCEFFDE50A75F00EA4F8A9F074C828FAAB
:10790000740739FB1267487402124D11E96004A92B
:107910000A800B050AE50AC3940A40C8790A026D79
:107920006874F7124D5274F0124CFBEAFEEBFF75CF
:107930000A00851A82851B83AC82AD837A1075F0AC
:1079400006E50AA42423F9126AC6E9702C7C107992
:10795000FF851A82851B83AA82AB831267B4E97004
:1079600018EEFCEFFD851A82851B83AA82AB831279
:107970005D28E97004A90A800B050AE50AC3940A88
:1079800040B0790A7410124D11027A2A74F7124D20
:1079900052750A00E50A75F00EA4F8A9F074C8281B
:1079A000FE740739FFEEFCEFFD7A0E75F006E50A6E
:1079B000A42420F9126AC6E9602C7C067D0079FFB8
:1079C000EEFAEFFB12674E7C067D0079FFEE24068F
:1079D000FAEF3400FB12674EEE240CF582EF340010
:1079E000F583E4F0A3F0050AE50AC3940A40A590E4
:1079F0000854E0600312691C12690A802D74F712A2
:107A00004D527E007F007C0679FFEF75F00EA4FAE0
:107A1000ABF074C82AFA74073BFB1267B4E9700133
:107A20000E0FEFC3940A40DEEEF97F01024E24747C
:107A3000F7124D527E00EEF91268F20EEEC3940A70
:107A40005003E960F180E374F3124D5274CB124C91
:107A5000FBE9FF75F006A4F50A7420250AFE7427D9
:107A6000124D46AC82AD837A0EEEF9126AC6E96019
:107A700003027B647C0679FF7427124D46AA82AB11
:107A8000831267B4E96003027B647C0E7D0079FF9A
:107A90007427124D46AA82AB8312674E7C1B7D0071
:107AA00079FF740C124D46AA82AB8312674E7C0C90
:107AB0007D0079FF851A82851B83AA82AB831267BA
:107AC0004E7427124D46AC82AD837A0EEEF9126ADF
:107AD000C0E9F50B740C124D46AC82AD837A1B7471
:107AE00021250AF9126AC0E9FE740C124D46AC82D7
:107AF000AD837A1B7422250AF9126AC0E9F50C7469
:107B00000C124D46AC82AD837A107423250AF9120B
:107B10006AC0E9F50D740C124D46AC82AD837A1043
:107B20007424250AF9126AC0E9F50E740C124D4648
:107B3000AC82AD837A047425250AF9126AC0E9F58E
:107B40000A851A82851B83AC82AD837A0C74702FF0
:107B5000F9126AC0E9F8EE450C450D450E450A4894
:107B6000420B8003750B00A90B7435124D117F0574
:107B7000024E2474F7124D52E99007ACF01268E0FF
:107B8000027A2A74F2124D5274FB124CFB8A0A8B51
:107B90000BEB54807003027C1B9007ACE0F912677A
:107BA000788A0C8B0DAE0CAF0DEE4F60648E828F19
:107BB00083E02450603814600624E1604A804BA3BF
:107BC000A3A3A3E070448E828F83A3A3A3A3A3A344
:107BD000A3124F7C8E828F831274DC8E828F83A3DC
:107BE000A3127D271268987402124D11801CA3A362
:107BF000A3A3E0641E701379008E828F83A3A31267
:107C00007D2712689280031268AAEEFAEFFB1267D2
:107C100066AA0AE50B6480FB027D1CEAA2E0400331
:107C2000027D189008561274D47403124D46858252
:107C30000E85830F780E124F65750E02750F007852
:107C40000E124F65750ED4750F82780E124F657C3B
:107C5000FF7DFF7A017B00125E787406124D1102DF
:107C60007D00E4F50EF50F780E124F657404124D89
:107C70004685820E85830F780E124F657404124D6F
:107C80004685820E85830F780E124F657409124D5A
:107C900046124F7C7902EEFCEFFDAA0CAB0D125F91
:107CA000987408124D11E97035851A82851B83E09E
:107CB000FA7401124D46E0F9EA2400F50EE439F5B4
:107CC0000FEA450F6018780E124F658E828F83126F
:107CD00074DDAA0CAB0D1268987402124D11E4F514
:107CE0000EF50F780E124F657405124D46124F7C3B
:107CF0007CFF7DFFEEFAEFFB125E847404124D11DF
:107D00008A0E8B0FAE0EAF0FEE4F6003027C62E562
:107D10000A6401FAAB0B80047A007B007405027FD1
:107D200011850A82850B83E0FAA3E0FB22C082C0A2
:107D3000839007ACE0F98A828B83A3127D27125FC0
:107D4000AA0270F4C082C08374FF124CFB1268E672
:107D5000E9C39402851A82851B8340047402800261
:107D6000740AF0AC82AD837A017905125E36740133
:107D7000124D110270F474F2124D5274E8124CFB61
:107D8000EAFEEBFF890C8C0A8D0B7C187D007900D4
:107D9000851A82851B83AA82AB8312674E851A825D
:107DA000851B83EEF0A3EFF09007AEE0C0E0740215
:107DB000124D46D0E0F09007AFE0C0E07403124DE2
:107DC00046D0E0F0900DE8E0C0E07417124D46D0C8
:107DD000E0F07415124D46E054FEF8A3E0F9900D62
:107DE000E7E0A2E0E433FAE84AF87415124D4612CF
:107DF0007F20A2E15004D2F08002C2F0E854FDFAE4
:107E0000A2F0E43333F8EA48F87415124D46127FB5
:107E100020A2E35004D2F08002C2F0E854F7FAA2A4
:107E2000F0E433F50E750F007403780E124CE8126F
:107E30007F19124D46127F20A2E45004D2F0800236
:107E4000C2F0E854EFFAA2F0E433F50E7404780EB1
:107E5000124CE8127F19124D46127F20A2E5500401
:107E6000D2F08002C2F0E854DFFAA2F0E433F50E5B
:107E70007405780E124CE8127F19124D46127F20BD
:107E8000A2E25004D2F08002C2F0E854FBFAA2F061
:107E9000E433F50E7402780E124CE8127F19124D7D
:107EA00046E8F0A3E9F09007AFE0601D750E10788A
:107EB0000E124F657CB07D077406124D46AA82AB48
:107EC000831267367402124D119007C0E06011E50D
:107ED0000C60097415124D46E04402F078018002EE
:107EE00078007414124D46E048F09007ADE060044D
:107EF0007804800278007414124D46E048F0AC0A11
:107F0000AD0B851A82851B83AA82AB83125D4C74EC
:107F100018124D117F06024E24EA450EF874152200
:107F2000E8F0A3E9F0900DE7E02274F3124D5274EB
:107F3000E5124CFBEAFEEBFF8C0B8D0C7428124D06
:107F400046E0F50E75F006E9A4F87408650C7004B7
:107F500074228002742128F50D7C1B7D0079008538
:107F60001A82851B83AA82AB8312674E851A82858B
:107F70001B83AC82AD837A1BA90D126AC6E97032ED
:107F8000741A124D46E024F9C3940A5025E50EF503
:107F90000D780D124F697401124D46AC82AD83E528
:107FA0000BA2E0E433F9EEFAEFFB125D5E7401120E
:107FB0004D11741B027B6B74F7124D5212601675D3
:107FC0000A00E50A75F00EA4F8A9F074C828FE743A
:107FD0000739FF7C0679FFEEFAEFFB1267B4E97010
:107FE00009EEFAEFFB790012601C050AE50AC3945A
:107FF0000A40CF027A2A02449F02449F02449FFF14
:10800000C082C083E9900CF7F002828474F7124DAD
:1080100052E99002DFF07C177D037AFF7BFF125F4D
:10802000B09002E074FFF0A3F0A3E4F0A3F07905B0
:10803000125F389002DFE0F9125E607AC87B5F124F
:108040006184028F9274F4124D528A0A8B0BEB54A6
:108050008060309002DFE0F91267788A0C8B0DAEF9
:108060000CAF0DEE4F60138E828F83E064B070030F
:10807000125F50EEFAEFFB126766AA0AE50B648006
:10808000FB80047A007B0002825374F2124D52741A
:10809000FC124CFBEAFEEBFF7412124D461294796F
:1080A000EE4F700302812D7402124D46EEF0A3EFE5
:1080B00012848EECF0A3ED12848EAA82AB83125E42
:1080C0005AE9F50C706AE50A450B60648E828F836D
:1080D00012945FEE4F60567A067B001267CC8A0ED0
:1080E0008B0FA80EA90FE8497005750C1380418805
:1080F000828983E412813AEEF0A3EF12948AE50AB2
:10810000F0A3E50BF09002E51281C19002E5700545
:10811000128F3C801B128F2A8003EAFCEBFD8C82BD
:108120008D831281C170F38C828D8380E3750C0284
:10813000A90C7404124D11029679F0A3129430A385
:108140002274F2124D52890CE975F017A4FEAFF0BB
:108150009002E4E4F09002E21281C1600A1267D258
:108160009002E2E4F0A3F0EEFAEFFB1267CC8A0A89
:108170008B0BEA450B602FEEFCEFFD790012674E8A
:108180009002E2E50AF0A3E50BF07B008008128183
:10819000ABE4F0A3F00BEBC3950C40F2E50C9002BE
:1081A000E4F0790080027913029679EB75F017A458
:1081B000F8A9F09002E2E028FAA3E0398A82F58378
:1081C00022128BCEEA4B2274F4124D52740C124DD3
:1081D00046129454FEE9FF750A00750B00800CE509
:1081E0000A2401F50AE50B3400F50BC3E50A9CE50A
:1081F0000B9D5032850A0C850B0D7403780C124CC4
:10820000E8EA250CF8EB350DF988828983A3A3A34E
:10821000A3A3A3129011EE650C7003EF650D70BF60
:10822000E8FAE9FB80047A007B00802774F4124DA1
:10823000527900EAA2E0501B750AE4750B81780AB6
:10824000124F657C047D007AF97B0C125F32740258
:10825000124D117F04024E24C082C0839002E512A9
:10826000828B601C88828983A3A3E06A7003A3E0E9
:108270006B8882898370E8A3A3A3A3128BCA8004AE
:108280007A007B00D083D08202449F12975FE84936
:108290002274EE124D5274FC124CFBEAFEEBFF8589
:1082A0001A82851B83E4F0A3F0EE2402128F1CEEE9
:1082B0002405129437EE2404F510EF128843E024CD
:1082C000FE603924FC604624FE605224FE605E2479
:1082D000FE70030283A424FE700302840824FE704F
:1082E0000302841724FE700302842624FC70030218
:1082F000843524FE70030284440284819002FE745B
:1083000017F0A3E4128496125BD8028481851A8246
:10831000851B83AC82AD83125F56028451851A821D
:10832000851B83AC82AD83125F5C028451850E0A8B
:10833000850F0B7402124D46AC82AD83850A82858F
:108340000B83128BCA125E7E8A0E8B0FAC0EAD0FA2
:10835000EC4D603BE4F50EF50F780E124F65750E8F
:10836000FE750F02780E124F65750EFF750F0278BD
:108370000E124F657408124D46124F7C12978312ED
:108380004D11E9F50E700B128BC0125BF0800F756A
:108390000E01850A82850B83128484128F3C850E20
:1083A0000A0284547402124D46AC82AD83850E825B
:1083B000850F83128995603C850E82850F83A3A368
:1083C000124F7C7512FE7513027812124F657512EA
:1083D000FF7513027812124F657408124D46124F42
:1083E0007C129783124D11E9F50B700B128BC012A2
:1083F0005BF6800F750B01850E82850F83128484D6
:10840000128F3C850B0A804C851A82851B83AC82B7
:10841000AD83125F62803A851A82851B83AC82AD80
:1084200083125F68802B851A82851B83AC82AD83A3
:10843000125F6E801C851A82851B83AC82AD83120D
:108440005F74800D851A82851B83AC82AD83125FB9
:108450007AE9F50AE50A60298E828F83A3E0641425
:10846000601F851082851183E09002FE12848E12B7
:10847000975B9002FF128F3CE50AA3128496125B71
:10848000D2028E2B12975F851A82851B8322F0857C
:108490001A82851B8322F07CFE7D02850C82850D6D
:1084A00083128BCE2274EE124D5274FC124CFB8A56
:1084B0000C8B0D8C108D11EA2405F50AEB3400F5B8
:1084C0000B7C157D0079007AFE7B0212674EE50A6F
:1084D0002402F50EE50B12943A851A82851B8385DA
:1084E00082128583137812124F65850A82850B8369
:1084F000A3A3A3A312898C124F65E50A2405F512E4
:10850000E50B3400F5137812124F65850E82850F46
:1085100083128CE1125E787406124D118A128B134D
:10852000AE12AF13E50C2402F50CE50D128F1FEE11
:108530004F700302866380177402124D46128BCA75
:1085400088828983EAF0A3EBF09002FEE004F090C9
:1085500002FEE0C394054003028663E4F512F513BE
:108560007812124F657512E77513027812124F6573
:108570007512E87513027812124F657406124D4693
:10858000124F7C7910EEFCEFFD129785124D11E928
:10859000705E850A82850B83A3A3A3A3A3A3A3E094
:1085A000F89002E7E068704812898C124F657CE809
:1085B0007D02E50A2408FAE50B3400FB12674874D3
:1085C00002124D11E960298E828F83A3A3A3A31207
:1085D0008BCA9002FEE0F51274027812124CE87415
:1085E000FF2512F58274023513F583EAF0A3EBF050
:1085F0007402124D468582128583137812124F65DC
:108600007402124D46124F7C850E82850F83128BA9
:10861000F0124D118A128B13AE12AF139002FEE0CE
:10862000F51275130074027812124CE874FE2512CC
:10863000F874023513F988828983A31281C170030B
:1086400002852FE82403080808E93400F9EE4F609A
:10865000030285388882898374FFF0A3F09002FEBC
:10866000E004F09002FEE0600A128BC0125BE47935
:1086700000800B850A82850B83128F33790A028E64
:108680002B74EA124D5274FE124CFB8C148D15EAB9
:108690002405F50EEB12976D129463750A00750BA5
:1086A00000EA2402F512EB3400F513851A82851BCB
:1086B0008385820C85830D780C124F65850E82852B
:1086C0000F83A3A3A3A3128859124F65E50E2405B7
:1086D000F50CE50F128F1F780C124F65850E828501
:1086E0000F8312885D125E787406124D118A0C8B0E
:1086F0000DEA450D70030287FEEA2404F510EB1223
:1087000088431294638A828B83A3A3A3E0F9851222
:1087100082851383128BD460030287FEE4F516F57D
:10872000177816124F657516E77517027816124FEF
:10873000657516E87517027816124F657406124DA6
:1087400046124F7C7913AC0CAD0D851282851383D4
:1087500012978B124D11E9F50B60030287FE900210
:10876000E7E0F8E50A7009E024029002FFF08014C7
:108770009002FFE0FCE82402FAE43400FBEA6C70AB
:1087800001EB707E850A82AA821289839414128971
:108790007B506B851082851183E0C0E074002A1243
:1087A000883AD0E0F0050A851082851183A3E0C0E5
:1087B000E0850A0C7400250C12883AD0E0F0050A16
:1087C0009002E7128859124F657CE87D02850A0CF9
:1087D0007400250C12884D124D119002E7E0250A15
:1087E000F50A74FF6E700374FF6F6012EE24010EC1
:1087F000EF3400FFE50AC3941450030286ABE50A88
:108800006013128BDE851282851383128BCA125B72
:10881000EA79008014E50B7003750B0A85148285D4
:108820001583EEF0A3EFF0A90B7402124D117F0E29
:10883000024E24850A0E7400250EF582740334005E
:10884000F583223400F511851082F58322FA740332
:108850003400FB12673674022212949922A3A312E9
:10886000886322128F2AFDEEFAEFFB2274EE124D7E
:108870005274FE124CFB8C108D11EA2405F50EEBA0
:1088800012943A750D009002FEE4F0F50CEA240211
:10889000F50AEB3400F50B80449002FEE0FA9002FA
:1088A000E7E0F8128983941712897B400D9002FE4D
:1088B000E0F87416C3989002E7F012898C124F65A5
:1088C0007CE87D0274FF2AFA7402128850124D115E
:1088D0009002E7E0F89002FEE028F0050CE50E2497
:1088E00016F582E50F12883EE0F8E50CC398507447
:1088F0009002FEE0C39416506BE50CC333F8E433EA
:10890000F9E50E28FEE50F39FF851A82851B83AC39
:1089100082AD838E828F831289957008750D011246
:108920008F2F8050E4F512F5137812124F657512EF
:10893000E77513027812124F657512E87513027805
:1089400012124F657406124D46124F7C7916850A35
:1089500082850B8312978B124D11E9F50D7003027E
:10896000889980BB7CFE7D02850A82850B83128BF1
:10897000CA125BFCA90D7402028E2DE99400C36536
:10898000D03322EA28F8E43400F9E822E0F5127541
:108990001300781222128E228A128B13AC12AD139E
:1089A000EC4D2274EA124D5274FC124CFB8A0E8B71
:1089B0000F8C148D15EA2405F50CEB128F1F750A28
:1089C00000750B00E50C2402F512E50D3400F513DB
:1089D0007402124D468582108583117810124F65FE
:1089E000850C82850D83A3A3A3A312943F124F6528
:1089F000E50C2405F510E50D3400F5117810124F43
:108A000065851282851383128F25128BC4125E78BE
:108A10007406124D118A108B11AE10AF11E50E24A1
:108A200002F510E50F3400F51180388882898374CF
:108A3000FFF0050A12883374FFF0050A9002E7E0A0
:108A4000F50E750F00780E124F657CE87D02850AE1
:108A50000E7400250E12884D124D119002E7E0258C
:108A60000AF50AEE4F60278E828F83A3A3A3E0F955
:108A7000851082851183128BD4EE2404129437E979
:108A80006027850E82850F83128BB6128F3CE50A14
:108A90007003028B9C128BDE851082851183128BF2
:108AA000CA125C027900028BB1E4F516F51778164C
:108AB000124F657516E77517027816124F65751611
:108AC000E87517027816124F657408124D46124F5A
:108AD0007C7911EEFCEFFD85108285118312978B56
:108AE000124D11E9F50B709A850A82AA82EA90026A
:108AF000E77009E024049002FFF08025E0F890027E
:108B0000FFE0F516E82404FCE43400FDEC65167083
:108B100001ED7081128983941212897B4003028ACD
:108B200095850E82850F83E0C0E074002A12883A92
:108B3000D0E0F0050A850E82850F83A3E0C0E01225
:108B40008833D0E0128BF985820E85830F780E1260
:108B50004F657404124D46124F7C85128285138333
:108B6000128BF0124D118A0E8B0FAE0EAF0F850ACD
:108B70000E7400250EF874033400F9EE4F700302F2
:108B80008A2B851A82851B83E088828983128BF960
:108B9000A3E0C0E0128833D0E0028A39E50B70030D
:108BA000750B0A850C82850D83128BB6128F3CA93A
:108BB0000B740402882B12975F851482851583221B
:108BC0007CFE7D02850C82850D83128BCE22E0FA1D
:108BD000A3E0FB22128BCE125E66E9F50B22900217
:108BE000FFE0F5F0E50A849002FEF07CFE7D0222B3
:108BF000128863125E84740422F0050A851A828545
:108C00001B832274EC124D5274FE124CFB8A0A8BA9
:108C10000B8C108D11EA2405FEEB3400FF128E0C34
:108C2000EE2418129437EA450D7003028CAF128DB2
:108C3000F55029128CD48A128B13EA4513606B7994
:108C400012AC0CAD0D850A82850B83128BCA85127E
:108C500082851383124D50E9F50C7058E4F50CF53C
:108C60000D780C124F658E828F83A3A3E0F50C78EC
:108C70000C124F65EE2403128F1C780C124F658E78
:108C8000828F83128CE1125F9E7406124D11E9F5FA
:108C90000C7021850E82850F83E0701F850A828506
:108CA0000B83128BCA125C088011750C0E8009753B
:108CB0000C018004E50C6003128F2F850E82850F56
:108CC00083E0600479008002A90C7402124D117FC8
:108CD0000C024E24851A82851B83128BCE125F8C68
:108CE00022128F2AFD850A82850B83128BCE227475
:108CF000EE124D5274FE124CFB8A0A8B0B8C0E8DB9
:108D00000FEA2405FEEB3400FF751000128E0CEA0A
:108D1000450D7003028DD3128DF5502C128CD48A20
:108D2000108B11EA4511604A7912AC0CAD0D850A21
:108D300082850B83128BCA851082851183124D5058
:108D4000E9F5106003028DD6850A82850B831290A7
:108D500011AA0CFB128DE770147AFF7BFF128DE7CE
:108D6000606C88828983E50CF0A3E50DF0750C003A
:108D7000800775100E805F050C9002E4E0FAE50CA8
:108D8000C39A504AE50C75F017A4FAABF0888289B3
:108D900083A3A3E02AFAA3E03BFB8A828B83128F92
:108DA00025EC4D70D2750C17750D00780C124F65BF
:108DB000EEFCEFFD1267367402124D11EEFCEFFD72
:108DC000850A82850B83128BCA125C0E8014751083
:108DD000098003751001129757850E82850F831243
:108DE0008F3CA910028976125F808A128B13A81219
:108DF000A913E84922E50A2402F50AE50B3400F537
:108E00000B8A828B83A3A3A3E0A2E522851A828525
:108E10001B83AC82AD838E828F83128E228A0C8B51
:108E20000D22E0FAA3E0FB125E7E227404124D11C3
:108E30007F0A024E2474EC124D528C128D13EA24D8
:108E400005F50EEB12943A751100EA2402F50CEBCD
:108E5000128F1F850C82F583128BCA129811700332
:108E6000028F117510008071850E82850F83E0647A
:108E700001704F8E828F83A3A3124F7C8E828F83CB
:108E8000A3A3A3A3E0F5147515007814124F65EEA3
:108E90002405F514EF3400F5157814124F65128B84
:108EA000C4125F9E7406124D11E9F5116014850E0F
:108EB00082850F83E4F012975785128285138312FF
:108EC0008F3C7C177D007900EEFAEFFB12674E8E27
:108ED000828F83E4F0A3F005109002E4E0F8E5103F
:108EE000C398501EE51075F017A4F8A9F0850A8202
:108EF000850B83A3A3129777128F25EC4D60030295
:108F00008E68850A82850B8374FFF0A3F0E51170EB
:108F100006128BC4125C14A911028CCFF50CEF342D
:108F200000F50D22A3128F2AFD22E0FCA3E0228E81
:108F3000828F8312975F851082851183E8F0A3E901
:108F4000F022C082C0839002E0E06A7003A3E06B6D
:108F500070067AE07B0280047A007B0002828474CF
:108F6000F7124D527F00EF75F003A4F8A9F0EC283A
:108F7000F8ED39F988828983E06A7003A3E06B70A9
:108F800006E8FAE9FB800B0FEFC3940240D87A00A1
:108F90007B007F01024E2474F6124D5212954870E8
:108FA000067A007B008007A3A3A3A3128BCA0296B4
:108FB0000974F2124D52E9FE740E124D46129011D0
:108FC0007410124D461294798C828D83E064027085
:108FD0003BA312975B88828983E0F50EA3E0F9A892
:108FE0000E74026870037429697021750E02750F82
:108FF00000780E124F65780A124F65780C124F6593
:10900000EEF9125FC27406124D11800279010296C8
:1090100079E0F50CA3E0F50D2274E8124D5274FBD3
:10902000124CFBE9851A82851B83F08A188B198CF8
:10903000108D11741F124D461294797421124D46F1
:109040001290117423124D461294637512008C8293
:109050008D83A3A3A3E0A2E4502A741D124D4612EF
:109060008CDA8A828B83E5824583700302912579AD
:109070000AAC10AD11AA18AB19124D50E9F51260E7
:1090800003029128851082851183E0640260030247
:1090900093DEA312975B850A82850B83A3858214D6
:1090A000858315E5102406F50EE51112943A8882A1
:1090B0008983E0FAA3E0F9EA2400F516E439F5170C
:1090C0007816124FEF010000280128ED90070002EA
:1090D00028C491032834910029EE920129169302A5
:1090E00029BD920329EE9204297F93DE93EE4F70FF
:1090F0003E850E82850F83129454FAE9FB8A828B97
:1091000083E0850C82850D83129490124F658A82CC
:109110008B83A3128F2AFDAA0AAB0B126736740247
:10912000124D11800375120EA91274050297657510
:10913000120B80F4EE4F70F7850C82850D8374015D
:10914000F0129469850A82850B83F07C007D00858E
:109150001082851183A3A3A3A3E02401FAA3E03422
:1091600000FB125E7EEA4B60418A828B83E0240220
:10917000F8850C82850D83E028F0EA2404F8EB34AE
:1091800000F988828983E08514828515831294A270
:10919000129490124F658A828B83128F24E50A24E1
:1091A00003FAE50B3400FB02911B850C82850D83CD
:1091B000E02404F07C047D007900AA14AB1512674A
:1091C0004E029128EE4F600302912F129469FEA384
:1091D000E0FF850C82850D837404F0EE850A82859C
:1091E0000B83F0EF851482851583F07403124D46CE
:1091F000AC82AD83EEFAEFFB129536700302929AC1
:109200008A828B83A3A312945F7401124D468582D8
:10921000108583117810124F657405124D46124F58
:109220007C7CFF7DFF125E847404124D118B11EA69
:1092300045117033850E82850F8312943F124F655E
:10924000850E82850F83A3124F7C7C027D007AE21B
:109250007B82125CB07404124D11E9700A74011221
:109260004D4674FFF0A3F08E828F83E06402703469
:10927000750E02750F00780E124F658E828F831265
:109280008F24E50A2404FAE50B128850124D11854B
:109290000C82850D83E0240280097401124D46EE94
:1092A000F0A3EFF07401124D46129450F0740112C5
:1092B0004D46A3129448A3A3A3F0029128EE4F6059
:1092C0000302912F850E82850F83128F25AA18AB7A
:1092D00019125FB6850C82850D837402F0EA850A47
:1092E00082850B83F0851482851583EB80CBEE4F4E
:1092F000600302912F129469F8A3E0F9850C82852E
:109300000D837402F0E8850A82850B83F0E98514E9
:109310008285158380A3850E82850F83128BCA12E6
:109320006730EAFC8C82A882C39EE49F404BE86EC3
:109330007001EF70047C00801F851A82851B83E01A
:10934000FAEE2AFAEF3400FBC3EA98EB94005003DC
:10935000E08004EECCC39CFCEC850C82850D83F090
:109360008C0C750D00780C124F65850E82850F836D
:10937000E02EFCA3E03F029116751207029128EE41
:109380004F600302912F850E82850F8312975B85B4
:109390000C82850D837407F08882898312944812A9
:1093A0009430E0851482851583F0E82402FAE934CC
:1093B00000FB8A828B83129448129481129450A3EA
:1093C00012948A129459F0E82405F8E93400F988D7
:1093D000828983129459A31294A2A30292B6741D97
:1093E000124D46129541700302912512975B880E2B
:1093F000890FE8450F70030291258E128F137812A2
:10940000124F65780C124F65780A124F6574061278
:109410004D46E0F9AC10AD11AA18AB19850E828546
:109420000F83124D507406124D11E9F51202912866
:10943000F088828983A322F50EEF3400F50F22E035
:10944000F510751100781022E0850A82850B8322C1
:109450001294A92212975FE8221294A9A3A322A32F
:10946000A3A3A3E0FEA3E0FF22850E82850F83E085
:10947000F8A3E0F5838882E022E0F50AA3E0F50B8B
:1094800022A3A3F08A828B83A32212813CA3A3226E
:10949000F08A828B8312949922E0F50C750D007886
:1094A0000C221294301294A922E0850A82850B8343
:1094B000A3A32274EE124D5274FE124CFB8A0C8B45
:1094C0000DECFAEDFB7414124D46E0F512A3E0F535
:1094D000137416124D46E0FE7418124D46E0F51056
:1094E000A3E0F511851A82851B83AC82AD831295AA
:1094F00036603E851A82851B83129541602FA3A397
:10950000129479E50A450B60247810124F657812A1
:10951000124F65EEF9AC0EAD0FAA0CAB0D850A82A9
:10952000850B83124D507404124D118006790E8004
:10953000027901028976125E7E8A0E8B0FEA450F50
:1095400022128BCE12954822125F4A8A828B83E5C3
:109550008245832274F6124D5274FE124CFB740C39
:10956000124D46129454851A82851B83F0740112A1
:109570004D46E9F0E4F50AF50B780A124F65750AD5
:1095800002780A124F657404124D4685820A85835B
:109590000B780A124F65125F9E7406124D11740209
:1095A000124D11806474F7124D52EAFEEBFF890AE6
:1095B0007C177D03125FB6EA5402600BA90AEEFA2B
:1095C000EFFB125E7280027901028F9274F6124DE7
:1095D0005274FF6A700374FF6B701C7B00EB75F0B4
:1095E00003A4F8A9F0EC28F8ED39F912960E0BEB6C
:1095F000C39402501480E6125F868A0A8B0BA80A75
:10960000A90BE849600312960E7F02024E2488825D
:10961000898374FF12813AE4F02274F6124D5212DB
:109620005F868A828B83E58245836006A3A3E0FA86
:1096300080027A007B0080D174F2124D528A0A8B2C
:109640000BECFEEDFF740E124D46E0F50C12967E0B
:10965000701CEEFCEFFD7AFF7BFF12967E700479A2
:1096600011801688828983E50AF0A3E50BF08882D1
:109670008983A3A3E50CF079007F06024E24125FD4
:10968000868A0E8B0FA80EA90FE8492274EE124DA0
:1096900052EAFEEBFF8C0A8D0B890E7412124D46B6
:1096A00012975B7414124D46128F257416124D4694
:1096B000128BCA750F00EC4D600302974F74026560
:1096C0000E600302974A88828983128F2AF9EC245C
:1096D00000F510E439F511EAF4F8EBF4F9EC58F878
:1096E000E51159F9E849705DE50A2406F8E50B34FF
:1096F00000F9880C890D8882F58312885F125FB6A5
:109700008A128B13E51065127004E511651360422F
:109710007810124F65850C82850D8312885F125F69
:10972000BC7402124D11E9F50F70277810124F65C5
:10973000850A82850B83A3A312885D125FCE740213
:10974000124D11800D750F808008750F0D80037507
:109750000F0BA90F028E308E828F8312975F22E04B
:10976000F8A3E0F922124D117F10024E243400F5C7
:109770000F850E82F58322E028FEA3E039FF8E825A
:109780008F83227916850C82850D83128BCE125F12
:109790009874082274F2124D52EAFEEBFF890D74A0
:1097A00001650D600E7402650D706379011261A28E
:1097B000E9705BEEFAEFFB1298116047750C0080C0
:1097C0000B7C177D00790012674E050C9002E4E0D7
:1097D000F8E50CC3985021E50C75F017A4F8A9F032
:1097E000850A82850B83A3A3E028FAA3E039FB8ACC
:1097F000828B8312828B70C9850A82850B8374FFEA
:10980000F0A3F07C177D03EEFAEFFB125FB0029637
:1098100079125F808A0A8B0BEA450B2274F2124D93
:10982000528A0A8B0BECFEEDFF740E124D4612901D
:1098300011900CF7E0F4603D7A097B00126760EA52
:109840004B60328A828B8374B1F0A3E4129483A3B9
:10985000129481A3E50AF0A3E50B129878EEF0A329
:10986000EF129878A3A3E50CF0A3E50DF0900CF7A8
:10987000E0F912676C029679F08A828B83A3A3A326
:10988000A3A322C082C0839061907404F0A37448A3
:10989000F0A37402F09061807440F09061BC740396
:1098A000F09061877419F0906265741BF090619C70
:1098B000740DF090619A7433F0A37455F09061A028
:1098C000743AF090055BE064017009C2919003C5A1
:1098D000746780059003C57461F0906B8AE493907F
:1098E0006186F0906B8CE493F46027E493540FF856
:1098F000906185E0686012E5C654804449F5C6E58C
:109900009E547F644970F8E8F053C680E59E547F0A
:1099100070FA79051264D8029A98C082C083E5A8CB
:10992000F853A87E906181E4F0A3F0A3F0C2BA538B
:109930009AFEC289759B00C2C275E90075910075D7
:10994000BF0075A91175B905906181F0A374C0F0CD
:10995000A3E4F0D2BA439A0174805842A8029A98BC
:10996000C082C08374F8124CFB9003C3E0F8A3E0FC
:10997000F9E8497003029A8E9003C3E054406023D3
:109980007908851A82851B83AA82AB83126352856C
:109990001A82851B83AA82AB831260349003C3E0D2
:1099A00054BFF0E054806010790C7A7F7B0512631D
:1099B000529003C3E0547FF0E0A2E0503190619AEE
:1099C0007433F0A37455F09061A0743AF090055B85
:1099D000E064017009C2919003C57467800590032B
:1099E000C57461F012603A9003C3E054FEF0E05495
:1099F00002603190619A743FF0A3745AF09061A0B4
:109A0000747FF090055BE064017009D2919003C50A
:109A1000747180059003C5746AF012603A9003C3B4
:109A2000E054FDF0E054046013906B88E49390617F
:109A300086F01260409003C3E054FBF0E0540860ED
:109A400013906B89E493906186F01260409003C399
:109A5000E054F7F0E054106013906B8AE493906147
:109A600086F01260409003C3E054EFF0E0542060B1
:109A70000A1260409003C3E054DFF0A3E054016099
:109A80000D12627A1260469003C4E054FEF074082E
:109A9000124D118003F0A3F0D083D08202449F7452
:109AA000EC124D5274F4124CFB851A82851B83AC68
:109AB00082AD8375838275828F7404124C0E906B15
:109AC0008893F46003029C2C907808E0C3940250C1
:109AD00003029C0C7404124D46AC82AD83758381E5
