:020000040000FA
:100000000201B9020B82FFFFFFFFFFFFFFFFFFFFAF
:10001000FFFFFF020DFAFFFFFFFFFFFFFFFFFFFFE4
:10002000FFFFFFFFFFFFFFFFFFFFFF020DD9FFFFF5
:10003000FFFFFF020DBBFFFFFFFFFF020E60FFFF90
:10004000FFFFFFFFFFFFFFFFFFFFFFFFFFFFFFFFC0
:10005000FFFFFF020BF8FFFFFFFFFFFFFFFFFFFFA8
:10006000FFFFFFFFFFFFFFFFFFFFFF020D95FFFFF9
:10007000FFFFFFFFFFFFFFFFFFFFFFFFFFFFFFFF90
:10008000FFFFFF020A73CF0FE10F0B10D50FFF0028
:1000900000B4000028002800283075A000A000A0AF
:1000A00000A00000080008E001F00010001000109F
:1000B0000010001000100050005000500010001000
:1000C00000D0070000000000000F00010005003014
:1000D0007507001000010081FF0000FF020202D638
:1000E00092010000C99202D892010000951202D03C
:1000F00092010000AE0202D892010000961202CED8
:1001000092010000C402FFFFEF16EF16EF16EF1684
:10011000EF16EF16EF16EF16EF16EF16EF16EF16B7
:10012000EF1605192319FF18FFFF01E803053F101B
:1001300002FEFFFF00E5C754F84401F5C77901222C
:1001400000000080FB120135B900030201A3E4792D
:100150001A7802B800028004F709D8FCE4791C7808
:1001600002B800028004F709D8FCE490028078C04D
:1001700079108002F0A3D8FCD9FA90123FAA82AB82
:100180008390008678B079018015E493A3AC82ADAA
:10019000838A828B83F0A3AA82AB838C828D83D8DF
:1001A000E9D9E775827F75839974031201CB758253
:1001B0004075830174001201CB75D00075813F75C5
:1001C0001880751902759F00020145C09FF59FE4D4
:1001D00073D09F22D083D082C09FE493C0E074018B
:1001E00093C0E0740293F59F22E066701008A3E0CC
:1001F00066700A08A3E066700408A3E06622C3E7FD
:10020000960809E7960809E7960809E79622C3E0E9
:100210009608A3E09608A3E09608A3E09622C008FB
:10022000C3E096F50808A3E096420808A3E09642CA
:100230000808A3E09645087001D3D00822080808F2
:10024000EAC0E0EBC0E086F0E7A4FA180986F0E720
:10025000A42AFA180986F0E7A42AFA180986F0E712
:10026000A42AFA1986F0E7A4FBE5F02AFA19088611
:10027000F0E7A42BFBE5F03AFA190886F0E7A42B87
:10028000FBE5F03AFA18180986F0E7A4C5F02BFB55
:10029000E43AFA1908E7C5F0C6A426F6E5F03BFBF8
:1002A000E43AFA1886F0E7A4F6E5F00826F6E43B0F
:1002B00008F6E43A08F6D0E0FBD0E0FA22E4CFC03A
:1002C000E0E4CEC0E0E4CDC0E0E4CCC0E075F020D6
:1002D000C3E633F608E633F608E633F608E633F607
:1002E000181818EC33FCED33FDEE33FEEF33FFC38B
:1002F000EC9709ED9709EE9709EF97191919400F37
:10030000FFEC97FC09ED97FD09EE97FE191906D54C
:10031000F0BEECF709EDF709EEF709EFF719191937
:10032000D0E0FCD0E0FDD0E0FED0E0FF2260160877
:100330000808C6C313C618C613C618C613C618C6FF
:1003400013C6D5E0EA2270090808082260161818BA
:1003500018C6C333C608C633C608C633C608C63374
:10036000C6D5E0EA22E627F60809E637F60809E6E8
:1003700037F60809E637F622E026F608A3E036F657
:1003800008A3E036F608A3E036F622E026F008A33C
:10039000E036F008A3E036F008A3E036F022C3E62A
:1003A00097F60809E697F60809E697F60809E6972A
:1003B000F622C3E096F008A3E096F008A3E096F0DA
:1003C00008A3E096F022E657F60809E657F6080972
:1003D000E657F60809E657F622E056F608A3E05677
:1003E000F608A3E056F608A3E056F622E056F00819
:1003F000A3E056F008A3E056F008A3E056F022E090
:1004000066F608A3E066F608A3E066F608A3E066D1
:10041000F622E0F608A3E0F608A3E0F608A3E0F66B
:1004200022E6F008A3E6F008A3E6F008A3E6F0222F
:10043000E0FAA3E0FBA3E0FCA3E0FD22EAF0A3EBDB
:10044000F0A3ECF0A3EDF022CAC0E0E6F0A308DAD6
:10045000FAD0E0FA22CAC0E0E0A3C582CCC582C5CA
:1004600083CDC583F0A3C582CCC582C583CDC583AA
:10047000DAE6D0E0CA22C3E498F8E499F91204B7A6
:100480008026C3E49AFAE49BFBE920E7E91204B76B
:10049000E498F8E499F922C3E498F8E499F912048D
:1004A000B7E498F8E499F9C3E49AFAE49BFB22EBE9
:1004B00020E7CFE920E7E0B90010BB0008E88AF0A8
:1004C00084F8AAF022E4FBC8FA22EB70227B10C861
:1004D00033C8C933C9335007C39AC3DBF280069AC5
:1004E00050012ADBEAC833F4C8C933F4C9FA2275CB
:1004F000F008E4C833C8C933C933C99AC99B50044A
:10050000C92AC93BD5F0ECFBC833F4C8E4C9FA22C8
:10051000600D08C6A2E713C618C613C6D5E0F322BD
:10052000600C08C6C313C618C613C6D5E0F4227003
:100530000422600D18C6C333C608C633C6D5E0F41E
:100540001822251810AF08F518400215198008F573
:100550001840021519D2AF22C0D0251810AF08F5E7
:1005600018500205198008F51850020519D2AFD0AD
:10057000D0222518F58210AF08F518400215198011
:1005800008F51840021519D2AF851983222518F5F0
:1005900082E43519F58322E4732518C582C0E0E5AD
:1005A0001934FFC583C0E0E518C3958224F810AF65
:1005B000088583198582188008858319858218D259
:1005C000AFCEF0A3E520F0A37808E608F0A3DEFAAA
:1005D000EFF0A3E58124FAF8E608F0A3E608F0A31B
:1005E000E608F0A30808E608F0A3E608F0A31581E2
:1005F0001581D0E0FED0E0F8158115811581E8C0A5
:10060000E0EEC0E0222518C582C0E0E51934FFC540
:1006100083C0E0E518C3958224F910AF08858319DB
:100620008582188008858319858218D2AFCEF0A301
:10063000E520F0A37808E608F0A3DEFAEFF0A3E5E2
:100640008124FBF8E608F0A3E608F0A30808E60812
:10065000F0A3E608F0A315811581D0E0FED0E0F804
:1006600015811581E8C0E0EEC0E022851983851868
:1006700082E0A3FEE0A3F5207808E0A3F608DFFA05
:10068000E0A3FFE0A3C0E0E0A3C0E0E0A3C0E0E09F
:10069000A3C0E0E0A3C0E010AF08858218858319ED
:1006A0008008858218858319D2AFD083D082020159
:1006B000D1851983851882E0A3FEE0A3F520780890
:1006C000E0A3F608DFFAE0A3FFE0A3C0E0E0A3C0E8
:1006D000E0E0A3C0E0E0A3C0E010AF088582188589
:1006E00083198008858218858319D2AFD083D08280
:1006F00022C0D02518C582C0E0E51934FFC583C0EB
:10070000E0E518C3958224F310AF0885831985822C
:10071000188008858319858218D2AFC8F0A3E9F044
:10072000A3EAF0A3EBF0A37908E709F0A3D8FAEC69
:10073000F0A3EDF0A3EEF0A3EFF0A3D0E0F0A3D090
:10074000E0F0A3D0E0F0A3E520F0A3E5F0F0A322D1
:10075000851983851882E0C0E0A3E0F9A3E0FAA33D
:10076000E0FBA37808E0F608A3DFFAE0FCA3E0FDD5
:10077000A3E0FEA3E0FFA3E0C0E0A3E0C0E0A3E0AD
:10078000F5D0A3E0F520A3E0A3F5F010AF08858332
:10079000198582188008858319858218D2AFD08286
:1007A000D083D0E0F8D0E032740480067402800276
:1007B0007401C0E0F404120572D0E01204482274FF
:1007C00004800474028000CCC0E0EDC0E0E518C3F2
:1007D0009CCCAD1950011D10AF068C188D198006E8
:1007E0008C188D19D2AF120455D0E0FDD0E0FC2258
:1007F000D083D082E9C0E0E493A3C386F0C5F0952E
:10080000F0F908E493A386F0C5F095F0700BE4933B
:10081000A3C3994005E9048002A3E475F002A4256E
:1008200082F582E5F03583F583D0E0F9E493A3C047
:10083000E0E493C0E022D083D082ECC0E0EDC0E0E1
:10084000E493A3FCE493A3FDED4C600D120882EC4D
:1008500024FFFCED34FFFD80EFE493A3FCE493A3BD
:10086000FDED4C600D1208C1EC24FFFCED34FFFDE2
:1008700080EFD0E0FDD0E0FCE493A3C0E0E493C0BF
:10088000E022C0E0C3E49396087401939618400FE9
:10089000E49366700808740193661870007019A3D9
:1008A000A3C3E49396087401939618A3A3400DD0B4
:1008B000E0D0E0D0E0020872A3A3A3A3A3A3D0E0FA
:1008C00022C0E0C0F088F0E49366700808740193D9
:1008D00066187000A8F0A3A3700BD0F0D0E0D0E0B1
:1008E000D0E0020872A3A3D0F0D0E02274F5120683
:1008F00005EAFEEBFFEE2434F8EF3400F9880889AE
:1009000009EE2435120A24F8EE2437120A24F50AD7
:10091000EC850AF0A4FCAAF0850AF0EDA42AFDE813
:100920002CF8E43DF97A257B001204B7EA850882A9
:10093000850983F05407F87401B800028004C333BA
:10094000D8FCC0E0E0131313541FF8EE28F8EF347E
:1009500000F9E8245DF582E93400F583D0E0F8E0A1
:10096000586008850882850983801DEE2436120AA6
:1009700024F5F0EA84A8F0EE28F8EF3400F9E82432
:1009800038F582E93400F583E0F97F040206B1749A
:10099000F5120605EAFEEBFFEE2434120A24C0E04D
:1009A000EE2435F582EF3400F583D0E0F08E828FAF
:1009B00083A3A3A3A3A3E0FAA3E0FB8E828F83A368
:1009C000A3A3A3A3A3A3E0FCA3E0FDECC39AF50AB1
:1009D000ED9BF50BEE2480F508EF3400F509850852
:1009E00082F583E06401702BEE2481F582EF340000
:1009F000F5831207C3120A2D7402120558E9601319
:100A00007CA17D07EEFAEFFB12160B8508828509A3
:100A100083E4F0AC0AAD0BEEFAEFFB1208EC120D1A
:100A20008702098AF582EF3400F583E022C082C094
:100A300083851882851983E0F8A3E0F9C3EA9CEB6B
:100A40009D5012C3EC98ED994019C3EA98EB995068
:100A50001279018010C3EA98EB9940F5C3EC98ED48
:100A60009950EE7900D083D08222FFFF851A8785C6
:100A70001BC622C0E074EF1206F1759B00906182E4
:100A8000E0A2E64003020B34E591A2E64003020B2C
:100A9000347591BF900458E0640570081217E51290
:100AA00017F180031217EB751A0012185DE9900414
:100AB00059F0790012183F12156F7A017B009004EB
:100AC00057E0F9121B45907803E064426003020B83
:100AD0007D9007D6E014F06003020B7DC2AF120ACE
:100AE000E100781DD0E0F618D0E0F6E59F5407F954
:100AF000700590924180039092517808120412E997
:100B0000C4C0E0781CE65508F50808E65509F50963
:100B1000740B7808120520D0E02508F8906270E088
:100B2000A2E740F8E8C333906272F0906270E0D2BE
:100B3000E0F08049E0A2E55024E591A2E5501E7561
:100B400091DF900458E0640D701390047AE004F093
:100B500064287002E4F07A00E0F91218ED906181E7
:100B6000E0A2E35009E5E9A2E3500375E9F7A3E049
:100B7000A2E75009E591A2E7500375917F7F040237
:100B80000750C0E0C0D0C082C083906183E0A2E083
:100B90005009E5BFA2E0500375BFFEE0A2E1500995
:100BA000E5BFA2E1500375BFFDE0A2E25009E5BF39
:100BB000A2E2500375BFFBE0A2E35009E5BFA2E348
:100BC000500375BFF7E0A2E45009E5BFA2E450036B
:100BD00075BFEFE0A2E55009E5BFA2E5500375BF80
:100BE000DFE0A2E65009E5BFA2E6500375BFBFD023
:100BF00083D082D0D0D0E032C0E074F21206F1E5AA
:100C0000A7A2E4500FE5A1A2E4500953A7EF75A1F4
:100C1000EF120C4CE5A7A2E5500CE5A1A2E55006A9
:100C200053A7DF75A1DFE5A7A2E15009E5A1A2E185
:100C3000500375A1FDE5A7A2E2500CE5A1A2E25088
:100C40000653A7FB75A1FB7F0102075074F812063B
:100C500005751A01900458E0640670077A007B005D
:100C60001217CDA2AFE433FED2AF90045EE0640170
:100C700070187A207B00900457E0F9121BC37A2089
:100C80007B00900457E0F9121B4B906182E0D2E6A2
:100C9000F09007D5E0602185C61B801690045DE0CA
:100CA00064017008E5C654F84405F5C653BEFC124D
:100CB0000A6C7401651A60E4EEA2E092AF7F010253
:100CC00006B174F11206058A088B098C0A8D0B7423
:100CD0000F12058D780C120412909271780812038D
:100CE000D9909271780C1203D97808790C1201FE10
:100CF00050157808790C12039E9092A17808120280
:100D00001E401579018013780C790812039E909289
:100D1000A1780C12021E40EB79007F080206B17424
:100D2000ED1206058A088B098C0A8D0B74131205C7
:100D30008D780C12041290927178081203D9909257
:100D400071780C1203D9780C79081201FE401178E1
:100D500008790C12039EAA08AB09AC0AAD0B8022DD
:100D60007510007511007512007513017810790C5B
:100D700012039E78107908120365AA10AB11AC1209
:100D8000AD137F0C0206B1C082C083E9906000F011
:100D9000D083D08222C0E074F21206F1A2AFE43315
:100DA000FED2AFE589A2E15003121D25758900C26C
:100DB000C5EEA2E092AF7F01020750C0E074F212CC
:100DC00006F1A2AFE433FED2AFE58BA2E0500312EE
:100DD0001D25758B00C2E880D8C0E0C0D0E8C0E017
:100DE000E9C0E0E5A8D2AFC2C7A2E7A2E792AFD0C0
:100DF000E0F9D0E0F8D0D0D0E032C0E0C0D0E8C018
:100E0000E0E9C0E0EAC0E0C082C083A2AFE433FA08
:100E1000D2AFE5C1C0E0900EF8E0F8747728F58213
:100E2000740E3400F583D0E0F0900EF7E0F8A3E004
:100E3000687006E595900EFAF0900EF8E004F0C3A5
:100E400094804002E4F0A3E4F0EAA2E092AFD08301
:100E5000D082D0E0FAD0E0F9D0E0F8D0D0D0E032C3
:100E6000C0E0C0D0E8C0E0E9C0E0C008C009C0826E
:100E7000C083A2AFE433F9D2AF900F7BE0F8A3E0D8
:100E8000687008539AFBA374018026C2E9900F7B17
:100E9000E0F50874012508F074FB2508F582740E4E
:100EA0003400F583E0F5C1900F7BE0C394804002ED
:100EB000E4F0E9A2E092AFD083D082D009D00880DC
:100EC000941201D4DC90031201D4F290031201D4E5
:100ED0001F91031201D44F91031201D47091031298
:100EE00001D4A191031201D4F291031201D4099209
:100EF000031201D4D897031201D4EF97031201D43F
:100F00003F98031201D41BE6011201D41AE7011223
:100F100001D444E7011201D48EE7011201D4C6E7DF
:100F2000011201D4C8E7011201D4E9E7011201D48A
:100F3000E2E8011201D424EA011201D4E1EA01122B
:100F400001D4B6EB011201D44DEC011201D450ECE6
:100F5000011201D4E0EC011201D432ED011201D4EE
:100F6000C8ED011201D451EE011201D49AEE011222
:100F700001D49DEE011201D4FBEE011201D495EFD4
:100F8000011201D498EF011201D45FF0011201D4D3
:100F900077F0011201D4A7F0011201D4B4F00112CC
:100FA00001D4B7F0011201D423F1011201D411F2DE
:100FB000011201D4C7F2011201D4378A021201D4FE
:100FC000128B021201D4408B021201D4C08B021288
:100FD00001D4E08B021201D41E8C021201D4718C58
:100FE000021201D4D98C021201D46A8D021201D4EA
:100FF000358E021201D44491021201D4B092021231
:1010000001D4D392021201D407F3021201D498F44E
:10101000021201D4E9F4021201D448F5021201D4FB
:1010200056F5021201D47FF5021201D4D5D3021273
:1010300001D4FDD3021201D42BD4021201D462D404
:10104000021201D4CAD4021201D413D5021201D45F
:101050005ED5021201D49CD5021201D4D9D5021258
:1010600001D407D6021201D4AED6021201D4B8D6EA
:10107000021201D4C5D6021201D4F8D6021201D44C
:10108000BAD7021201D4C6D7021201D4DED7021297
:1010900001D4E8D7021201D466D8021201D42395F4
:1010A000031201D43195031201D44995031201D4DE
:1010B0006195031201D47995031201D4B2AF0112E4
:1010C00001D450B0011201D4C8B0011201D4DDB175
:1010D000011201D417B2011201D4C0B2011201D41D
:1010E00095B3011201D4F9B4011201D450B5011223
:1010F00001D4D7B5011201D4BEB6011201D40BB789
:10110000011201D499B7011201D4BDB7011201D463
:1011100092B9011201D4D3B9011201D4F5B9011267
:1011200001D4BABA011201D480BB011201D4B5BDF9
:10113000011201D436EF021201D44CEF021201D495
:1011400072EF021201D49AF0021201D4A4F002123A
:1011500001D4FDF1021201D4FDF2021201D42D934B
:10116000031201D4D693031201D4AC4A001201D465
:101170002A4B001201D43A4B001201D4154C001234
:1011800001D42C4C001201D4C44C001201D4234DC4
:10119000001201D43C4E001201D44050001201D480
:1011A000F751001201D47352001201D450530012AF
:1011B00001D47E56001201D41C57001201D4795874
:1011C000001201D4EC59001201D4955A001201D436
:1011D000DE5A001201D4155B001201D4BA5B001272
:1011E00001D4385C001201D432F3011201D487F328
:1011F000011201D4AAF3011201D4F5F3011201D4B2
:101200009AF4011201D490F5011201D470F6011282
:1012100001D40EF7011201D4FCF8011201D401F936
:10122000011201D4E2FA011201D436FB011201D4F9
:1012300098FB011201D4C0FB011201D464FC01121D
:1012400001D426FD011201D457FD011201D45AFD2B
:10125000011201D4A2FD011201D4E4FD011201D456
:101260004BFE011201D4A682031201D4B9820312EB
:1012700001D4C282031201D4DB82031201D426837B
:10128000031201D40184031201D49084031201D407
:10129000DB84031201D43E87031201D48587031235
:1012A00001D4CA87031201D46B88031201D4BF880A
:1012B000031201D4E688031201D4E0C8021201D45B
:1012C000EAC8021201D486C9021201D451CA02121C
:1012D00001D470CA021201D496CA021201D4D5CA2E
:1012E000021201D40DCB021201D436CB021201D46A
:1012F00070CB021201D485CB021201D452CC02125F
:1013000001D475CC021201D497CC021201D4ACCC1A
:10131000021201D436CD021201D470CD021201D4D2
:10132000E4CD021201D42DCE021201D457CE021206
:1013300001D47CCE021201D44AEB021201D414EC87
:10134000021201D4F7EC021201D46DED021201D4A5
:10135000AFED021201D4DCEE021201D4C4BD0112C1
:1013600001D4EDBD011201D406BE011201D44BBF60
:10137000011201D429C0011201D448C0011201D4C4
:10138000D5C0011201D418C1011201D450C20112FA
:1013900001D4BCC2011201D4B2C4011201D440C7AD
:1013A000011201D4D3C7011201D4A7C8011201D47C
:1013B0004AC9011201D45DCA011201D4F3CA011253
:1013C00001D42092031201D48992031201D4DD9238
:1013D000031201D40C93031201D4CDE2021201D402
:1013E0003AE3021201D485E3021201D47AE4021234
:1013F00001D476E5021201D460E6021201D43FB5B1
:10140000021201D486B5021201D45FB6021201D4D1
:101410005AB7021201D439B8021201D4A5B8021287
:1014200001D4C1B9021201D428BA021201D42BBAD4
:10143000021201D456BA021201D4C7BA021201D460
:101440006ABB021201D47FBB021201D4C7BB0212D5
:1014500001D4E0BB021201D4E3BB021201D4E5F9CE
:10146000021201D421FA021201D45FFA021201D44D
:1014700029FB021201D49CFB021201D4D7FB0212F9
:1014800001D415FC021201D445FC021201D46CFCFB
:10149000021201D4D7FC021201D4A036001201D4EA
:1014A0006238001201D4FA39001201D4A13A0012B4
:1014B00001D4E83A001201D42C3B001201D43E3B87
:1014C000001201D47E3B001201D4AD3B001201D4C6
:1014D000F83B001201D4383C001201D4663C0012E3
:1014E00001D4B73C001201D4443D001201D48D3E1A
:1014F000001201D4813F001201D43641001201D400
:10150000D945001201D42246001201D469460012C6
:1015100001D47F48001201D40080031201D47280EC
:10152000031201D4C880031201D40C81031201D428
:101530002C81031201D47981031201D4C1810312D9
:1015400001D41482031201D46582031201D4A81EAF
:10155000001201D4F11E001201D41E1F001201D48A
:10156000511F001201D4611F001201D46D1F00121F
:1015700001D47E1F001201D45320001201D4B120E7
:10158000001201D4E620001201D48222001201D4FC
:10159000D422001201D42223001201D47E2300128F
:1015A00001D47A24001201D40026001201D4D726D7
:1015B000001201D4E726001201D40327001201D43F
:1015C0000627001201D4C027001201D48928001276
:1015D00001D42F29001201D48E29001201D4162A19
:1015E000001201D47B2A001201D40A2B001201D46C
:1015F000D32B001201D4702C001201D4F72C00124E
:1016000001D44E2D001201D4AF2D001201D4E92DCA
:10161000001201D4972E001201D48F30001201D491
:10162000DF30001201D42231001201D497310012B0
:1016300001D42332001201D46E32001201D493324D
:10164000001201D4E432001201D40633001201D496
:101650004B33001201D4BA33001201D4FC33001210
:1016600001D4FC34001201D48435001201D4553663
:10167000001201D46E36001201D40B94021201D470
:101680005E94021201D46A94021201D43F950212B0
:1016900001D46695021201D4A195021201D40D96CF
:1016A000021201D44196021201D47A96021201D498
:1016B0009296021201D4EB96021201D40497021200
:1016C00001D44D97021201D46097021201D47A9787
:1016D000021201D49097021201D4AC98021201D4E4
:1016E000BD99021201D40A9B021201D4EF9B02128F
:1016F00001D4FC7F001201D4F8DD021201D46AE1AA
:10170000021201D482E2021201D4F9D8011201D4EA
:10171000ECDE011201D4F2DE011201D472E10112F9
:1017200001D4F7D8021201D4A2D9021201D452DA9C
:10173000021201D477DA021201D46EDC021201D453
:10174000C1DD021201D4EC5C001201D4205D001254
:1017500001D47465001201D4C066001201D4DD67A3
:10176000001201D46769001201D4496A001201D441
:10177000836A001201D4A66A001201D4E86A00123A
:1017800001D4326B001201D43C6B001201D4E86B1F
:10179000001201D4BC6C001201D4106D001201D4EF
:1017A000726D001201D4C56D001201D4F46D0012E7
:1017B00001D4336E001201D497F6021201D40DF752
:1017C000021201D423F7021201D460F7021201D4ED
:1017D00098F7021201D415F8021201D450F802123F
:1017E00001D4CBF8021201D407F9021201D410F986
:1017F000021201D41CF9021201D436F9021201D4EA
:101800005BF9021201D471F9021201D4B5F9021286
:1018100001D407BC021201D41ABC021201D434BC98
:10182000021201D45DBC021201D4A0BC021201D488
:10183000DFBC021201D41DBD021201D482BD02120E
:1018400001D497BD021201D4AEBD021201D4BCBDB9
:10185000021201D4CBBD021201D4E0BD021201D4A8
:10186000F5BD021201D400BE021201D40CBE021258
:1018700001D419BE021201D42CBE021201D437BE0B
:10188000021201D45CBE021201D405BF021201D4BF
:101890001ABF021201D42FBF021201D449BF021293
:1018A00001D464BF021201D481BF021201D48CBFE3
:1018B000021201D448C0021201D434C1021201D470
:1018C00059C1021201D463C1021201D477C10212BC
:1018D00001D496C1021201D4F7C1021201D4FDC194
:1018E000021201D403C2021201D409C2021201D4AD
:1018F00015C2021201D448C2021201D400800212A1
:1019000001D42C80021201D41081021201D4AA83C6
:10191000021201D4C084021201D4DD85021201D466
:101920008086021201D42687021201D46FCB0112E5
:1019300001D4F1CB011201D49ACC011201D4E2CD31
:10194000011201D4F0CF011201D4D6D0011201D47A
:101950000BD1011201D42DD1011201D4D6D1011223
:1019600001D4A6D3011201D4CFD3011201D447D49C
:10197000011201D479D4011201D486D4011201D408
:10198000D1D4011201D4F5D4011201D446D70112E9
:1019900001D450D8011201D4ACD8011201D4E39281
:1019A000011201D4F493011201D4D894011201D48C
:1019B000E294011201D40495011201D41095011290
:1019C00001D4B496011201D4E196011201D4F79723
:1019D000011201D44C98011201D49B99011201D437
:1019E000709A011201D4CC9A011201D4379B0112D2
:1019F00001D46C9B011201D4AF9B011201D4799EDA
:101A0000011201D4919E011201D4229F011201D42E
:101A1000309F011201D47D9F011201D48B9F0112CE
:101A200001D4F79F011201D472A0011201D4C9A000
:101A3000011201D40B89031201D43089031201D49D
:101A4000A689031201D450AE021201D459AE02127B
:101A500001D462AE021201D43AAF021201D4EBB04B
:101A6000021201D41BB1021201D446B1021201D4F8
:101A700076B1021201D4A1B1021201D4D5B1021281
:101A800001D401B2021201D444B2021201D46FB2E5
:101A9000021201D4B6B2021201D40BB3021201D465
:101AA0004DB3021201D4A7B3021201D4D2B3021271
:101AB00001D421B4021201D451B4021201D47CB475
:101AC000021201D49FB4021201D45B97031201D415
:101AD0008797031201D4B497031201D4BE9703125F
:101AE00001D4CE97031201D4AC9D021201D4B69D4D
:101AF000021201D4F49D021201D43D9E021201D4BF
:101B0000779E021201D4D19E021201D4F29E0212DB
:101B100001D4CAA1021201D4D3A1021201D420A27D
:101B2000021201D449A2021201D453A2021201D41A
:101B3000BFA2021201D451A3021201D49BA302122C
:101B400001D4D1A3021201D45DA4021201D49EA437
:101B5000021201D4D5A4021201D4E7A4021201D4C6
:101B600006A5021201D40FA5021201D4D7A50212B4
:101B700001D42C94031201D40585031201D43A85B3
:101B8000031201D48585031201D4D086031201D437
:101B9000C098031201D4D698031201D4E09803121E
:101BA00001D422E7021201D437E7021201D4EAE796
:101BB000021201D42AE8021201D443E8021201D42D
:101BC0007EE8021201D4CBE8021201D4FDE8021231
:101BD00001D43FE9021201D4588C031201D4818C44
:101BE000031201D4B08C031201D4488D031201D426
:101BF000608D031201D4A28D031201D4A4CE02126F
:101C000001D4E6CE021201D468CF021201D47BCFF8
:101C1000021201D4CCCF021201D420D0021201D47E
:101C200065D0021201D474D0021201D4CFD00212B6
:101C300001D41ED1021201D474D1021201D469D28E
:101C4000021201D460D3021201D49DD3021201D436
:101C50005198031201D40B6F001201D405710012C8
:101C600001D49F72001201D45C73001201D48177F9
:101C7000001201D4C277001201D40A79001201D4F3
:101C80003E79001201D49B79001201D4E47900124C
:101C900001D44B7A001201D4C47A001201D4F37A31
:101CA000001201D40B7B001201D44B7C001201D432
:101CB0007D7C001201D42C7E001201D4B97E00126A
:101CC00001D41296031201D42396031201D4FCFF0F
:101CD000021201D4618F031201D46F8F031201D459
:101CE000EBFF021201D4C396031201D4D396031260
:101CF00001D4EB96031201D45197031201D4F87E5C
:101D0000001201D47D7F001201D4E37F001201D4C0
:101D1000E78D031201D4108E031201D47B8E0312BF
:101D200001D4CC8E031201D4278F031201D4C5C273
:101D3000021201D4FEC2021201D470C3021201D4F5
:101D400085C3021201D4B0C4021201D42CC5021200
:101D500001D438C6021201D4F9C6021201D4BFC799
:101D6000021201D4DEC7021201D405C8021201D446
:101D700042C8021201D45AC8021201D4ABC80212DE
:101D800001D44E9A031201D415FF011201D4ADFF04
:101D9000011201D4C5FF011201D461A1011201D4C5
:101DA00098A1011201D494A2011201D49BA30112A3
:101DB00001D4FEA3011201D4AFA5011201D453A78F
:101DC000011201D4CAA8011201D41BAA011201D424
:101DD000B8AA011201D4EFAA011201D4D9AB0112A1
:101DE00001D42BAC011201D44CAE011201D430AF9E
:101DF000011201D4C48A031201D4168B031201D438
:101E0000898B031201D4F28B031201D41FFD02123D
:101E100001D449FD021201D417FE021201D4F2FED0
:101E2000021201D479FF021201D42A99031201D4BB
:101E300005A6021201D4CCA6021201D403A70212F5
:101E400001D42DA7021201D48DA7021201D4E3A759
:101E5000021201D448A8021201D4E3A8021201D44C
:101E6000F2A9021201D48CAB021201D419AC0212F5
:101E700001D480AC021201D49AAC021201D4B4ADE8
:101E8000021201D4F2AD021201D4D3FF011201D427
:101E9000D299031201D4089A031201D4309A03FF95
:101EA000FFFFFFFFFFFFFFFFC082C08390619074C0
:101EB00004F0A37448F0A3E4F09061807440F090C3
:101EC00061BC7407F09061877469F09061B6741614
:101ED000F07900121575790212157B901EA4E49317
:101EE000F46006E493F912155179051218CF022314
:101EF0000EC082C083E9540FF9906185E0696012D9
:101F0000E5C654804449F5C6E59E547F644970F89F
:101F1000E9F053C680E59E547F70FA02230E74F7F1
:101F2000120599E5A8FE53A87E12155DC2BA539A10
:101F3000FEC289759B00C2C212156375A91175B9DD
:101F400005121569D2BA439A0174805E42A8023222
:101F500011C082C083906181E4F0A3F0A3F002235A
:101F60000E75E90075910075BF000201D1C082C0F5
:101F700083906181E4F0A374C0F0A3E480DFC082A9
:101F8000C08374F812054290045A122984E84970FB
:101F90000302203590045AE05440602379088518E4
:101FA00082851983AA82AB831216838518828519CC
:101FB00083AA82AB8312131D90045AE054BFF0E051
:101FC00054806010790C7AF77B0712168390045ABC
:101FD000E0547FF0E0A2E05008790012203D54FE6A
:101FE000F0E054026008790112203D54FDF0E05405
:101FF000046008790012204854FBF0E0540860089F
:10200000790112204854F7F0E05410600879021268
:10201000204854EFF0E0542060087903122048541F
:10202000DFF0A3E05401600D12158712132F900406
:102030005BE054FEF0740812055802230E12157569
:1020400012132390045AE02212157B1213299004D4
:102050005AE022C082C083E9600514602A804F9054
:10206000619A7433F0A37455F09061A0743AF090C3
:1020700007D3E064017009C29190045C7467802DFD
:1020800090045C7461802690619A743FF0A3745A46
:10209000F09061A0747FF09007D3E064017009D2E2
:1020A0009190045C7471800590045C746AF0022362
:1020B0000EC082C083E9600B14600D14600F1460C1
:1020C000118020901EA08015901EA18010901EA24D
:1020D000800B9007D3E0640160F3901EA3E493901B
:1020E0006186F002230E74EE12059974F412054213
:1020F000851882851983AC82AD837583927582556C
:102100007404120455901EA093F460030222789088
:102110007808E0C394025003022258740412058D1B
:10212000AC82AD837583927582047408120455F9EC
:102130007AFF7BFF7FFF7E00898285821080187482
:10214000086E700302220D74096E700302220D7472
:102150000A6E700302220DE510C333FCE433FD74F4
:102160000412058DE5822CF582E5833DF583E0F5CB
:102170000EA3E0F50F8E08750900740278081205A9
:102180002F74482508FC74783509FD8C828D83787E
:10219000081204127408780812032D85080C8509AA
:1021A0000D8C828D8378081204127418780812033B
:1021B0002DE50C4508F508E50DF509C3E50E950874
:1021C000E50F95098C828D8378081204128C828D1C
:1021D00083780812041274187808401412032DE54D
:1021E0000C4508FCAD0DE50EC39CFCE50F9D800F72
:1021F00012032DE50C4508C3950EFCE50D950FFD6A
:10220000C3EC9AED9B5006ECFAEDFBEEFF0EEEC32D
:102210009413500302213F74FF6A700374FF6B60D4
:102220002D8F087402780812052F7448122E9274AC
:10223000783509F583780812041285188285198388
:10224000E5822510F582E583122DD0E508F009E935
:10225000C394045003022130750801750900780801
:102260001207AC740212058DAC82AD837AA87B078D
:10227000121D017402120558740C1205587F0A02CF
:10228000066BC082C083906186E0F8901EA3E49341
:10229000687009901EA2E493906186F09061AE741C
:1022A00068F0A3746AF090624574FBF0A304F053E5
:1022B000F4FD43FE029007D37401F09061A0E06446
:1022C0003A700479008002790112157502230E7F9D
:1022D0000402066BC082C0839007B1E064017017EE
:1022E0009007B7E0F87401686009E8700AA3E06439
:1022F000017004790C80129007C8E06401700890A6
:1023000007CEE0640160EC7900800312246BD08377
:10231000D0820201D11229DC940622E0C433335466
:10232000C022C082C0839007BB7425F09007B974A7
:1023300001F0A3E4F07A01FB12184B9007A7E02408
:102340001612236F74ABF0A37415F09007B8E06415
:102350000170169007B7E0701079011218AB1218CF
:102360007B1218A579001218B702230EE02414F886
:10237000A3E0122376223400F9888289832274F63E
:1023800012059974FA1205429007B0E064017008D2
:102390001215939007B0E4F075E1F19007A7E024DF
:1023A0001512236F7401F09007B2E064017053902E
:1023B0009237C082851882851983AC82AD8375837C
:1023C00092D082740612045575D90D9007A9122374
:1023D0001B4403F5D97800880874AA122E9274075A
:1023E00012231540F278008808851882851983E544
:1023F00082122E92E58312231540EC75E195790146
:10240000800279001218519012C11224717425F0C3
:10241000A37417F0A31224711224711225D0742B07
:10242000F0A374171225E59007A9E0F97AAA7B07B3
:1024300012182D9007BB12246B7901121857909235
:102440006912043012186F90927D120430121839FC
:1024500079001218C39007A712236C7416F0900429
:10246000587405F004120558022A6DE0F9120D8720
:1024700022741FF0A37417F0A32274F41205998933
:1024800008A8081225B49007C0E0F97AC17B0712AA
:10249000182D9007CEE0701A790012188D90079AC7
:1024A000E0700B79007A9B7B071218338009790161
:1024B00080F3790112188D75E1F175D9239007C069
:1024C00012231B4405F5D97800880A74C1250AF542
:1024D00082740712231540F175D90075D90075D99A
:1024E0000075D90075D90075D9007A0012364024DC
:1024F000221228FF40F67A001236402426F582E99F
:10250000122A750AEAC3940340EEEE242B122A72B3
:102510007A00123640242C12290540F67A00123631
:1025200040242E12290540F67A001236402430123B
:10253000290540F67A00123640243212290540F669
:102540007A008A0AEE250AF8EF122E8012291294D8
:102550000540EFEE24371230D2541FF8EE242A1231
:1025600030D2C43354E048F5D975E1959012C17466
:10257000F5F0A37416F0A374FBF0A374161225C72C
:102580007401F0A374171225E59007CD12246B9007
:10259000926912043012186F90927D120430121852
:1025A0003990600DE4F079011218C3900458740654
:1025B000F00222CFE875F006A4C8AAF02AF97488C0
:1025C00028FE740439FF22F0A31225D01225D02250
:1025D0001225D42274EFF0A37416F0A374EFF0A3C5
:1025E0007416F0A3221225E922F09012CF1225F5DD
:1025F000A31225F5221225D474EFF0A37416F0224D
:1026000074EC1205999007BE1231887810120412EA
:102610009007CFE0FAF875F006A4C8ACF02CF97476
:10262000B628F582740439F583E0FEA3E0FFEEC31B
:1026300033FEEF33FF8E0CF50D750E00750F008520
:10264000100885110985120A85130B9092457808A8
:1026500012037878081207A88510088511098512D9
:102660000A85130B7808790C1203657810790C121F
:1026700002BDE4F50EF50F7808790C12039E8A0C62
:10268000750D007403780C12052F7808790C12036D
:102690006590927178081203D9AA08AB09AC0AAD0B
:1026A0000B120D1F74041205588A088B09A808A97B
:1026B00009C3EE98EF995006E82EF8E93FF9E89043
:1026C000600EF0E9A3F0EEA3F0EFA3F090600D74BC
:1026D000C1F07F0C02066BC082C0839007A7122650
:1026E000F79007BB02230BC082C0839007BE12265F
:1026F000F79007CD02230B12318CA3A3A3A3E4F020
:10270000A3F0220201D174F2120599122851F50AA0
:10271000EF122BC86004780480027800E8240EF8D9
:10272000EAC39850030227AF75080C9007D7E4F06E
:10273000EE24771230D29007D8F07902EE2478FC9C
:10274000EF3400FD7AD97B071216717902EE247AF4
:102750001227B4247C1227B4247EFCEF3400FD122F
:102760001671EE2475122867850A82850B83E06056
:10277000167508D775090778081207AC7C0C122C5F
:10278000DC12055875081074012508F5D975D903B0
:1027900078008009880A74D7250A122846E8C3956C
:1027A0000840F175E1957904121875790180027974
:1027B00000022E7BFCEF3400FD1216717902EE222E
:1027C00074F2120599122851F508EF3400F50985C5
:1027D0000882F583E06004780480027800E8240A27
:1027E000F8EAC3984055750A089007D77401F07944
:1027F000057CA17D077AD87B07121671EE24811221
:102800002867850882850983E060167508D77509F1
:102810000778081207AC7C08122CDC120558750AE0
:102820000C122ACF8003122840E8C3950A40F7759E
:10283000E1957904121875790180027900022E7BE6
:10284000880874D72508F58274071230D9F5D9089D
:102850002212285522EAFEEBFF9061D0E0F8748046
:10286000C398FAEE248322FCEF3400FD8E828F831E
:10287000A3A3A3A3A31229888C828D83E028F0A3AD
:10288000E039F079021216712274F6120599EAFE07
:10289000EBFF9061D0E0706275D91875D90375D9D6
:1028A000037A008A08EE2508123645249C1229294D
:1028B00040F17A008A08EE250812364524A4122930
:1028C0000540F17A008A08EE250812364524941254
:1028D000292940F17A008A08EE2508123645248815
:1028E0001228FF40F175E1957908EE24941229220F
:1028F00024881229191229F480027900022A6D1203
:10290000290B94042212290B940222F582E9340047
:10291000F583E0F5D90AEAC322FAEF3400FB121678
:1029200077221229197904EE2212290B94082274B5
:10293000F6120599EAFEEBFF9007D774061229E715
:102940001207AC7C017903122CE212055875D906E6
:1029500075D90378001229CC40FB75E19590045895
:10296000E064087017EE2470F582EF122981EE24DE
:1029700072F582EF122DD0E8F0A3E9F07901022A76
:102980006D122E8D12298822E0F8A3E0F92274F648
:10299000120599EAFEEBFF9061D0E0702A9007D70C
:1029A000740A1229E71207AC7C017903122CE21297
:1029B000055875D90675D90378001229CC40FB75E6
:1029C000E1951229F980027900022A6D880874D7EE
:1029D0002508F58274071229DC9405223400F5835A
:1029E000E0F5D908E8C322F07508D775090778081B
:1029F0002275E1957904121875EE2470F582EF12B4
:102A00002E8D122988EE2472F582EF122E8DE8F0B9
:102A1000A3E9F079012274F6120599EAFEEBFF9022
:102A200061D0E0704379019007D7740BF09004589F
:102A3000E0640770177508D775090778081207ACA6
:102A40007C010909122CE21205587905740129F557
:102A5000D975D90378008003122840E8C39940F85B
:102A600075E1951229F9800279008001F07F020258
:102A7000066BF582EF1230D9F5D92274F51205995B
:102A8000122AFE6004780480027800E8240BF8EA39
:102A9000C3984036750A099007D77408F0F9122ACE
:102AA000E760147508D775090778081207AC122C6F
:102AB000DA120558750A0D122ACF8003122840E851
:102AC000C3950A40F71229F180027900022D49745A
:102AD00001250AF5D975D903780022EE241DF58267
:102AE000EF122DE2A3F022EE24E5FCEF3400FD7A94
:102AF000D87B07121671850882850983E022122887
:102B000055F8EF12325CF583E02274F31205998ACE
:102B1000088B09122CEDFAE5082483F50AEB122B39
:102B2000C86004780480027800E82408F8EAC398B2
:102B30005003022BC1750C069007D7740CF090045B
:102B400075E09007D8F07402C0E0F97C767D047AD5
:102B5000D97B07121671D0E0F97C787D04121671CA
:102B6000850A82850B83E0601C750AD7750B077890
:102B70000A1207AC7C067903AA08AB09122CE212F0
:102B80000558750C0A7401250CF5D975D903780020
:102B90008009880A74D7250A122846E8C3950C4094
:102BA000F175E1957904121875E5082470F582E550
:102BB00009122981E5082472F582E509122A0B80A1
:102BC0000279007F0502066B3400F50B850A82F559
:102BD00083E02274F6120599EAFEEBFF122CEDFC5D
:102BE000EE2483F8EF122CE860047A0480027A0065
:102BF000EA2404FAECC39A405E7A029007D7EAF01E
:102C0000EE24F7F582EF122C6360197508D7750969
:102C10000778081207AC7C027903EEFA122CE21254
:102C200005587A0674012AF5D975D903780080030E
:102C3000122840E8C39A40F875E195EE2474122CEE
:102C40005CEE2480122C5C122ADB7904121875EEDB
:102C5000240D1229FC80027900022A6DF582EF1200
:102C60002DE2221230D99007D8F088828983E022A1
:102C700074F6120599122CEDFEEA2483F8EB122C5F
:102C8000E860047C0480027C00EC2404FCEEC39C1D
:102C900040437C029007D77407F0EA24F8F582EBF2
:102CA000122C6360157508D775090778081207ACF0
:102CB0007903122CE21205587C0674012CF5D975A3
:102CC000D90378008003122840E8C39C40F875E1DE
:102CD00095790180027900022A6D7C097903EEFA68
:102CE000EFFB1216E3740222122376E0229061D0E9
:102CF000E0F87480C3982274F5120599E9FEA2AF3A
:102D0000E433F50AC2AF7F00EA246FF8EB3400F930
:102D100080010F88828983E0FCEFC39C50188F08E4
:102D2000EA2508FCEB3400FDEC246BF582ED123053
:102D3000D56E70DE800DEA2CFAEB123065EE122CA7
:102D40006904F0E50AA2E092AF7F0302066B74F615
:102D5000120599A2AFE433FFC2AFEA246FF8EB1279
:102D60003647FCE9FD8C828D83E014F07E00801EE6
:102D70008E08EA2508F8EB123647246CF582E91232
:102D800030D5C0E0E8246B122DCDD0E0F00E8C825F
:102D90008D83E0F8EEC39840D7EA246EF582EB12FB
:102DA0002DD074FF122DD4EFA2E092AF022A6DC095
:102DB00082C083E5A8F8C2AFEA246BF582EB122D3E
:102DC000D0E9122DD4E8A2E792AF02230EF582E9F2
:102DD000122E8D22F0EA246AF582EB122DE222F502
:102DE00082E93400F583E4F02274F21205998C82B2
:102DF0008D83A3A3A3A3E0541FF0EA243612338FDC
:102E00008E828F83E4F0F50C850C8285820AEC2596
:102E10000AF8ED123258F583E0C0E0EA250AF8EB33
:102E2000122E80D0E0F0750D00850882850983E0C0
:102E3000F50A750B00E50D780A120510E50AA2E007
:102E40005027E50C33333354F8250DC0E08E828FC4
:102E500083E0F8EA28F8EB1236472438122DCDD05B
:102E6000E0F08E828F83E004F0050DE50DC3940839
:102E700040B7050CE50CC39405408D7F0602066B38
:102E80003400F9E8245D122E8A22F582E93400F537
:102E900083222508F5822274F6120599900484E0B5
:102EA000640370077A007B00022A6D7C00ECF875E1
:102EB000F006A4C8AAF02AF9748A28F582740439A5
:102EC000F583E060030230491232D1123077E4F02A
:102ED000E82404FAE93400FBEAFEEBFFEC8E828F73
:102EE00083F0E8246212305624651230862468127A
:102EF0002DCD123077A3A3E4F0A312311BA312301F
:102F00008A240F123056243512305E120430E82421
:102F100018122DCD12043CE8241C123072241D120C
:102F20003086248012307224741230722469122D7B
:102F3000CD7480F0E8246A123072246F123072244B
:102F40006712307224ED12307224EE12307224EFC8
:102F500012307224F012307224F112308624F312EF
:102F6000308624F6123072248312307224D3123049
:102F70007224D412305E120430E824D5122DCD1202
:102F8000043C9092BD120430E824D9122DCD1204D5
:102F90003CE824DF12307224E112307224DD12305A
:102FA0007224E212307224E312307224F912308655
:102FB00024FB12308624FD12308624FFF582E912AC
:102FC0002AE1FC8C08E82508FAE912306574FFF064
:102FD0000CECC3940440EC7C008C82AA8274A12A7D
:102FE000F58274071230D5C0E0E82AFAE93400FB14
:102FF000EA245DF582EB122DD0D0E0F00CECC39406
:103000000540D67C008C82AA82746C2AF5827404F6
:103010001230D5C0E0E82AFAE93400FBEA24E5F5ED
:1030200082EB122DD0D0E0F00CECC3940840D69087
:103030000484E004F0640170098E828F83E09004C0
:1030400086F0E8FAE9FB022EA80CECC394034003D7
:10305000022EA4022EAD122E8A7401F0E822122D47
:10306000DF9092BD223400FBEA246BF582EB122E36
:103070008D22122DDFE822740112307D22F0888229
:103080008983A3A3A322122E8AE4F0A3F0E822C02E
:1030900082C083EA2403F582EB1230D56008E4F0A5
:1030A000900485E014F0900484E014F0700690041D
:1030B0008674FFF08A828B83A3A3E4F09007A6E0D6
:1030C000700D900485E064017005790012183F02CC
:1030D000230EF582EF1230D9223400F583E022C0AE
:1030E00082C0837B00EBF875F006A4C8AAF02AF929
:1030F000748428F874041232DBA3A3A3A3A3E412FC
:10310000311BF00BEBC3940340DB900484E4F0A389
:10311000F0A374FFF075E1F102230E12307DA3A33A
:10312000A32274F5120599750800750900750A0047
:10313000A80A1225B48E828F83A3A3A3E0602DE595
:10314000084509700AEEF8EFF988088909801D859D
:1031500008828509831231881207BF123184120454
:1031600030120CC27404120558E960D9050AE50A48
:10317000C3940340BB850882850983A3A3A3A3E06E
:10318000F9022D498E828F8312318C22E0F8A3E060
:10319000F5838882A3A32274F712059978FF79FF3B
:1031A0007F00EFFC75F006A4CCAEF02EFD74882CE9
:1031B000FC74043DFD8C828D83A3A3A3E06040ECEE
:1031C0002474F582ED1230D5FE74FF68700374FF2D
:1031D00069701574016E700BEC247AF582ED12297A
:1031E00081801CEC242E80F374016E700AEC247A2A
:1031F000123216500A80E1EC242E12321640E40FEF
:10320000EFC39403409CC3EA98EB994004E8FAE9C1
:10321000FB7F0102066BF582ED122E8DC3E098A3B1
:10322000E0992274F6120599EAFEEBFF121617EEEA
:103230002465F8EF123258123266EC4D601090049B
:103240008612357C850882850983E4F0A3F0EEFAC6
:10325000EFFB121767022A6D12325C223400F988E4
:10326000088909888222F583E0FCA3E0FD2274F737
:10327000120599EAFEEBFF8E828F83A3A3A3A3E03E
:10328000FA7B0012139BEEFAEFFB12162F1217496E
:10329000023211C082C0837B00EBF875F006A4C82F
:1032A000AAF02AF91232D1A3E0601AE8246FF5825D
:1032B000E91230D5600FE8246BF582E91230D57041
:1032C00004790180090BEBC3940340CD79000223FC
:1032D0000E748828F874041232DB2239F988828946
:1032E00083A3A32274F612059978008808746C12DF
:1032F0002E927404122C5F08E8C3940840ED9004E9
:103300006C7401022A6CC082C08374FC1205429066
:1033100092BD12043085188285198312043C12165E
:103320007DE9851882851983F012167D74011205D6
:103330008DE9F012167D740212058DE9F085188270
:10334000851983120430740402203774F61205992B
:10335000EA240D12338FEC2403F8ED3400F98808C9
:103360008909EC2407F8ED123647FCE9FD12339980
:103370001204B78E828F83E8F0A3E9F0123399121A
:1033800004B78B09EA450960031233AC022A6DF8D1
:10339000EB3400F9E8FEE9FF228C828D8312298844
:1033A000850882850983E0FAA3E0FB228E828F8361
:1033B000E02401F0A3E03400F02274F6120599EA4B
:1033C000242EF582EB3400123266EA247012338F19
:1033D000780079FAECFAEDFB1204B78E828F83E85D
:1033E000F0A3E9F0780079FAECFAEDFB1204B78B60
:1033F00009EA450960031233AC022A6D74F0120524
:1034000099EAFEEBFF741012058D7808120412126F
:1034100017FD8A0C8B0D8C0E8D0F9092B1780C12CB
:103420000378909271780C1203D9780C1207A812C5
:103430003184120430120CC27404120558E960037E
:103440000234E08E828F83E02402F8A3E012364734
:10345000FAE9FB8A828B83780812038B9092717849
:10346000081204128A828B8378081203ECEE240B74
:10347000F582EF122DD0C082C0838E828F83A3A3EA
:10348000A3A3A3E02401F8A3E03400F9D083D08201
:10349000E0687003A3E069700479018045EE2407B9
:1034A000F8EF1223761233B0EE247412364C7014F7
:1034B000EE24751234E77003A3E06D70078A828BE7
:1034C000831233B0EE248012364C7014EE24811235
:1034D00034E77003A3E06D70078A828B831233B0E8
:1034E00079007F0802066BFAEF3400FB8A828B8337
:1034F000E0FCA3E0FD88828983E06C2274F312056E
:1035000099900486E0F81225B5EE2404F50AEF340C
:1035100000F50BEE2465F508EF3400F50980101274
:103520003268850882850983E4F0A3F01235768538
:103530000882850983123268EC4D6030EE246412F3
:1035400030D2F50C780C1207B0EE24631230D2F9A9
:10355000EEFAEFFB1216657401120558E985088230
:1035600085098360BA122984E84970077C007D00D0
:10357000123576022BC3850A82850B83E0FA7B0025
:103580001213532274F2120599EAFEEBFF890A74B2
:103590000E12058DE0FAEE246212364C60030236FC
:1035A0003B122CEDF50CEE24831230D2FB60047834
:1035B00004800278008908E928F8E41236472402DA
:1035C0000808E93400F9E50C98E499A2D265D033F3
:1035D0004065EA7005750B028003750B01EB6033E3
:1035E00075090078081207AC7AD77B071216AD74FC
:1035F000021205587508D775090778081207ACAC90
:103600000AA90B122CDE1205587404250AF50A7C4F
:10361000D77D077401250AF5D9850BD97800800A72
:103620008808EC122E92ED12284AE8C3950A40F061
:1036300075E195790080067907800279FF022E7B7B
:103640008A0AEE250AF8EF3400F9E822F582EF1233
:1036500030D9640122C082C0838003123683E9F826
:1036600074FF28190470F4ECFAEDFB02230EC082FB
:10367000C0838003123683E9F874FF28190470F4BC
:1036800002230E8C828D83E08A828B83F08C828D64
:1036900083A3AC82AD838A828B83A3AA82AB83226D
:1036A00074F4120599E9900457F012180F907800FD
:1036B000E0C4540F540764037004793F8002797F9B
:1036C00075080675090078081207AC7C457D047AF8
:1036D000EA7B07121CFB7402120558900445E0F4C3
:1036E0007049A3E0F47044A3E0F4703FA3E0F470E9
:1036F0003AA3E0F47035A3E0F4703090780EE090D7
:103700000445F090780FE0900446F0907810E09037
:103710000447F0907811E0900448F0907812E0901F
:103720000449F0907813E090044AF090044B12386A
:1037300059124A409004757406F0A3740D123E7835
:103740007432F0A37401F09007AA1238599007A9B7
:10375000E4F09007B004123E78123847E4F0A30476
:10376000F0A3123E78123E76F09007C112385990BD
:1037700007C0E4F09007C704F0A3E4123847123EF4
:1037800076F0A37405F09007D174FFF0A3E4F090F5
:1037900007D3F09007D504F01215811214A3121765
:1037A000B579017AD67B071216839007D6E075F0BB
:1037B0001484E5F004F0790C7AF77B071216831273
:1037C00016A17A00900457E0F9121B99907803E053
:1037D0006442705E9007D6E014F07056C2AF1237A4
:1037E000E100781DD0E0F618D0E0F6E59F5407F927
:1037F000700590924180039092517808120412E96A
:10380000C4C0E0781CE65508F50808E65509F50936
:10381000740B7808120520D0E02508F8906270E05B
:10382000A2E740F8E8C333906272F0906270E0D291
:10383000E0F0900482E4F0A3F07A80FB900457E07B
:10384000F9121B45023C2D123850123850F0A322B9
:10385000F0A37480F0A374022274FF123A98F0A3CC
:10386000F02274F6120599EAFEEBFFEEA2E0504357
:10387000900459E0C39480E0500FC333F8E433F967
:1038800074C128F5827412800EF4C333F8E433F95E
:1038900074CF28F582741239F58312411F120597EF
:1038A0007A00900457E0F9121B99EE6401FAEFFBDD
:1038B0000239EC540860799007CFE0F875F006A45F
:1038C000C8AAF0123C5B75080078081207B0EA2419
:1038D000321239EFF50974047808120520780812BD
:1038E00007ACEA2430F582EB123E721207C3EA24D9
:1038F0002E1239EFC313F509E50813F508780812FD
:1039000007AC75089B75090778081207AC90079AF1
:10391000E0FD7C008A828B83A3A3A3A3E0FA7B0053
:1039200079001213957409120558EE64080238AD37
:10393000EE5410604275080078081207B0E4F509EB
:1039400078081207AC78081207AC78081207AC7533
:10395000089B75090778081207AC90079AE0FD7C70
:10396000007A007B0079021213957409120558EE53
:103970006410FAEF0238AFEE548060227900121B17
:10398000939092951207BF7A007B01900457E0F95B
:10399000121BB77404120558EE64800238ADEF5460
:1039A00001600C7901121B93EEFAEF640180C5905F
:1039B000045EE064017031EE5420602C900458E005
:1039C00024F9600314701B793F900486E0FA75F0C7
:1039D00006A4CAA8F028FB74882AFA74043BFB12D8
:1039E0001635EE64200238AD7A007B00024A2FF5CE
:1039F00082EB124A1BF508A3E022C082C083C2AF4B
:103A00001217EBE5E170FC75E101123E83121827F5
:103A100079071218BD79011218C3790212184512DC
:103A2000187B1218A579001218B779011218B790EF
:103A3000927D12043012183990079AE412385BA371
:103A4000F09007B1F09007C8F012161D121743123C
:103A5000164179001218C99007A174FF123A9874A0
:103A60001FF0906012E4F0A3F0906063F0751A000C
:103A7000900458F090045AF0A3F09007A6F0900438
:103A80005DF090045E04F09004747403F09007D429
:103A9000E4F0D2AFF9024662F0A3F0A3F0A3F0A3E2
:103AA00022C082C083900445123AE2F0900446128C
:103AB0003AD5F0900447123AD5A3F0900448123A50
:103AC000D5A3A3F0900449123ADAF090044A123ACE
:103AD000DAA302465F123AE2A322123AE2A3A3A3B8
:103AE000A322E08A828B8322C082C0838A828B8356
:103AF000E090044B123B25E090044C123C329004C1
:103B00004D123B1FE090044E123B1AE090044F12FE
:103B10003B1AA3E090045002465F123B1FA32212FF
:103B20003B25A3A322F08A828B83A322C082C08379
:103B300012158DE9700512187B790002466274F740
:103B4000120599EAFEEBFF890812158DE9702CE544
:103B500008600A74016508600A7912801E7C007989
:103B60000080047C007901EEFAEFFB121881E9F87D
:103B70007403687004790780027900023E7E74F64F
:103B8000120599740A12058D124A34600AEC4D60D0
:103B900006E508450970047912800F78081207AC11
:103BA00012169B74021205587900024A2F74F412FF
:103BB0000599EAFEEBFF8908900458E06409601457
:103BC000E0640A600FE0640B600AE0640C6005E0EA
:103BD000640D7004790C801E12176D8B0BEA450B77
:103BE000700BA908EEFAEFFB121683800990045AB5
:103BF000E04440F0790D803574F4120599EAFEEB4B
:103C0000FF890BEE4F6003E970047912801F750A7B
:103C10000012167D850A08EE2508F582EF123E7225
:103C2000E9F0050AE50AC3950B40E679007F040236
:103C3000066B123B25A3E022C082C083E9F8740121
:103C400068700B9007D47401F07900024662E87046
:103C5000069007D4E480F1791280F02AF97488285C
:103C6000FA740439FB2274F6120599EAFEEBFF8C14
:103C7000088D09900458E0640C700590618E8012E4
:103C80001249F8702F124A8674F12EF58274043F9F
:103C9000F583E0F9748069700A8508828509837468
:103CA0007F800E90045CE0F8E9C39885088285095E
:103CB00083F07900024A2F74F7120599EAFEEBFFB0
:103CC00089087405650860287413650860227414F7
:103CD0006508601C741565086016741A6508601024
:103CE00074296508600A743B650860047912804194
:103CF0001249F8703C124A20EA241DF8EB3400F90E
:103D0000EA24F7FCEB3400FDEA246A124A07701932
:103D1000EA246BF582EB12458B64027004793A80D9
:103D200010123D341216058006123D341215F97931
:103D300000023E7E8C828D83E508124A3AE4F0A3AD
:103D4000F079022274E81205998A0A8B0B8C108D87
:103D5000118909741812058DE0F508EC4511601001
:103D6000E9C3941C500AE508600B740165086005FE
:103D70007912023E691249F86003023E69A80AE816
:103D800075F006A4C8AAF02AFA75F006E50BA42A75
:103D9000F9748828FE740439FFEE2465F516EF34B3
:103DA00000F517851682F58312410CE84970C1A20F
:103DB000AFE433F512C2AF12176D8A148B158A82E5
:103DC0008B83E0F87440686011748068706E9004B2
:103DD00086E0650A7002E50B70621218038A0A8B8E
:103DE0000B121803EA650A7003EB650B604E124A6A
:103DF0009C909285780C120378780C1207A8851491
:103E000082851583A3A3120430124A29120558E9AA
:103E100064017028E508F50A780A1207B0A909AC10
:103E200010AD11EEFAEFFB1216657401120558E998
:103E3000700AE512A2E092AF7900802D8516828586
:103E40001783E510F0A3E511F0EE2463F582EF127D
:103E50003E72E509F0EE2464F582EF123E72E50849
:103E6000F0E512A2E092AF79077F1002066BF582AF
:103E7000E50912486E227425F0A3E4F0A3227F0125
:103E800002066B12155712154B75E1F12274F712E9
:103E90000599E9FE740912058DE0FF740A12058D7B
:103EA000E0F508EE600574016E702DEF6005740199
:103EB0006F70251240F75020EC24FCF8ED124A7187
:103EC00094FDE9943F5011C3EA9CEB9D400AE5083C
:103ED000600B7401650860057912023F7E9007B19E
:103EE000E064017005790C023F7EEEA3F0E50890D6
:103EF00007B7F0EF9007A9702FE4F0900445E09029
:103F000007AAF0900446E09007ABF0900447E090D9
:103F100007ACF0900448E09007ADF0900449E090C1
:103F200007AEF090044A802E7401F090044BE090AC
:103F300007AAF090044CE09007ABF090044DE0909D
:103F400007ACF090044EE09007ADF090044FE09085
:103F500007AEF0900450E09007AFF09007B3EAF09E
:103F6000A3EBF0A3ECF0A3EDF0E50870047900807A
:103F70000874016508700579011218877900023EFE
:103F80007E74F4120599E9FEEAFF900458E0640992
:103F90006014E0640A600FE0640B600AE0640C6087
:103FA00005E0640D700579210240F49007B2E0F855
:103FB0006005740168703B9007A9E0F86005740122
:103FC00068702F9007B31241001240F75024A312DB
:103FD000410CE824FCFCE934FFFDC3EC94FDED94B6
:103FE0003F500FC3EA98EB994008EF600A74016FE5
:103FF000600579120240F4EE700302407F1470F203
:104000009007B1E06401609E79021217619007A7E2
:10401000EAF0A3EBF09007B17401F09007B0F0EF75
:104020009007B8F0900458E060030240F21215992E
:104030001217FD8A088B098C0A8D0B9092757808EF
:1040400012037890927178081203D91241127808FD
:104050001204219007A71245B5124112C082C083F5
:104060009007B512458FD083D082780812037890DC
:1040700007A712412878081204211217498073906B
:1040800007B1E07003023FA6A2AFE433F508C2AF68
:104090007AA77B071217679007B1E4F012177FE940
:1040A00070271217EB906182E0C2E6F0E5E170FC48
:1040B00075E1017591BF79011218C375E1F19004A2
:1040C0005EE064017003124609E508A2E092AF9039
:1040D00007B7E0F874016870051218A58014A3E012
:1040E0006401700EE8700B12187B1218A57901128A
:1040F00018B17900023C2DEA24FCF8EB1245AA2203
:10410000E0FAA3E0FB22851882851983E0F8A3E09A
:10411000F9229007A71241192212411FA3A322E0FE
:10412000F8A3E0F583888222E0240EF8A3E03400AF
:10413000F9888289832274E812059974FC12054279
:10414000740212058DEAF0A3EBF0851882851983BD
:10415000ECF0A3EDF08915741D12058DE0F50AA3AE
:10416000E0F50B741F12058DE0F514742012058D17
:10417000124598742212058DE0F516A3E0F5177428
:104180002612058DE0FEA3E0FF742812058DE0F5F0
:104190000CA3E0F50D742A12058DE0F50EA3E0F5F1
:1041A0000F9007C8E06401600A7904121773E9648C
:1041B0000170057921024580900458E0640960F39C
:1041C000E0640A60EEE0640B60E9E0640C60E4E047
:1041D000640D60DF740212058D1245A050568518DB
:1041E000828519831245A0504B740212058DC0823E
:1041F000C083124106D083D082C3E098A3E09940E7
:1042000033E51560087401651570298006E50A45D7
:104210000B6021741C12058DE0600464017015E5CB
:1042200014600674016514700BC3E50E950CE50F60
:10423000950D50057912024580E50824FAF8E50944
:1042400012484850EFE51624FAF8E517124848508E
:10425000E3C3E5169508E517950940D874241205BF
:104260008DC3E094F4A3E0940150C912483A50C4BD
:10427000851608851709E508C333F508E50933F500
:1042800009742412058DE02401F510A3E03400F533
:1042900011E4F512F51385080C85090DF50EF50FDF
:1042A0007810790C12023D8E0C8F0D7403780C126D
:1042B000052F780C79101201FE40030242341216C9
:1042C0003BE964017005793A024580900485E0601D
:1042D0005785080C85090D7AFF7BFF1216298A087D
:1042E0008B0974037808120520900485E0F8C3E573
:1042F0000898E50994005005793B024580C3EA958A
:104300000CEB950D5010A80CA90D1204B78B09EAFF
:10431000450970E48012EAF8EBF9AA0CAB0D12041F
:10432000B78B09EA450970D0E5157009E50A450B18
:1043300070030242341216118A088B09A808A909D1
:10434000E84970057909024580E82404F50CE93450
:1043500000F50D850C82F583E09007CFF074021212
:10436000058D12410C9007C912485D124106900755
:10437000CB12485DE5159007CEF07A008A82A882BC
:10438000124863E0C0E0E50828F8EB3400F9E824BF
:104390005DF582E9123E72D0E0F00AEAC39405406E
:1043A000DBE508245DFCEB3400FDAA0812160BE5E2
:1043B000082436F582E50912458BC39402500AAAF7
:1043C00008AB09121617024234850A82850B83E076
:1043D00090079B1245CAE090079C1245C1E09007E8
:1043E0009D1245C1A3E090079E1245D3E090079F20
:1043F0001245D3A3E09007A0F0E5149007C0F07039
:104400002D900445E09007C1F0900446E09007C26B
:10441000F0900447E09007C3F0900448E09007C490
:10442000F0900449E09007C5F090044A802B900476
:104430004BE09007C1F090044CE09007C2F090046C
:104440004DE09007C3F090044EE09007C4F0900454
:104450004FE09007C5F0900450E09007C6F0741C40
:1044600012058DE090079AF0121647E508242612EF
:104470003E6E12043C12151BE5082422123E6E12F9
:10448000043CE508242E123E6EE516F0A3E517F075
:10449000E5082432F582E509124851742412058D8D
:1044A00012410CE5082430F582E50912485A9007BC
:1044B000D0E0C0E0E508242A123E6ED0E0F0E50826
:1044C000242B123E6E7402F012167DE975F00C84F6
:1044D000E5F02405C0E0E5082437123E6ED0E0F098
:1044E0009007CD7425F0900485E0C39402400579CF
:1044F0000112183F79041217619007BEEAF0A3EB8E
:10450000F09007C87401F09007BEE0241612412B0A
:1045100074B1F0A37415F09007BEE0241412412B7F
:104520007417F0900458E070551217FD8A108B1123
:104530008C128D1390926D7810120378909271788E
:10454000101203D99007BE12411578101204219061
:1045500007BE1245B59007CB12458F781079081227
:1045600003659007BE1241287810120421850C8241
:10457000850D83E0F912159F1215A51217497900D0
:104580007404120558023E69F582EF124A1B22128A
:104590004598E4F50AF50B22E0F508A3E0F50922B9
:1045A000E024FCF8A3E01245AA2234FFF9C3E89402
:1045B000FDE9943F22124119A3A3A3A3E4F0A3F0C1
:1045C000221245C5221245CAA322F0850A82850B14
:1045D00083A3221245C5A3A322C082C0839007C82B
:1045E000E060087904121773E97004790C80189060
:1045F00007C8E4F012177FE9700B90045EE06401D5
:104600007003124609790080597A207B0090045784
:10461000E0F9121BC37A207B00900457E0F9121BCB
:104620004B22C082C083C3EB940F5009C3EA9403AA
:10463000EB9400400479128024EA75F006A4CAA81D
:10464000F028F875F006EBA428FB748B2AF5827429
:10465000043BF583E070047902800279008003F066
:104660007900D083D0820201D174EA1205998A08B8
:104670008B09741612058DE0F512A3E0F51374187A
:1046800012058DE0F514A3E0F515741A12058DE0FE
:10469000FEA3E0FF900458E064086005790C02482E
:1046A00035EC24FAF8ED1248485025E51224FAF8C2
:1046B000E5131248485019C3E5129CE5139D4010BC
:1046C000C3E51494F4E5159401500512483A4005E9
:1046D00079120248351249F86003024835E5087539
:1046E000F006A4C508A8F028F875F006E509A42886
:1046F000F50974882508F51074043509F511E510DD
:10470000246FF582E51112458B600DE510246BF5E1
:1047100082E51112458B600DE5102474F582E511D8
:10472000124A0A7005793A024835E512C333FAE5B0
:104730001333FBE5142401F508E5153400F509E40D
:10474000F50AF50B8A0C8B0DF50EF50F7808790C30
:1047500012023D8E0C8F0D7403780C12052F780C0D
:1047600079081201FE40030246D0900485E0C3940C
:104770000240558A088B097AFF7BFF1216298A0AA4
:104780008B0B7403780A120520900485E0F8C3E5CA
:104790000A98E50B94005005793B024835C3EA9529
:1047A00008EB95095010A808A9091204B78B09EA6B
:1047B000450970E48012EAF8EBF9AA08AB09120483
:1047C000B78B09EA450970D0E5102477F582E51129
:1047D000123E727402F0E5102478F582E511123E63
:1047E00072E4F0A3F0E5102430F582E5111248736D
:1047F000E5102475F582E51112485AE510247AF582
:1048000082E511123E72E512F0A3E513F0E51024E3
:104810007CF582E511123E72E514F0A3E515F0E592
:1048200010247EF582E5111248517900AA10AB11CF
:104830001215F979007F0E02066BEE24F6F8EF12DE
:104840004A759477E9940C22124A75947BE9940C8A
:104850002212486EEEF0A3EFF02212486EE8F0A3A9
:10486000E9F02274A128F582740712486E22340000
:10487000F58322124A1B2407F8A3E03400F92274BE
:10488000F2120599EAFEEBFF8C088D09740E1205F1
:104890008DE0F50CA3E0F50D741012058DE0F50A1E
:1048A000A3E0F50B900458E064086005790C024918
:1048B000F3EC4509600CE50C450D6006E50A450B77
:1048C000700579120249F31249F860030249F312A4
:1048D0004A7BFE74043FFFEE24E412458870257A7B
:1048E000008A82A882124A10C0E0EE28F8EF340055
:1048F000F9E824E5F582E9123E72D0E0F00AEAC355
:10490000940840DDEE24E5124588A2E040057911C7
:104910000249F37A008A82A882E50828F582E5092F
:1049200012458BC0E0EE28F8EF3400F9E8249CF53E
:1049300082E9123E72D0E0F00AEAC3940840D685BC
:104940000C82850D83E0C0E0EE24A4F582EF123ED8
:1049500072D0E0F0850C82850D83A3E0C0E0EE24E8
:10496000A5F582EF123E72D0E0F07A008A82AC8226
:10497000E50A2CF582E50B12458BC0E0C3E49CF8F8
:1049800095E0F9EE28F8EF39F9E824D2F582E9123A
:104990003E72D0E0F00AEAC3941040D0EE2494FABC
:1049A000EF3400FB121689EE2488FAEF3400FB1274
:1049B000168F90045AE04480F0EE24621249FD24E0
:1049C000D31249FD24D41249FD24DDF8EF3400F957
:1049D000EE2483F582EF124A0A8882898370077475
:1049E00001F0790A8004E4F07903EEFAEFFB121586
:1049F000F979007F0602066B121503E922F582EFB2
:104A000012486EE4F0EE22F582EB124A1B6401229A
:104A1000746C28F5827404124A1B2212486EE0223C
:104A2000124A7FFA74043FFB22120CC27404227FE4
:104A30000202066B124598EA4B22F0888289832293
:104A4000900445E0900451F0900446E0900452F048
:104A5000900447E0900453F0900448E0900454F030
:104A6000900449E0900455F090044AE0900456F018
:104A700022124A752234FFF9C3E822124A7F221219
:104A80004A8A74882E22124A8A22EE75F006A4CE33
:104A9000A8F028F875F006EFA428FF22124AA022F9
:104AA0001217FD8A0C8B0D8C0E8D0F2274F71205D8
:104AB000999002C674FEF0A304F0A3E4F09002CC37
:104AC00074FFF09002CBF09002E6E4F07C19FDF95F
:104AD0007ACD7B02121B03750801E50875F021A44D
:104AE000F8A9F074C628FE740239FF8E828F837491
:104AF000FFF0A3125672A3A3125B9E125A88A3A3BF
:104B0000125BA8EE2407FAEF3400FB121B03050822
:104B1000E508C3940440C37A917B111212697ADFCD
:104B20007B111214617900024CB6C082C083E990F7
:104B300012BFF0D083D0820201D174F212059974B1
:104B4000E6120542EAFEEBFF890A742812058DE0A1
:104B5000F50B7402650A60097410650A6003024C63
:104B600009EC4D7003024C09740212058D7401F0BA
:104B7000A3E4F0740412058D74FFF0A3F074061220
:104B8000058D7402F0740712058DE4F074081205A7
:104B90008D7428F0740912058DE9F0F50875090087
:104BA00078081207AC740C12058D124E1A120558B3
:104BB000851882851983AC82AD83EEFAEFFB121162
:104BC000C7E9F508703F740212058DAC82AD83EE23
:104BD000FAEFFB120EC7E9F508702AE50BF5097824
:104BE000091207B0750C3F750D0F780C1207AC79E0
:104BF00007740512058DAC82AD83740312058D1206
:104C00004CBB120558A90880027902741A12055883
:104C10007F0602066B74F7120599E9F50878081209
:104C200007B0790112118B7401024CB374F41205B0
:104C30009974FA120542EAFEEBFF89097412120513
:104C40008D125011740212058DECF0A3EDF0740476
:104C500012058DE8F0A3E9124CA1703E7402120512
:104C60008DAC82AD83EEFAEFFB120EC1E9F5087050
:104C700029E509F50A780A1207B0750A2D750B0F98
:104C8000780A1207AC7905E912058DAC82AD837400
:104C90000312058D124CBB120558A9087406024E6A
:104CA0000DF0851882851983AC82AD831211C7E996
:104CB000F508221205587F0102066B12534A1211A1
:104CC000C174032274F612059974FE120542EAFEBD
:104CD000EBFF8C088D09851882851983AC82AD8322
:104CE0001211C7741769601DE5082417124D0F7063
:104CF00012124D19700DAC08AD09EEFAEFFB120E51
:104D0000DF8002790274021205587F0202066BF5F9
:104D100082E5093400F583E022E5082418124D0FDE
:104D200064012274F312059974D3120542EAFEEB72
:104D3000FF8C088D09890B743A12058DE0F50C1271
:104D40004DFC6003024DF0E50B6045850882850946
:104D500083125011740212058D12567885088285CF
:104D6000098312500F740412058D125678740612BE
:104D7000058D7402F0740712058D7403F074081227
:104D8000058D7428F0740212058DAC82AD83800409
:104D9000AC08AD09EEFAEFFB120ECDE9F50AE50A13
:104DA000704E850882850983C082C08374181205FD
:104DB0008DAC82AD83D083D08274151204557417E4
:104DC00012058DE50BF0E50CF50878081207B075B3
:104DD000085175090F78081207AC7909741A120581
:104DE0008DAC82AD83740312058D124CBB12055835
:104DF000A90A742D1205587F0502066B8518828555
:104E00001983AC82AD831211C7E9F50A2212055845
:104E10007F0402066B7F0802066BAA82AB83121A1C
:104E2000EB740222A3A3A3E0FCA3E0FD22F508EFAC
:104E30003400F509850882F583E0F82274EA12054A
:104E40009974E71205428A0A8B0B8C828D83E0707D
:104E500008A3E0FA74016A700C79067419120558F7
:104E60007F0E02066BEC2402F508ED124E30EC24A6
:104E700005F50CED3400F50DEC2403F50EED3400D2
:104E8000F50F741B686005741D68706A9012BFE0AE
:104E9000F460C68518828519838582108583117810
:104EA000101207AC850E82850F831207C3850C8212
:104EB000850D83124E277900120F9F740412055836
:104EC000E9F50C702C85188285198385820E8583FF
:104ED0000F780E1207AC850882850983E0FD7C00FF
:104EE000AA0AAB0B9012BFE0F912128174021205EC
:104EF00058A90C024E5BAA0A1211CD8A108B11AE72
:104F000010AF11EE4F70057900024E5B8508828567
:104F10000983E0F81251EC7401686003024FA08528
:104F2000188285198385821285831378121207AC43
:104F3000125015120F0F7402120558E9F50CE50C0A
:104F400070AF851082851183E0F8740568602A745B
:104F5000076860257409686020740D68601B74110F
:104F600068601674176870788E828F83A3A3A3A3DA
:104F7000A3A312500FE849606785188285198385BD
:104F8000820E85830F780E1207AC8508828509830F
:104F9000E0F9EEFCEFFDAA0AAB0B121197024EEC02
:104FA000851082851183E06870308E828F83A31212
:104FB000500F88128913E84513601F8518828519E0
:104FC0008385821485831578141207AC12501585D9
:104FD00012828983120597024F36750C04024EF136
:104FE00085188285198385820E85830F780E1207B6
:104FF000AC850882850983E0FD7C0012502A1205E9
:1050000058EEFAEFFB1211D3024EF18A828B83A382
:10501000A312587322850E82850F83E0FCA3E0FD66
:10502000850C82850D8312534A22AA0AAB0B8E820D
:105030008F83A3A3A3A3A3A3E0F912128174022276
:1050400074EC1205998A0E8B0FECFEEDFF890A7441
:105050001412058DE0F508A3E0F509EE2406F5121B
:10506000EF3400F513E5082403F50CE5093400F5E9
:105070000DEE2407FCEF3400FD1251EC851082F593
:1050800083E024FB601D24FE604824FE605124FC64
:10509000605A24FC700302514F24FA700302515DE0
:1050A000025185AC08AD09EEFAEFFB12119DE9F54E
:1050B0000BE50B60030251887401650A600302511D
:1050C00088850C82850D83E0640A60030251970293
:1050D00051B4AC08AD09EEFAEFFB1211A380CFACCE
:1050E00008AD09EEFAEFFB1211A980C21253157434
:1050F0000D650A704288828983E004F08508828504
:105100000983E0F8C394164040880C8C828D83A3F9
:10511000A3E0250CF0A3E03400125672125B8F124C
:105120000ED37A307B758E828F83A3A3A3A3A312A1
:105130005857750B168060850C82850D83E06407D7
:10514000704388828983E0603C750B000250B8ACE4
:1051500008AD09EEFAEFFB1211AF0250AE8C828D52
:1051600083E06401AC08AD097009EEFAEFFB12119F
:10517000BB8007EEFAEFFB1211B5E9F50B74016580
:105180000B70648003750B017409650A700985084A
:1051900082850983E0601978081207ACAD0A7C00AB
:1051A000AA0EAB0F85128285138312503812055850
:1051B000E50B7026E4F508F50978081207AC8510B0
:1051C00082851183E0FD7C1AAA0EAB0F85128285C1
:1051D000138312503812055880067416650B600749
:1051E000EEFAEFFB1211D37F0C02066BEE2402F5F0
:1051F00010EF3400F5112274F412059912530F7454
:10520000056508705212531EA3E064018C828D83E1
:10521000700D12530412052F1252E724FE8014E081
:1052200075F012A4F885F009A909EC28F8ED39F910
:10523000E824F0F582E934FFF583124E2712500B73
:10524000C3EC98ED995027EC2401F8ED125332127B
:105250000EC11252F180198C828D83A3A3A3E06446
:105260000A700788828983E07004790180027900DE
:10527000024E1074F412059912530F7407650870EA
:105280003D12531E12530412052F1252DAC082C06F
:105290008312500BD083D082C3E098A3E09950359D
:1052A0008C828D8312530412052F1252DAE02401EE
:1052B000F8A3E0125332120EC71252F180198C82F9
:1052C0008D83A3A3A3E0640A700788828983E070BA
:1052D00004790180027900024E101252E724FDF594
:1052E00082E934FFF58322EC250AF8ED350BF9E865
:1052F000227A307B758E828F83A3A3A3A3A3125837
:105300005B791622E0F50A750B007402780A22EA2E
:10531000FEEBFF8908EE2420F8EF3400F922EE249A
:1053200007FAEF3400FB88828983E004F08C828DD9
:1053300083223400F98A828B83E8F0A3E9F0EAFC47
:10534000EBFD125346228E828F83E0FAA3E0FB220C
:1053500074E812059974E8120542E98518828519E6
:1053600083F08A168B17ECFEEDFFEA2407F50CEBB1
:105370003400F50DE50C2406F510E50D3400F511AB
:10538000E50C2405F514E50D3400F515EA2420F5A7
:1053900008EB3400F5098E828F83A385820A85830A
:1053A0000B851882851983E0640960030254B812E2
:1053B000565A14A4F8850882850983E004F0880809
:1053C000EE2508F8EF125712125708E0F8E4C8F972
:1053D000EA2400F508E439F509850C82850D83E09F
:1053E000640160030255A7880E12565AA4851882DC
:1053F000851983125672E4F0F50F8518828519839A
:10540000E0F8E50FC39840030255A7850F12EE257B
:1054100012F8EF3400F9740112058D125678850ADE
:1054200082850B83E024FBF512E434FFF513781238
:105430001207AC740312058DE02407F512A3E034C3
:1054400000F51378121207AC851482851583E0FCF1
:105450007D00AA10AB11125654120558E9604DE5B3
:105460000E650F6035850A82850B83E0F512751392
:105470000078121207AC740312058DE02402FCA31D
:10548000E03400FD850E12EE2512F8EF3400F9E845
:105490002402FAE9125A7F120558850A82850B8385
:1054A000E0250EF50E8E828F83E004F0850A82855A
:1054B0000B83E0250F0253F8EE24030E0E0EEF349B
:1054C00000FF8E828F83E0640A700C850882850954
:1054D00083E060030256488514828515831256695D
:1054E0001207AC78101207AC7C027D007AD67B9252
:1054F000125654120558E960030256298514828514
:105500001583E0F50E780E1207AC78101207AC7C0C
:10551000027D007AD47B92125654120558E960033A
:10552000025629851482851583E0F50E780E120740
:10553000AC78101207AC7C027D007AD27B921256B6
:1055400054120558E9600302562985148285158393
:10555000E0F50E780E1207AC78101207AC7C027DD5
:10556000007AD87B92125654120558E9600302560D
:10557000298E828F83E064026017E064056012E088
:105580006408600DE0640F6008E0640C600302567C
:1055900029850882850983E004F0850A82850B83CA
:1055A000E0F508A3E0F50974FF6508700474FF6571
:1055B000097003025648E50C2403F8E50D12586102
:1055C000FAA3E0FBC3E5089AE5099B507BE50824B4
:1055D00001FAE5093400FB850C82850D83A3AC82BA
:1055E000AD83EAF0A3EBF0850C82850D83E06401C6
:1055F000703B740312058DEAF0A3EB12586A740530
:1056000012058D125678740712058D7402F0740815
:1056100012058D7403F0740912058D7428F074035B
:1056200012058DAC82AD8380047901801D851682C0
:10563000851783125B8F120ECD7A307B75851682AB
:105640008517831252F98002790074181205587F69
:105650001002066B120FAB740422850A82850B833D
:10566000E0F5F08E828F83E022E0F50E750F007872
:105670000E22F08E828F8322E8F0A3E9F02274F4E8
:1056800012059912530F741165088C828D83A370D3
:1056900035E0F5F08C828D83E014A4F50A888289C8
:1056A00083E004F0EC250AF8ED125712A3A3125779
:1056B00008A3A3E0F9EAF874FF68700374FF697047
:1056C000177900024E10A3A3E0640A70078882894C
:1056D00083E070ED790180EBEE2407FCEF3400FDF0
:1056E000E8240108E93400F98C828D831256788C05
:1056F000828D83A3A3C3E098A3E09940C4125B8B7F
:10570000120ED91252F180BBE0FA88828983A3A3DA
:10571000A3223400F988828983A3A32274F112059D
:105720009974E8120542EAFEEBFF890AEE2405F8B7
:10573000EF3400F9880889097417650A6003025874
:105740002CEE24070808EF3400F9E8FAE9FBEA2414
:1057500008F8EB1258612412F0A3E03400F08A82BA
:105760008B83124E2489838882E0C39CFCA3E09D36
:10577000FD8A828B83A3A3A3A3A3E0F50EF5828504
:10578000820CC3EC950CED94004003025822E50C0A
:10579000C39CF50CE49DF50DC3E50C9413E50D9445
:1057A000004009740512058D741280108C0BE50EF3
:1057B000C3950BC0E0740512058DD0E0F08A828B92
:1057C00083A3E0F50CA3E0F50D740112058DE50C43
:1057D000F0A3E50D12586A740312058D1256787401
:1057E0000512058DE0F50C750D00780C1207AC8ADA
:1057F000828B83A3A3A3A3A3A3E02CFCA3E03DFD82
:10580000740812058D124E1A120558740112058D76
:10581000AC82AD831259BD85088285098312585721
:1058200080298518828519837401800785188285EF
:105830001983E41259DE650A70047901800F7A3009
:105840007B758508828509831259C87916741812E8
:1058500005587F0702066B12585B22E0F9121E1BE7
:10586000223400F988828983E022F08882898312B9
:10587000587322E0F8A3E0F92274EC12059974FF42
:10588000120542EAFEEBFF890E125B93EE2405F54A
:1058900010EF3400F5117417650E600302598CE5A2
:1058A000082404F50AE5093400F50B85088285090A
:1058B00083A385820C85830D850A82F583E075F0CC
:1058C00017A4F8A9F0850C82850D83E028F8A3E0E1
:1058D00039F9E8FAE9FB8A828B831259B5E06870DE
:1058E00003A3E069600302598C8A828B83A3A3120D
:1058F00059B5A3A3E0687003A3E069600302598C63
:105900008C828D83A3A3A3A3E0F5128A828B83A349
:10591000A3A3A3E06512707475130078121207AC8C
:10592000EC2405FCED3400FDEA2405FAEB3400FB21
:10593000121AFD7402120558E96051850A82850B1E
:1059400083E004F0F9850882850983A3A3A3E0F826
:10595000E9C3985023E975F017A4F8A9F0850C82E3
:10596000850D83E028FCA3E039FD1259BD85108226
:105970008511831258578033850882850983A3A334
:10598000A3A3A3E0851882851983800785188285E3
:105990001983E41259DE650E70047901800F7A30A4
:1059A0007B758510828511831259C879167401128E
:1059B00005580251E71258738C828D832212534688
:1059C000120EE57A307B752212585B8E828F83A38C
:1059D000A37419125A8C7493F0A3740FF022F0ACD4
:1059E00082AD83125346120EEB74012274F012053D
:1059F00099EAFEEBFF8C088D09890C741012058D55
:105A0000E0F50AA3E0F50B741212058DE0F50D74B4
:105A1000FF650D6067EE2405F50EEF3400F50F7895
:105A20000E1207AC750E1E750F00780E1207ACEE45
:105A3000FCEFFD7AD97B1112128774041205588E7F
:105A4000828F83A3A3A3A3A3A3E50D125672A3A3DE
:105A5000E50C125A88E50AF0A3E50BF0E5084509C4
:105A6000601A750A19750B00780A1207ACAC08ADFC
:105A700009EE2407FAEF125A7F120558024E153428
:105A800000FB121AEB740222125A8C22F08E828FC3
:105A900083A3A3A32274F6120599ECFEEDFF121165
:105AA000CD8A088B09A808A909E849602CEE4F6047
:105AB000078E828F8312567888828983A3A3A3A33B
:105AC000A3E0F874FE6870047917800F74FF6870A3
:105AD0000479008006791680027902024D0AC0829C
