:020000040000FA
:0600000002011D021FCBEE
:03001300021B15B8
:03002B00021A397D
:03003300021A0EA0
:03003B00021B9213
:030043000219B8E7
:0300530002203E4A
:03006B000219E394
:03007300021A9AD4
:03007B00021A6105
:10008300021E7FE5C754F84401F5C7790122000039
:100093000080FB120086B90003020107E47921788E
:1000A30008B800028004F709D8FCE479297802B87B
:1000B30000028004F709D8FCE49002817893790A5E
:1000C3008002F0A3D8FCD9FA781A90014D7A01BACC
:1000D30000028007E493A3F608DAF9900C13AA82CE
:1000E300AB8390014E784B79038015E493A3AC82E4
:1000F300AD838A828B83F0A3AA82AB838C828D83A8
:10010300D8E9D9E77582D87583C2740312012F75B4
:100113008291758300740012012F75D00075813FA1
:10012300751881751902759F00020096C09FF59F8F
:10013300E473D09F22D083D082C09FE493C0E07445
:100143000193C0E0740293F59F2201FFFF1101990F
:10015300010F12640401026C870100004B870268DF
:10016300870100001A0C0272870100001B0C026455
:1001730087030000A5020256870100001C0C01053D
:100183003F10FF000130750302010600000000006C
:10019300000000000000000000000000000000005C
:1001A30000000000000000FFFF0600800CE803AD24
:1001B3000000000000004169722D54480000000057
:1001C3000000000000000000000000880700009A03
:1001D30007A0079407FE000A4368617261637465B0
:1001E30072697374696320310002436861726163E9
:1001F30074657269737469632032000843686172BD
:1002030061637465726973746963203300104368B2
:100213006172616374657269737469632034000287
:1002230043686172616374657269737469632035CD
:1002330000026C8701000048870268870100009F65
:100243000C0252870300000D07026687010000A01D
:100253000C026887010000B10C02508701000021E5
:1002630007026687010000B20C026887010000C321
:100273000C024E870200002207026687010000C4B9
:100283000C026887010000D50C028E860000002353
:10029300070264870300003007026687010000D667
:1002A3000C026887010000E70C025C87040000363B
:1002B30007026687010000E80CFF0000B400002875
:1002C300002800283075A000A000A000A0000008AE
:1002D3000008E001F00010001000100010001000F2
:1002E300100050005000500010001000D007000014
:1002F300000000000F00010005003075070010002A
:10030300010081FF0000FFC809E609CE09FF0202D0
:100313000208025000A0000000E803026C870100FD
:10032300004587026887010000D60D02628701003D
:10033300006A07026887010000D70D026087010089
:10034300008007026887010000D80D025E87010064
:10035300008207026887010000D90D027087080038
:10036300008307026887010000DA0D025A87010043
:1003730000DB0DFFFF560F560F560F560F560F5645
:100383000F560F560F560F560F560F560F560FE4B4
:1003930011FC11DE111201386FBF0212013884BF44
:1003A30002120138DCBF0212013843C002120138C5
:1003B3008BC00212013801C10212013830C102128E
:1003C300013896C402120138A4C40212013808C5C8
:1003D3000212013846C50212013861C50212013802
:1003E300F9C502120138A2C60212013825C702124A
:1003F30001385EC702120138E9C70212013840C84A
:10040300021201389FC802120138B1C80212013822
:10041300D7C802120138E0C8021201383FCA0212DB
:100423000138B7BB0312013896BC03120138637D50
:1004330000120138A87D00120138EE7D0012013848
:10044300817F00120138D7BF03120138F2BF0312B4
:10045300013802C00312013859C003120138A5C084
:10046300031201380080031201382080031201387F
:100473002481031201387081031201389081031221
:100483000138E38103120138508203120138968246
:1004930003120138FA8203120138AC8503120138C2
:1004A300F2AF0312013822B00312013852B0031223
:1004B300013815B1031201386FB10312013875B554
:1004C300031201380DB60312013822B603120138A4
:1004D30078C30312013848C103120138D026001231
:1004E30001389028001201383B2900120138DF2916
:1004F30000120138782A00120138A72A00120138A5
:10050300132B001201387930001201382431001204
:100513000138943200120138FC3200120138B03332
:10052300001201383035001201386F3500120138DE
:10053300E33500120138423600120138A1360012A9
:1005430001381037001201380338001201384938D6
:10055300001201388E3800120138B1380012013808
:10056300013A00120138143A00120138863A001297
:100573000138BD3A00120138E93A001201383C3B18
:10058300001201385D3B00120138A13B0012013813
:10059300F33D00120138343E00120138DF3E0012F1
:1005A30001384A3F0012013807BE0312013818BE52
:1005B30003120138F0BE031201380CA403120138F0
:1005C300A7A6031201382FC40312013877BA031206
:1005D300013887BA03120138A1BA03120138A6BB46
:1005E300031201382FA103120138D5A103120138D8
:1005F300F1A30312013809AE0312013839AE031215
:100603000138A9AE03120138CDAE0312013829AF68
:1006130003120138A4AF03120138E1AF031201380A
:10062300E4AF031201384CC4031201384FC4031260
:10063300013861C40312013873C403120138F87F0F
:1006430000120138B5A603120138A2A8031201381B
:100653000EA90312013855A903120138B4F5021289
:1006630001389EF70212013861F902120138B0FA1B
:1006730002120138DFFA02120138E2FA02120138DB
:10068300FAFA02120138D9FB02120138EAFB02120C
:100693000138FBFB02120138D7B10312013836B21D
:1006A30003120138E4B20312013863B303120138B1
:1006B3000F9B03120138419B03120138499C03121B
:1006C30001386E9D0312013876CA021201385CCBE1
:1006D30002120138A9CB02120138ECCB0212013805
:1006E30061CC02120138C2CC0212013837CD02129A
:1006F300013813CE021201381ECF021201389FCFE8
:100703000212013846D102120138DCD1021201383B
:100713004FD202120138CBD202120138E2D20212B6
:10072300013819D40212013873D40212013893B07C
:1007330001120138FBB401120138C0B701120138AC
:10074300E9B70112013810B801120138C2B8011219
:10075300013895BA01120138D0BB011201388BC0A0
:1007630001120138C4C00112013808C10112013855
:100773001AC20112013858D1011201386BD3011288
:100783000138C7D401120138CAD401120138AAD5DD
:1007930001120138BBD60112013814D701120138F6
:1007A30096D70112013835D80112013893DC0112B2
:1007B300013880DD0112013858A90312013875A9E7
:1007C30003120138FDAA031201382CB703120138B2
:1007D30043B70312013872B703120138ABB70312E0
:1007E3000138D3B70312013801B80312013818B81E
:1007F300031201382FB80312013845B80312013828
:100803006CB8031201387FB80312013895B803128C
:100813000138A8B803120138CDB803120138DFD468
:1008230002120138DED50212013813D60212013842
:1008330034D60212013844D60212013865D60212A8
:10084300013871D7021201383ED802120138B1D8EB
:100853000212013837D9021201387AD9021201384B
:10086300B1D90212013837DA0212013809DB021258
:10087300013867DB021201387FDB02120138F9DB32
:1008830002120138FCDB02120138FFDB02120138CD
:10089300A6DC02120138BEDC02120138EEDC0212C1
:1008A30001380EDD02120138FCDD02120138B2DE1E
:1008B300021201382D8603120138558603120138BE
:1008C300838603120138BA86031201382287031282
:1008D30001386B8703120138B68703120138F48796
:1008E300031201383188031201385F88031201387B
:1008F3000689031201381089031201381D89031276
:100903000138508903120138128A031201381E8AF2
:1009130003120138368A03120138408A0312013860
:1009230000BF031201380EBF0312013826BF0312A2
:1009330001383EBF03120138BA6E00120138586FF6
:1009430000120138D06F00120138E570001201382F
:100953001F7100120138C871001201389D72001214
:100963000138017400120138587400120138DF7421
:1009730000120138C67500120138137600120138CF
:10098300A17600120138C576001201389A78001258
:100993000138DB7800120138FD78001201387E79C6
:1009A30000120138687A001201382E7B00120138D8
:1009B300A8EE021201387AEF0212013823F0021274
:1009C300013866F002120138F3F0021201387FF1A8
:1009D3000212013860F2021201388FF2021201385A
:1009E3008BF302120138D3F302120138D5F4021249
:1009F300013819F5021201383FF502120138D2C14C
:100A030003120138A19303120138B793031201387B
:100A1300DD93031201380595031201380F95031274
:100A23000138689603120138689703120138DFB85A
:100A3300031201381BBA031201388EDF0112013889
:100A4300F1DF0112013801E00112013824E0011243
:100A530001386FE00112013814E1011201380AE292
:100A630001120138D4E2011201384CE401120138B9
:100A73008EE4011201382CE50112013879E50112E7
:100A830001389FE5011201388DE70112013892E721
:100A93000112013873E901120138C7E90112013863
:100AA30029EA0112013851EA01120138F5EA01126B
:100AB3000138B7EB01120138E8EB01120138EBEB17
:100AC3000112013833EC0112013875EC01120138BF
:100AD300DCEC01120138B3AB03120138C6AB0312CD
:100AE3000138DFAB031201382AAC0312013805AD1C
:100AF3000312013894AD03120138DFAD031201383C
:100B03007C8701120138888701120138C1870112DD
:100B130001380D8801120138988801120138D188F3
:100B230001120138E58A01120138C18C0112013822
:100B3300AC8E01120138E38F011201384392011286
:100B430001382F93011201387594011201388295EF
:100B5300011201389F9501120138D795011201380E
:100B6300F99501120138939A01120138349B01124D
:100B73000138859B01120138AC9B01120138FA9BA5
:100B8300011201385A9C01120138D58A0312013827
:100B9300DF8A03120138AA8B03120138C58B0312B3
:100BA3000138EB8B031201382F8C03120138678C49
:100BB30003120138908C03120138098D0312013896
:100BC3001E8D03120138338D031201386A8D03120F
:100BD30001387E8D03120138AF8D03120138E98D80
:100BE30003120138158E031201388C8E031201385B
:100BF300D58E03120138FF8E03120138248F03129E
:100C0300013809FC02120138D3FC02120138B6FD87
:100C1300021201382CFE021201386EFE0212013854
:100C23009BFF021201385E9B02120138879B02125E
:100C33000138A09B02120138E59C02120138C39DC2
:100C430002120138E29D021201386F9E021201382E
:100C5300B29E02120138FF9F021201389EA00212B7
:100C630001381DA302120138B4A30212013888A46B
:100C7300021201386AA502120138D6A602120138FF
:100C830069A702120138F2BC031201385BBD0312DB
:100C93000138AFBD03120138D6BD031201384C8FA2
:100CA30003120138B98F031201380490031201387B
:100CB300F99003120138F59103120138DF92031200
:100CC30001381DDF021201385FDF0212013839E0FB
:100CD3000212013812E1021201380DE20212013848
:100CE300ECE20212013858E3021201381FE4021247
:100CF30001388AE402120138F1E4021201381CE5DA
:100D0300021201388DE50212013820E60212013881
:100D130089E6021201389EE602120138E6E6021263
:100D23000138FFE60212013864E70212013867E76F
:100D330002120138359E031201385D9E03120138F9
:100D43009B9E03120138599F03120138C49F03125B
:100D53000138E09F0312013808A00312013838A0BC
:100D63000312013847A003120138C1A0031201384E
:100D7300E7A003120138A6ED0112013883EF011237
:100D830001387EF10112013851F2011201389CF24F
:100D930001120138E7F201120138F9F201120138A8
:100DA30039F3011201386EF301120138BAF301125B
:100DB3000138E9F3011201380CF40112013859F436
:100DC30001120138E2F401120138EFF60112013881
:100DD300DAF8011201381DF90112013882FA011201
:100DE3000138C3FA0112013836FB0112013882FBC4
:100DF30001120138E0A7021201380BA802120138D0
:100E0300F2AE0212013816B102120138D1B2021247
:100E130001382EB4021201385E4000120138F54049
:100E230000120138224100120138684100120138D2
:100E3300A742001201383E4400120138B8440012A0
:100E43000138D3440012013848450012013877466F
:100E530000120138D24700120138D4480012013879
:100E6300314A001201384A4A00120138A74A0012D7
:100E73000138894B00120138BC4B001201382C4C4D
:100E830000120138A64C00120138F54C001201384B
:100E9300C14D00120138C64E00120138A54F001291
:100EA30001383050001201389E500012013812519F
:100EB300001201383B5100120138FA510012013877
:100EC300745300120138915300120138B0530012C9
:100ED30001384154001201386654001201388E540F
:100EE3000012013809550012013863550012013808
:100EF300B7560012013874570012013847580012D0
:100F030001380080021201385080021201385C80DF
:100F13000212013839810212013869810212013843
:100F2300A181021201382082021201385882021272
:100F33000138AA8202120138E782021201380C85B5
:100F4300021201383887021201383389021201383C
:100F53000E8B02120138F17F00120138E29C01125C
:100F630001382C9D011201380BA3011201388CA406
:100F730001120138EBAA01120138E6AB0112013864
:100F830023AC0112013846AC0112013888AC0112BE
:100F9300013891AC011201389BAC0112013887ADC5
:100FA300011201387BAE0112013875580012013865
:100FB300ED6200120138F36200120138FF6900127A
:100FC30001387297031201380898031201381E98EA
:100FD30003120138989803120138EE98031201386E
:100FE3002C9903120138899903120138069A0312C6
:100FF30001380F9A031201381B9A031201382E9AF3
:10100300031201386A9A03120138809A03120138D5
:10101300DF9A03120138ADFB01120138BAFB01124A
:101023000138D4FB0112013813FC0112013851FCC1
:1010330001120138B6FC01120138CBFC0112013850
:10104300D6FC01120138E3FC01120138FAFC01124B
:10105300013808FD0112013813FD011201381FFD8B
:10106300011201382EFD0112013839FD0112013838
:101073005CFD0112013805FE0112013815FE011253
:1010830001382FFE011201384CFE0112013868FEAF
:10109300011201388DFE0112013897FE0112013849
:1010A300ABFE01120138CAFE011201382BFF0112F7
:1010B300013831FF0112013837FF011201383DFFBA
:1010C3000112013849FF011201387CFF0112013876
:1010D300D48D02120138568E02120138FF8E02128D
:1010E30001384790021201385592021201383B939E
:1010F30002120138709302120138929302120138DE
:101103003B94021201380B960212013834960212F4
:101113000138AC9602120138DE9602120138EB96C2
:10112300021201383697021201385A970212013817
:10113300AB9902120138B59A02120138119B0212BF
:101143000138DAC201120138EBC301120138CFC4EE
:1011530001120138D9C401120138FBC4011201384C
:1011630007C501120138ABC601120138D8C60112F6
:101173000138EEC70112013843C80112013892C980
:101183000112013867CA01120138C3CA01120138BA
:101193002ECB0112013863CB01120138A6CB011209
:1011A300013870CE0112013888CE0112013819CFEF
:1011B3000112013827CF0112013874CF011201380F
:1011C30082CF01120138EECF0112013869D001122A
:1011D3000138C0D00112013851B40212013873B47E
:1011E3000212013884B60212013843B902120138DF
:1011F3006DBA021201382BBB0212013817BC02125E
:101203000138BCB303120138E1B30312013857B4F8
:10121300031201388BE70212013894E702120138F6
:101223009DE70212013875E80212013826EA02121C
:10123300013856EA0212013881EA02120138B1EA92
:1012430002120138DCEA0212013810EB02120138F3
:101253003CEB021201387FEB02120138AAEB0212B7
:101263000138F1EB0212013846EC0212013888EC26
:1012730002120138E2EC021201380DED02120138BC
:101283005CED021201388CED02120138B7ED021247
:101293000138E5ED0212013808EE021201385BC293
:1012A3000312013887C203120138B4C20312013892
:1012B300BEC203120138CEC20312013832C3031275
:1012C3000138C57F00120138B3C303120138E9C3E3
:1012D3000312013811C403E066701008A3E06670BE
:1012E3000A08A3E066700408A3E06622C3E7960831
:1012F30009E7960809E7960809E79622C3E09608E6
:10130300A3E09608A3E09608A3E09622C008C3E0F2
:1013130096F50808A3E096420808A3E09642080859
:10132300A3E09645087001D3D00822080808EAC054
:10133300E0EBC0E086F0E7A4FA180986F0E7A42AF8
:10134300FA180986F0E7A42AFA180986F0E7A42A0E
:10135300FA1986F0E7A4FBE5F02AFA190886F0E704
:10136300A42BFBE5F03AFA190886F0E7A42BFBE57A
:10137300F03AFA18180986F0E7A4C5F02BFBE43A13
:10138300FA1908E7C5F0C6A426F6E5F03BFBE43AF4
:10139300FA1886F0E7A4F6E5F00826F6E43B08F62B
:1013A300E43A08F6D0E0FBD0E0FA22E4CFC0E0E470
:1013B300CEC0E0E4CDC0E0E4CCC0E075F020C3E6ED
:1013C30033F608E633F608E633F608E633F618187C
:1013D30018EC33FCED33FDEE33FEEF33FFC3EC9734
:1013E30009ED9709EE9709EF97191919400FFFECCB
:1013F30097FC09ED97FD09EE97FE191906D5F0BE86
:10140300ECF709EDF709EEF709EFF7191919D0E031
:10141300FCD0E0FDD0E0FED0E0FF22601608080813
:10142300C6C313C618C613C618C613C618C613C632
:10143300D5E0EA227009080808226016181818C6B1
:10144300C333C608C633C608C633C608C633C6D5B3
:10145300E0EA22E627F60809E637F60809E637F652
:101463000809E637F622E026F608A3E036F608A3D5
:10147300E036F608A3E036F622E026F008A3E036CD
:10148300F008A3E036F008A3E036F022C3E697F6AF
:101493000809E697F60809E697F60809E697F6229B
:1014A300C3E096F008A3E096F008A3E096F008A343
:1014B300E096F022E056F608A3E056F608A3E056BD
:1014C300F608A3E056F622E056F008A3E056F0082B
:1014D300A3E056F008A3E056F022E0F608A3E0F6F6
:1014E30008A3E0F608A3E0F622E6F008A3E6F00876
:1014F300A3E6F008A3E6F022E0FAA3E0FBA3E0FCF6
:10150300A3E0FD22EAF0A3EBF0A3ECF0A3EDF022BD
:10151300CAC0E0E6F0A308DAFAD0E0FA22CAC0E0D3
:10152300E0A3C582CCC582C583CDC583F0A3C582A4
:10153300CCC582C583CDC583DAE6D0E0CA22C3E435
:1015430098F8E499F91215828026C3E49AFAE49B89
:10155300FBE920E7E9121582E498F8E499F922C33C
:10156300E498F8E499F9121582E498F8E499F9C338
:10157300E49AFAE49BFB22EB20E7CFE920E7E0B90A
:101583000010BB0008E88AF084F8AAF022E4FBC844
:10159300FA22EB70227B10C833C8C933C933500712
:1015A300C39AC3DBF280069A50012ADBEAC833F4FC
:1015B300C8C933F4C9FA2275F008E4C833C8C9337B
:1015C300C933C99AC99B5004C92AC93BD5F0ECFB5E
:1015D300C833F4C8E4C9FA22600D08C6A2E713C6EB
:1015E30018C613C6D5E0F322600C08C6C313C61889
:1015F300C613C6D5E0F422700422600D18C6C333A7
:10160300C608C633C6D5E0F41822251810AF08F56E
:1016130018400215198008F51840021519D2AF2297
:10162300C0D0251810AF08F518500205198008F529
:101633001850020519D2AFD0D0222518F58210AF69
:1016430008F518400215198008F51840021519D23B
:10165300AF851983222518F582E43519F58322E431
:10166300732518C582C0E0E51934FFC583C0E0E5E2
:1016730018C3958224F810AF0885831985821880D2
:1016830008858319858218D2AFCEF0A3E520F0A395
:101693007808E608F0A3DEFAEFF0A3E58124FAF870
:1016A300E608F0A3E608F0A3E608F0A30808E608B6
:1016B300F0A3E608F0A315811581D0E0FED0E0F891
:1016C300158115811581E8C0E0EEC0E0222518C51B
:1016D30082C0E0E51934FFC583C0E0E518C39582F5
:1016E30024F910AF0885831985821880088583192A
:1016F300858218D2AFCEF0A3E520F0A37808E608E0
:10170300F0A3DEFAEFF0A3E58124FBF8E608F0A3EB
:10171300E608F0A30808E608F0A3E608F0A315819D
:101723001581D0E0FED0E0F815811581E8C0E0EE28
:10173300C0E022851983851882E0A3FEE0A3F5208B
:101743007808E0A3F608DFFAE0A3FFE0A3C0E0E037
:10175300A3C0E0E0A3C0E0E0A3C0E0E0A3C0E010CA
:10176300AF088582188583198008858218858319B7
:10177300D2AFD083D082020135851983851882E0E8
:10178300A3FEE0A3F5207808E0A3F608DFFAE0A3C0
:10179300FFE0A3C0E0E0A3C0E0E0A3C0E0E0A3C09B
:1017A300E010AF0885821885831980088582188523
:1017B3008319D2AFD083D08222C0D02518C582C06E
:1017C300E0E51934FFC583C0E0E518C3958224F32F
:1017D30010AF08858319858218800885831985824F
:1017E30018D2AFC8F0A3E9F0A3EAF0A3EBF0A37912
:1017F30008E709F0A3D8FAECF0A3EDF0A3EEF0A309
:10180300EFF0A3D0E0F0A3D0E0F0A3D0E0F0A3E5A5
:1018130020F0A3E5F0F0A322851983851882E0C0A8
:10182300E0A3E0F9A3E0FAA3E0FBA37808E0F6085D
:10183300A3DFFAE0FCA3E0FDA3E0FEA3E0FFA3E047
:10184300C0E0A3E0C0E0A3E0F5D0A3E0F520A3E06F
:10185300A3F5F010AF088583198582188008858366
:1018630019858218D2AFD082D083D0E0F8D0E0328D
:1018730074048006740280027401C0E0F40412163A
:101883003DD0E0121513227404800474028000CC4E
:10189300C0E0EDC0E0E518C39CCCAD1950011D10AC
:1018A300AF068C188D1980068C188D19D2AF1215BE
:1018B30020D0E0FDD0E0FC22D083D082E9C0E0E478
:1018C30093A3C386F0C5F095F0F908E493A386F0DB
:1018D300C5F095F0700BE493A3C3994005E9048028
:1018E30002A3E475F002A42582F582E5F03583F5C1
:1018F30083D0E0F9E493A3C0E0E493C0E022D08373
:10190300D082ECC0E0EDC0E0E493A3FCE493A3FD3C
:10191300ED4C600D12194DEC24FFFCED34FFFD80FE
:10192300EFE493A3FCE493A3FDED4C600D12198C3B
:10193300EC24FFFCED34FFFD80EFD0E0FDD0E0FCB4
:10194300E493A3C0E0E493C0E022C0E0C3E4939631
:10195300087401939618400FE493667008087401A5
:1019630093661870007019A3A3C3E49396087401D7
:10197300939618A3A3400DD0E0D0E0D0E002193D28
:10198300A3A3A3A3A3A3D0E022C0E0C0F088F0E404
:10199300936670080874019366187000A8F0A3A3F7
:1019A300700BD0F0D0E0D0E0D0E002193DA3A3D07B
:0419B300F0D0E0226E
:1019B800C0E074F21217BCA2AFE433FED2AFC2C0CB
:1019C800E5D1A2E4500653D1EF120692751A00EE43
:1019D800F8EEA2E092AF7F0102181BC0E074F21289
:1019E80017BCA2AFE433FED2AFE589A2E1500312DF
:1019F8000614758900C2C5751A00EEF8EEA2E092C9
:101A0800AF7F0102181BC0E074F21217BCA2AFE44A
:101A180033FED2AFE58BA2E05003120614758B009B
:101A2800C2E8751A00EEF8EEA2E092AF7F01021844
:101A38001BC0E0C0D0E8C0E0E9C0E0A2AFE433F8E2
:101A4800D2AFC2C7751A00E8F9E8A2E092AFD0E0B9
:101A5800F9D0E0F8D0D0D0E032C0E0C0D0E8C0E0A3
:101A6800E9C0E0C082C083A2AFE433F8D2AF758A80
:101A780000C2EB9003917401F0751A00E8F9E8A22E
:101A8800E092AFD083D082D0E0F9D0E0F8D0D0D0C7
:101A9800E032C0E0C0D0E8C0E0E9C0E0C008C0095A
:101AA800C082C083A2AFE433F9D2AF900515E0F845
:101AB800900516E068700B539AF79005177401F0BB
:101AC8008031C2EA900515E0F508740125089005F3
:101AD80015F075090074952508F58274043509F523
:101AE80083E0F5F9900515E0C3948040069005154C
:101AF8007400F0E9F8E9A2E092AFD083D082D0096F
:101B0800D008D0E0F9D0E0F8D0D0D0E032C0E0C0C2
:101B1800D0E8C0E0E9C0E0EAC0E0EBC0E0C082C0C5
:101B280083A2AFE433FAD2AFE5C1FBC0E090059CD5
:101B3800E0F87900741B28F582740539F583D0E044
:101B4800F090059BE0F890059CE0687006E595909C
:101B5800059EF090059CE0240190059CF0C39480BC
:101B6800400690059C7400F090059D7400F0EAF81A
:101B7800EAA2E092AFD083D082D0E0FBD0E0FAD0E6
:101B8800E0F9D0E0F8D0D0D0E032C0E0C0D0E8C072
:101B9800E0E9C0E0C008C009C082C083A2AFE43356
:101BA800F9D2AF90061FE0F8900620E068700B535A
:101BB8009AFB9006217401F08031C2E990061FE07B
:101BC800F5087401250890061FF0750900749F2513
:101BD80008F58274053509F583E0F5C190061FE024
:101BE800C39480400690061F7400F0E9F8E9A2E06B
:101BF80092AFD083D082D009D008D0E0F9D0E0F8F5
:101C0800D0D0D0E03274F51216D0EAFEEBFFEE2405
:101C180034F8EF3400F988088909EE2435F582EFA5
:101C28003400F583E0F8EE2437F582EF3400F583CD
:101C3800E0F50AEC850AF0A4FCAAF0850AF0EDA408
:101C48002AFDE82CF8E43DF97A257B00121582EA92
:101C5800850882850983F05407F87401B80002806A
:101C680004C333D8FCC0E0E0131313541FF8EE2864
:101C7800F8EF3400F9E8245DF582E93400F583D003
:101C8800E0F8E0586008EE2434F582EF801EEE2478
:101C980036F582EF3400F583E0F5F0EA84A8F0EE3B
:101CA80028F8EF3400F9E82438F582E93400F583A0
:101CB800E0F97F0402177C74F51216D0EAFEEBFFF8
:101CC800EE2434F582EF3400F583E0C0E0EE2435ED
:101CD800F582EF3400F583D0E0F08E828F83A3A3E2
:101CE800A3A3A3A3A3C082C0838E828F83A3A3A32D
:101CF800A3A3E0F8A3E0F9D083D082E0C398F50865
:101D0800A3E099F509EE2480F582EF3400F583E02D
:101D180064017069EE2481F582EF3400F583E0F800
:101D2800A3E0F98E828F83A3A3A3A3A3A3A3E0FCBC
:101D3800A3E0FD8E828F83A3A3A3A3A3E0FAA3E06D
:101D4800FBC3EA9CEB9D5027C3EC98ED99402EC34A
:101D5800EA98EB9950277CB57D09EEFAEFFB120E55
:101D6800B4EE2480F582EF3400F583E4F0800EC3EE
:101D7800EA98EB9940E0C3EC98ED9950D9EE2434F9
:101D8800F8EF3400F9E8FCE9FDEE2435F582EF348C
:101D980000F583E0F8EE2437F582EF3400F583E0B0
:101DA800F50AE508850AF0A4F508AAF0850AF0E521
:101DB80009A42AF509E82508F8E43509F97A257B04
:101DC80000121582EA8C828D83F05407F87401B8EA
:101DD80000028004C333D8FCC0E0E0131313541F7F
:101DE800F8EE28F8EF3400F9E8245DF582E93400CC
:101DF800F583D0E0F8E0586008EE2434F582EF80EF
:101E08001EEE2436F582EF3400F583E0F5F0EA841F
:101E1800A8F0EE28F8EF3400F9E82438F582E93420
:101E280000F583E0F91226B9021CBAC082C0838586
:101E38001882851983E0F8A3E0F9C3EA9CEB9D506A
:101E480012C3EC98ED994019C3EA98EB99501279AE
:101E5800018010C3EA98EB9940F5C3EC98ED9950CE
:101E6800EE7900D083D08222EAC39CFAEB9DFB2254
:101E78008521878522C622C0E0C0D0E8C0E0E9C03D
:101E8800E0EAC0E0EBC0E0ECC0E0EDC0E0C008C0B4
:101E980009C00AC00BC082C083C0F0759B00906166
:101EA80082E0A2E64003021F5DE591A2E64003023C
:101EB8001F5D7591BF90087AE064057008120FECF9
:101EC800120FF88003120FF2752100121052E990D8
:101ED800087BF07900121046120E2A7A017B0090D6
:101EE8000879E0F91203F8907803E064426003028D
:101EF8001FA6900A17E014F06003021FA6C2AF12D3
:101F08001F0A00782AD0E0F618D0E0F6E59F5407BB
:101F1800F970059086B180039086AD78081214DDBB
:101F2800E9C4C0E07829E65508F50808E65509F53A
:101F380009740B78081215EBD0E02508F890627048
:101F4800E0A2E740F8E8C333906272F0906270E074
:101F5800D2E0F08049E0A2E55024E591A2E5501EC8
:101F68007591DF90087AE0640D701390089CE00486
:101F7800F064287002E4F07A00E0F91210C490616D
:101F880081E0A2E35009E5E9A2E3500375E9F7A36C
:101F9800E0A2E75009E591A2E7500375917FD0F0E0
:101FA800D083D082D00BD00AD009D008D0E0FDD0A1
:101FB800E0FCD0E0FBD0E0FAD0E0F9D0E0F8D0D0F7
:101FC800D0E032C0E0C0D0C082C083906183E0A27C
:101FD800E05009E5BFA2E0500375BFFEE0A2E15062
:101FE80009E5BFA2E1500375BFFDE0A2E25009E593
:101FF800BFA2E2500375BFFBE0A2E35009E5BFA210
:10200800E3500375BFF7E0A2E45009E5BFA2E4502E
:102018000375BFEFE0A2E55009E5BFA2E5500375DF
:10202800BFDFE0A2E65009E5BFA2E6500375BFBFD7
:10203800D083D0828088C0E0C0D0E8C0E0E9C0E0AA
:10204800EAC0E0EBC0E0ECC0E0EDC0E0C0F0E5A71E
:10205800A2E6500FE5A1A2E6500953A7BF75A1BF9C
:102068001220A3E5A7A2E5500CE5A1A2E55006536E
:10207800A7DF75A1DFE5A7A2E15009E5A1A2E1501C
:102088000375A1FDE5A7A2E2500CE5A1A2E2500666
:1020980053A7FB75A1FBD0F0021FB474F81216D039
:1020A80075210190087AE064067015120F808A8203
:1020B8008B83A3A3A3A3A3A3E0FAA3E0FB120FDAE5
:1020C800A2AFE433FED2AF900880E0640170187AC2
:1020D800207B00900879E0F91204887A207B009030
:1020E8000879E0F91203FE906182E0D2E6F0900AE6
:1020F80016E0602185C622801690087FE064017092
:1021080008E5C654F84405F5C653BEFC121E78749B
:1021180001652160E4EEA2E092AF7F0102177C0026
:102128008E238F24858228858327851882851983A5
:10213800E0CEA3E0CF852882852783EBC9EAC8EDE6
:10214800CBECCA75F010C3E833C8E933C9EA33CA1F
:10215800EB33CBC3EA9EF526EB9FF525B35004ABD2
:1021680025AA26EC33CCED33CDD5F0DAAE23AF2457
:102178002274EB1216D074FA12160D8A088B098C89
:10218800148D1590087AE024F7C3940550069086BC
:10219800F50222DB120F808A0A8B0BAE0AAF0BEE18
:1021A8004F70030222D8AC08AD09851882851983BF
:1021B800AA82AB8312100A8E828F83A3A378081297
:1021C80014DD90872578081214B78518828519833D
:1021D800780C1214DD908725780C1214B7780879DA
:1021E8000C1212EF501F7808790C12148F9086FD8C
:1021F800780812130F4047850810850911850A12BF
:10220800850B138041850C10850D11850E12850FE5
:10221800137810790812148F9086FD781012130F16
:10222800501C751000751100751200751301781097
:10223800790C12148F781079081214568008908639
:10224800F578101214DD7409781012143790873954
:1022580078081214DD781079081213AE8E828F83F5
:10226800A3A3A3A3A3A3E0F8A3E0F97AD07B031266
:10227800158288088909E4F50AF50B78107908129F
:1022880014567404121658E0F8A3E0F97AD07B03C8
:10229800121582E8FA8A08E4F5097810790812120A
:1022A800EF50077810790812148F90087AE06408C4
:1022B800600AE064066005E06405701C9086B578E5
:1022C8001012130F50129086C978101214698008E2
:1022D80090874178101214DD851482851583781053
:1022E8001214EC74061216237F0E02177C74F71270
:1022F80016D012101C900A14E06401701090624508
:10230800E4F0A3F053F4F343FE0C5390F3120FC818
:10231800E5C654804449F5C6E59E547F644970F883
:10232800906185740FF0900A12E0F47002A3E060E7
:102338004E900A13E0600814601B14602E804075EC
:102348000801750900900A12E078081215FAE508E4
:10235800F45280802A750801750900900A12E07805
:10236800081215FAE508F4529080147508017509E9
:1023780000900A12E078081215FAE508F452A079DC
:10238800007F0202177C74F71216D0E9FEEAFF7488
:10239800016E700C7A807B00900879E0F91203F8DE
:1023A8009026C8E493F46008E493F9120E1E80099D
:1023B80053C680E59E547F70FA120FCE900A14E03F
:1023C80064017003120E36900A12E0F47002A3E062
:1023D800604B900A13E0600814601A14602C803D6A
:1023E800750801750900900A12E078081215FAE5D7
:1023F8000842808028750801750900900A12E07863
:10240800081215FAE508429080137508017509004D
:10241800900A12E078081215FAE50842A012101C7A
:10242800120F808A088B09A808A909E8496015E5F0
:10243800E170FCE82414F582E93400F583E0F460E7
:1024480003E0F5E174016F700A7A01900879E0F908
:1024580012045202238974F11216D08A088B098C4F
:102468000A8D0B740F121658780C1214DD908725FC
:1024780078081214B7908725780C1214B778087961
:102488000C1212EF50157808790C12148F9086FDF3
:10249800780812130F401579018013780C79081207
:1024A800148F9086FD780C12130F40EB79007F088B
:1024B80002177C74ED1216D08A088B098C0A8D0BD2
:1024C8007413121658780C1214DD908725780812A8
:1024D80014B7908725780C1214B7780C7908121263
:1024E800EF40117808790C12148FAA08AB09AC0ACE
:1024F800AD0B80227510007511007512007513015F
:102508007810790C12148F78107908121456AA10C2
:10251800AB11AC12AD137F0C02177C90872578089D
:102528001214DD8A828B8378081214CA7F0402177A
:102538007C74F51216D08C828D8378081214DD8A8B
:10254800828B8378081214A3EA2404F8EB3400F988
:102558008C828D83A3A3A3A3E0FCA3E0FD888289DA
:1025680083C3E09CF0A3E09DF088828983C3E09454
:1025780020A3E0944E40229086ED78081214DD8A5C
:10258800828B83780812147C8A828B83A3A3A3A3EB
:10259800E02420F0A3E0344EF0808074F51216D0C9
:1025A800E9FE9009CCE0FAA3E0FBEEC333F8E4338C
:1025B800F9742F28F582748639F583E02AF508A383
:1025C800E03BF50978081218779087011214FB127E
:1025D800212874021216238A088B098C0A8D0B7421
:1025E80010780812141EAA08AB097F0402177C741D
:1025F800F11216D08A0C8B0D8C0E8D0F740F1216DB
:1026080058E0FAA3E0FB7411121658E0F508A3E0AD
:10261800F5097413121658E0FEA3E0FF78081218A3
:1026280077EA2401F508EB3400F509E4F50AF50B1F
:10263800780C790812132E90873578081214DD78F3
:102648000C790812132EAA0CAB0DAC0EAD0F12218B
:102658002874021216238B09EA450960047A01805E
:10266800027A00EC2AFCED3400FDECF8EDF97A7101
:102678007B0212158288088909E4F50AF50B8E8217
:102688008F8378081214ECECF8EDF97A717B02125A
:1026980015828A088B09740578081215FA8E828FBC
:1026A80083A3A3A3A3E508F0A3E509F07F08021715
:0F26B8007CC082C083E9906000F0D083D0822282
:1026C800FFFFFFFFFFFFFFFF74EC12166474DA12BE
:1026D800160D890D8A128B138C0A8D0B743A1216FB
:1026E80058E0F50C908696C082C0838518828519BB
:1026F80083AC82AD83D083D08274061215208518EE
:1027080082851983AC82AD83AA12AB13A90D12047A
:10271800E2E9FEEEC3940A400302286FEEF91205BF
:1027280024E9FF900C46E06402700474018002748E
:1027380000F508780812187BAD0CEFFCEEF9AA0A30
:10274800AB0B12059674011216237C147D007900D8
:102758007412121658AA82AB831203B68A0E8B0F14
:10276800850E08850F097412121658AC82AD837A4B
:102778001075F006EEA42424F9120722E970437CB0
:102788001079FF7412121658AA82AB8312041CE93E
:1027980070307422121658AC82AD837A0475F00634
:1027A800EEA42425F9120722E9F508741212165826
:1027B800AC82AD83EFA2E0E433F9AA0AAB0B1209AD
:1027C8003EE97406121658AC82AD837A0C74702EEA
:1027D800F9120722E9707E7406121658AA82AB8392
:1027E800120518750E00E50EC394045068E50EA88E
:1027F8000E7900E875F003A4C8AAF075F000A42AC1
:10280800FA75F003E9A42AF97406121658E5822825
:10281800F508E58339F509850882850983E0F8A379
:10282800E0F9E849602B850882850983A3A3E0F5D0
:10283800107511007810121877850882850983E0D1
:10284800FCA3E0FDAA0AAB0B120B6C740212162350
:10285800E9050E8091EFA2E1500D9002B3E0F9AACC
:102868000AAB0B120B72E97404650C700F900C46DE
:10287800E064027007AA0AAB0B120590790074266F
:102888001216237F0C02173674F2121664890BEAAB
:10289800FEEBFF8C088D09750A0AE50B600C1460C5
:1028A80009146044146064022934EEFAEFFB12053F
:1028B80036E9F50AE50AC3940A5071E50845096046
:1028C8006B750C06750D00780C121877EEFCEFFD91
:1028D800AA08AB0912039E74021216238A0C8B0DE8
:1028E800850C82850D838044EEFAEFFB120530E9F2
:1028F800F50AE50AC3940A5033E5084509602DAA8C
:1029080008AB09A90A12052AE98021EEFAEFFB12A1
:10291800053CE9F50AE50AC3940A5010E50845099B
:10292800600AAA08AB09A90A12052AE9A90A7F06BA
:1029380002173674F21216648A0C8B0DE9FE7F15A5
:1029480074FF650C700474FF650D702A750800E546
:1029580008C3940A5014EEFC7A027B00A9081205F9
:1029680006E960027F00050880E5EE60637A7E7BF9
:1029780005120D6A805AAA0CAB0D120D4C8A0A8BEF
:102988000B850A08850B09E508450960417C007D2F
:1029980000E5082405FAE5093400FB850882850965
:1029A80083A3A3A3A3E0F91204E2E9F50AE50AC3A5
:1029B800940A500EEEFC7A027B00A90A120506E979
:1029C8007F00EE600BAA08AB0912057E80027F1417
:1029D800EFF97F0602173674EE1216648A0E8B0F13
:1029E8008C0A8D0B7412121658E0F50CA3E0F50D45
:1029F80075081574FF650E700474FF650F701E7EF0
:102A080000EEC3940A5062AC0CAD0DAA0AAB0BEEF3
:102A1800F912050CE960037508000E80E4AA0EABF4
:102A28000F120D4C8A108B11AE10AF11EE4F60369D
:102A38007C007D00EE2405FAEF3400FB8E828F8344
:102A4800A3A3A3A3E0F91204E2E9F509E509C394F5
:102A58000A5016AC0CAD0DAA0AAB0BA90912050C4D
:102A6800E97508008003750814A9087F0A0217365B
:102A780074F7121664EAFEEBFF9002CDEEF0A3EFB6
:102A8800F09002B3E0FC7D007A257B001208B4E9DF
:102A9800F5089002B3E0F9120B007F0102173674B3
:102AA800EE1216648A108B11E9FE74121216587809
:102AB8000C1214DD7F00EE7041850C08850D098528
:102AC8000E0A850F0B908701780C1214DD780879AF
:102AD8000C1213AE7810121877AA0CAB0DAC0EAD11
:102AE8000F1209507402121623E9FFEF60167901DC
:102AF800AA10AB1112094AE9800AEEF9AA10AB1123
:102B080012094AE9EFF97F0A02173674EE121664C1
:102B180074EC12160D8A0A8B0B850A82850B83A327
:102B2800A3E024FA700302304C24FD7003022EC285
:102B3800147003022C0614601024FD7003022E6A20
:102B4800147003022F0202306FAE0AAF0B9002CD51
:102B5800E0F8A3E0F9E84960699002CDE0F8A3E065
:102B6800F5838882E0F8A3E0F9E8496055EE240C83
:102B7800F582EF3400F583E0F508780812187BEE4B
:102B8800240BF582EF3400F583E0F98E828F83A35E
:102B9800A3A3A3A3A3A3A3A3E0FCA3E0FDEE2403A4
:102BA800FAEF3400FB9002CDE0F8A3E0F5838882C9
:102BB800E0F8A3E0F58388821216627401121623E6
:102BC80080398E828F83A3A3A3A3A3A3A3A3A31255
:102BD800188E9002C91214FB12095074021216239F
:102BE800E9601879018E828F83A3A3A3A3A3A3A36B
:102BF800A3A3E0FAA3E0FB12094AE902306FAE0A88
:102C0800AF0B8E828F83A3E06003022E188E828F13
:102C180083A3A3A3A3A3E0A2E04003022E187C0E83
:102C28007D007900851882851983AA82AB831203F7
:102C3800B68A088B09AA08AB098E828F83A3A3A33F
:102C4800A3A3A3A3A3E0F8A3E0F9E849603D7508AE
:102C58000675090078081218778E828F83A3A3A3BC
:102C6800A3A3A3A3A3E02410FCA3E03400FD7402F3
:102C7800121658AA82AB8312039E74021216238A74
:102C8800088B0985088285098380548E828F83A3E7
:102C9800A3A3E0FAA3E0FB120D4C8A0C8B0D850C64
:102CA80008850D09E50845096032750C06750D00A3
:102CB800780C121877E5082405FCE5093400FD7442
:102CC80002121658AA82AB8312039E7402121623AC
:102CD8008A0C8B0D850C82850D83800302306F8EE4
:102CE800828F83A3A3A3A3A3E0A2E25004D2F0801F
:102CF80002C2F0A2F0E433F87900740C121658E01E
:102D080048F0A3E049F08E828F83A3A3A3A3A3A3D3
:102D1800A3A3A3A3E0F8A3E0F9E84960238E828F78
:102D280083A3A3A3A3A3A3A3A3A3A3E0F8A3E0C897
:102D38002410F582E83400F583780C1214DD800C39
:102D4800750CFF750DFF750EFF750FFF8E828F8353
:102D5800A3A3A3A3A3A3A3A3A3A3E0F8A3E0F9E8D1
:102D68004960178E828F83A3A3A3A3A3A3A3A3A3BE
:102D7800A3E0F508A3E0F5098006750800750900C9
:102D88008E828F83A3A3A3A3A3A3A3A3E0F8A3E0A6
:102D9800F9E84960158E828F83A3A3A3A3A3A3A3F5
:102DA800A3E0F510A3E0F511800675100075110079
:102DB800780C12187378081218777810121877EEB2
:102DC800240CF582EF3400F58312188E8E828F83DF
:102DD800A3A3A3A3A3A3E0FCA3E0FD740A121658BF
:102DE800AA82AB8312051E740A121623E9F5088E0F
:102DF800828F83A3A3A3E0F8A3E0F990035DE8F032
:102E0800A3E9F07A017B009002B3E0F91203F8E934
:102E18009002CDE0F8A3E0F9E84960439002CDE0E4
:102E2800F8A3E0F5838882A3A3E0F8A3E0F9E849D2
:102E3800602D8E828F83A3E0FC79018E828F83A31D
:102E4800A3A3E0FAA3E0FB9002CDE0F8A3E0F583AA
:102E58008882A3A3E0F8A3E0F583888212166202B1
:102E6800306FAE0AAF0B9002CDE0F8A3E0F9E84965
:102E780060459002CDE0F8A3E0F5838882A3A3E043
:102E8800F8A3E0F9E849602F850A82850B83A3E05F
:102E9800FC79028E828F83A3A3A3E0FAA3E0FB90C0
:102EA80002CDE0F8A3E0F5838882A3A3E0F8A3E0CD
:102EB800F583888212166202306FAE0AAF0B7C006F
:102EC8007D00EE2404FAEF3400FB8E828F83A3A3E7
:102ED800A3E0F91204E2E9F508E508C3940A5017DB
:102EE800EE240AFCEF3400FD7A0475F006E508A428
:102EF8002425F912071CE902306FAE0AAF0B9002C5
:102F0800C8E06018900C47E0F98E828F83A3A3A3D2
:102F1800E0FAA3E0FB12094AE902306F900C46E0A0
:102F2800701579058E828F83A3A3A3E0FAA3E0FB33
:102F380012094AE902306F8E828F83A3A3A3E0FAB5
:102F4800A3E0FB120D4C8A0C8B0D850C08850D092E
:102F58008E828F83A3A3A3A3A3A3A3E0A2E05075AB
:102F6800E5084509606C850882850983A3A3A3A3A6
:102F7800E060628E828F83A3A3A3A3A3A3A3A3A3CA
:102F8800E0F8A3E0F9E8C4540FF879005401F8E92F
:102F98005400F9E8A2E0403D740E121658AC82AD18
:102FA80083E5082405FAE5093400FB8508828509CC
:102FB80083A3A3A3A3E0F91204E2E9701879038EAE
:102FC800828F83A3A3A3E0FAA3E0FB12094AE902D4
:102FD800306F02306FEE2405FCEF3400FD85088267
:102FE800850983A3A3A3A3E0F98E828F83A3A3A358
:102FF800E0FAA3E0FB12058A9002CDE0F8A3E0F91D
:10300800E84960639002CDE0F8A3E0F5838882A3E5
:10301800A3E0F8A3E0F9E849604D7C0079008E82CE
:103028008F83A3A3A3E0FAA3E0FB9002CDE0F8A36B
:10303800E0F5838882A3A3E0F8A3E0F583888212F1
:1030480016628023120A16E9701D90035CE0640181
:10305800700B120554E9F890035C7400F079501273
:103068000728E9FE12054274141216237F0A021774
:103078003674F312166474F212160D8909EAFEEB1F
:10308800FF8C0C851882851983AC82AD837A0E7506
:10309800F006E509A42420F9120722E970727C06DB
:1030A80079FF851882851983AA82AB8312041CE9EB
:1030B800705E740C121658E0F8A3E0F9E8F508E51C
:1030C8000C6005EE42088004EEF4520885080A7583
:1030D8000B00740C121658E0650A7004A3E0650B27
:1030E800602AE508A8087900740C121658E508F05B
:1030F800A3E9F0851882851983AC82AD837A0E75B1
:10310800F006E509A42420F912071CE979018002D8
:103118007900740E1216237F0502173674F0121602
:103128006474E612160D890B8A0C8B0DECFEEDFF0C
:10313800740C121658AC82AD837A0E75F006E50B46
:10314800A42420F9120722E960030232887C067958
:10315800FF740C121658AA82AB8312041CE9600390
:10316800023288851882851983AC82AD837A0C7403
:1031780070250BF9120722E96003023284750A00F0
:10318800851882851983AA82AB83120518E50C4538
:103198000D703A7C0C7900851882851983AA82AB58
:1031A8008312041CE9600302325E7C0C7D00790006
:1031B800851882851983AA82AB831203B68A088B85
:1031C80009850882850983750A0102325E8518829D
:1031D800851983AC82AD83AA0CAB0D1205128A0E39
:1031E8008B0F850E08850F09E50845097036EE4FE7
:1031F8006021851882851983AC82AD837A007B00B3
:103208001205128A0E8B0FA80EA90F88088909E8E3
:103218004970047900806B850882850983E50CF084
:10322800A3E50DF0850882850983A3A3E0F879005A
:10323800EE687002EF69601EEE850882850983A337
:10324800A3F0EE4F700D8508828509837400F0A302
:103258007400F0750A01E50A6022851882851983D1
:10326800AA82AB83120518851882851983AC82ADB2
:10327800837A0C7470250BF912071CE97901800216
:103288007900741A1216237F0802173674F712167B
:1032980064EAFEEBFF7B00EBC39404504EEBF87935
:1032A80000E875F003A4C8AAF075F000A42AFA751E
:1032B800F003E9A42AF9EC28F582ED39F583E06EEC
:1032C8007003A3E06F7021EBF87900E875F003A4B0
:1032D800C8AAF075F000A42AFA75F003E9A42AF93F
:1032E800EC28FAED39FB80070B80AC7A007B007F75
:1032F8000102173674F71216647F00EFC394044076
:10330800030233ABEFF87900E875F003A4C8ACF01A
:1033180075F000A42CFC75F003E9A42CF9EA28F553
:1033280082EB39F583E0F4FCA3E0F4FDEFF87900D3
:10333800E875F003A4C8AEF075F000A42EFE75F091
:1033480003E9A42EF9EA28F582EB39F583ECF0A31A
:10335800EDF0EFF87900E875F003A4C8ACF075F06B
:1033680000A42CFC75F003E9A42CF9EA28F582EBFB
:1033780039F583A3A3E0F4C0E0EFF87900E875F02D
:1033880003A4C8ACF075F000A42CFC75F003E9A404
:103398002CF9EA28F582EB39F583A3A3D0E0F00FE6
:1033A8000233037F0102173674EA12166474F412AA
:1033B800160DEAFEEBFF8C108D117422121658E0E0
:1033C800F50EA3E0F50F7424121658E0F50CA3E0EF
:1033D800F50D7426121658E0F50AA3E0F50BEE4F2A
:1033E8007005790A023526EEFAEFFB120536E9F583
:1033F80008E508C3940A4006120548E9F508E508F7
:10340800C3940A4003023524EEFCEFFD7A0E75F0F2
:1034180006E508A42420F912071CE9F8E51045116F
:103428006013AC10AD117A1B75F006E508A42421D1
:10343800F912071CE9E50E450F6013AC0EAD0F7AC3
:103448001B75F006E508A42422F912071CE9E50C0F
:10345800450D6013AC0CAD0D7A1075F006E508A4A7
:103468002423F912071CE9E50A450B602DAC0AADC7
:103478000B7A1075F006E508A42424F912071CE954
:10348800F5097428121658AC82AD837A0475F006D3
:10349800E508A42425F912071CE97C0C7D0079FFB6
:1034A800851882851983AA82AB831203B68A128B88
:1034B80013851214851315851882851983AC82AD7E
:1034C800837A0C74702508F912071CE9F50975123E
:1034D8000E7513007812121877EEFCEFFDE508A8B8
:1034E800087900E875F00EA4C8AAF075F000A42ABF
:1034F800FA75F00EE9A42AF974CF28FA740239FB98
:1035080012039E74021216238A128B13A812A9138F
:1035180090035BE0600312059C120584A908740CF3
:103528001216237F0E02173674F712166474F212FD
:10353800160DE9FE851882851983AC82AD837A0E53
:1035480075F006A42420F9120722E9700E740C12F3
:103558001658E0F8A3E0F9E8F980027900740E1231
:1035680016237F0102173674F412166474F21216C9
:103578000D8909EAFEEBFFE509C3940A5004EE4FF2
:1035880070047902804B851882851983AC82AD83DB
:103598007A0E75F006E509A42420F9120722E9F548
:1035A80008E508702A750A06750B00780A1218775C
:1035B8007402121658AC82AD83EEFAEFFB12039E2A
:1035C80074021216238A0A8B0B850A82850B83A93B
:1035D80008740E1216237F0402173674F412166448
:1035E800EAFEEBFF750800E508C3940A5045750A22
:1035F80006750B00780A121877EEFCEFFDE508A8AF
:10360800087900E875F00EA4C8AAF075F000A42A9D
:10361800FA75F00EE9A42AF974D528FA740239FB70
:103628001203B07402121623E96004A90880060583
:103638000880B4790A7F0402173674F4121664EA13
:10364800FEEBFF750800E508C3940A5045750A06A5
:10365800750B00780A121877EEFCEFFDE508A8084C
:103668007900E875F00EA4C8AAF075F000A42AFA4B
:1036780075F00EE9A42AF974CF28FA740239FB12FE
:1036880003B07402121623E96004A908800605082D
:1036980080B4790A7F0402173674F712166474F03E
:1036A80012160DEAFEEBFF750800E508C3940A50F0
:1036B8004B851882851983AC82AD837A1075F00624
:1036C800E508A42423F9120722E9702C7C1079FF5D
:1036D800851882851983AA82AB8312041CE97018A5
:1036E800EEFCEFFD851882851983AA82AB83120947
:1036F80020E97004A9088006050880AE790A7410CC
:103708001216237F0102173674F412166475080026
:10371800E508C3940A40030237F2E508A8087900CF
:10372800E875F00EA4C8AAF075F000A42AFA75F09E
:103738000EE9A42AF974CF28FC740239FD7A0E75B3
:10374800F006E508A42420F9120722E970030237DD
:10375800ED7C067D0079FFE508AA087B00EA75F094
:103768000EA4CAA8F075F000A428F875F00EEBA412
:1037780028FB74CF2AFA74023BFB1203B68A0A8B21
:103788000BAE0AAF0B7C067D0079FFE508AA087B23
:1037980000EA75F00EA4CAA8F075F000A428F87520
:1037A800F00EEBA428FB74D52AFA74023BFB120333
:1037B800B68A0A8B0BAC0AAD0BE508A8087900E8B5
:1037C80075F00EA4C8AAF075F000A42AFA75F00ED8
:1037D800E9A42AF974DB28F582740239F5837400A8
:1037E800F0A37400F0050802371890035BE060034B
:1037F80012059C1205847F0402173674F7121664AA
:103808007E00EEC3940A50327C0679FFEEFA7B0004
:10381800EA75F00EA4CAA8F075F000A428F875F0AF
:103828000EEBA428FB74CF2AFA74023BFB12041C8B
:10383800E96004EEF980050E80C8790A7F01021755
:103848003674F71216647E007F00EFC3940A502F77
:103858007C0679FFEFFA7B00EA75F00EA4CAA8F09F
:1038680075F000A428F875F00EEBA428FB74CF2A95
:10387800FA74023BFB12041CE970010E0F80CBEEB8
:10388800F97F0102173674F71216647E007F00EF85
:10389800C3940A500DEE700AEFF912055AE9FE0FAB
:1038A80080EDEEF97F0102173674EE12166474CBC0
:1038B80012160DE9FE7427121658AC82AD837A0EE3
:1038C80075F006EEA42420F9120722E960030239F4
:1038D800F27C0679FF7427121658AA82AB83120469
:1038E8001CE960030239F27C0E7D0079FF7427120F
:1038F8001658AA82AB831203B68A0A8B0B850A0E66
:10390800850B0F7C1B7D0079FF740C121658AA8258
:10391800AB831203B68A0A8B0B850A0C850B0D7CC8
:103928000C7D0079FF851882851983AA82AB8312E2
:1039380003B68A108B1185100A85110B742712168D
:1039480058AC82AD837A0E75F006EEA42420F912E5
:10395800071CE9F508740C121658AC82AD837A1B63
:1039680075F006EEA42421F912071CE94208740C2C
:10397800121658AC82AD837A1B75F006EEA4242289
:10398800F912071CE94208740C121658AC82AD8370
:103998007A1075F006EEA42423F912071CE94208F0
:1039A800740C121658AC82AD837A1075F006EEA42A
:1039B8002424F912071CE94208740C121658AC8228
:1039C800AD837A0475F006EEA42425F912071CE9E4
:1039D8004208851882851983AC82AD837A0C74708D
:1039E8002EF912071CE942088003750800A908741B
:1039F800351216237F0A02173674F7121664E9FE89
:103A08009002B3F01205427F0102173674F21216C3
:103A180064890A8A088B09E5085400F8E509548086
:103A2800F9E84960339002B3E0F91203E08A0C8B9D
:103A38000DA80CA90DE8FEE9FFE849600FEEFAEFC2
:103A4800FB12056CEEFAEFFB1203CEE9E508640001
:103A5800FAE5096480FB8021E508A2E0501790038D
:103A68005DE0FAA3E0FB1205A2E5086401FAE509A6
:103A78006400FB80047A007B007F0602173674F727
:103A8800121664EAFEEBFF8E828F83E024506010EA
:103A980014601624E17019EEFAEFFB12050080108D
:103AA800EEFAEFFB1205728007EEFAEFFB120578CB
:103AB8007F0102173674F7121664EAFEEBFF8E8256
:103AC8008F83A3A3A3A3E0641E701179008E828F55
:103AD80083A3A3E0FAA3E0FB1204E8E97F0102173D
:103AE8003674F6121664EAFEEBFF8E828F83A3A368
:103AF800A3A3E0703A8E088F09850882850983A3FD
:103B0800A3A3A3A3A3A312188E850882850983A360
:103B1800A3A3A3A3E0FCA3E0FD850882850983A3F2
:103B2800A3E0FAA3E0FB1204EE7402121623E97F65
:103B38000202173674F7121664EAFEEBFF9002B31E
:103B4800E0F98E828F83A3E0FAA3E0FB120B72E9FF
:103B58007F01021736C082C08374FF12160D12054A
:103B68004EE9C39402400B8518828519837402F0CC
:103B78008009851882851983740AF0851882851949
:103B880083AC82AD837A017905120A2EE974011299
:103B98001623D083D08202013574F212166474E8B9
:103BA80012160DEAFEEBFF890A8C088D097C187D38
:103BB800007900851882851983AA82AB831203B61F
:103BC8008A0C8B0DAC0CAD0D851882851983EEF02F
:103BD800A3EFF09002B5E0C0E07402121658D0E0EE
:103BE800F09002B6E0C0E07403121658D0E0F090EE
:103BF8000C49E0C0E07417121658D0E0F0741512A2
:103C08001658E054FEF8A3E054FFF9900C48E0A2DF
:103C1800E0E433FA7B00E84AF8E94BF97415121628
:103C280058E8F0A3E9F0900C48E0A2E15004D2F083
:103C38008002C2F07415121658E054FDFAA3E0543D
:103C4800FFFBA2F0E433F87900C333F8E933F9EA6B
:103C580048F8EB49F97415121658E8F0A3E9F09002
:103C68000C48E0A2E35004D2F08002C2F0741512AE
:103C78001658E054F7FAA3E054FFFBA2F0E433F53A
:103C88000C750D007403780C1215FAEA450CF8EB64
:103C9800450DF97415121658E8F0A3E9F0900C4890
:103CA800E0A2E45004D2F08002C2F0741512165853
:103CB800E054EFFAA3E054FFFBA2F0E433F50C75EF
:103CC8000D007404780C1215FAEA450CF8EB450D52
:103CD800F97415121658E8F0A3E9F0900C48E0A220
:103CE800E55004D2F08002C2F07415121658E05460
:103CF800DFFAA3E054FFFBA2F0E433F50C750D00E6
:103D08007405780C1215FAEA450CF8EB450DF974B0
:103D180015121658E8F0A3E9F0900C48E0A2E2501A
:103D280004D2F08002C2F07415121658E054FBFA5F
:103D3800A3E054FFFBA2F0E433F50C750D00740208
:103D4800780C1215FAEA450CF8EB450DF9741512C2
:103D58001658E8F0A3E9F09002B6E0602A750C1056
:103D6800750D00780C1218777CB77D027406121650
:103D780058AA82AB8312039E74021216238A0C8BF4
:103D88000D850C82850D839002C7E06012E50A60FC
:103D98000E7415121658E04402F0A3E04400F090A7
:103DA80002C7E06006780179008004780079007421
:103DB80014121658E048F09002B4E06006780479CE
:103DC800008004780079007414121658E048F0ACAA
:103DD80008AD09851882851983AA82AB8312094424
:103DE800E974181216237F0602173674F712166440
:103DF800EAFEEBFF7508009002C7E06006780179DB
:103E080000800478007900E842089002B4E0600677
:103E180078047900800478007900E84208A908EE5F
:103E2800FAEFFB1209FEE97F0102173674EE12164B
:103E38006474E512160D8A0C8B0DE9FF8C088D0948
:103E4800742D121658E0F50A74086509700A75F0A1
:103E580006EFA42422FE800875F006EFA42421FEB4
:103E68007C1B7D007900851882851983AA82AB8323
:103E78001203B68A108B1185100E85110F851882D2
:103E8800851983AC82AD837A1BEEF9120722E9709B
:103E98003C741A121658E0C394074031741A12166B
:103EA80058E0C394115026E50AF50B780B12187BDD
:103EB8007401121658AC82AD83E508A2E0E433F928
:103EC800AA0CAB0D1209567401121623E9741B12C1
:103ED80016237F0A02173674F7121664120BCCE900
:103EE8007E00EEC3940A50557C0679FFEEFA7B00FB
:103EF800EA75F00EA4CAA8F075F000A428F875F0C9
:103F08000EEBA428FB74CF2AFA74023BFB12041CA4
:103F1800E97027EEF87900E875F00EA4C8AAF075E4
:103F2800F000A42AFA75F00EE9A42AF974CF28FA49
:103F3800740239FB7900120BD2E90E80A57F0102C9
:103F4800173674F412166474FB12160D8A088B095E
:103F5800740312165885820A85830B780A1218771B
:103F6800750A02750B00780A121877750A64750BC2
:103F780087780A1218777CFF7DFF7A017B00120A86
:103F88005874061216238A0A8B0BAE0AAF0BEE4F33
:103F98007003024054E4F50AF50B780A1218777496
:103FA8000412165885820A85830B780A12187774CA
:103FB8000412165885820A85830B780A12187774BA
:103FC8000912165812188E7902EEFCEFFDAA08ABFA
:103FD80009120B607408121623E97043851882854C
:103FE8001983E0FA7B007401121658E0F87900E4AE
:103FF800C8F9EA28F50AEB39F50BE50A450B601F05
:10400800780A1218778E828F83A3A3A3A3E0FCA358
:10401800E0FDAA08AB091204EE7402121623E9E4C3
:10402800F50AF50B780A1218777405121658121843
:104038008E7CFF7DFFEEFAEFFB120A647404121601
:10404800238A0A8B0BAE0AAF0B023F967405121631
:10405800237F04021736C082C0839061907404F0F5
:10406800A37448F0A37402F09061807440F09061EA
:10407800BC7403F09061877419F0906265741BF04A
:1040880090619C740DF090619A7433F0A37455F0AC
:104098009061A0743AF0900A14E064017009C2912A
:1040A80090087E7467800590087E7461F09026CE33
:1040B800E493906186F09026C8E493F46027E49333
:1040C800540FF8906185E0686012E5C65480444951
:1040D800F5C6E59E547F644970F8E8F053C680E55C
:1040E8009E547F70FA79051210A60242A0C082C0C1
:1040F80083E9540FF9906185E0696012E5C6548040
:104108004449F5C6E59E547F644970F8E9F053C602
:1041180080E59E547F70FA0242A0C082C083E5A861
:10412800F853A87E906181E4F0A3F0A3F0C2BA53DB
:104138009AFEC289759B00C2C275E9007591007527
:10414800BF0075A91175B905906181F0A374C0F01D
:10415800A3E4F0D2BA439A0174805842A80242A05C
:10416800C082C08374F812160D90087CE0F8A3E0B2
:10417800F9E849700302429690087CE054406023B5
:104188007908851882851983AA82AB83120F0E8558
:104198001882851983AA82AB83120BEA90087CE007
:1041A80054BFF0E054806010790C7A387B0A120F03
:1041B8000E90087CE0547FF0E0A2E0503190619AC4
:1041C8007433F0A37455F09061A0743AF0900A1417
:1041D800E064017009C29190087E746780059008B8
:1041E8007E7461F0120BF090087CE054FEF0E0540D
:1041F80002603190619A743FF0A3745AF09061A004
:10420800747FF0900A14E064017009D29190087EDE
:104218007471800590087E746AF0120BF090087C27
:10422800E054FDF0E0540460139026CCE4939061D0
:1042380086F0120BF690087CE054FBF0E05408601E
:10424800139026CDE493906186F0120BF690087CCB
:10425800E054F7F0E0541060139026CEE493906198
:1042680086F0120BF690087CE054EFF0E0542060E2
:104278000A120BF690087CE054DFF0A3E0540160CA
:104288000D120E36120BFC90087DE054FEF07408F7
:104298001216238003F0A3F0D083D0820201357474
:1042A800EC12166474F412160D851882851983AC05
:1042B80082AD8375838775821D740412152090263C
:1042C800CC93F46003024434907808E0C39402501D
:1042D800030244147404121658AC82AD83758386A5
:1042E800758286740812152085188285198385823F
:1042F800128583137404121658AC82AD83750EFFB1
:10430800750FFF7FFF7E00750C48750D788015745A
:10431800086E70030243A774096E70030243A77402
:104328000A6E607B850C82850D8378081214DD8CFB
:10433800828D83A909E50AC9F888107418780812CB
:10434800141EE5104508F8C3E098A3E099850C828F
:10435800850D8378081214DD40188C828D837418BB
:10436800780812141EE5104508F8E0C398F8A3E091
:10437800801C7418780812141EE5104508FAE9FB29
:104388008C828D83E0F8A3E0F9EAC398F8EB99F9F9
:10439800C3E8950EE9950F5006880E890FEEFF0EBB
:1043A800E50C2404F50CE50D3400F50DEEC394136B
:1043B800500302431774FF650E700474FF650F60A5
:1043C800238F08740278081215FA74482508F582B4
:1043D80074783509F58378081214DD8512828513FF
:1043E80083E508F0EC24020C0CED3400FD85128204
:1043F800851383A3858212858313740C121658E5DE
:10440800826C7003E5836D600302430575080175CE
:10441800090078081218777402121658AC82AD8316
:104428007AB37B091205EA7402121623740C121669
:10443800237F0C021736C082C0839061AE7468F087
:10444800A3746AF090624574FBF0A304F053F4FD82
:1044580043FE02900A147401F09061A0E0643A905F
:10446800619A70237433F0A37455F09061A0743A84
:10447800F0740164017009C29190087E7467802805
:1044880090087E74618021743FF0A3745AF09061A3
:10449800A0747FF0740164017009D29190087E7451
:1044A80071800590087E746A02429F7F0402173665
:1044B800C082C0839009C6E06401700A9009CBE00D
:1044C8006004790C800279000242A0C082C0837522
:1044D800E1F19009C9E0605514600814605914604E
:1044E800518059120E489009BFE0F97AC07B091231
:1044F80010289086BD1214FB12105E90872D12149E
:10450800FB1210349009CAE0F91210407901121018
:104518009A9009BDE02416F8A3E03400F98882894E
:10452800837460F0A3740EF079000242A0120E4E5C
:1045380080B4120E5480AF120E5A80AA791280EA03
:1045480074F412166475D90D9009AEE0A2E0E43354
:104558001313F89009BFE0C4333354C0484401F53D
:10456800D978BD790988828983A3A3A3E0F5D9887E
:10457800828983A3A882A983E864C37003E96409D4
:1045880070E378AE790988828983A3E0F5D98882B7
:104598008983A3A882A983E864B47003E9640970D5
:1045A800E575E1959009AEE0F97AAF7B0912102E16
:1045B800900E3D74F4F0A3740DF0A37456F0A37438
:1045C8000FF0A37456F0A3740FF0A37456F0A374FD
:1045D8000FF0A374FAF0A3740DF0A37456F0A3744B
:1045E8000FF0A37412F0A3740EF0900E4B7456F0F3
:1045F800A3740FF0A37456F0A3740FF0A37456F0CD
:10460800A3740FF0A37456F0A3740FF0A37456F0BC
:10461800A3740FF0A37456F0A3740FF09009BDE0D3
:10462800F8A3E0F5838882A3A378081214DD9086A6
:10463800F1780812146990872578081214B7900940
:10464800BDE0240EF8A3E03400F988828983780855
:104658001214EC9009BDE02414F8A3E03400F988A2
:104668008289837413F090087A7402F00244B3C00C
:1046780082C0839009CFE02407F5D99009BFE0C430
:10468800333354C0F5D978BD790988828983A3A3C7
:10469800A3E0F5D988828983A3A882A983E864C3A3
:1046A8007003E9640970E39009CFE0601F78BD7971
:1046B80009FAE82413F582E93400F583E0F5D9888E
:1046C800828983A3A882A9831AEA70E69009EFE099
:1046D8002407F5D99009BFE0C4333354C04404F526
:1046E800D978BD790988828983A3A3A3E0F5D988FD
:1046F800828983A3A882A983E864C37003E9640953
:1047080070E39009EFE0601F78BD7909FAE8243377
:10471800F582E93400F583E0F5D988828983A3A876
:1047280082A9831AEA70E675E195900E3D7400F04F
:10473800A3740EF0A37456F0A3740FF0A37456F08C
:10474800A3740FF0A37456F0A3740FF0A374FAF0D7
:10475800A3740DF0A37456F0A3740FF0A37412F0B1
:10476800A3740EF0900E4B7456F0A3740FF0A3745C
:1047780056F0A3740FF0A37456F0A3740FF0A3744B
:1047880056F0A3740FF0A37456F0A3740FF0A3743B
:1047980056F0A3740FF09086ED1214FB9009BDE05B
:1047A800240EF8A3E03400F9888289831215079053
:1047B80009BDE02414F8A3E03400F98882898374E1
:1047C80012F090087A740102429FC082C083900957
:1047D800CFE02407F5D99009BFE0C4333354C0446F
:1047E80002F5D978BD790988828983A3A3A3E0F566
:1047F800D988828983A3A882A983E864C37003E95E
:10480800640970E39009CFE0601F78BD7909FAE880
:104818002413F582E93400F583E0F5D98882898389
:10482800A3A882A9831AEA70E675E195900E3D74F3
:104838000CF0A3740EF0A3740CF0A3740EF0A37420
:104848000CF0A3740EF0A3740CF0A3740EF0A37410
:104858000CF0A3740EF0A3740CF0A3740EF0A37400
:1048680012F0A3740EF0900E4B7456F0A3740FF070
:10487800A37456F0A3740FF0A37456F0A3740FF04A
:10488800A37456F0A3740FF0A37456F0A3740FF03A
:10489800A37456F0A3740FF09086ED1214FB9009E0
:1048A800BDE0240EF8A3E03400F98882898312154C
:1048B800079009BDE02414F8A3E03400F988828940
:1048C800837414F090087A740402429FC082C083F3
:1048D8009009CFE02407F5D99009BFE0C4333354D9
:1048E800C04406F5D978BD790988828983A3A3A332
:1048F800E0F5D988828983A3A882A983E864C37074
:1049080003E9640970E39009CFE0601F78BD790975
:10491800FAE82413F582E93400F583E0F5D98882B2
:104928008983A3A882A9831AEA70E69009EFE02494
:1049380007F5D99009BFE0C4333354C04404F5D90E
:1049480078BD790988828983A3A3A3E0F5D98882F1
:104958008983A3A882A983E864C37003E964097002
:10496800E39009EFE0601F78BD7909FAE82433F590
:1049780082E93400F583E0F5D988828983A3A88287
:10498800A9831AEA70E675E195900E3D7406F0A3C6
:10499800740EF0A37456F0A3740FF0A37456F0A32A
:1049A800740FF0A37456F0A3740FF0A37456F0A319
:1049B800740FF0A37456F0A3740FF0A37412F0A34D
:1049C800740EF0900E4B7456F0A3740FF0A3745647
:1049D800F0A3740FF0A37456F0A3740FF0A37456E9
:1049E800F0A3740FF0A37456F0A3740FF0A37456D9
:1049F800F0A3740FF09086ED1214FB9009BDE0242B
:104A08000EF8A3E03400F98882898312150790090B
:104A1800BDE02414F8A3E03400F988828983741572
:104A2800F090087A740302429FC082C0839009BD47
:104A3800E0F8A3E0F5838882A3A3A3A3A3A3E402D9
:104A4800429D74F71216649008A8E0F875F004A463
:104A5800C8AAF02AF974AA28F8740839F9E82405CC
:104A6800FAE93400FB8A828B83E0FCA3E0FD8882AC
:104A78008983A3A3A3A3A3A3A3A3A3ECF0A3EDF00B
:104A880088828983A3A3A3A3A3A3A3E024FFF8A3F5
:104A9800E034FFF98A828B83E8F0A3E9024CEF74D3
:104AA800F7121664EAFEEBFF9061D0E06003024B58
:104AB8008475D90E75D90375D904EE248CF582EF67
:104AC8003400F583E5822408F8E5833400F9E0F53D
:104AD800D9A3E865827003E9658370F2EE2484F552
:104AE80082EF3400F583E5822404F8E5833400F985
:104AF800E0F5D9A3E865827003E9658370F275E192
:104B0800957908EE248CFAEF3400FB120F02790431
:104B1800EE2484FAEF3400FB120F027C00EEF8EF6B
:104B2800F9ECFAC3E49AFA95E0FBEE2AFAEF3BFBBC
:104B3800EA248BF582EB3400F583E0C0E0E824AB8F
:104B4800F582E93400F583D0E0F00C88828983A3EC
:104B5800A882A983ECC3940840C7EE2470F582EFBD
:104B68003400F583E0F8A3E0F9EE2472F582EF341F
:104B780000F583E8F0A3E9F0790180027900024C9E
:104B8800F0C082C08375D90275D90375D90575E15E
:104B980095EA2470F582EB3400F583E0F8A3E0F998
:104BA800EA2472F582EB3400F583E8F0A3E9F079A2
:104BB800010242A074F6121664EAFEEBFF900A188E
:104BC8007406F075081875090A78081218777C01B8
:104BD8007903120F4A740212162375D90675D90380
:104BE80075821875830AE0F5D9A3E582641D7004FF
:104BF800E583640A70F075E19590087AE0640870BE
:104C08001EEE2470F582EF3400F583E0F8A3E0F996
:104C1800EE2472F582EF3400F583E8F0A3E9F07929
:104C280001024DBC74F6121664EAFEEBFF9061D0E7
:104C3800E070667801900A18740BF090087AE064C6
:104C480007701975081875090A78081218777C0111
:104C58007903120F4A74021216237805740128F595
:104C6800D975D90375821875830AE8FAE0F5D9A3CE
:104C78001AEA70F875E195EE2470F582EF3400F5C4
:104C880083E0F8A3E0F9EE2472F582EF3400F583AF
:104C9800E8F0A3E9F0790180027900024DBC74F7CD
:104CA800121664EAFEEBFF75D90375D90375D90DA1
:104CB800EE24DEF582EF3400F583E0F5D975E19551
:104CC8007904121064EE2470F582EF3400F583E065
:104CD800F8A3E0F9EE2472F582EF3400F583E8F0EA
:104CE800A3E9F079018001F07F0102173674F6120A
:104CF8001664EAFEEBFF9061D0E0F87480C398FA7E
:104D0800EE2483F582EF3400F583E06004780480B4
:104D1800027800E8240BF8EAC3985003024DBA7DE4
:104D280009900A18EDF0EE24E3F8EF3400F97A1947
:104D38007B0A7C0888828983E08A828B83F0888258
:104D48008983A3A882A9838A828B83A3AA82AB833F
:104D58001CEC70E0EE2483F582EF3400F583E0600C
:104D68001D75081875090A78081218777C097903DF
:104D7800EEFAEFFB120F4A74021216237D0D74012E
:104D88002DF5D975D90375821875830A8D08E0F554
:104D9800D9A31508E50870F675E195790412106431
:104DA800EE241DF582EF3400F583E4F0A3F07901D9
:104DB800800279007F0202173674F6121664EAFE42
:104DC800EBFF9061D0E0F87480C398FAEE2483F585
:104DD80082EF3400F583E06004780480027800E80C
:104DE8002408F8EAC3985003024EC17D06900A18B9
:104DF800740CF0900897E0900A19F07A987B08787C
:104E08001A790A7C028A828B83E088828983F08AF5
:104E1800828B83A3AA82AB8388828983A3A882A971
:104E2800831CEC70E07A9A7B087C028A828B83E090
:104E380088828983F08A828B83A3AA82AB83888243
:104E48008983A3A882A9831CEC70E0EE2483F582F1
:104E5800EF3400F583E0601D75081875090A7808B5
:104E68001218777C067903EEFAEFFB120F4A7402E8
:104E78001216237D0A74012DF5D975D90375821888
:104E880075830A8D08E0F5D9A31508E50870F6754D
:104E9800E1957904121064EE2470F582EF3400F580
:104EA80083E0F8A3E0F9EE2472F582EF3400F5838D
:104EB800E8F0A3E9F0790180027900024DBC74F6AC
:104EC800121664EAFEEBFF9061D0E0F87480C39894
:104ED800FAEE2483F582EF3400F583E06004780469
:104EE80080027800E82404F8EAC3985003024FA02F
:104EF8007802900A18E8F0EE24F5F582EF3400F510
:104F080083E0900A19F0EE2483F582EF3400F583EC
:104F1800E0601B75081875090A78081218777C0272
:104F28007903EEFA120F4A740212162378067401F6
:104F380028F5D975D90375821875830A8808E0F5AC
:104F4800D9A31508E50870F675E195EE2474F58285
:104F5800EF3400F583E4F0EE2480F582EF3400F5B9
:104F680083E4F0EE241DF582EF3400F583E4F0A32A
:104F7800F07904121064EE240DF582EF3400F58305
:104F8800E0F8A3E0F9EE2472F582EF3400F583E847
:104F9800F0A3E9F0790180027900024DBC74F612A1
:104FA80016649061D0E0F87480C398FCEA2483F515
:104FB80082EB3400F583E06004780480027800E82E
:104FC8002404F8ECC398405B7902900A187407F03F
:104FD800EA24F6F582EB3400F583E0900A19F0EA4A
:104FE8002483F582EB3400F583E0601875081875A2
:104FF800090A78081218777C0209120F4A740212FB
:1050080016237906740129F5D975D903758218759F
:10501800830AE9F8E0F5D9A318E870F875E19579FD
:105028000180027900024DBC74F5121664E9FCA2F5
:10503800AFE433F50AC2AF7D0080010DEA246FF5B5
:1050480082EB3400F583E0F8EDC398501A8D08EA36
:105058002508F8EB3400F9E8246BF582E93400F50B
:1050680083E06C70D68024EA246FF8EB3400F9E012
:10507800FEEA2EFAEB3400FBEA246BF582EB3400EF
:10508800F583ECF088828983E004F0E50AA2E092D7
:10509800AF7F0302173674F6121664A2AFE433FD2D
:1050A800C2AFEA246FF582EB3400F583E014F07C9C
:1050B8000060368C08EA2508F8EB3400F9E8246C1F
:1050C800F582E93400F583E0C0E0E8246BF582E975
:1050D8003400F583D0E0F00CEA246FF582EB34005D
:1050E800F583E0F8ECC39840CAEA246EF582EB3405
:1050F80000F58374FFF0EA246AF582EB3400F58347
:10510800E4F0EDA2E092AF024DBCC082C083E5A8F6
:10511800F8C2AFEA246BF582EB3400F583E9F0EAD4
:10512800246AF582EB3400F583E4F0E8A2E792AF55
:105138000242A074F3121664EAFEEBFFECFAEDFBF0
:105148008A828B83A3A3A3A3E0541FF0EE2436F531
:1051580082EF3400F583E4F0F50AEEFCEFFD8A8275
:105168008B83E0C0E0EC245DF582ED3400F583D05C
:10517800E0F0750B00E50A33333354F8F50C8A82F6
:105188008B83E0F508750900E50B78081215DBE557
:1051980008A2E0502FEE2436F8EF3400F98882890F
:1051A80083E0F508EE2508F508EF3400F509E50871
:1051B8002438F582E5093400F583E50CF088828906
:1051C80083E004F0050B050CE50BC3940840AF051C
:1051D8000A8A828B83A3AA82AB838C828D83A3AC39
:1051E80082AD83E50AC3940550030251667F050228
:1051F800173674F71216649008A6E0640170077AEF
:10520800007B000253717E009008ACE070F17401DD
:10521800F0A3E4F0A3F090090C04F090090FE4F077
:10522800A3F090091204F09008AFE4F0A3F0A3F003
:10523800A3F09008B904F09008DFE4F090874112D9
:1052480014FB9008C21215079008C6E4F0A3F0A357
:10525800F090092AF090091EF09009137480F0A3C9
:10526800E4F0900919F0900911F0900995F0A3F075
:10527800A3F0A3F0A3F0A3F0A3F0A3F090099EF08D
:1052880090092DF090097DF0A3F09087411214FB4E
:1052980090097F1215079087411214FB9009831219
:1052A8001507900989E4F090098BF0900987F09030
:1052B80009A1F0A3F0A3F0A3F0A3F0A3F0A3F0A337
:1052C800F078A67908E8246FF582E93400F583744C
:1052D800FFF00E88828983A3A882A983EEC3940471
:1052E80040E37AA67B0878B5790988828983E0C08B
:1052F800E0EA2461F582EB3400F583D0E0F088829F
:105308008983A3A882A9838A828B83A3AA82AB8379
:10531800E864BA7003E9640970D07AA67B08788DCE
:10532800790888828983A3E0C0E0EA24E7F582EB64
:105338003400F583D0E0F088828983A3A882A9830A
:105348008A828B83A3AA82AB83E864957003E9649D
:105358000870CF9008A6E004F0640170089008AEC9
:10536800E09008A8F07AAA7B08024CF0C082C083BB
:105378009008ADE4F09008ACF09008A6F0A3F0A374
:1053880074FFF075E1F10242A0C082C08378007911
:10539800009008ADE0600478AA790888828983A320
:1053A800A3A3A3E0F90242A074F6121664EAFEEB86
:1053B800FF8E828F83A3A3A3E0600F8E828F83A3C7
:1053C800A3A3E4F09008A7E014F09008A6E014F076
:1053D80070069008A874FFF08E828F83A3A3E4F070
:1053E8009009BAE0700D9008A7E064017005790093
:1053F800121046EE2465F582EF3400F583E0F8A339
:10540800E0F9E8496029EE2465F8EF3400F98808E6
:1054180089098882F583E0FCA3E0FD9008A8E0FAFA
:105428007B00120C20850882850983E4F0A3F0EE46
:10543800FAEFFB120F7A024DBC74F7121664EAFEFB
:10544800EBFF8E828F83A3A3A3A3E0FA7B00120C49
:1054580062EEFAEFFB120ECC120F62024CF0C08221
:10546800C083788D790888828983A3E4F08882894B
:1054780083A3A882A983E864957003E9640870E6A9
:1054880090088E0247CD74F6121664EAFEEBFFEC24
:105498002403F8ED3400F988088909EC2407F8EDAD
:1054A8003400F9E8FCE9FD8C828D83E0F8A3E0F98B
:1054B800850882850983E0FAA3E0FB121582EE24B1
:1054C8000DF582EF3400F583E8F0A3E9F08C828DC6
:1054D80083E0F8A3E0F9850882850983E0FAA3E070
:1054E800FB1215828B09EA45096013EE240DF5823B
:1054F800EF3400F583E02401F0A3E03400F0024D1E
:10550800BC74F6121664EAFEEBFFEE242EF582EF69
:105518003400F583E0FCA3E0FD780079FAECFAEDBD
:10552800FB121582EE2470F582EF3400F583E8F063
:10553800A3E9F0780079FAECFAEDFB1215828B09F1
:10554800EA45096013EE2470F582EF3400F583E034
:105558002401F0A3E03400F0024DBC74F01216648C
:10556800EAFEEBFF741012165878081214DD1210B8
:10557800048A0C8B0D8C0E8D0F9086B9780C121442
:1055880069908725780C1214B7780C1218738E82DC
:105598008F83E0F8A3E0F5838882A3A31214FB129B
:1055A800245E7404121623E960030256B08E828FBB
:1055B80083E02402F8A3E03400F9E8FAE9FB8A82E0
:1055C8008B83780812147C90872578081214DD8A5A
:1055D800828B8378081214CAEE240BF582EF34000C
:1055E800F583C082C0838E828F83A3A3A3A3A3E085
:1055F8002401F8A3E03400F9D083D082E068700376
:10560800A3E069700579010256B28E828F83A3A345
:10561800A3A3A3A3A3E02401F0A3E03400F0EE24A5
:1056280074F582EF3400F583E064017036EE24757A
:10563800F582EF3400F583E0F8A3E0F98E828F83DA
:10564800A3A3A3A3A3A3A3E0687003A3E0697013B3
:10565800EE2475F582EF3400F583E02401F0A3E031
:105668003400F0EE2480F582EF3400F583E0640125
:105678007036EE2481F582EF3400F583E0F8A3E07C
:10568800F98E828F83A3A3A3A3A3A3A3E0687003C7
:10569800A3E0697013EE2481F582EF3400F583E00E
:1056A8002401F0A3E03400F079007F080217367473
:1056B800F71216649008A8E0F875F004A4C8AAF0D8
:1056C8002AF974AA28FE740839FF8028EE2465F8A0
:1056D800EF3400F988828983E0FCA3E0FD888289A1
:1056E80083E4F0A3F08E828F83A3A3A3A3E0FA7BC5
:1056F80000120C20EE2465F582EF3400F583E0F803
:10570800A3E0F9E849604FEE2464F582EF3400F530
:1057180083E0F508780812187BEE2463F582EF34ED
:1057280000F583E0F9EE2465F582EF3400F583E0B7
:10573800FCA3E0FDEEFAEFFB120EF674011216233D
:10574800E96089EE2465F582EF3400F583E0F8A37B
:10575800E0F9E84970137C007D008E828F83A3A353
:10576800A3A3E0FA7B00120C20024CF074F212168C
:1057780064EAFEEBFF890A740E121658E0FAEE246A
:1057880062F582EF3400F583E0640160030258405B
:105798009061D0E0F87480C398F50CEE2483F5820C
:1057A800EF3400F583E0600478048002780089080B
:1057B800E928F8E43400F9E824020808E93400F993
:1057C800E50C98E499A2D265D0334068EA70057573
:1057D8000B028003750B01E0603975090078081227
:1057E80018777A187B0A120F2C7402121623750880
:1057F8001875090A7808121877AC0AA90BEEFAEF9F
:10580800FB120F4A74021216237404250AF50A7C47
:10581800187D0A7401250AF5D9850BD9E50A600DAA
:105828008C828D83F8E0F5D9A318E870F875E195B6
:10583800790080067907800279FF7F06021736C053
:1058480082C083E960208C828D83E08A828B83F01A
:105858008C828D83A3AC82AD838A828B83A3AA8238
:10586800AB8319E970E0ECFAEDFB0242A074EA128E
:105878001664907803E06442705E900A17E014F0B2
:105888007056C2AF12588F00782AD0E0F618D0E0D0
:10589800F6E59F5407F970059086B180039086ADB0
:1058A80078081214DDE9C4C0E07829E65508F5083F
:1058B80008E65509F509740B78081215EBD0E025B0
:1058C80008F8906270E0A2E740F8E8C3339062728B
:1058D800F0906270E0D2E0F09008A8E0F470030263
:1058E8005C98E0F875F004A4C8AAF02AF974AA280C
:1058F800FE740839FFEE2402F582EF3401F583E0E7
:10590800F8A3E0F9E849601EEE2402F582EF3401BD
:10591800F583E0FAA3E0FBEE2401F582EF3401F50C
:1059280083E0F91203F88E828F83A3A3A3A3A3A312
:10593800A3E0F8A3E0F98E828F83A3A3A3A3A3E82F
:10594800F0A3E9F0906054E0900881F0906055E091
:10595800900882F0906056E0900883F0906057E0DD
:10596800900884F0906058E0900885F0906059E0C5
:10597800900886F090605AE0900887F090605BE0AD
:10598800900888F090605CE0FC900889F090605D79
:10599800E0FB90088AF090605EE0FD90088BF09044
:1059A800605FE0FA90088CF0900887E08C08250882
:1059B800F8E43400F98D08E82508F8E93400F98B93
:1059C80008E82508F8E93400F98A08E82508FAE91A
:1059D8003400FBEE24F7F582EF3400F583E02AF07B
:1059E800A3E03BF08C08EE24F9F582EF3400F58350
:1059F800E02508F0A3E03400F0EE24FBF582EF3454
:105A080000F583E02401F0A3E03400F0EE24FFF574
:105A180082EF3400F583E0F8A3E0F9E849604290AA
:105A28006000E0C333FCE433FDE82CF582E93DF582
:105A380083E02AF0A3E03BF0906000E0FA90088948
:105A4800E0FCEAC333FAE433FBE82AF8E93BF9E877
:105A5800244AF582E93400F583E02CF0A3E0340011
:105A6800F0900887E0701190088AE0700BA3E0704E
:105A780007A3E07003025B788E828F83A3A3A3A39E
:105A8800A3E0F8A3E0F9EE240DF582EF3400F583E6
:105A9800E028F8A3E039F9EE240BF582EF3400F59D
:105AA80083E8F0A3E9F0EE240FF582EF3400F583E4
:105AB800E4F0EE241CF582EF3400F583E064017015
:105AC8001EEE2420F582EF3400F583E0F8A3E0F918
:105AD800EE241DF582EF3400F583E8F0A3E9F09099
:105AE8000882E06052EE241CF582EF3400F58374DE
:105AF80001F0EE246AF582EF3400F583E07038EEA9
:105B08002474F582EF3400F583E0702BEE2480F5E1
