:020000040000FA
:0600000002011D02202B8D
:03001300021B7459
:03002B00021A981E
:03003300021A6D41
:03003B00021BF1B4
:03004300021A1787
:03004B000219F0A7
:0300530002209EEA
:03006B00021A4234
:03007300021AF975
:03007B00021AC0A6
:10008300021EDFE5C754F84401F5C77901220000D9
:100093000080FB120086B90003020107E47921788E
:1000A30008B800028004F709D8FCE479297802B87B
:1000B30000028004F709D8FCE4900281788B790A66
:1000C3008002F0A3D8FCD9FA781A90014D7A01BACC
:1000D30000028007E493A3F608DAF9900C0BAA82D6
:1000E300AB8390014E787279038015E493A3AC82BD
:1000F300AD838A828B83F0A3AA82AB838C828D83A8
:10010300D8E9D9E77582977583FF740212012F75B9
:100113008291758300740012012F75D00075813FA1
:10012300751881751902759F00020096C09FF59F8F
:10013300E473D09F22D083D082C09FE493C0E07445
:100143000193C0E0740293F59F2201FFFF1101990F
:10015300010F1264040102F981010000D38102F549
:1001630081010000120C02FF81010000130C02F157
:1001730081030000B40202E381010000140C0105B5
:100183003F10FF000130750302010600000000006C
:10019300000000000000000000000000000000005C
:1001A30000000000000000FFFF0600800CE80314BD
:1001B3000953696D706C65424C455065726970688E
:1001C3006572616C051250002003020A0009AD023A
:1001D300000000000000004169722D544800000037
:1001E300000000000000000000000000CD07000038
:1001F300E507EB07DF07FE000000010000000A43EC
:100203006861726163746572697374696320310034
:100213000243686172616374657269737469632010
:10022300320008436861726163746572697374694B
:10023300632033001043686172616374657269738C
:100243007469632034000243686172616374657288
:10025300697374696320350002F981010000CD815F
:1002630002F581010000BE0C02DD810300000507D9
:1002730002F381010000BF0C02F581010000D00CE4
:1002830002DB81010000190702F381010000D10C98
:1002930002F581010000E20C02D9810200001A0775
:1002A30002F381010000E30C02F581010000F40C6C
:1002B30002E1810000001B0702F18103000028070F
:1002C30002F381010000F50C02F581010000060D27
:1002D30002E7810400002E0702F381010000070DED
:1002E300FF0000B4000028002800283075A000A0FB
:1002F30000A000A00000080008E001F000100010BA
:1003030000100010001000100050005000500010AA
:10031300001000D0070000000000000F00010005DE
:1003230000307507001000010081FF0000FF010A83
:100333001F0A070AFF02020208025000A000000081
:10034300E80302F981010000D08102F58101000078
:10035300F50D02EF81010000620702F58101000043
:10036300F60D02ED81010000780702F5810100001E
:10037300F70D02EB810100007A0702F5810100000D
:10038300F80D02E9810800007B0702F581010000F6
:10039300F90D02FD81010000FA0DFFFF8F0F8F0F92
:1003A3008F0F8F0F8F0F8F0F8F0F8F0F8F0F8F0F5A
:1003B3008F0F8F0F8F0F1D1235121712120138C3B3
:1003C3007D00120138F27D00120138197E001201FE
:1003D30038407E00120138537E00120138A0B1026A
:1003E300120138B5B1021201380DB202120138748C
:1003F300B202120138BCB20212013832B302120146
:100403003861B302120138C7B602120138D5B602F9
:1004130012013839B70212013877B7021201389244
:10042300B7021201382AB802120138D3B8021201F6
:100433003856B9021201388FB9021201381ABA02BA
:1004430012013871BA02120138D0BA02120138E22D
:10045300BA0212013808BB0212013811BB021201A1
:100463003870BC0212013872B50312013851B60359
:1004730012013844A20312013889A203120138CFB2
:10048300A20312013862A40312013892B9031201C4
:1004930038ADB903120138BDB90312013814BA03D8
:1004A30012013860BA031201384BF0021201386BA3
:1004B300F0021201386FF102120138BBF10212018E
:1004C30038DBF1021201382EF2021201389BF202DC
:1004D300120138E1F20212013845F302120138F732
:1004E300F50212013825AD0312013855AD0312018F
:1004F3003885AD0312013848AE03120138A2AE03AA
:100503001201380AAF03120138A2AF03120138DD1A
:10051300AF03120138D9BC0312013803BB03120124
:1005230038302700120138F028001201389B2900C7
:100533001201383F2A00120138D82A001201380765
:100543002B00120138732B00120138D9300012012D
:1005530038843100120138F432001201385C330060
:10056300120138103400120138903500120138CFCF
:100573003500120138433600120138A23600120149
:100583003801370012013870370012013863380020
:10059300120138A93800120138EE3800120138115F
:1005A3003900120138613A00120138743A0012011D
:1005B30038E63A001201381D3B00120138493B006E
:1005C3001201389C3B00120138BD3B001201380177
:1005D3003C00120138533E00120138943E001201D0
:1005E300383F3F00120138AA3F00120138C2B70357
:1005F300120138D3B703120138ABB803120138F82C
:100603009C03120138939F0312013890BD0312011A
:100613003832B40312013842B4031201385CB40314
:1006230012013861B5031201381B9A03120138C154
:100633009A03120138DD9C0312013857A9031201F2
:100643003887A903120138F7A9031201381BAA033B
:1006530012013877AA03120138F2AA031201382FC4
:10066300AB0312013832AB03120138C2BD031201CE
:1006730038C5BD03120138ADBD03120138BFBD0338
:10068300120138F87F00120138A19F031201388E3E
:10069300A103120138FAA10312013841A203120186
:1006A30038F6E902120138E0EB02120138A3ED0239
:1006B300120138F2EE0212013821EF02120138243E
:1006C300EF021201383CEF021201381BF002120153
:1006D300382CF0021201383DF00212013840AB030E
:1006E3001201389FAB031201384DAC03120138CC11
:1006F300AC03120138FB93031201382D940312014A
:10070300383595031201385A960312013826C70269
:100713001201380CC80212013859C8021201389C60
:10072300C80212013811C90212013872C90212013A
:1007330038E7C902120138C3CA02120138CECB020C
:100743001201384FCC02120138F6CD021201388C57
:10075300CE02120138FFCE021201387BCF02120102
:100763003892CF02120138C9D00212013823D102C4
:1007730012013820AB0112013888AF011201384D44
:10078300B20112013876B2011201389DB201120191
:10079300384FB30112013822B5011201385DB60199
:1007A30012013818BB0112013851BB0112013895EF
:1007B300BB01120138A7BC01120138A7BC02120108
:1007C30038AABE02120138C3BF02120138C6BF02E3
:1007D300120138A6C0021201380EC202120138AC4F
:1007E300C50212013805C60212013887C60212017A
:1007F30038A6A403120138C3A4031201384BA6037D
:10080300120138E7B003120138FEB0031201382D8C
:10081300B10312013866B1031201388EB10312011C
:1008230038BCB103120138D3B103120138EAB10362
:1008330012013800B20312013827B2031201383A09
:10084300B20312013850B20312013863B20312012A
:100853003888B2031201388FD1021201388ED202C6
:10086300120138C3D202120138E4D202120138F461
:10087300D20212013815D30212013821D402120117
:1008830038EED40212013861D502120138E7D502DD
:100893001201382AD60212013861D602120138E752
:1008A300D602120138B9D70212013817D802120141
:1008B300382FD802120138A9D802120138ACD80255
:1008C300120138AFD80212013856D9021201386E1C
:1008D300D9021201389ED902120138BED90212017F
:1008E30038ACDA0212013862DB0212013878F60200
:1008F300120138A0F602120138CEF60212013805B1
:10090300F7021201386DF702120138B6F70212012D
:100913003801F8021201383FF8021201387CF8025C
:10092300120138AAF80212013851F9021201385B98
:10093300F90212013868F9021201389BF902120117
:10094300385DFA0212013869FA0212013881FA029B
:100953001201388BFA02120138BBB803120138C9ED
:10096300B803120138E1B803120138F9B8031201D0
:10097300381A6F00120138B86F0012013830700056
:100983001201384571001201387F710012013828B5
:100993007200120138FD72001201386174001201F5
:1009A30038B874001201383F7500120138267600FA
:1009B30012013873760012013801770012013825CD
:1009C3007700120138FA78001201383B79001201DE
:1009D300385D7900120138DE7900120138C87A00D7
:1009E3001201388E7B00120138EAE202120138BC90
:1009F300E30212013865E402120138A8E40212018D
:100A03003835E502120138C1E502120138A2E602C7
:100A1300120138D1E602120138CDE702120138156E
:100A2300E80212013817E9021201385BE9021201E8
:100A33003881E9021201388DBB031201388D8C0312
:100A4300120138A38C03120138C98C03120138F147
:100A53008D03120138FB8D03120138548F031201E9
:100A6300385490031201389AB203120138D6B303F3
:100A7300120138E5CB0112013848CC011201385874
:100A8300CC011201387BCC01120138C6CC01120112
:100A9300386BCD0112013861CE011201382BCF0121
:100AA300120138A3D001120138E5D00112013883B5
:100AB300D101120138D0D101120138F6D10112014E
:100AC30038E4D301120138E9D301120138CAD50140
:100AD3001201381ED60112013880D601120138A83E
:100AE300D6011201384CD7011201380ED801120178
:100AF300383FD80112013842D8011201388AD8018F
:100B0300120138CCD80112013833D901120138014E
:100B1300A70312013814A7031201382DA7031201EA
:100B23003878A70312013853A803120138E2A80347
:100B33001201382DA9031201380982011201381557
:100B430082011201384E82011201389A8201120188
:100B5300382583011201385E830112013872850141
:100B63001201384E87011201383989011201387098
:100B73008A01120138D08C01120138BC8D01120197
:100B830038028F011201380F90011201382C9001A5
:100B93001201386490011201388690011201382045
:100BA3009501120138C19501120138129601120103
:100BB30038399601120138879601120138E79601F8
:100BC30012013820FB021201382AFB02120138F508
:100BD300FB0212013810FC0212013836FC0212012A
:100BE300387AFC02120138B2FC02120138DBFC0233
:100BF30012013854FD0212013869FD021201387ED8
:100C0300FD02120138B5FD02120138C9FD021201BD
:100C130038FAFD0212013834FE0212013860FE0276
:100C2300120138D7FE0212013820FF021201384A9E
:100C3300FF021201386FFF02120138A1880312016B
:100C4300386B89031201384E8A03120138C48A03B0
:100C5300120138068B03120138338C031201388FCB
:100C63008D02120138B88D02120138D18D021201A2
:100C730038168F02120138F48F02120138139002D2
:100C8300120138A09002120138E3900212013830A9
:100C93009202120138CF92021201384E95021201CC
:100CA30038E59502120138B996021201389B970272
:100CB3001201380799021201389A9902120138ADCC
:100CC300B60312013816B7031201386AB7031201CB
:100CD3003891B7031201380080031201386D800385
:100CE300120138B88003120138AD8103120138A90B
:100CF3008203120138938303120138D3F5011201E1
:100D03003815F601120138EFF601120138C8F70160
:100D1300120138C3F801120138A2F9011201380E89
:100D2300FA01120138D5FA0112013840FB01120110
:100D330038A7FB01120138D2FB0112013843FC0131
:100D4300120138D6FC011201383FFD01120138545B
:100D5300FD011201389CFD01120138B5FD0112019C
:100D6300381AFE011201381DFE01120138219703C2
:100D73001201384997031201388797031201384546
:100D83009803120138B09803120138CC980312016A
:100D930038F4980312013824990312013833990364
:100DA300120138AD9903120138D39903120138FDAA
:100DB300D901120138DADB01120138D5DD01120144
:100DC30038A8DE01120138F3DE011201383EDF01DB
:100DD30012013850DF0112013890DF01120138C5CA
:100DE300DF0112013811E00112013840E001120164
:100DF3003863E001120138B0E00112013839E10132
:100E030012013846E30112013831E5011201387449
:100E1300E501120138D9E6011201381AE70112017E
:100E2300388DE701120138D9E701120138119A020E
:100E33001201383C9A0212013823A10212013847E9
:100E4300A30212013802A5021201385FA6021201A1
:100E530038BE40001201385541001201388241006A
:100E6300120138C841001201380743001201389EAD
:100E730044001201381845001201383345001201AD
:100E830038A84500120138D746001201383248000D
:100E9300120138344900120138914A00120138AA6C
:100EA3004A00120138074B00120138E94B001201C6
:100EB300381C4C001201388C4C00120138064D00CE
:100EC300120138554D00120138214E001201382607
:100ED3004F001201380550001201389050001201E2
:100EE30038FE50001201387251001201389B510034
:100EF3001201385A5200120138D45300120138F14A
:100F03005300120138105400120138A15400120189
:100F130038C65400120138EE5400120138695500E6
:100F2300120138C35500120138175700120138D483
:100F33005700120138A7580012013804E8011201C2
:100F43003854E80112013860E8011201383DE90123
:100F53001201386DE901120138A5E90112013824A3
:100F6300EA011201385CEA01120138AEEA0112010A
:100F730038EBEA0112013810ED011201383CEF01A0
:100F830012013837F10112013812F301120138F45A
:100F93007F001201386F9701120138B997011201CE
:100FA30038989D01120138199F0112013878A50163
:100FB30012013873A601120138B0A601120138D309
:100FC300A60112013815A7011201381EA70112014B
:100FD3003828A70112013814A80112013808A90101
:100FE300120138D558001201384D630012013853ED
:100FF30063001201385F6A001201385E9003120128
:1010030038F490031201380A9103120138849103D2
:10101300120138DA9103120138189203120138755C
:101023009203120138F29203120138FB9203120168
:10103300380793031201381A9303120138569303A6
:101043001201386C9303120138CB93031201385504
:1010530084031201386284031201387C8403120171
:1010630038BB8403120138F984031201385E850307
:101073001201387385031201387E85031201388B00
:101083008503120138A28503120138B085031201CA
:1010930038BB8503120138C78503120138D685038F
:1010A300120138E18503120138048603120138ADB9
:1010B3008603120138BD8603120138D78603120155
:1010C30038F4860312013810870312013835870379
:1010D3001201383F87031201385387031201387214
:1010E3008703120138D38703120138D9870312010A
:1010F30038DF8703120138E58703120138F18703CC
:10110300120138248803120138058002120138873E
:1011130080021201383081021201387882021201F2
:10112300388684021201386C8502120138A18502C7
:10113300120138C385021201386C86021201383C51
:101143008802120138658802120138DD8802120113
:10115300380F89021201381C89021201386789028B
:101163001201388B8902120138DC8B02120138E636
:101173008C02120138428D0212013867BD0112013F
:101183003878BE011201385CBF0112013866BF0115
:1011930012013888BF0112013894BF011201383897
:1011A300C10112013865C1011201387BC20112016C
:1011B30038D0C2011201381FC401120138F4C4012E
:1011C30012013850C501120138BBC501120138F0B4
:1011D300C50112013833C601120138FDC8011201DD
:1011E3003815C901120138A6C901120138B4C90161
:1011F30012013801CA011201380FCA011201387BEA
:10120300CA01120138F6CA011201384DCB0112018D
:101213003882A602120138A4A602120138B5A80228
:1012230012013874AB021201389EAC021201385C11
:10123300AD0212013848AE0212013841FE0112011B
:101243003866FE01120138DCFE01120138CDDB02E3
:10125300120138D6DB02120138DFDB02120138B784
:10126300DC0212013868DE0212013898DE02120134
:1012730038C3DE02120138F3DE021201381EDF0228
:1012830012013852DF021201387EDF02120138C127
:10129300DF02120138ECDF0212013833E0021201DF
:1012A3003888E002120138CAE00212013824E10250
:1012B3001201384FE1021201389EE102120138CEC9
:1012C300E102120138F9E10212013827E2021201A8
:1012D300384AE20212013816BC0312013842BC0339
:1012E3001201386FBC0312013879BC03120138892B
:1012F300BC0312013893BC03120138C87F001201EA
:101303003814BD031201384ABD0312013872BD03FC
:10131300E066701008A3E066700A08A3E066700434
:1013230008A3E06622C3E7960809E7960809E7964B
:101333000809E79622C3E09608A3E09608A3E0967F
:1013430008A3E09622C008C3E096F50808A3E09638
:10135300420808A3E096420808A3E09645087001F6
:10136300D3D00822080808EAC0E0EBC0E086F0E723
:10137300A4FA180986F0E7A42AFA180986F0E7A464
:101383002AFA180986F0E7A42AFA1986F0E7A4FBDB
:10139300E5F02AFA190886F0E7A42BFBE5F03AFA00
:1013A300190886F0E7A42BFBE5F03AFA181809862A
:1013B300F0E7A4C5F02BFBE43AFA1908E7C5F0C639
:1013C300A426F6E5F03BFBE43AFA1886F0E7A4F628
:1013D300E5F00826F6E43B08F6E43A08F6D0E0FB2D
:1013E300D0E0FA22E4CFC0E0E4CEC0E0E4CDC0E038
:1013F300E4CCC0E075F020C3E633F608E633F60824
:10140300E633F608E633F6181818EC33FCED33FD33
:10141300EE33FEEF33FFC3EC9709ED9709EE97091F
:10142300EF97191919400FFFEC97FC09ED97FD0988
:10143300EE97FE191906D5F0BEECF709EDF709EEA4
:10144300F709EFF7191919D0E0FCD0E0FDD0E0FE61
:10145300D0E0FF226016080808C6C313C618C613D7
:10146300C618C613C618C613C6D5E0EA2270090803
:101473000808226016181818C6C333C608C633C630
:1014830008C633C608C633C6D5E0EA22E627F608FF
:1014930009E637F60809E637F60809E637F622E0E3
:1014A30026F608A3E036F608A3E036F608A3E036EE
:1014B300F622E026F008A3E036F008A3E036F008B1
:1014C300A3E036F022C3E697F60809E697F6080983
:1014D300E697F60809E697F622C3E096F008A3E03C
:1014E30096F008A3E096F008A3E096F022E056F603
:1014F30008A3E056F608A3E056F608A3E056F62242
:10150300E056F008A3E056F008A3E056F008A3E085
:1015130056F022E0F608A3E0F608A3E0F608A3E0FD
:10152300F622E6F008A3E6F008A3E6F008A3E6F047
:1015330022E0FAA3E0FBA3E0FCA3E0FD22EAF0A390
:10154300EBF0A3ECF0A3EDF022CAC0E0E6F0A308B1
:10155300DAFAD0E0FA22CAC0E0E0A3C582CCC582A1
:10156300C583CDC583F0A3C582CCC582C583CDC554
:1015730083DAE6D0E0CA22C3E498F8E499F91215B5
:10158300BB8026C3E49AFAE49BFBE920E7E9121542
:10159300BBE498F8E499F922C3E498F8E499F912C2
:1015A30015BBE498F8E499F9C3E49AFAE49BFB22A7
:1015B300EB20E7CFE920E7E0B90010BB0008E88A99
:1015C300F084F8AAF022E4FBC8FA22EB70227B1025
:1015D300C833C8C933C9335007C39AC3DBF2800683
:1015E3009A50012ADBEAC833F4C8C933F4C9FA2292
:1015F30075F008E4C833C8C933C933C99AC99B50C5
:1016030004C92AC93BD5F0ECFBC833F4C8E4C9FAD2
:1016130022600D08C6A2E713C618C613C6D5E0F3A9
:1016230022600C08C6C313C618C613C6D5E0F4223D
:10163300700422600D18C6C333C608C633C6D5E08E
:10164300F41822251810AF08F51840021519800860
:10165300F51840021519D2AF22C0D0251810AF08D3
:10166300F518500205198008F51850020519D2AF74
:10167300D0D0222518F58210AF08F51840021519AD
:101683008008F51840021519D2AF85198322251851
:10169300F582E43519F58322E4732518C582C0E089
:1016A300E51934FFC583C0E0E518C3958224F8101B
:1016B300AF08858319858218800885831985821868
:1016C300D2AFCEF0A3E520F0A37808E608F0A3DEBE
:1016D300FAEFF0A3E58124FAF8E608F0A3E608F0B0
:1016E300A3E608F0A30808E608F0A3E608F0A315AC
:1016F300811581D0E0FED0E0F8158115811581E8D0
:10170300C0E0EEC0E0222518C582C0E0E51934FF31
:10171300C583C0E0E518C3958224F910AF0885831B
:10172300198582188008858319858218D2AFCEF077
:10173300A3E520F0A37808E608F0A3DEFAEFF0A310
:10174300E58124FBF8E608F0A3E608F0A30808E621
:1017530008F0A3E608F0A315811581D0E0FED0E0E0
:10176300F815811581E8C0E0EEC0E0228519838574
:101773001882E0A3FEE0A3F5207808E0A3F608DFD3
:10178300FAE0A3FFE0A3C0E0E0A3C0E0E0A3C0E071
:10179300E0A3C0E0E0A3C0E010AF08858218858312
:1017A300198008858218858319D2AFD083D082022D
:1017B3000135851983851882E0A3FEE0A3F520781F
:1017C30008E0A3F608DFFAE0A3FFE0A3C0E0E0A38C
:1017D300C0E0E0A3C0E0E0A3C0E010AF088582183A
:1017E3008583198008858218858319D2AFD083D069
:1017F3008222C0D02518C582C0E0E51934FFC58315
:10180300C0E0E518C3958224F310AF0885831985DA
:1018130082188008858319858218D2AFC8F0A3E99E
:10182300F0A3EAF0A3EBF0A37908E709F0A3D8FA51
:10183300ECF0A3EDF0A3EEF0A3EFF0A3D0E0F0A360
:10184300D0E0F0A3D0E0F0A3E520F0A3E5F0F0A30F
:1018530022851983851882E0C0E0A3E0F9A3E0FAAA
:10186300A3E0FBA37808E0F608A3DFFAE0FCA3E01B
:10187300FDA3E0FEA3E0FFA3E0C0E0A3E0C0E0A37C
:10188300E0F5D0A3E0F520A3E0A3F5F010AF0885C1
:1018930083198582188008858319858218D2AFD071
:1018A30082D083D0E0F8D0E03274048006740280E2
:1018B300027401C0E0F404121676D0E012154C2233
:1018C3007404800474028000CCC0E0EDC0E0E5182D
:1018D300C39CCCAD1950011D10AF068C188D198017
:1018E300068C188D19D2AF121559D0E0FDD0E0FC4B
:1018F30022D083D082E9C0E0E493A3C386F0C5F08D
:1019030095F0F908E493A386F0C5F095F0700BE425
:1019130093A3C3994005E9048002A3E475F002A4EC
:101923002582F582E5F03583F583D0E0F9E493A3CE
:10193300C0E0E493C0E022D083D082ECC0E0EDC0ED
:10194300E0E493A3FCE493A3FDED4C600D12198630
:10195300EC24FFFCED34FFFD80EFE493A3FCE49360
:10196300A3FDED4C600D1219C5EC24FFFCED34FF13
:10197300FD80EFD0E0FDD0E0FCE493A3C0E0E4936E
:10198300C0E022C0E0C3E493960874019396184024
:101993000FE4936670080874019366187000701959
:1019A300A3A3C3E49396087401939618A3A3400DCD
:1019B300D0E0D0E0D0E0021976A3A3A3A3A3A3D0E1
:1019C300E022C0E0C0F088F0E49366700808740178
:1019D3009366187000A8F0A3A3700BD0F0D0E0D0EA
:1019E300E0D0E0021976A3A3D0F0D0E022C0E074E7
:1019F300F21217F5E5AFFEEEA2E3500F9062A3E0FB
:101A030054409062A3F060031203D7EEF4F5AF7F66
:101A130001021854C0E074F21217F5A2AFE433FECA
:101A2300D2AFC2C0E5D1A2E4500653D1EF1206D71C
:101A3300751A00EEF8EEA2E092AF7F01021854C0CF
:101A4300E074F21217F5A2AFE433FED2AFE589A238
:101A5300E15003120659758900C2C5751A00EEF8E4
:101A6300EEA2E092AF7F01021854C0E074F21217A5
:101A7300F5A2AFE433FED2AFE58BA2E0500312062A
:101A830059758B00C2E8751A00EEF8EEA2E092AF2A
:101A93007F01021854C0E0C0D0E8C0E0E9C0E0A272
:101AA300AFE433F8D2AFC2C7751A00E8F9E8A2E091
:101AB30092AFD0E0F9D0E0F8D0D0D0E032C0E0C0AF
:101AC300D0E8C0E0E9C0E0C082C083A2AFE433F84D
:101AD300D2AF758A00C2EB9003A07401F0751A00AF
:101AE300E8F9E8A2E092AFD083D082D0E0F9D0E069
:101AF300F8D0D0D0E032C0E0C0D0E8C0E0E9C0E028
:101B0300C008C009C082C083A2AFE433F9D2AF904A
:101B13000524E0F8900525E068700B539AF79005CB
:101B2300267401F08031C2EA900524E0F5087401BF
:101B33002508900524F075090074A42508F582741E
:101B4300043509F583E0F5F9900524E0C39480405A
:101B5300069005247400F0E9F8E9A2E092AFD0837F
:101B6300D082D009D008D0E0F9D0E0F8D0D0D0E0CE
:101B730032C0E0C0D0E8C0E0E9C0E0EAC0E0EBC0BA
:101B8300E0C082C083A2AFE433FAD2AFE5C1FBC0A9
:101B9300E09005ABE0F87900742A28F582740539E2
:101BA300F583D0E0F09005AAE0F89005ABE068700B
:101BB30006E5959005ADF09005ABE024019005ABEB
:101BC300F0C3948040069005AB7400F09005AC74AC
:101BD30000F0EAF8EAA2E092AFD083D082D0E0FB33
:101BE300D0E0FAD0E0F9D0E0F8D0D0D0E032C0E0D5
:101BF300C0D0E8C0E0E9C0E0C008C009C082C0832B
:101C0300A2AFE433F9D2AF90062EE0F890062FE0AE
:101C130068700B539AFB9006307401F08031C2E96F
:101C230090062EE0F5087401250890062EF075093C
:101C33000074AE2508F58274053509F583E0F5C116
:101C430090062EE0C39480400690062E7400F0E9BF
:101C5300F8E9A2E092AFD083D082D009D008D0E0D7
:101C6300F9D0E0F8D0D0D0E03274F5121709EAFECB
:101C7300EBFFEE2434F8EF3400F988088909EE24E9
:101C830035F582EF3400F583E0F8EE2437F582EF83
:101C93003400F583E0F50AEC850AF0A4FCAAF0858C
:101CA3000AF0EDA42AFDE82CF8E43DF97A257B003F
:101CB3001215BBEA850882850983F05407F874017D
:101CC300B800028004C333D8FCC0E0E013131354FC
:101CD3001FF8EE28F8EF3400F9E8245DF582E934C3
:101CE30000F583D0E0F8E0586008EE2434F582EF85
:101CF300801EEE2436F582EF3400F583E0F5F0EA3A
:101D030084A8F0EE28F8EF3400F9E82438F582E9E6
:101D13003400F583E0F97F040217B574F51217094F
:101D2300EAFEEBFFEE2434F582EF3400F583E0C0E6
:101D3300E0EE2435F582EF3400F583D0E0F08E82B7
:101D43008F83A3A3A3A3A3A3A3C082C0838E828FE5
:101D530083A3A3A3A3A3E0F8A3E0F9D083D082E0F5
:101D6300C398F508A3E099F509EE2480F582EF34D2
:101D730000F583E064017069EE2481F582EF34009D
:101D8300F583E0F8A3E0F98E828F83A3A3A3A3A333
:101D9300A3A3E0FCA3E0FD8E828F83A3A3A3A3A34D
:101DA300E0FAA3E0FBC3EA9CEB9D5027C3EC98ED5C
:101DB30099402EC3EA98EB9950277CAD7D09EEFA42
:101DC300EFFB120EEDEE2480F582EF3400F583E491
:101DD300F0800EC3EA98EB9940E0C3EC98ED99507C
:101DE300D9EE2434F8EF3400F9E8FCE9FDEE2435AC
:101DF300F582EF3400F583E0F8EE2437F582EF3413
:101E030000F583E0F50AE508850AF0A4F508AAF0D1
:101E1300850AF0E509A42AF509E82508F8E4350957
:101E2300F97A257B001215BBEA8C828D83F0540767
:101E3300F87401B800028004C333D8FCC0E0E01397
:101E43001313541FF8EE28F8EF3400F9E8245DF576
:101E530082E93400F583D0E0F8E0586008EE2434DA
:101E6300F582EF801EEE2436F582EF3400F583E031
:101E7300F5F0EA84A8F0EE28F8EF3400F9E8243806
:101E8300F582E93400F583E0F9122719021D19C020
:101E930082C083851882851983E0F8A3E0F9C3EA39
:101EA3009CEB9D5012C3EC98ED994019C3EA98EB53
:101EB30099501279018010C3EA98EB9940F5C3EC6D
:101EC30098ED9950EE7900D083D08222EAC39CFA30
:101ED300EB9DFB22008521878522C622C0E0C0D06E
:101EE300E8C0E0E9C0E0EAC0E0EBC0E0ECC0E0ED50
:101EF300C0E0C008C009C00AC00BC082C083C0F0E4
:101F0300759B00906182E0A2E64003021FBDE5914C
:101F1300A2E64003021FBD7591BF900872E06405FD
:101F23007008121025121031800312102B75210036
:101F330012108BE9900873F0790012107F120E6370
:101F43007A017B00900871E0F912043D907803E078
:101F530064426003022006900A0FE014F06003025B
:101F63002006C2AF121F6A00782AD0E0F618D0E02C
:101F7300F6E59F5407F97005908139800390813508
:101F83007808121516E9C4C0E07829E65508F50863
:101F930008E65509F509740B7808121624D0E025D4
:101FA30008F8906270E0A2E740F8E8C333906272E9
:101FB300F0906270E0D2E0F08049E0A2E55024E5C1
:101FC30091A2E5501E7591DF900872E0640D7013C5
:101FD300900894E004F064287002E4F07A00E0F9D9
:101FE3001210FD906181E0A2E35009E5E9A2E350FC
:101FF3000375E9F7A3E0A2E75009E591A2E75003CF
:1020030075917FD0F0D083D082D00BD00AD009D085
:1020130008D0E0FDD0E0FCD0E0FBD0E0FAD0E0F95E
:10202300D0E0F8D0D0D0E032C0E0C0D0C082C083CE
:10203300906183E0A2E05009E5BFA2E0500375BFC1
:10204300FEE0A2E15009E5BFA2E1500375BFFDE048
:10205300A2E25009E5BFA2E2500375BFFBE0A2E391
:102063005009E5BFA2E3500375BFF7E0A2E45009AE
:10207300E5BFA2E4500375BFEFE0A2E55009E5BF59
:10208300A2E5500375BFDFE0A2E65009E5BFA2E673
:10209300500375BFBFD083D0828088C0E0C0D0E832
:1020A300C0E0E9C0E0EAC0E0EBC0E0ECC0E0EDC0B6
:1020B300E0C0F0E5A7A2E6500FE5A1A2E650095360
:1020C300A7BF75A1BF122103E5A7A2E5500CE5A1A7
:1020D300A2E5500653A7DF75A1DFE5A7A2E15009EA
:1020E300E5A1A2E1500375A1FDE5A7A2E2500CE52D
:1020F300A1A2E2500653A7FB75A1FBD0F002201466
:1021030074F8121709752101900872E064067015BE
:10211300120FB98A828B83A3A3A3A3A3A3E0FAA379
:10212300E0FB121013A2AFE433FED2AF900878E0C5
:10213300640170187A207B00900871E0F91204CDD5
:102143007A207B00900871E0F9120443906182E0E9
:10215300D2E6F0900A0EE0602185C6228016900830
:1021630077E064017008E5C654F84405F5C653BE2C
:10217300FC121ED87401652160E4EEA2E092AF7FE9
:10218300010217B5008E238F248582288583278536
:102193001882851983E0CEA3E0CF85288285278323
:1021A300EBC9EAC8EDCBECCA75F010C3E833C8E954
:1021B30033C9EA33CAEB33CBC3EA9EF526EB9FF56B
:1021C30025B35004AB25AA26EC33CCED33CDD5F0A3
:1021D300DAAE23AF242274EB12170974FA121646EF
:1021E3008A088B098C148D15900872E024F7C39428
:1021F30005500690815102233B120FB98A0A8B0BBB
:10220300AE0AAF0BEE4F7003022338AC08AD09855D
:102213001882851983AA82AB831210438E828F831F
:10222300A3A378081215169081A978081214F085D3
:102233001882851983780C1215169081A9780C12CF
:1022430014F07808790C121328501F7808790C12AF
:1022530014C890814D7808121348404785081085AB
:102263000911850A12850B138041850C10850D1108
:10227300850E12850F13781079081214C890814DBA
:102283007810121348501C75100075110075120058
:102293007513017810790C1214C878107908121488
:1022A3008F800890815178101215167409781012D6
:1022B30014709081C17808121516781079081213DA
:1022C300E78E828F83A3A3A3A3A3A3E0F8A3E0F9DC
:1022D3007AD07B031215BB88088909E4F50AF50B4C
:1022E3007810790812148F7404121691E0F8A3E0A1
:1022F300F97AD07B031215BBE8FA8A08E4F509786A
:102303001079081213285007781079081214C8900E
:102313000872E06408600AE064066005E064057022
:102323001C9081957810121348501290813D7810BB
:102333001214A280089081C9781012151685148290
:102343008515837810121525740612165C7F0E020C
:1023530017B574F7121709121055900A0CE06401AF
:102363007010906245E4F0A3F053F4F343FE0C5372
:1023730090F3121001E5C654804449F5C6E59E5416
:102383007F644970F8906185740FF0900A0AE0F455
:102393007002A3E0604E900A0BE0600814601B1407
:1023A300602E8040750801750900900A0AE07808DC
:1023B300121633E508F45280802A75080175090066
:1023C300900A0AE07808121633E508F45290801454
:1023D300750801750900900A0AE07808121633E5BA
:1023E30008F452A079007F020217B574F712170997
:1023F300E9FEEAFF74016E700C7A807B009008712D
:10240300E0F912043D902728E493F46008E493F97B
:10241300120E57800953C680E59E547F70FA12103E
:1024230007900A0CE064017003120E6F900A0AE031
:10243300F47002A3E0604B900A0BE0600814601A8A
:1024430014602C803D750801750900900A0AE07834
:1024530008121633E50842808028750801750900C3
:10246300900A0AE07808121633E508429080137543
:102473000801750900900A0AE07808121633E50886
:1024830042A0121055120FB98A088B09A808A9098E
:10249300E8496015E5E170FCE82414F582E93400AD
:1024A300F583E0F46003E0F5E174016F700A7A01EB
:1024B300900871E0F91204970223E974F1121709E5
:1024C3008A088B098C0A8D0B740F121691780C12E3
:1024D30015169081A978081214F09081A9780C122E
:1024E30014F07808790C12132850157808790C1217
:1024F30014C890814D780812134840157901801350
:10250300780C79081214C890814D780C1213484046
:10251300EB79007F080217B574ED1217098A088B4F
:10252300098C0A8D0B7413121691780C12151690E0
:1025330081A978081214F09081A9780C1214F0780C
:102543000C790812132840117808790C1214C8AAC0
:1025530008AB09AC0AAD0B8022751000751100752C
:1025630012007513017810790C1214C878107908C9
:1025730012148FAA10AB11AC12AD137F0C0217B556
:102583009081A978081215168A828B837808121510
:10259300037F040217B574F51217098C828D8378B3
:1025A300081215168A828B8378081214DCEA240435
:1025B300F8EB3400F98C828D83A3A3A3A3E0FCA3DF
:1025C300E0FD88828983C3E09CF0A3E09DF08882CC
:1025D3008983C3E09420A3E0944E402290817578D0
:1025E300081215168A828B8378081214B58A828B97
:1025F30083A3A3A3A3E02420F0A3E0344EF08080C0
:1026030074F5121709E9FE9009C4E0FAA3E0FBEEA2
:10261300C333F8E433F974D528F582748039F5832C
:10262300E02AF508A3E03BF50978081218B0908179
:1026330085121534122188740212165C8A088B09DC
:102643008C0A8D0B74107808121457AA08AB097FF3
:10265300040217B574F11217098A0C8B0D8C0E8DB9
:102663000F740F121691E0FAA3E0FB741112169186
:10267300E0F508A3E0F5097413121691E0FEA3E058
:10268300FF78081218B0EA2401F508EB3400F509C5
:10269300E4F50AF50B780C79081213679081B97881
:1026A30008121516780C7908121367AA0CAB0DAC37
:1026B3000EAD0F122188740212165C8B09EA4509CC
:1026C30060047A0180027A00EC2AFCED3400FDEC10
:1026D300F8EDF97A717B021215BB88088909E4F5D4
:1026E3000AF50B8E828F837808121525ECF8EDF925
:1026F3007A717B021215BB8A088B0974057808125C
:1027030016338E828F83A3A3A3A3E508F0A3E50961
:10271300F07F080217B5C082C083E9906000F0D053
:0427230083D08222BB
:10272800FFFFFFFFFFFFFFFF74EC12169D74DA1224
:102738001646890D8A128B138C0A8D0B743A121661
:1027480091E0F50C90811AC082C0838518828519A2
:1027580083AC82AD83D083D0827406121559851854
:1027680082851983AC82AD83AA12AB13A90D120519
:1027780027E9FEEEC3940A40030228CFEEF91205BA
:1027880069E9FF900C3EE0640270047401800274F1
:1027980000F50878081218B4AD0CEFFCEEF9AA0A97
:1027A800AB0B1205DB740112165C7C147D007900FA
:1027B8007412121691AA82AB831203FB8A0E8B0F36
:1027C800850E08850F097412121691AC82AD837AB2
:1027D8001075F006EEA42424F9120767E970437C0B
:1027E8001079FF7412121691AA82AB83120461E960
:1027F80070307422121691AC82AD837A0475F0069B
:10280800EEA42425F9120767E9F508741212169147
:10281800AC82AD83EFA2E0E433F9AA0AAB0B12094C
:1028280077E97406121691AC82AD837A0C74702E17
:10283800F9120767E9707E7406121691AA82AB83B3
:1028480012055D750E00E50EC394045068E50EA8E8
:102858000E7900E875F003A4C8AAF075F000A42A60
:10286800FA75F003E9A42AF97406121691E582288C
:10287800F508E58339F509850882850983E0F8A319
:10288800E0F9E849602B850882850983A3A3E0F570
:102898001075110078101218B0850882850983E038
:1028A800FCA3E0FDAA0AAB0B120BA5740212165C7E
:1028B800E9050E8091EFA2E1500D9002C2E0F9AA5D
:1028C8000AAB0B120BABE97404650C700F900C3E4D
:1028D800E064027007AA0AAB0B1205D579007426CA
:1028E80012165C7F0C02176F74F212169D890BEAA0
:1028F800FEEBFF8C088D09750A0AE50B600C146065
:1029080009146044146064022994EEFAEFFB12057E
:102918007BE9F50AE50AC3940A5071E508450960A0
:102928006B750C06750D00780C1218B0EEFCEFFDF7
:10293800AA08AB091203E3740212165C8A0C8B0D09
:10294800850C82850D838044EEFAEFFB120575E94C
:10295800F50AE50AC3940A5033E5084509602DAA2B
:1029680008AB09A90A12056FE98021EEFAEFFB12FC
:102978000581E9F50AE50AC3940A5010E5084509F6
:10298800600AAA08AB09A90A12056FE9A90A7F0615
:1029980002176F74F212169D8A0C8B0DE9FE7F15D3
:1029A80074FF650C700474FF650D702A750800E5E6
:1029B80008C3940A5014EEFC7A027B00A908120599
:1029C8004BE960027F00050880E5EE60637AC37B0F
:1029D80005120DA3805AAA0CAB0D120D858A0A8B1D
:1029E8000B850A08850B09E508450960417C007DCF
:1029F80000E5082405FAE5093400FB850882850905
:102A080083A3A3A3A3E0F9120527E9F50AE50AC3FE
:102A1800940A500EEEFC7A027B00A90A12054BE9D3
:102A28007F00EE600BAA08AB091205C380027F1471
:102A3800EFF97F0602176F74EE12169D8A0E8B0F40
:102A48008C0A8D0B7412121691E0F50CA3E0F50DAB
:102A580075081574FF650E700474FF650F701E7E8F
:102A680000EEC3940A5062AC0CAD0DAA0AAB0BEE93
:102A7800F9120551E960037508000E80E4AA0EAB4F
:102A88000F120D858A108B11AE10AF11EE4F603604
:102A98007C007D00EE2405FAEF3400FB8E828F83E4
:102AA800A3A3A3A3E0F9120527E9F509E509C3944F
:102AB8000A5016AC0CAD0DAA0AAB0BA909120551A8
:102AC800E97508008003750814A9087F0A02176FC2
:102AD80074F712169DEAFEEBFF9002DCEEF0A3EF0E
:102AE800F09002C2E0FC7D007A257B001208EDE937
:102AF800F5089002C2E0F9120B397F0102176F74D2
:102B0800EE12169D8A108B11E9FE74121216917836
:102B18000C1215167F00EE7041850C08850D09858D
:102B28000E0A850F0B908185780C12151678087996
:102B38000C1213E778101218B0AA0CAB0DAC0EAD3E
:102B48000F120989740212165CE9FFEF6016790109
:102B5800AA10AB11120983E9800AEEF9AA10AB1189
:102B6800120983E9EFF97F0A02176F74EE12169DB6
:102B780074EC1216468A0A8B0B850A82850B83A38E
:102B8800A3E024FA70030230AC24FD7003022F2264
:102B9800147003022C6614601024FD7003022ECA00
:102BA800147003022F620230CFAE0AAF0B9002DC22
:102BB800E0F8A3E0F9E84960699002DCE0F8A3E0F6
:102BC800F5838882E0F8A3E0F9E8496055EE240C23
:102BD800F582EF3400F583E0F50878081218B4EEB2
:102BE800240BF582EF3400F583E0F98E828F83A3FE
:102BF800A3A3A3A3A3A3A3A3E0FCA3E0FDEE240344
:102C0800FAEF3400FB9002DCE0F8A3E0F583888259
:102C1800E0F8A3E0F583888212169B740112165C13
:102C280080398E828F83A3A3A3A3A3A3A3A3A312F4
:102C380018C79002D8121534120989740212165C4A
:102C4800E9601879018E828F83A3A3A3A3A3A3A30A
:102C5800A3A3E0FAA3E0FB120983E90230CFAE0A8E
:102C6800AF0B8E828F83A3E06003022E788E828F53
:102C780083A3A3A3A3A3E0A2E04003022E787C0EC3
:102C88007D007900851882851983AA82AB83120397
:102C9800FB8A088B09AA08AB098E828F83A3A3A39A
:102CA800A3A3A3A3A3E0F8A3E0F9E849603D75084E
:102CB8000675090078081218B08E828F83A3A3A323
:102CC800A3A3A3A3A3E02410FCA3E03400FD740293
:102CD800121691AA82AB831203E3740212165C8A5D
:102CE800088B0985088285098380548E828F83A387
:102CF800A3A3E0FAA3E0FB120D858A0C8B0D850CCB
:102D080008850D09E50845096032750C06750D0042
:102D1800780C1218B0E5082405FCE5093400FD74A8
:102D280002121691AA82AB831203E3740212165C94
:102D38008A0C8B0D850C82850D8380030230CF8E23
:102D4800828F83A3A3A3A3A3E0A2E25004D2F080BE
:102D580002C2F0A2F0E433F87900740C121691E084
:102D680048F0A3E049F08E828F83A3A3A3A3A3A373
:102D7800A3A3A3A3E0F8A3E0F9E84960238E828F18
:102D880083A3A3A3A3A3A3A3A3A3A3E0F8A3E0C837
:102D98002410F582E83400F583780C121516800C9F
:102DA800750CFF750DFF750EFF750FFF8E828F83F3
:102DB800A3A3A3A3A3A3A3A3A3A3E0F8A3E0F9E871
:102DC8004960178E828F83A3A3A3A3A3A3A3A3A35E
:102DD800A3E0F508A3E0F509800675080075090069
:102DE8008E828F83A3A3A3A3A3A3A3A3E0F8A3E046
:102DF800F9E84960158E828F83A3A3A3A3A3A3A395
:102E0800A3E0F510A3E0F511800675100075110018
:102E1800780C1218AC78081218B078101218B0EEA6
:102E2800240CF582EF3400F5831218C78E828F8345
:102E3800A3A3A3A3A3A3E0FCA3E0FD740A12169125
:102E4800AA82AB83120563740A12165CE9F5088E30
:102E5800828F83A3A3A3E0F8A3E0F990036CE8F0C2
:102E6800A3E9F07A017B009002C2E0F912043DE97F
:102E78009002DCE0F8A3E0F9E84960439002DCE066
:102E8800F8A3E0F5838882A3A3E0F8A3E0F9E84972
:102E9800602D8E828F83A3E0FC79018E828F83A3BD
:102EA800A3A3E0FAA3E0FB9002DCE0F8A3E0F5833B
:102EB8008882A3A3E0F8A3E0F583888212169B0218
:102EC80030CFAE0AAF0B9002DCE0F8A3E0F9E84996
:102ED80060459002DCE0F8A3E0F5838882A3A3E0D4
:102EE800F8A3E0F9E849602F850A82850B83A3E0FF
:102EF800FC79028E828F83A3A3A3E0FAA3E0FB9060
:102F080002DCE0F8A3E0F5838882A3A3E0F8A3E05D
:102F1800F583888212169B0230CFAE0AAF0B7C0075
:102F28007D00EE2404FAEF3400FB8E828F83A3A386
:102F3800A3E0F9120527E9F508E508C3940A501734
:102F4800EE240AFCEF3400FD7A0475F006E508A4C7
:102F58002425F9120761E90230CFAE0AAF0B9002BF
:102F6800D7E06018900C3FE0F98E828F83A3A3A36B
:102F7800E0FAA3E0FB120983E90230CF900C3EE0AF
:102F8800701579058E828F83A3A3A3E0FAA3E0FBD3
:102F9800120983E90230CF8E828F83A3A3A3E0FABC
:102FA800A3E0FB120D858A0C8B0D850C08850D0995
:102FB8008E828F83A3A3A3A3A3A3A3E0A2E050754B
:102FC800E5084509606C850882850983A3A3A3A346
:102FD800E060628E828F83A3A3A3A3A3A3A3A3A36A
:102FE800E0F8A3E0F9E8C4540FF879005401F8E9CF
:102FF8005400F9E8A2E0403D740E121691AC82AD7F
:1030080083E5082405FAE5093400FB85088285096B
:1030180083A3A3A3A3E0F9120527E9701879038E07
:10302800828F83A3A3A3E0FAA3E0FB120983E9023A
:1030380030CF0230CFEE2405FCEF3400FD85088246
:10304800850983A3A3A3A3E0F98E828F83A3A3A3F7
:10305800E0FAA3E0FB1205CF9002DCE0F8A3E0F968
:10306800E84960639002DCE0F8A3E0F5838882A376
:10307800A3E0F8A3E0F9E849604D7C0079008E826E
:103088008F83A3A3A3E0FAA3E0FB9002DCE0F8A3FC
:10309800E0F5838882A3A3E0F8A3E0F58388821291
:1030A800169B8023120A4FE9701D90036BE06401A0
:1030B800700B120599E9F890036B7400F0795012BF
:1030C800076DE9FE120587741412165C7F0A021751
:1030D8006F74F312169D74F21216468909EAFEEB14
:1030E800FF8C0C851882851983AC82AD837A0E75A6
:1030F800F006E509A42420F9120767E970727C0636
:1031080079FF851882851983AA82AB83120461E945
:10311800705E740C121691E0F8A3E0F9E8F508E582
:103128000C6005EE42088004EEF4520885080A7522
:103138000B00740C121691E0650A7004A3E0650B8D
:10314800602AE508A8087900740C121691E508F0C1
:10315800A3E9F0851882851983AC82AD837A0E7550
:10316800F006E509A42420F9120761E97901800233
:103178007900740E12165C7F0502176F74F0121630
:103188009D74E6121646890B8A0C8B0DECFEEDFF3A
:10319800740C121691AC82AD837A0E75F006E50BAD
:1031A800A42420F9120767E960030232E87C067953
:1031B800FF740C121691AA82AB83120461E96003B2
:1031C8000232E8851882851983AC82AD837A0C7443
:1031D80070250BF9120767E960030232E4750A00EB
:1031E800851882851983AA82AB8312055DE50C4593
:1031F8000D703A7C0C7900851882851983AA82ABF8
:1032080083120461E960030232BE7C0C7D00790000
:10321800851882851983AA82AB831203FB8A088BDF
:1032280009850882850983750A010232BE851882DC
:10323800851983AC82AD83AA0CAB0D1205578A0E93
:103248008B0F850E08850F09E50845097036EE4F86
:103258006021851882851983AC82AD837A007B0052
:103268001205578A0E8B0FA80EA90F88088909E83E
:103278004970047900806B850882850983E50CF024
:10328800A3E50DF0850882850983A3A3E0F87900FA
:10329800EE687002EF69601EEE850882850983A3D7
:1032A800A3F0EE4F700D8508828509837400F0A3A2
:1032B8007400F0750A01E50A602285188285198371
:1032C800AA82AB8312055D851882851983AC82AD0D
:1032D800837A0C7470250BF9120761E97901800271
:1032E8007900741A12165C7F0802176F74F71216A9
:1032F8009DEAFEEBFF7B00EBC39404504EEBF8799C
:1033080000E875F003A4C8AAF075F000A42AFA75BD
:10331800F003E9A42AF9EC28F582ED39F583E06E8B
:103328007003A3E06F7021EBF87900E875F003A44F
:10333800C8AAF075F000A42AFA75F003E9A42AF9DE
:10334800EC28FAED39FB80070B80AC7A007B007F14
:103358000102176F74F712169D7F00EFC3940440A3
:103368000302340BEFF87900E875F003A4C8ACF059
:1033780075F000A42CFC75F003E9A42CF9EA28F5F3
:1033880082EB39F583E0F4FCA3E0F4FDEFF8790073
:10339800E875F003A4C8AEF075F000A42EFE75F031
:1033A80003E9A42EF9EA28F582EB39F583ECF0A3BA
:1033B800EDF0EFF87900E875F003A4C8ACF075F00B
:1033C80000A42CFC75F003E9A42CF9EA28F582EB9B
:1033D80039F583A3A3E0F4C0E0EFF87900E875F0CD
:1033E80003A4C8ACF075F000A42CFC75F003E9A4A4
:1033F8002CF9EA28F582EB39F583A3A3D0E0F00F86
:103408000233637F0102176F74EA12169D74F41277
:103418001646EAFEEBFF8C108D117422121691E00D
:10342800F50EA3E0F50F7424121691E0F50CA3E055
:10343800F50D7426121691E0F50AA3E0F50BEE4F90
:103448007005790A023586EEFAEFFB12057BE9F57D
:1034580008E508C3940A400612058DE9F508E50851
:10346800C3940A4003023584EEFCEFFD7A0E75F032
:1034780006E508A42420F9120761E9F8E5104511CA
:103488006013AC10AD117A1B75F006E508A4242171
:10349800F9120761E9E50E450F6013AC0EAD0F7A1E
:1034A8001B75F006E508A42422F9120761E9E50C6A
:1034B800450D6013AC0CAD0D7A1075F006E508A447
:1034C8002423F9120761E9E50A450B602DAC0AAD22
:1034D8000B7A1075F006E508A42424F9120761E9AF
:1034E800F5097428121691AC82AD837A0475F0063A
:1034F800E508A42425F9120761E97C0C7D0079FF11
:10350800851882851983AA82AB831203FB8A128BE2
:1035180013851214851315851882851983AC82AD1D
:10352800837A0C74702508F9120761E9F509751298
:103538000E75130078121218B0EEFCEFFDE508A81E
:10354800087900E875F00EA4C8AAF075F000A42A5E
:10355800FA75F00EE9A42AF974DE28FA740239FB28
:103568001203E3740212165C8A128B13A812A913B1
:1035780090036AE060031205E11205C9A908740CFA
:1035880012165C7F0E02176F74F712169D74F212F2
:103598001646E9FE851882851983AC82AD837A0EBA
:1035A80075F006A42420F9120767E9700E740C124E
:1035B8001691E0F8A3E0F9E8F980027900740E1298
:1035C800165C7F0102176F74F412169D74F21216BE
:1035D800468909EAFEEBFFE509C3940A5004EE4F59
:1035E80070047902804B851882851983AC82AD837B
:1035F8007A0E75F006E509A42420F9120767E9F5A3
:1036080008E508702A750A06750B00780A1218B0C2
:103618007402121691AC82AD83EEFAEFFB1203E34B
:10362800740212165C8A0A8B0B850A82850B83A9A1
:1036380008740E12165C7F0402176F74F412169D3C
:10364800EAFEEBFF750800E508C3940A5045750AC1
:1036580006750B00780A1218B0EEFCEFFDE508A815
:10366800087900E875F00EA4C8AAF075F000A42A3D
:10367800FA75F00EE9A42AF974E428FA740239FB01
:103688001203F5740212165CE96004A908800605A5
:103698000880B4790A7F0402176F74F412169DEA41
:1036A800FEEBFF750800E508C3940A5045750A0645
:1036B800750B00780A1218B0EEFCEFFDE508A808B3
:1036C8007900E875F00EA4C8AAF075F000A42AFAEB
:1036D80075F00EE9A42AF974DE28FA740239FB128F
:1036E80003F5740212165CE96004A908800605084F
:1036F80080B4790A7F0402176F74F712169D74F06C
:10370800121646EAFEEBFF750800E508C3940A5056
:103718004B851882851983AC82AD837A1075F006C3
:10372800E508A42423F9120767E9702C7C1079FFB7
:10373800851882851983AA82AB83120461E97018FF
:10374800EEFCEFFD851882851983AA82AB831209E6
:1037580059E97004A9088006050880AE790A741032
:1037680012165C7F0102176F74F412169D7508001B
:10377800E508C3940A4003023852E508A80879000E
:10378800E875F00EA4C8AAF075F000A42AFA75F03E
:103798000EE9A42AF974DE28FC740239FD7A0E7544
:1037A800F006E508A42420F9120767E97003023837
:1037B8004D7C067D0079FFE508AA087B00EA75F0D4
:1037C8000EA4CAA8F075F000A428F875F00EEBA4B2
:1037D80028FB74DE2AFA74023BFB1203FB8A0A8B6D
:1037E8000BAE0AAF0B7C067D0079FFE508AA087BC3
:1037F80000EA75F00EA4CAA8F075F000A428F875C0
:10380800F00EEBA428FB74E42AFA74023BFB1203C3
:10381800FB8A0A8B0BAC0AAD0BE508A8087900E80F
:1038280075F00EA4C8AAF075F000A42AFA75F00E77
:10383800E9A42AF974EA28F582740239F583740038
:10384800F0A37400F0050802377890036AE060037B
:103858001205E11205C97F0402176F74F712169D4D
:103868007E00EEC3940A50327C0679FFEEFA7B00A4
:10387800EA75F00EA4CAA8F075F000A428F875F04F
:103888000EEBA428FB74DE2AFA74023BFB120461D7
:10389800E96004EEF980050E80C8790A7F010217F5
:1038A8006F74F712169D7E007F00EFC3940A502FA5
:1038B8007C0679FFEFFA7B00EA75F00EA4CAA8F03F
:1038C80075F000A428F875F00EEBA428FB74DE2A26
:1038D800FA74023BFB120461E970010E0F80CBEE13
:1038E800F97F0102176F74F712169D7E007F00EFB3
:1038F800C3940A500DEE700AEFF912059FE9FE0F06
:1039080080EDEEF97F0102176F74EE12169D74CBED
:10391800121646E9FE7427121691AC82AD837A0E10
:1039280075F006EEA42420F9120767E96003023A4D
:10393800527C0679FF7427121691AA82AB8312046F
:1039480061E96003023A527C0E7D0079FF74271208
:103958001691AA82AB831203FB8A0A8B0B850A0E87
:10396800850B0F7C1B7D0079FF740C121691AA82BF
:10397800AB831203FB8A0A8B0B850A0C850B0D7C23
:103988000C7D0079FF851882851983AA82AB831282
:1039980003FB8A108B1185100A85110B74271216E8
:1039A80091AC82AD837A0E75F006EEA42420F9124C
:1039B8000761E9F508740C121691AC82AD837A1B85
:1039C80075F006EEA42421F9120761E94208740C87
:1039D800121691AC82AD837A1B75F006EEA42422F0
:1039E800F9120761E94208740C121691AC82AD8392
:1039F8007A1075F006EEA42423F9120761E942084B
:103A0800740C121691AC82AD837A1075F006EEA490
:103A18002424F9120761E94208740C121691AC8249
:103A2800AD837A0475F006EEA42425F9120761E93E
:103A38004208851882851983AC82AD837A0C74702C
:103A48002EF9120761E942088003750800A9087475
:103A58003512165C7F0A02176F74F712169DE9FE7D
:103A68009002C2F01205877F0102176F74F21216D6
:103A78009D890A8A088B09E5085400F8E5095480ED
:103A8800F9E84960339002C2E0F91204258A0C8BE8
:103A98000DA80CA90DE8FEE9FFE849600FEEFAEF62
:103AA800FB1205B1EEFAEFFB120413E9E508640016
:103AB800FAE5096480FB8021E508A2E0501790032D
:103AC8006CE0FAA3E0FB1205E7E5086401FAE509F2
:103AD8006400FB80047A007B007F0602176F74F78E
:103AE80012169DEAFEEBFF8E828F83E02450601051
:103AF80014601624E17019EEFAEFFB1205458010E8
:103B0800EEFAEFFB1205B78007EEFAEFFB1205BDE0
:103B18007F0102176F74F712169DEAFEEBFF8E8283
:103B28008F83A3A3A3A3E0641E701179008E828FF4
:103B380083A3A3E0FAA3E0FB12052DE97F01021796
:103B48006F74F612169DEAFEEBFF8E828F83A3A395
:103B5800A3A3E0703A8E088F09850882850983A39C
:103B6800A3A3A3A3A3A31218C7850882850983A3C7
:103B7800A3A3A3A3E0FCA3E0FD850882850983A392
:103B8800A3E0FAA3E0FB120533740212165CE97F86
:103B98000202176F74F712169DEAFEEBFF9002C23D
:103BA800E0F98E828F83A3E0FAA3E0FB120BABE966
:103BB8007F0102176FC082C08374FF121646120578
:103BC80093E9C39402400B8518828519837402F027
:103BD8008009851882851983740AF08518828519E9
:103BE80083AC82AD837A017905120A67E974011200
:103BF800165CD083D08202013574F212169D74E8E7
:103C0800121646EAFEEBFF890A8C088D097C187D9E
:103C1800007900851882851983AA82AB831203FB79
:103C28008A0C8B0DAC0CAD0D851882851983EEF0CE
:103C3800A3EFF09002C4E0C0E07402121691D0E045
:103C4800F09002C5E0C0E07403121691D0E0F09045
:103C58000C41E0C0E07417121691D0E0F074151210
:103C68001691E054FEF8A3E054FFF9900C40E0A24E
:103C7800E0E433FA7B00E84AF8E94BF974151216C8
:103C880091E8F0A3E9F0900C40E0A2E15004D2F0F2
:103C98008002C2F07415121691E054FDFAA3E054A4
:103CA800FFFBA2F0E433F87900C333F8E933F9EA0B
:103CB80048F8EB49F97415121691E8F0A3E9F09069
:103CC8000C40E0A2E35004D2F08002C2F074151256
:103CD8001691E054F7FAA3E054FFFBA2F0E433F5A1
:103CE8000C750D007403780C121633EA450CF8EBCA
:103CF800450DF97415121691E8F0A3E9F0900C40FF
:103D0800E0A2E45004D2F08002C2F07415121691B9
:103D1800E054EFFAA3E054FFFBA2F0E433F50C758E
:103D28000D007404780C121633EA450CF8EB450DB7
:103D3800F97415121691E8F0A3E9F0900C40E0A28E
:103D4800E55004D2F08002C2F07415121691E054C6
:103D5800DFFAA3E054FFFBA2F0E433F50C750D0085
:103D68007405780C121633EA450CF8EB450DF97416
:103D780015121691E8F0A3E9F0900C40E0A2E25089
:103D880004D2F08002C2F07415121691E054FBFAC6
:103D9800A3E054FFFBA2F0E433F50C750D007402A8
:103DA800780C121633EA450CF8EB450DF974151228
:103DB8001691E8F0A3E9F09002C5E0602A750C10AE
:103DC800750D00780C1218B07CC67D0274061216A8
:103DD80091AA82AB831203E3740212165C8A0C8BDD
:103DE8000D850C82850D839002D6E06012E50A608D
:103DF8000E7415121691E04402F0A3E04400F0900E
:103E080002D6E060067801790080047800790074B1
:103E180014121691E048F09002C3E0600678047925
:103E2800008004780079007414121691E048F0AC10
:103E380008AD09851882851983AA82AB8312097D8A
:103E4800E9741812165C7F0602176F74F712169D34
:103E5800EAFEEBFF7508009002D6E060067801796B
:103E680000800478007900E842089002C3E0600608
:103E780078047900800478007900E84208A908EEFF
:103E8800FAEFFB120A37E97F0102176F74EE121678
:103E98009D74E51216468A0C8B0DE9FF8C088D0976
:103EA800742D121691E0F50A74086509700A75F008
:103EB80006EFA42422FE800875F006EFA42421FE54
:103EC8007C1B7D007900851882851983AA82AB83C3
:103ED8001203FB8A108B1185100E85110F8518822D
:103EE800851983AC82AD837A1BEEF9120767E970F6
:103EF8003C741A121691E0C394074031741A1216D2
:103F080091E0C394115026E50AF50B780B1218B40A
:103F18007401121691AC82AD83E508A2E0E433F98E
:103F2800AA0CAB0D12098F740112165CE9741B12EE
:103F3800165C7F0A02176F74F712169D120C05E9BA
:103F48007E00EEC3940A50557C0679FFEEFA7B009A
:103F5800EA75F00EA4CAA8F075F000A428F875F068
:103F68000EEBA428FB74DE2AFA74023BFB120461F0
:103F7800E97027EEF87900E875F00EA4C8AAF07584
:103F8800F000A42AFA75F00EE9A42AF974DE28FADA
:103F9800740239FB7900120C0BE90E80A57F01022F
:103FA800176F74F412169D74FB1216468A088B0953
:103FB800740312169185820A85830B780A1218B049
:103FC800750A02750B00780A1218B0750AF1750B9C
:103FD80081780A1218B07CFF7DFF7A017B00120AF3
:103FE80091740612165C8A0A8B0BAE0AAF0BEE4F61
:103FF80070030240B4E4F50AF50B780A1218B0749D
:104008000412169185820A85830B780A1218B074F7
:104018000412169185820A85830B780A1218B074E7
:10402800091216911218C77902EEFCEFFDAA08AB27
:1040380009120B99740812165CE970438518828579
:104048001983E0FA7B007401121691E0F87900E414
:10405800C8F9EA28F50AEB39F50BE50A450B601FA4
:10406800780A1218B08E828F83A3A3A3A3E0FCA3BF
:10407800E0FDAA08AB09120533740212165CE9E4E4
:10408800F50AF50B780A1218B07405121691121871
:10409800C77CFF7DFFEEFAEFFB120A9D740412162F
:1040A8005C8A0A8B0BAE0AAF0B023FF67405121638
:1040B8005C7F0402176FC082C0839061907404F023
:1040C800A37448F0A37402F09061807440F090618A
:1040D800BC7403F09061877419F0906265741BF0EA
:1040E80090619C740DF090619A7433F0A37455F04C
:1040F8009061A0743AF0900A0CE064017009C291D2
:10410800900876746780059008767461F090272E81
:10411800E493906186F0902728E493F46027E49371
:10412800540FF8906185E0686012E5C654804449F0
:10413800F5C6E59E547F644970F8E8F053C680E5FB
:104148009E547F70FA79051210DF024300C082C0C6
:1041580083E9540FF9906185E0696012E5C65480DF
:104168004449F5C6E59E547F644970F8E9F053C6A2
:1041780080E59E547F70FA024300C082C083E5A8A0
:10418800F853A87E906181E4F0A3F0A3F0C2BA537B
:104198009AFEC289759B00C2C275E90075910075C7
:1041A800BF0075A91175B905906181F0A374C0F0BD
:1041B800A3E4F0D2BA439A0174805842A80243009B
:1041C800C082C08374F8121646900874E0F8A3E021
:1041D800F9E84970030242F6900874E054406023FD
:1041E8007908851882851983AA82AB83120F4785BF
:1041F8001882851983AA82AB83120C23900874E075
:1042080054BFF0E054806010790C7A307B0A120FAA
:1042180047900874E0547FF0E0A2E0503190619A32
:104228007433F0A37455F09061A0743AF0900A0CBE
:10423800E064017009C2919008767467800590085F
:10424800767461F0120C29900874E054FEF0E05482
:1042580002603190619A743FF0A3745AF09061A0A3
:10426800747FF0900A0CE064017009D2919008768E
:1042780074718005900876746AF0120C299008749D
:10428800E054FDF0E05404601390272CE49390610F
:1042980086F0120C2F900874E054FBF0E05408608C
:1042A8001390272DE493906186F0120C2F900874D8
:1042B800E054F7F0E05410601390272EE4939061D7
:1042C80086F0120C2F900874E054EFF0E054206050
:1042D8000A120C2F900874E054DFF0A3E054016038
:1042E8000D120E6F120C35900875E054FEF074082C
:1042F80012165C8003F0A3F0D083D08202013574DB
:10430800EC12169D74F4121646851882851983AC32
:1043180082AD837583817582817404121559902743
:104328002C93F46003024494907808E0C3940250FC
:10433800030244747404121691AC82AD83758381B0
:1043480075820C740812155985188285198385821F
:10435800128583137404121691AC82AD83750EFF17
:10436800750FFF7FFF7E00750C48750D78801574FA
:10437800086E700302440774096E700302440774E0
:104388000A6E607B850C82850D8378081215168C61
:10439800828D83A909E50AC9F8881074187808126B
:1043A8001457E5104508F8C3E098A3E099850C82F6
:1043B800850D83780812151640188C828D83741821
:1043C8007808121457E5104508F8E0C398F8A3E0F8
:1043D800801C74187808121457E5104508FAE9FB90
:1043E8008C828D83E0F8A3E0F9EAC398F8EB99F999
:1043F800C3E8950EE9950F5006880E890FEEFF0E5B
:10440800E50C2404F50CE50D3400F50DEEC394130A
:10441800500302437774FF650E700474FF650F60E4
:10442800238F087402780812163374482508F58219
:1044380074783509F5837808121516851282851364
:1044480083E508F0EC24020C0CED3400FD851282A3
:10445800851383A3858212858313740C121691E544
:10446800826C7003E5836D6003024365750801750E
:10447800090078081218B07402121691AC82AD8344
:104488007ACB7B0912062F740212165C740C121672
:104498005C7F0C02176FC082C0839061AE7468F0B5
:1044A800A3746AF090624574FBF0A304F053F4FD22
:1044B80043FE02900A0C7401F09061A0E0643A9007
:1044C800619A70237433F0A37455F09061A0743A24
:1044D800F0740164017009C29190087674678028AD
:1044E80090087674618021743FF0A3745AF090614B
:1044F800A0747FF0740164017009D29190087674F9
:10450800718005900876746A0242FF7F0402176F73
:10451800C082C0839009BEE06401700A9009C3E0BC
:104528006004790C80027900024300C082C0837560
:10453800E1F19009C1E060551460081460591460F5
:10454800518059120E819009B7E0F97AB87B0912A7
:1045580010619081451215341210979081B112158F
:104568003412106D9009C2E0F91210797901121015
:10457800D39009B5E02416F8A3E03400F9888289BD
:10458800837499F0A3740EF07900024300120E8729
:1045980080B4120E8D80AF120E9380AA791280EA31
:1045A80074F412169D75D90D9009A6E0A2E0E433C3
:1045B8001313F89009B7E0C4333354C0484401F5E5
:1045C800D978B5790988828983A3A3A3E0F5D98826
:1045D800828983A3A882A983E864BB7003E964097C
:1045E80070E378A6790988828983A3E0F5D988825F
:1045F8008983A3A882A983E864AC7003E96409707D
:10460800E575E1959009A6E0F97AA77B091210678C
:10461800900E5C742DF0A3740EF0A3748FF0A37445
:104628000FF0A3748FF0A3740FF0A3748FF0A3742A
:104638000FF0A37433F0A3740EF0A3748FF0A37477
:104648000FF0A3744BF0A3740EF0900E6A748FF001
:10465800A3740FF0A3748FF0A3740FF0A3748FF0FA
:10466800A3740FF0A3748FF0A3740FF0A3748FF0EA
:10467800A3740FF0A3748FF0A3740FF09009B5E042
:10468800F8A3E0F5838882A3A37808121516908111
:104698007978081214A29081A978081214F0900968
:1046A800B5E0240EF8A3E03400F9888289837808FD
:1046B8001215259009B5E02414F8A3E03400F98810
:1046C8008289837413F09008727402F0024513C053
:1046D80082C0839009C7E02407F5D99009B7E0C4E0
:1046E800333354C0F5D978B5790988828983A3A36F
:1046F800A3E0F5D988828983A3A882A983E864BB4B
:104708007003E9640970E39009C7E0601F78B57920
:1047180009FAE82413F582E93400F583E0F5D9882D
:10472800828983A3A882A9831AEA70E69009E7E040
:104738002407F5D99009B7E0C4333354C04404F5CD
:10474800D978B5790988828983A3A3A3E0F5D988A4
:10475800828983A3A882A983E864BB7003E96409FA
:1047680070E39009E7E0601F78B57909FAE8243327
:10477800F582E93400F583E0F5D988828983A3A816
:1047880082A9831AEA70E675E195900E5C7439F097
:10479800A3740EF0A3748FF0A3740FF0A3748FF0BA
:1047A800A3740FF0A3748FF0A3740FF0A37433F005
:1047B800A3740EF0A3748FF0A3740FF0A3744BF0DE
:1047C800A3740EF0900E6A748FF0A3740FF0A374A4
:1047D8008FF0A3740FF0A3748FF0A3740FF0A37479
:1047E8008FF0A3740FF0A3748FF0A3740FF0A37469
:1047F8008FF0A3740FF09081751215349009B5E00D
:10480800240EF8A3E03400F98882898312154090B9
:1048180009B5E02414F8A3E03400F9888289837488
:1048280012F090087274010242FFC082C08390099E
:10483800C7E02407F5D99009B7E0C4333354C0441E
:1048480002F5D978B5790988828983A3A3A3E0F50D
:10485800D988828983A3A882A983E864BB7003E905
:10486800640970E39009C7E0601F78B57909FAE830
:104878002413F582E93400F583E0F5D98882898329
:10488800A3A882A9831AEA70E675E195900E5C7474
:1048980045F0A3740EF0A37445F0A3740EF0A3744E
:1048A80045F0A3740EF0A37445F0A3740EF0A3743E
:1048B80045F0A3740EF0A37445F0A3740EF0A3742E
:1048C8004BF0A3740EF0900E6A748FF0A3740FF07F
:1048D800A3748FF0A3740FF0A3748FF0A3740FF078
:1048E800A3748FF0A3740FF0A3748FF0A3740FF068
:1048F800A3748FF0A3740FF090817512153490098A
:10490800B5E0240EF8A3E03400F9888289831215F3
:10491800409009B5E02414F8A3E03400F9888289AE
:10492800837414F090087274040242FFC082C0833A
:104938009009C7E02407F5D99009B7E0C433335488
:10494800C04406F5D978B5790988828983A3A3A3D9
:10495800E0F5D988828983A3A882A983E864BB701B
:1049680003E9640970E39009C7E0601F78B5790925
:10497800FAE82413F582E93400F583E0F5D9888252
:104988008983A3A882A9831AEA70E69009E7E0243C
:1049980007F5D99009B7E0C4333354C04404F5D9B6
:1049A80078B5790988828983A3A3A3E0F5D9888299
:1049B8008983A3A882A983E864BB7003E9640970AA
:1049C800E39009E7E0601F78B57909FAE82433F540
:1049D80082E93400F583E0F5D988828983A3A88227
:1049E800A9831AEA70E675E195900E5C743FF0A30E
:1049F800740EF0A3748FF0A3740FF0A3748FF0A358
:104A0800740FF0A3748FF0A3740FF0A3748FF0A346
:104A1800740FF0A3748FF0A3740FF0A3744BF0A37A
:104A2800740EF0900E6A748FF0A3740FF0A3748F55
:104A3800F0A3740FF0A3748FF0A3740FF0A3748F16
:104A4800F0A3740FF0A3748FF0A3740FF0A3748F06
:104A5800F0A3740FF09081751215349009B5E02415
:104A68000EF8A3E03400F988828983121540900972
:104A7800B5E02414F8A3E03400F98882898374151A
:104A8800F090087274030242FFC082C0839009B597
:104A9800E0F8A3E0F5838882A3A3A3A3A3A3E40279
:104AA80042FD74F712169D9008A0E0F875F004A472
:104AB800C8AAF02AF974A228F8740839F9E8240574
:104AC800FAE93400FB8A828B83E0FCA3E0FD88824C
:104AD8008983A3A3A3A3A3A3A3A3A3ECF0A3EDF0AB
:104AE80088828983A3A3A3A3A3A3A3E024FFF8A395
:104AF800E034FFF98A828B83E8F0A3E9024D4F7412
:104B0800F712169DEAFEEBFF9061D0E06003024BBE
:104B1800E475D90E75D90375D904EE248CF582EFA6
:104B28003400F583E5822408F8E5833400F9E0F5DC
:104B3800D9A3E865827003E9658370F2EE2484F5F1
:104B480082EF3400F583E5822404F8E5833400F924
:104B5800E0F5D9A3E865827003E9658370F275E131
:104B6800957908EE248CFAEF3400FB120F3B790498
:104B7800EE2484FAEF3400FB120F3B7C00EEF8EFD2
:104B8800F9ECFAC3E49AFA95E0FBEE2AFAEF3BFB5C
:104B9800EA248BF582EB3400F583E0C0E0E824AB2F
:104BA800F582E93400F583D0E0F00C88828983A38C
:104BB800A882A983ECC3940840C7EE2470F582EF5D
:104BC8003400F583E0F8A3E0F9EE2472F582EF34BF
:104BD80000F583E8F0A3E9F0790180027900024D3D
:104BE80050C082C08375D90275D90375D90575E19E
:104BF80095EA2470F582EB3400F583E0F8A3E0F938
:104C0800EA2472F582EB3400F583E8F0A3E9F07941
:104C18000102430074F612169DEAFEEBFF900A109B
:104C28007406F075081075090A78081218B07C0126
:104C38007903120F83740212165C75D90675D903AD
:104C480075821075830AE0F5D9A3E58264157004AE
:104C5800E583640A70F075E195900872E064087065
:104C68001EEE2470F582EF3400F583E0F8A3E0F936
:104C7800EE2472F582EF3400F583E8F0A3E9F079C9
:104C880001024E1C74F612169DEAFEEBFF9061D0ED
:104C9800E070667801900A10740BF0900872E06476
:104CA80007701975081075090A78081218B07C0180
:104CB8007903120F83740212165C7805740128F5C3
:104CC800D975D90375821075830AE8FAE0F5D9A376
:104CD8001AEA70F875E195EE2470F582EF3400F564
:104CE80083E0F8A3E0F9EE2472F582EF3400F5834F
:104CF800E8F0A3E9F0790180027900024E1C74F70C
:104D080012169DEAFEEBFF75D90375D90375D90D07
:104D1800EE24DEF582EF3400F583E0F5D975E195F0
:104D2800790412109DEE2470F582EF3400F583E0CB
:104D3800F8A3E0F9EE2472F582EF3400F583E8F089
:104D4800A3E9F079018001F07F0102176F74F61270
:104D5800169DEAFEEBFF9061D0E0F87480C398FAE4
:104D6800EE2483F582EF3400F583E0600478048054
:104D7800027800E8240BF8EAC3985003024E1A7D23
:104D880009900A10EDF0EE24E3F8EF3400F97A11F7
:104D98007B0A7C0888828983E08A828B83F08882F8
:104DA8008983A3A882A9838A828B83A3AA82AB83DF
:104DB8001CEC70E0EE2483F582EF3400F583E060AC
:104DC8001D75081075090A78081218B07C0979034E
:104DD800EEFAEFFB120F83740212165C7D0D74015C
:104DE8002DF5D975D90375821075830A8D08E0F5FC
:104DF800D9A31508E50870F675E195790412109D98
:104E0800EE241DF582EF3400F583E4F0A3F0790178
:104E1800800279007F0202176F74F612169DEAFE6F
:104E2800EBFF9061D0E0F87480C398FAEE2483F524
:104E380082EF3400F583E06004780480027800E8AB
:104E48002408F8EAC3985003024F217D06900A10FF
:104E5800740CF090088FE0900A11F07A907B087833
:104E680012790A7C028A828B83E088828983F08A9D
:104E7800828B83A3AA82AB8388828983A3A882A911
:104E8800831CEC70E07A927B087C028A828B83E038
:104E980088828983F08A828B83A3AA82AB838882E3
:104EA8008983A3A882A9831CEC70E0EE2483F58291
:104EB800EF3400F583E0601D75081075090A78085D
:104EC8001218B07C067903EEFAEFFB120F83740216
:104ED80012165C7D0A74012DF5D975D903758210F7
:104EE80075830A8D08E0F5D9A31508E50870F675ED
:104EF800E195790412109DEE2470F582EF3400F5E7
:104F080083E0F8A3E0F9EE2472F582EF3400F5832C
:104F1800E8F0A3E9F0790180027900024E1C74F6EA
:104F280012169DEAFEEBFF9061D0E0F87480C398FA
:104F3800FAEE2483F582EF3400F583E06004780408
:104F480080027800E82404F8EAC39850030250006D
:104F58007802900A10E8F0EE24F5F582EF3400F5B7
:104F680083E0900A11F0EE2483F582EF3400F58394
:104F7800E0601B75081075090A78081218B07C02E1
:104F88007903EEFA120F83740212165C7806740124
:104F980028F5D975D90375821075830A8808E0F554
:104FA800D9A31508E50870F675E195EE2474F58225
:104FB800EF3400F583E4F0EE2480F582EF3400F559
:104FC80083E4F0EE241DF582EF3400F583E4F0A3CA
:104FD800F0790412109DEE240DF582EF3400F5836C
:104FE800E0F8A3E0F9EE2472F582EF3400F583E8E7
:104FF800F0A3E9F0790180027900024E1C74F612E0
:10500800169D9061D0E0F87480C398FCEA2483F57B
:1050180082EB3400F583E06004780480027800E8CD
:105028002404F8ECC398405B7902900A107407F0E6
:10503800EA24F6F582EB3400F583E0900A11F0EAF1
:105048002483F582EB3400F583E060187508107549
:10505800090A78081218B07C0209120F8374021228
:10506800165C7906740129F5D975D903758210750E
:10507800830AE9F8E0F5D9A318E870F875E195799D
:105088000180027900024E1C74F512169DE9FCA2FB
:10509800AFE433F50AC2AF7D0080010DEA246FF555
:1050A80082EB3400F583E0F8EDC398501A8D08EAD6
:1050B8002508F8EB3400F9E8246BF582E93400F5AB
:1050C80083E06C70D68024EA246FF8EB3400F9E0B2
:1050D800FEEA2EFAEB3400FBEA246BF582EB34008F
:1050E800F583ECF088828983E004F0E50AA2E09277
:1050F800AF7F0302176F74F612169DA2AFE433FD5B
:10510800C2AFEA246FF582EB3400F583E014F07C3B
:105118000060368C08EA2508F8EB3400F9E8246CBE
:10512800F582E93400F583E0C0E0E8246BF582E914
:105138003400F583D0E0F00CEA246FF582EB3400FC
:10514800F583E0F8ECC39840CAEA246EF582EB34A4
:1051580000F58374FFF0EA246AF582EB3400F583E6
:10516800E4F0EDA2E092AF024E1CC082C083E5A835
:10517800F8C2AFEA246BF582EB3400F583E9F0EA74
:10518800246AF582EB3400F583E4F0E8A2E792AFF5
:1051980002430074F312169DEAFEEBFFECFAEDFBF6
:1051A8008A828B83A3A3A3A3E0541FF0EE2436F5D1
:1051B80082EF3400F583E4F0F50AEEFCEFFD8A8215
:1051C8008B83E0C0E0EC245DF582ED3400F583D0FC
:1051D800E0F0750B00E50A33333354F8F50C8A8296
:1051E8008B83E0F508750900E50B7808121614E5BD
:1051F80008A2E0502FEE2436F8EF3400F9888289AF
:1052080083E0F508EE2508F508EF3400F509E50810
:105218002438F582E5093400F583E50CF0888289A5
:1052280083E004F0050B050CE50BC3940840AF05BB
:105238000A8A828B83A3AA82AB838C828D83A3ACD8
:1052480082AD83E50AC3940550030251C67F050267
:10525800176F74F712169D90089EE0640170077A24
:10526800007B000253D17E009008A4E070F1740125
:10527800F0A3E4F0A3F090090404F0900907E4F027
:10528800A3F090090A04F09008A7E4F0A3F0A3F0B3
:10529800A3F09008B104F09008D7E4F09081C91207
:1052A80015349008BA1215409008BEE4F0A3F0A394
:1052B800F0900922F0900916F090090B7480F0A381
:1052C800E4F0900911F0900909F090098DF0A3F02D
:1052D800A3F0A3F0A3F0A3F0A3F0A3F0900996F035
:1052E800900925F0900975F0A3F09081C912153442
:1052F8009009771215409081C912153490097B12D4
:105308001540900981E4F0900983F090097FF090AE
:105318000999F0A3F0A3F0A3F0A3F0A3F0A3F0A3DE
:10532800F0789E7908E8246FF582E93400F58374F3
:10533800FFF00E88828983A3A882A983EEC3940410
:1053480040E37A9E7B0878AD790988828983E0C03A
:10535800E0EA2461F582EB3400F583D0E0F088823E
:105368008983A3A882A9838A828B83A3AA82AB8319
:10537800E864B27003E9640970D07A9E7B08788586
:10538800790888828983A3E0C0E0EA24E7F582EB04
:105398003400F583D0E0F088828983A3A882A983AA
:1053A8008A828B83A3AA82AB83E8648D7003E96445
:1053B8000870CF90089EE004F0640170089008A679
:1053C800E09008A0F07AA27B08024D50C082C0830A
:1053D8009008A5E4F09008A4F090089EF0A3F0A32C
:1053E80074FFF075E1F1024300C082C08378007950
:1053F800009008A5E0600478A2790888828983A3D0
:10540800A3A3A3E0F902430074F612169DEAFEEB8B
:10541800FF8E828F83A3A3A3E0600F8E828F83A366
:10542800A3A3E4F090089FE014F090089EE014F025
:1054380070069008A074FFF08E828F83A3A3E4F017
:105448009009B2E0700D90089FE064017005790042
:1054580012107FEE2465F582EF3400F583E0F8A39F
:10546800E0F9E8496029EE2465F8EF3400F9880886
:1054780089098882F583E0FCA3E0FD9008A0E0FAA2
:105488007B00120C59850882850983E4F0A3F0EEAD
:10549800FAEFFB120FB3024E1C74F712169DEAFEC8
:1054A800EBFF8E828F83A3A3A3A3E0FA7B00120CE9
:1054B8009BEEFAEFFB120F05120F9B024D50C082B4
:1054C800C0837885790888828983A3E4F0888289F3
:1054D80083A3A882A983E8648D7003E9640870E651
:1054E80090088602482D74F612169DEAFEEBFFEC32
:1054F8002403F8ED3400F988088909EC2407F8ED4D
:105508003400F9E8FCE9FD8C828D83E0F8A3E0F92A
:10551800850882850983E0FAA3E0FB1215BBEE2417
:105528000DF582EF3400F583E8F0A3E9F08C828D65
:1055380083E0F8A3E0F9850882850983E0FAA3E00F
:10554800FB1215BB8B09EA45096013EE240DF582A1
:10555800EF3400F583E02401F0A3E03400F0024EBC
:105568001C74F612169DEAFEEBFFEE242EF582EF70
:105578003400F583E0FCA3E0FD780079FAECFAED5D
:10558800FB1215BBEE2470F582EF3400F583E8F0CA
:10559800A3E9F0780079FAECFAEDFB1215BB8B0958
:1055A800EA45096013EE2470F582EF3400F583E0D4
:1055B8002401F0A3E03400F0024E1C74F012169D92
:1055C800EAFEEBFF741012169178081215161210E5
:1055D8003D8A0C8B0D8C0E8D0F908141780C121426
:1055E800A29081A9780C1214F0780C1218AC8E8253
:1055F8008F83E0F8A3E0F5838882A3A31215341201
:1056080024BE740412165CE960030257108E828F60
:1056180083E02402F8A3E03400F9E8FAE9FB8A827F
:105628008B8378081214B59081A978081215168A08
:10563800828B837808121503EE240BF582EF340071
:10564800F583C082C0838E828F83A3A3A3A3A3E024
:105658002401F8A3E03400F9D083D082E068700315
:10566800A3E069700579010257128E828F83A3A384
:10567800A3A3A3A3A3E02401F0A3E03400F0EE2445
:1056880074F582EF3400F583E064017036EE24751A
:10569800F582EF3400F583E0F8A3E0F98E828F837A
:1056A800A3A3A3A3A3A3A3E0687003A3E069701353
:1056B800EE2475F582EF3400F583E02401F0A3E0D1
:1056C8003400F0EE2480F582EF3400F583E06401C5
:1056D8007036EE2481F582EF3400F583E0F8A3E01C
:1056E800F98E828F83A3A3A3A3A3A3A3E068700367
:1056F800A3E0697013EE2481F582EF3400F583E0AE
:105708002401F0A3E03400F079007F0802176F74D9
:10571800F712169D9008A0E0F875F004A4C8AAF046
:105728002AF974A228FE740839FF8028EE2465F847
:10573800EF3400F988828983E0FCA3E0FD88828940
:1057480083E4F0A3F08E828F83A3A3A3A3E0FA7B64
:1057580000120C59EE2465F582EF3400F583E0F869
:10576800A3E0F9E849604FEE2464F582EF3400F5D0
:1057780083E0F50878081218B4EE2463F582EF3454
:1057880000F583E0F9EE2465F582EF3400F583E057
:10579800FCA3E0FDEEFAEFFB120F2F740112165C6A
:1057A800E96089EE2465F582EF3400F583E0F8A31B
:1057B800E0F9E84970137C007D008E828F83A3A3F3
:1057C800A3A3E0FA7B00120C59024D5074F2121692
:1057D8009DEAFEEBFF890A740E121691E0FAEE2498
:1057E80062F582EF3400F583E0640160030258A09B
:1057F8009061D0E0F87480C398F50CEE2483F582AC
:10580800EF3400F583E060047804800278008908AA
:10581800E928F8E43400F9E824020808E93400F932
:10582800E50C98E499A2D265D0334068EA70057512
:105838000B028003750B01E06039750900780812C6
:1058480018B07A107B0A120F65740212165C75087C
:105858001075090A78081218B0AC0AA90BEEFAEF0D
:10586800FB120F83740212165C7404250AF50A7C75
:10587800107D0A7401250AF5D9850BD9E50A600D52
:105888008C828D83F8E0F5D9A318E870F875E19556
:10589800790080067907800279FF7F0602176FC0BA
:1058A80082C083E960208C828D83E08A828B83F0BA
:1058B8008C828D83A3AC82AD838A828B83A3AA82D8
:1058C800AB8319E970E0ECFAEDFB02430074EA12CD
:1058D800169D907803E06442705E900A0FE014F021
:1058E8007056C2AF1258EF00782AD0E0F618D0E010
:1058F800F6E59F5407F9700590813980039081354A
:105908007808121516E9C4C0E07829E65508F508A4
:1059180008E65509F509740B7808121624D0E02515
:1059280008F8906270E0A2E740F8E8C3339062722A
:10593800F0906270E0D2E0F09008A0E0F47003020A
:105948005CF8E0F875F004A4C8AAF02AF974A22853
:10595800FE740839FFEE2402F582EF3401F583E086
:10596800F8A3E0F9E849601EEE2402F582EF34015D
:10597800F583E0FAA3E0FBEE2401F582EF3401F5AC
:1059880083E0F912043D8E828F83A3A3A3A3A3A36C
:10599800A3E0F8A3E0F98E828F83A3A3A3A3A3E8CF
:1059A800F0A3E9F0906054E0900879F0906055E039
:1059B80090087AF0906056E090087BF0906057E08D
:1059C80090087CF0906058E090087DF0906059E075
:1059D80090087EF090605AE090087FF090605BE05D
:1059E800900880F090605CE0FC900881F090605D29
:1059F800E0FB900882F090605EE0FD900883F090F4
:105A0800605FE0FA900884F090087FE08C08250831
:105A1800F8E43400F98D08E82508F8E93400F98B32
:105A280008E82508F8E93400F98A08E82508FAE9B9
:105A38003400FBEE24F7F582EF3400F583E02AF01A
:105A4800A3E03BF08C08EE24F9F582EF3400F583EF
:105A5800E02508F0A3E03400F0EE24FBF582EF34F3
:105A680000F583E02401F0A3E03400F0EE24FFF514
:105A780082EF3400F583E0F8A3E0F9E8496042904A
:105A88006000E0C333FCE433FDE82CF582E93DF522
:105A980083E02AF0A3E03BF0906000E0FA900881F0
:105AA800E0FCEAC333FAE433FBE82AF8E93BF9E817
:105AB800244AF582E93400F583E02CF0A3E03400B1
:105AC800F090087FE07011900882E0700BA3E070FE
:105AD80007A3E07003025BD88E828F83A3A3A3A3DE
:105AE800A3E0F8A3E0F9EE240DF582EF3400F58386
:105AF800E028F8A3E039F9EE240BF582EF3400F53D
:105B080083E8F0A3E9F0EE240FF582EF3400F58383
