:020000040000FA
:10000000020672C2AFF508610AFFFFC2AFF50861D0
:100010001CFFFFC2AFF508612EFFFFC2AFF50861FC
:1000200040FFFFC2AFF5086152FFFFC2AFF50861A4
:1000300064FFFFC2AFF5086176FFFFC2AFF508614C
:1000400088FFFFC2AFF508619AFFFFC2AFF50861F4
:10005000ACFFFFC2AFF50861BEFFFFC2AFF508619C
:10006000D0FFFFC2AFF50861E2FFFFC2AFF5086144
:10007000F4FFFFC2AFF5088106FFFFC2AFF50881AC
:1000800018FFFFC2AFF508812AFFFFC2AFF5088154
:100090003CFFFFFF758701002274F412053F890AB7
:1000A000750C00750D08780C1206437C807D017A72
:1000B000007B001204527402120600850A0E9001A1
:1000C00086E0F50CA3E0F50D7409780C120654E5F2
:1000D0000CF50B9001867409780C120630E0C3F51C
:1000E0000CA3E0950DF50D7402780C120630AE0CE1
:1000F000AF0DE50E250BF50B7401650E7006743E11
:10010000250BF50B53B4F375BC0075BC008042742D
:100110008028F582740139F583E0F5BDE8240108F3
:10012000E93400F9C39408402C050A7408650A7084
:1001300003750A46750C00750D08780C1206437C91
:10014000807D017A007B00A90A1204527402120613
:100150000078007900E50E650A700AE849700678B3
:1001600003790080B7E50B650A70A4EE687002EFB2
:1001700069709CE5BDF9E5BCFAE9FB7F050205A5C0
:1001800074F612053F890CEAFEEBFF53BEFBE59DBA
:10019000A2E650FAE5C654804449F5C6E59E547F70
:1001A000644970F853C67FE59EA2E740FA53C680C3
:1001B000E59E547F70FA43BE049062707408F07438
:1001C00009F5D575D4801200998E828F83E0F8A34B
:1001D000E0F9EA687002EB6970428E828F83A3A314
:1001E000E8F0A3E9F08E828F8374FFF0A3F0750A24
:1001F00001750B00780A120643EEFCEFFD850C0A30
:100200007409780A120630FAAB0B1204D974021280
:100210000600C2AF75C9AB75C95B80FE7F030205DE
:10022000A574FC12061A750A04750B00780A1206EA
:1002300043740212068EAC82AD837A007B0079088B
:100240001204527402120600851A82E0F47003A3AD
:10025000E0F4602D851A82851B83E0F8A3E0F9E8BD
:1002600049601E740212068EE0687003A3E0697094
:1002700010750901024030C2AF75C9AB75C95B800A
:10028000FE780A120643740212068EAC82AD837A9F
:10029000007B0079011204527402120600851A8252
:1002A000E0F47003A3E0F46051851A82851B83E0BB
:1002B000F8A3E0F9E8496042740212068EE0F8A360
:1002C000E0F9851A82851B83E0687003A3E06970FA
:1002D00010750900020830C2AF75C9AB75C95B80E3
:1002E000FE74FF68700374FF69700F851A82851BA6
:1002F00083AA82AB83790112018043BE031200946A
:10030000C2AF75C9AB75C95B80FEE5096007E5083A
:10031000D2AF024033E508D2AF020833E5096007E7
:10032000E508D2AF02403BE508D2AF02083BE50941
:100330006007E508D2AF024043E508D2AF020843A8
:10034000E5096007E508D2AF02404BE508D2AF02ED
:10035000084BE5096007E508D2AF024053E508D233
:10036000AF020853E5096007E508D2AF02405BE53C
:1003700008D2AF02085BE5096007E508D2AF02408A
:1003800063E508D2AF020863E5096007E508D2AF6C
:1003900002406BE508D2AF02086BE5096007E5088B
:1003A000D2AF024073E508D2AF020873E5096007D7
:1003B000E508D2AF02407BE508D2AF02087BE50931
:1003C0006007E508D2AF024083E508D2AF02088398
:1003D000E5096007E508D2AF02408BE508D2AF021D
:1003E000088BE5096007E508D2AF024093E508D223
:1003F000AF020893E5096007E508D2AF02409BE52C
:1004000008D2AF02089BE5096007E508D2AF0240B9
:10041000A3E508D2AF0208A3E5096007E508D2AF5B
:100420000240ABE508D2AF0208ABE5096007E5087A
:10043000D2AF0240B3E508D2AF0208B3E5096007C6
:10044000E508D2AF0240BBE508D2AF0208BB00020C
:10045000044E74F512053F890A740F550AF50C75A0
:100460000D00740B780C120630EA2400F8EB34808F
:10047000F9E82400E9350DF9E5C7F50BA2AFE4333F
:10048000F50CC2AFE50AC4540FFAE5C754F84AF5B3
:10049000C7740B12068EE0FEA3E0FFEE4F602CEE59
:1004A000FAEFFB88828983E08C828D83F0888289D1
:1004B00083A3A882A9838C828D83A3AC82AD83EAB7
:1004C00024FF1AEB34FFFBEA4B70D8850BC7E50C11
:1004D000A2E092AF7F040205A574F712053FED90EC
:1004E0000980F0ECA3F0A37462F0A37473F0A3E0AE
:1004F000541FF0740912068EE0F50AA3E0F50BE52F
:100500000A333354FC900985F07406780A120654B5
:10051000E50A900984F09009867412F0A37442F001
:1005200053D1FE75D601EA906271F0EBA3F09062B0
:1005300070E0D2E1F0E0A2E740FB7F020205A525D2
:100540001AC582C0E0E51B34FFC583C0E0E51AC3CD
:10055000958224F910AF0885831B85821A8008854F
:10056000831B85821AD2AFCEF0A3E520F0A3780AD0
:10057000E608F0A3DEFAEFF0A3E58124FBF8E60835
:10058000F0A3E608F0A30808E608F0A3E608F0A345
:1005900015811581D0E0FED0E0F815811581E8C005
:1005A000E0EEC0E022851B83851A82E0A3FEE0A373
:1005B000F520780AE0A3F608DFFAE0A3FFE0A3C085
:1005C000E0E0A3C0E0E0A3C0E0E0A3C0E010AF081B
:1005D00085821A85831B800885821A85831BD2AF8A
:1005E000D083D08222251AF58210AF08F51A400276
:1005F000151B8008F51A4002151BD2AF851B8322FC
:10060000C0D0251A10AF08F51A5002051B8008F556
:100610001A5002051BD2AFD0D022251A10AF08F510
:100620001A4002151B8008F51A4002151BD2AF2292
:10063000700422600D18C6C333C608C633C6D5E0A1
:10064000F4182274028000C0E0F4041205E5D0E042
:1006500012068122600C08C6C313C618C613C6D57D
:10066000E0F42212069DB9000302066C1202211268
:10067000069875D00075813F751A80751B010206BA
:1006800063CAC0E0E6F0A308DAFAD0E0FA22251A3D
:10069000F582E4351BF5832200000080FB790122FE
:1006A000FFFFFFFFFFFFFFFFFFFFFFFFFFFFFFFF5A
:1006B000FFFFFFFFFFFFFFFFFFFFFFFFFFFFFFFF4A
:1006C000FFFFFFFFFFFFFFFFFFFFFFFFFFFFFFFF3A
:1006D000FFFFFFFFFFFFFFFFFFFFFFFFFFFFFFFF2A
:1006E000FFFFFFFFFFFFFFFFFFFFFFFFFFFFFFFF1A
:1006F000FFFFFFFFFFFFFFFFFFFFFFFFFFFFFFFF0A
:10070000FFFFFFFFFFFFFFFFFFFFFFFFFFFFFFFFF9
:10071000FFFFFFFFFFFFFFFFFFFFFFFFFFFFFFFFE9
:10072000FFFFFFFFFFFFFFFFFFFFFFFFFFFFFFFFD9
:10073000FFFFFFFFFFFFFFFFFFFFFFFFFFFFFFFFC9
:10074000FFFFFFFFFFFFFFFFFFFFFFFFFFFFFFFFB9
:10075000FFFFFFFFFFFFFFFFFFFFFFFFFFFFFFFFA9
:10076000FFFFFFFFFFFFFFFFFFFFFFFFFFFFFFFF99
:10077000FFFFFFFFFFFFFFFFFFFFFFFFFFFFFFFF89
:10078000FFFFFFFFFFFFFFFFFFFFFFFFFFFFFFFF79
:10079000FFFFFFFFFFFFFFFFFFFFFFFFFFFFFFFF69
:1007A000FFFFFFFFFFFFFFFFFFFFFFFFFFFFFFFF59
:1007B000FFFFFFFFFFFFFFFFFFFFFFFFFFFFFFFF49
:1007C000FFFFFFFFFFFFFFFFFFFFFFFFFFFFFFFF39
:1007D000FFFFFFFFFFFFFFFFFFFFFFFFFFFFFFFF29
:1007E000FFFFFFFFFFFFFFFFFFFFFFFFFFFFFFFF19
:1007F000FFFFFFFFFFFFFFFFFFFFFFFFFFFFFFFF09
:04000005000006727F
:00000001FF
